{
    "ABAcalls1" : {
        "_info" : {
            "comment" : "",
            "filling-rpc-server" : "evm version 1.11.0-unstable-e04d63eb-20230113",
            "filling-tool-version" : "retesteth-0.2.3-postmerge+commit.801c0d4c.Linux.g++",
            "generatedTestHash" : "1b43be5a0685d14ef551b3d6a985fb7a1c42b35de4629fb9b6c82959200a4020",
            "lllcversion" : "Version: 0.5.14-develop.2021.4.29+commit.14c9d5de.Linux.clang",
            "solidity" : "Version: 0.8.17-develop.2022.9.30+commit.8df45f5f.Linux.clang",
            "source" : "src/GeneralStateTestsFiller/stSystemOperationsTest/ABAcalls1Filler.json",
            "sourceHash" : "8fa9f9e676dd4328a38a6f4f6b73857a691c7c6e7abd6e955552f490cdceb820"
        },
        "env" : {
            "currentBaseFee" : "0x0a",
            "currentCoinbase" : "0x2adc25665018aa1fe0e6bc666dac8fc2697ff9ba",
            "currentDifficulty" : "0x020000",
            "currentGasLimit" : "0x02540be400",
            "currentNumber" : "0x01",
            "currentRandom" : "0x0000000000000000000000000000000000000000000000000000000000020000",
            "currentTimestamp" : "0x03e8",
            "previousHash" : "0x5e20a0453cecd065ea59c37ac63e079ee08998b6045136a8ce6635c7912ec0b6"
        },
        "post" : {
            "Berlin" : [
                {
                    "hash" : "0xda22de82f0fcdda5e890ee7fd095217f85d44d537dc565a6291457c2e7551343",
                    "indexes" : {
                        "data" : 0,
                        "gas" : 0,
                        "value" : 0
                    },
                    "logs" : "0x1dcc4de8dec75d7aab85b567b6ccd41ad312451b948a7413f0a142fd40d49347",
                    "txbytes" : "0xf864800a8401ba814094095e7baea6a6c7c4c2dfeb977efac326af552d87830186a0801ca045290492190ac3f5aae05372e9fa01961db4bb2e501247e022e8988b2b11d76ea07ab74926085f718b1fa46746680867b54cef512f286726057463b3849462c918"
                }
            ],
            "Istanbul" : [
                {
                    "hash" : "0xdc41cb1a67dab1fa05568da7f1e1bfb4db072ec8262fa6a4e526260f31c8984c",
                    "indexes" : {
                        "data" : 0,
                        "gas" : 0,
                        "value" : 0
                    },
                    "logs" : "0x1dcc4de8dec75d7aab85b567b6ccd41ad312451b948a7413f0a142fd40d49347",
                    "txbytes" : "0xf864800a8401ba814094095e7baea6a6c7c4c2dfeb977efac326af552d87830186a0801ca045290492190ac3f5aae05372e9fa01961db4bb2e501247e022e8988b2b11d76ea07ab74926085f718b1fa46746680867b54cef512f286726057463b3849462c918"
                }
            ],
            "London" : [
                {
                    "hash" : "0xa38db7e65cfbd651ae250c2946dc635421eb733724e29514b087b2875e909e91",
                    "indexes" : {
                        "data" : 0,
                        "gas" : 0,
                        "value" : 0
                    },
                    "logs" : "0x1dcc4de8dec75d7aab85b567b6ccd41ad312451b948a7413f0a142fd40d49347",
                    "txbytes" : "0xf864800a8401ba814094095e7baea6a6c7c4c2dfeb977efac326af552d87830186a0801ca045290492190ac3f5aae05372e9fa01961db4bb2e501247e022e8988b2b11d76ea07ab74926085f718b1fa46746680867b54cef512f286726057463b3849462c918"
                }
            ],
            "Merge" : [
                {
                    "hash" : "0xa38db7e65cfbd651ae250c2946dc635421eb733724e29514b087b2875e909e91",
                    "indexes" : {
                        "data" : 0,
                        "gas" : 0,
                        "value" : 0
                    },
                    "logs" : "0x1dcc4de8dec75d7aab85b567b6ccd41ad312451b948a7413f0a142fd40d49347",
                    "txbytes" : "0xf864800a8401ba814094095e7baea6a6c7c4c2dfeb977efac326af552d87830186a0801ca045290492190ac3f5aae05372e9fa01961db4bb2e501247e022e8988b2b11d76ea07ab74926085f718b1fa46746680867b54cef512f286726057463b3849462c918"
                }
            ],
            "Shanghai" : [
                {
                    "hash" : "0xa38db7e65cfbd651ae250c2946dc635421eb733724e29514b087b2875e909e91",
                    "indexes" : {
                        "data" : 0,
                        "gas" : 0,
                        "value" : 0
                    },
                    "logs" : "0x1dcc4de8dec75d7aab85b567b6ccd41ad312451b948a7413f0a142fd40d49347",
                    "txbytes" : "0xf864800a8401ba814094095e7baea6a6c7c4c2dfeb977efac326af552d87830186a0801ca045290492190ac3f5aae05372e9fa01961db4bb2e501247e022e8988b2b11d76ea07ab74926085f718b1fa46746680867b54cef512f286726057463b3849462c918"
                }
            ]
        },
        "pre" : {
            "0x095e7baea6a6c7c4c2dfeb977efac326af552d87" : {
                "balance" : "0x0de0b6b3a7640000",
                "code" : "0x6000600060006000601873945304eb96065b2a98b57a48a06ae28d285a71b5620186a05a03f1585500",
                "nonce" : "0x00",
                "storage" : {
                }
            },
            "0x945304eb96065b2a98b57a48a06ae28d285a71b5" : {
                "balance" : "0x17",
                "code" : "0x6000600060006000601773095e7baea6a6c7c4c2dfeb977efac326af552d87620186a05a03f1600101585500",
                "nonce" : "0x00",
                "storage" : {
                }
            },
            "0xa94f5374fce5edbc8e2a8697c15331677e6ebf0b" : {
                "balance" : "0x0de0b6b3a7640000",
                "code" : "0x",
                "nonce" : "0x00",
                "storage" : {
                }
            }
        },
        "transaction" : {
            "data" : [
                "0x"
            ],
            "gasLimit" : [
                "0x01ba8140"
            ],
            "gasPrice" : "0x0a",
            "nonce" : "0x00",
            "secretKey" : "0x45a915e4d060149eb4365960e6a7a45f334393093061116b197e3240065ff2d8",
            "sender" : "0xa94f5374fce5edbc8e2a8697c15331677e6ebf0b",
            "to" : "0x095e7baea6a6c7c4c2dfeb977efac326af552d87",
            "value" : [
                "0x0186a0"
            ]
        }
    }
}