{
    "CallRecursiveBombLog2" : {
        "_info" : {
            "comment" : "",
            "filling-rpc-server" : "evm version 1.11.0-unstable-e04d63eb-20230113",
            "filling-tool-version" : "retesteth-0.2.3-postmerge+commit.801c0d4c.Linux.g++",
            "generatedTestHash" : "befd8b8663378260ecdcd5dc46c96a5e9f9ae2a8e091fb118958de5561f65501",
            "lllcversion" : "Version: 0.5.14-develop.2021.4.29+commit.14c9d5de.Linux.clang",
            "solidity" : "Version: 0.8.17-develop.2022.9.30+commit.8df45f5f.Linux.clang",
            "source" : "src/GeneralStateTestsFiller/stSystemOperationsTest/CallRecursiveBombLog2Filler.json",
            "sourceHash" : "197bfc8c7fd566717c7e22c34f30c4b72494a33c4754dc7487973c356ed44cd6"
        },
        "env" : {
            "currentBaseFee" : "0x0a",
            "currentCoinbase" : "0x2adc25665018aa1fe0e6bc666dac8fc2697ff9ba",
            "currentDifficulty" : "0x020000",
            "currentGasLimit" : "0x028fa6ae00",
            "currentNumber" : "0x01",
            "currentRandom" : "0x0000000000000000000000000000000000000000000000000000000000020000",
            "currentTimestamp" : "0x03e8",
            "previousHash" : "0x5e20a0453cecd065ea59c37ac63e079ee08998b6045136a8ce6635c7912ec0b6"
        },
        "post" : {
            "Berlin" : [
                {
                    "hash" : "0x4d7aa6fbb03de50e083be7cdc7edaca2b6125554f90d32ba5b7d321b95f4d322",
                    "indexes" : {
                        "data" : 0,
                        "gas" : 0,
                        "value" : 0
                    },
                    "logs" : "0xf0e4ad7825821c76c0d4b06e0a5e1dc2ef92942d224b16b0bf3ef7b357ded17a",
                    "txbytes" : "0xf864800a8401ba814094095e7baea6a6c7c4c2dfeb977efac326af552d87830186a0801ca045290492190ac3f5aae05372e9fa01961db4bb2e501247e022e8988b2b11d76ea07ab74926085f718b1fa46746680867b54cef512f286726057463b3849462c918"
                }
            ],
            "Istanbul" : [
                {
                    "hash" : "0x5742d02fcf8be23c90316d17dca1c52a828231bd3c63522c7526561835e6d667",
                    "indexes" : {
                        "data" : 0,
                        "gas" : 0,
                        "value" : 0
                    },
                    "logs" : "0x38a8ac3e3f19941d592c406e75606837bce5b69f8f2d6c8dd2610e8e077dd3f5",
                    "txbytes" : "0xf864800a8401ba814094095e7baea6a6c7c4c2dfeb977efac326af552d87830186a0801ca045290492190ac3f5aae05372e9fa01961db4bb2e501247e022e8988b2b11d76ea07ab74926085f718b1fa46746680867b54cef512f286726057463b3849462c918"
                }
            ],
            "London" : [
                {
                    "hash" : "0xea1f82a8628f413785e5170582ca3d760e6c04d443b8f16b52a776e03db5cb4e",
                    "indexes" : {
                        "data" : 0,
                        "gas" : 0,
                        "value" : 0
                    },
                    "logs" : "0xf0e4ad7825821c76c0d4b06e0a5e1dc2ef92942d224b16b0bf3ef7b357ded17a",
                    "txbytes" : "0xf864800a8401ba814094095e7baea6a6c7c4c2dfeb977efac326af552d87830186a0801ca045290492190ac3f5aae05372e9fa01961db4bb2e501247e022e8988b2b11d76ea07ab74926085f718b1fa46746680867b54cef512f286726057463b3849462c918"
                }
            ],
            "Merge" : [
                {
                    "hash" : "0xea1f82a8628f413785e5170582ca3d760e6c04d443b8f16b52a776e03db5cb4e",
                    "indexes" : {
                        "data" : 0,
                        "gas" : 0,
                        "value" : 0
                    },
                    "logs" : "0xf0e4ad7825821c76c0d4b06e0a5e1dc2ef92942d224b16b0bf3ef7b357ded17a",
                    "txbytes" : "0xf864800a8401ba814094095e7baea6a6c7c4c2dfeb977efac326af552d87830186a0801ca045290492190ac3f5aae05372e9fa01961db4bb2e501247e022e8988b2b11d76ea07ab74926085f718b1fa46746680867b54cef512f286726057463b3849462c918"
                }
            ],
            "Shanghai" : [
                {
                    "hash" : "0xea1f82a8628f413785e5170582ca3d760e6c04d443b8f16b52a776e03db5cb4e",
                    "indexes" : {
                        "data" : 0,
                        "gas" : 0,
                        "value" : 0
                    },
                    "logs" : "0xf0e4ad7825821c76c0d4b06e0a5e1dc2ef92942d224b16b0bf3ef7b357ded17a",
                    "txbytes" : "0xf864800a8401ba814094095e7baea6a6c7c4c2dfeb977efac326af552d87830186a0801ca045290492190ac3f5aae05372e9fa01961db4bb2e501247e022e8988b2b11d76ea07ab74926085f718b1fa46746680867b54cef512f286726057463b3849462c918"
                }
            ]
        },
        "pre" : {
            "0x095e7baea6a6c7c4c2dfeb977efac326af552d87" : {
                "balance" : "0x01312d00",
                "code" : "0x6000600060006000601773945304eb96065b2a98b57a48a06ae28d285a71b56305f5e100f100",
                "nonce" : "0x00",
                "storage" : {
                }
            },
            "0x945304eb96065b2a98b57a48a06ae28d285a71b5" : {
                "balance" : "0x0de0b6b3a7640000",
                "code" : "0x5a60005260206000a060016000540160005560006000600060006000306161a85a03f160015500",
                "nonce" : "0x00",
                "storage" : {
                }
            },
            "0xa94f5374fce5edbc8e2a8697c15331677e6ebf0b" : {
                "balance" : "0x0de0b6b3a7640000",
                "code" : "0x",
                "nonce" : "0x00",
                "storage" : {
                }
            }
        },
        "transaction" : {
            "data" : [
                "0x"
            ],
            "gasLimit" : [
                "0x01ba8140"
            ],
            "gasPrice" : "0x0a",
            "nonce" : "0x00",
            "secretKey" : "0x45a915e4d060149eb4365960e6a7a45f334393093061116b197e3240065ff2d8",
            "sender" : "0xa94f5374fce5edbc8e2a8697c15331677e6ebf0b",
            "to" : "0x095e7baea6a6c7c4c2dfeb977efac326af552d87",
            "value" : [
                "0x0186a0"
            ]
        }
    }
}