{
    "doubleSelfdestructTouch" : {
        "_info" : {
            "comment" : "A single contract can execute SELFDESTRUCT multiple times using by being called\nmultiple times. The second and later SELFDESTRUCTs have little effect but can\ntouch some new beneficiary addresses.\n",
            "filling-rpc-server" : "evm version 1.10.26-stable-e5eb32ac",
            "filling-tool-version" : "retesteth-0.2.3-postmerge+commit.801c0d4c.Linux.g++",
            "generatedTestHash" : "8f5ed6397e57e951da103e872c44e1e48ffa1d3bb981eb46072f7c461a9cf942",
            "lllcversion" : "Version: 0.5.14-develop.2022.6.30+commit.401d5358.mod.Linux.g++",
            "solidity" : "Version: 0.8.18-develop.2022.12.14+commit.a9fe05e8.Linux.g++",
            "source" : "src/GeneralStateTestsFiller/stSystemOperationsTest/doubleSelfdestructTouchFiller.yml",
            "sourceHash" : "bb18f14e2abc20529c359ff3dfe5dd632da90015dc83e02b2d141c3d98efbb1a"
        },
        "env" : {
            "currentBaseFee" : "0x0a",
            "currentCoinbase" : "0x2adc25665018aa1fe0e6bc666dac8fc2697ff9ba",
            "currentDifficulty" : "0x01",
            "currentGasLimit" : "0x01c9c380",
            "currentNumber" : "0x02",
            "currentRandom" : "0x0000000000000000000000000000000000000000000000000000000000000001",
            "currentTimestamp" : "0x03e7",
            "previousHash" : "0x5e20a0453cecd065ea59c37ac63e079ee08998b6045136a8ce6635c7912ec0b6"
        },
        "post" : {
            "Berlin" : [
                {
                    "hash" : "0xdcdb876ec54ed91761653659fc21145d140503c7180417c08ce20a2800212a56",
                    "indexes" : {
                        "data" : 0,
                        "gas" : 0,
                        "value" : 0
                    },
                    "logs" : "0x1dcc4de8dec75d7aab85b567b6ccd41ad312451b948a7413f0a142fd40d49347",
                    "txbytes" : "0xf860800a8398968094000000000000000000000000000000000000c0de80801ca01cddd1fa480d8833a1c1922f13d448a373a04424d353cb58733883e209f492b0a03697dd551832c88b4e983e8508261664b37da53d32239d7c3b9c5a5cfa68b7a5"
                },
                {
                    "hash" : "0x1b38a81dcff58cb910fa11e53a30b2f18dc8ef67b19047abf7a46f0223a98940",
                    "indexes" : {
                        "data" : 0,
                        "gas" : 0,
                        "value" : 1
                    },
                    "logs" : "0x1dcc4de8dec75d7aab85b567b6ccd41ad312451b948a7413f0a142fd40d49347",
                    "txbytes" : "0xf860800a8398968094000000000000000000000000000000000000c0de01801ba0b630c7ad45cb532d85abed8dd322669e988c4f83d831b8e7bb5f5c98ff592639a01ce6b874effb97e10ac1e88473a868028e8683dbe7236b1080bbfd085572b062"
                },
                {
                    "hash" : "0xebc27c46bc661d43fe047b60fb10eb077d9d1129c2bba2aa3f0eccb441757102",
                    "indexes" : {
                        "data" : 0,
                        "gas" : 0,
                        "value" : 2
                    },
                    "logs" : "0x1dcc4de8dec75d7aab85b567b6ccd41ad312451b948a7413f0a142fd40d49347",
                    "txbytes" : "0xf860800a8398968094000000000000000000000000000000000000c0de02801ba08de3eff308292c26341278d16ef97a70dd68627837f9ef3f8d54453cca94f968a03393ddb781b3c6cc797b361f64be66cff0ef348d3a0c4f91fd7f60701558e3b4"
                }
            ]
        },
        "pre" : {
            "0x000000000000000000000000000000000000c0de" : {
                "balance" : "0x00",
                "code" : "0x348060011c6000806000808461dead62011170f18183036000806000808461dead62011170f15050505050",
                "nonce" : "0x00",
                "storage" : {
                }
            },
            "0x000000000000000000000000000000000000dead" : {
                "balance" : "0x00",
                "code" : "0x600054600181016000558062e4970101ff",
                "nonce" : "0x00",
                "storage" : {
                }
            },
            "0x0000000000000000000000000000000000e49701" : {
                "balance" : "0x00",
                "code" : "0x",
                "nonce" : "0x00",
                "storage" : {
                }
            },
            "0x0000000000000000000000000000000000e49702" : {
                "balance" : "0x00",
                "code" : "0x",
                "nonce" : "0x00",
                "storage" : {
                }
            },
            "0xa94f5374fce5edbc8e2a8697c15331677e6ebf0b" : {
                "balance" : "0x05f5e102",
                "code" : "0x",
                "nonce" : "0x00",
                "storage" : {
                }
            }
        },
        "transaction" : {
            "data" : [
                "0x"
            ],
            "gasLimit" : [
                "0x989680"
            ],
            "gasPrice" : "0x0a",
            "nonce" : "0x00",
            "secretKey" : "0x45a915e4d060149eb4365960e6a7a45f334393093061116b197e3240065ff2d8",
            "sender" : "0xa94f5374fce5edbc8e2a8697c15331677e6ebf0b",
            "to" : "0x000000000000000000000000000000000000c0de",
            "value" : [
                "0x00",
                "0x01",
                "0x02"
            ]
        }
    }
}