{
    "static_Call1024BalanceTooLow" : {
        "_info" : {
            "comment" : "",
            "filling-rpc-server" : "evm version 1.11.0-unstable-e04d63eb-20230113",
            "filling-tool-version" : "retesteth-0.2.3-postmerge+commit.801c0d4c.Linux.g++",
            "generatedTestHash" : "90c93a05cb1ed793df9cb5c4c132cf5d96cb5a16c6612d046d1238b8da926ebf",
            "lllcversion" : "Version: 0.5.14-develop.2021.4.29+commit.14c9d5de.Linux.clang",
            "solidity" : "Version: 0.8.17-develop.2022.9.30+commit.8df45f5f.Linux.clang",
            "source" : "src/GeneralStateTestsFiller/stStaticCall/static_Call1024BalanceTooLowFiller.json",
            "sourceHash" : "bfb29e60f0ea58b895cdf30fbaa476b93060f3d31139f2bdf98c62e769c2580a"
        },
        "env" : {
            "currentBaseFee" : "0x0a",
            "currentCoinbase" : "0x2adc25665018aa1fe0e6bc666dac8fc2697ff9ba",
            "currentDifficulty" : "0x020000",
            "currentGasLimit" : "0x7fffffffffffffff",
            "currentNumber" : "0x28d138",
            "currentRandom" : "0x0000000000000000000000000000000000000000000000000000000000020000",
            "currentTimestamp" : "0x03e8",
            "previousHash" : "0x5e20a0453cecd065ea59c37ac63e079ee08998b6045136a8ce6635c7912ec0b6"
        },
        "post" : {
            "Berlin" : [
                {
                    "hash" : "0xb9660174511048a26cac92b544520c4c44c34c0478108ec778f43b34581b1372",
                    "indexes" : {
                        "data" : 0,
                        "gas" : 0,
                        "value" : 0
                    },
                    "logs" : "0x1dcc4de8dec75d7aab85b567b6ccd41ad312451b948a7413f0a142fd40d49347",
                    "txbytes" : "0xf881800a8401ba81409410000000000000000000000000000000000000000aa0000000000000000000000000bbbf5374fce5edbc8e2a8697c15331677e6ebf0b1ba0ac108dc005e452bba3982d5bede8c525d991b710a51cb0f6f5b8737fcfa63538a0044920f614a9b5bdcc8c93309de80f86d6abb85018adc69abffaa8fa3ef41eb9"
                },
                {
                    "hash" : "0xab3cd30d5d368cbfb81e97815648bda3cd19a9257b2f76823412fe1ae0778f44",
                    "indexes" : {
                        "data" : 1,
                        "gas" : 0,
                        "value" : 0
                    },
                    "logs" : "0x1dcc4de8dec75d7aab85b567b6ccd41ad312451b948a7413f0a142fd40d49347",
                    "txbytes" : "0xf881800a8401ba81409410000000000000000000000000000000000000000aa0000000000000000000000000cbbf5374fce5edbc8e2a8697c15331677e6ebf0b1ba06b63d78fcf441d16479890c2299fa1ec7183dcf29ab3fba330b27ae3cafcdbe7a04aa4bfaab57a68b1f5ba642ea9d1ce53068bb7cf42e7f6dba261ce74a6bb690d"
                }
            ],
            "Istanbul" : [
                {
                    "hash" : "0xc047d74bce626590e525dbbd9bd3e61f7fac1bd2379097def412c90e08c64077",
                    "indexes" : {
                        "data" : 0,
                        "gas" : 0,
                        "value" : 0
                    },
                    "logs" : "0x1dcc4de8dec75d7aab85b567b6ccd41ad312451b948a7413f0a142fd40d49347",
                    "txbytes" : "0xf881800a8401ba81409410000000000000000000000000000000000000000aa0000000000000000000000000bbbf5374fce5edbc8e2a8697c15331677e6ebf0b1ba0ac108dc005e452bba3982d5bede8c525d991b710a51cb0f6f5b8737fcfa63538a0044920f614a9b5bdcc8c93309de80f86d6abb85018adc69abffaa8fa3ef41eb9"
                },
                {
                    "hash" : "0x78b6ca943153377312d7808670defa5c92b14e3a5fd7c938f9d5f3f1342e51b5",
                    "indexes" : {
                        "data" : 1,
                        "gas" : 0,
                        "value" : 0
                    },
                    "logs" : "0x1dcc4de8dec75d7aab85b567b6ccd41ad312451b948a7413f0a142fd40d49347",
                    "txbytes" : "0xf881800a8401ba81409410000000000000000000000000000000000000000aa0000000000000000000000000cbbf5374fce5edbc8e2a8697c15331677e6ebf0b1ba06b63d78fcf441d16479890c2299fa1ec7183dcf29ab3fba330b27ae3cafcdbe7a04aa4bfaab57a68b1f5ba642ea9d1ce53068bb7cf42e7f6dba261ce74a6bb690d"
                }
            ],
            "London" : [
                {
                    "hash" : "0xe18cc767fd2ae3bf0cae4b4ceec6286a4f302106404b8b3dd3a704e555322573",
                    "indexes" : {
                        "data" : 0,
                        "gas" : 0,
                        "value" : 0
                    },
                    "logs" : "0x1dcc4de8dec75d7aab85b567b6ccd41ad312451b948a7413f0a142fd40d49347",
                    "txbytes" : "0xf881800a8401ba81409410000000000000000000000000000000000000000aa0000000000000000000000000bbbf5374fce5edbc8e2a8697c15331677e6ebf0b1ba0ac108dc005e452bba3982d5bede8c525d991b710a51cb0f6f5b8737fcfa63538a0044920f614a9b5bdcc8c93309de80f86d6abb85018adc69abffaa8fa3ef41eb9"
                },
                {
                    "hash" : "0xa58956ada127795aa12cef56563cb2ba4c7c5abf46dd6f686172e7a77a6eee62",
                    "indexes" : {
                        "data" : 1,
                        "gas" : 0,
                        "value" : 0
                    },
                    "logs" : "0x1dcc4de8dec75d7aab85b567b6ccd41ad312451b948a7413f0a142fd40d49347",
                    "txbytes" : "0xf881800a8401ba81409410000000000000000000000000000000000000000aa0000000000000000000000000cbbf5374fce5edbc8e2a8697c15331677e6ebf0b1ba06b63d78fcf441d16479890c2299fa1ec7183dcf29ab3fba330b27ae3cafcdbe7a04aa4bfaab57a68b1f5ba642ea9d1ce53068bb7cf42e7f6dba261ce74a6bb690d"
                }
            ],
            "Merge" : [
                {
                    "hash" : "0xe18cc767fd2ae3bf0cae4b4ceec6286a4f302106404b8b3dd3a704e555322573",
                    "indexes" : {
                        "data" : 0,
                        "gas" : 0,
                        "value" : 0
                    },
                    "logs" : "0x1dcc4de8dec75d7aab85b567b6ccd41ad312451b948a7413f0a142fd40d49347",
                    "txbytes" : "0xf881800a8401ba81409410000000000000000000000000000000000000000aa0000000000000000000000000bbbf5374fce5edbc8e2a8697c15331677e6ebf0b1ba0ac108dc005e452bba3982d5bede8c525d991b710a51cb0f6f5b8737fcfa63538a0044920f614a9b5bdcc8c93309de80f86d6abb85018adc69abffaa8fa3ef41eb9"
                },
                {
                    "hash" : "0xa58956ada127795aa12cef56563cb2ba4c7c5abf46dd6f686172e7a77a6eee62",
                    "indexes" : {
                        "data" : 1,
                        "gas" : 0,
                        "value" : 0
                    },
                    "logs" : "0x1dcc4de8dec75d7aab85b567b6ccd41ad312451b948a7413f0a142fd40d49347",
                    "txbytes" : "0xf881800a8401ba81409410000000000000000000000000000000000000000aa0000000000000000000000000cbbf5374fce5edbc8e2a8697c15331677e6ebf0b1ba06b63d78fcf441d16479890c2299fa1ec7183dcf29ab3fba330b27ae3cafcdbe7a04aa4bfaab57a68b1f5ba642ea9d1ce53068bb7cf42e7f6dba261ce74a6bb690d"
                }
            ],
            "Shanghai" : [
                {
                    "hash" : "0xe18cc767fd2ae3bf0cae4b4ceec6286a4f302106404b8b3dd3a704e555322573",
                    "indexes" : {
                        "data" : 0,
                        "gas" : 0,
                        "value" : 0
                    },
                    "logs" : "0x1dcc4de8dec75d7aab85b567b6ccd41ad312451b948a7413f0a142fd40d49347",
                    "txbytes" : "0xf881800a8401ba81409410000000000000000000000000000000000000000aa0000000000000000000000000bbbf5374fce5edbc8e2a8697c15331677e6ebf0b1ba0ac108dc005e452bba3982d5bede8c525d991b710a51cb0f6f5b8737fcfa63538a0044920f614a9b5bdcc8c93309de80f86d6abb85018adc69abffaa8fa3ef41eb9"
                },
                {
                    "hash" : "0xa58956ada127795aa12cef56563cb2ba4c7c5abf46dd6f686172e7a77a6eee62",
                    "indexes" : {
                        "data" : 1,
                        "gas" : 0,
                        "value" : 0
                    },
                    "logs" : "0x1dcc4de8dec75d7aab85b567b6ccd41ad312451b948a7413f0a142fd40d49347",
                    "txbytes" : "0xf881800a8401ba81409410000000000000000000000000000000000000000aa0000000000000000000000000cbbf5374fce5edbc8e2a8697c15331677e6ebf0b1ba06b63d78fcf441d16479890c2299fa1ec7183dcf29ab3fba330b27ae3cafcdbe7a04aa4bfaab57a68b1f5ba642ea9d1ce53068bb7cf42e7f6dba261ce74a6bb690d"
                }
            ]
        },
        "pre" : {
            "0x1000000000000000000000000000000000000000" : {
                "balance" : "0x00",
                "code" : "0x6000600060006000346000355af1600055600160015500",
                "nonce" : "0x00",
                "storage" : {
                }
            },
            "0xa94f5374fce5edbc8e2a8697c15331677e6ebf0b" : {
                "balance" : "0xffffffffffffffffffffffffffffffff",
                "code" : "0x",
                "nonce" : "0x00",
                "storage" : {
                }
            },
            "0xaaaf5374fce5edbc8e2a8697c15331677e6ebf0b" : {
                "balance" : "0x1b58",
                "code" : "0x",
                "nonce" : "0x00",
                "storage" : {
                }
            },
            "0xbbbf5374fce5edbc8e2a8697c15331677e6ebf0b" : {
                "balance" : "0x0400",
                "code" : "0x60016000540160005560006000600060005473bbbf5374fce5edbc8e2a8697c15331677e6ebf0b650ffffffffffffa60015500",
                "nonce" : "0x00",
                "storage" : {
                }
            },
            "0xcbbf5374fce5edbc8e2a8697c15331677e6ebf0b" : {
                "balance" : "0x0400",
                "code" : "0x60016000510160005260006000600060005173cbbf5374fce5edbc8e2a8697c15331677e6ebf0b650ffffffffffffa60205200",
                "nonce" : "0x00",
                "storage" : {
                }
            }
        },
        "transaction" : {
            "data" : [
                "0x000000000000000000000000bbbf5374fce5edbc8e2a8697c15331677e6ebf0b",
                "0x000000000000000000000000cbbf5374fce5edbc8e2a8697c15331677e6ebf0b"
            ],
            "gasLimit" : [
                "0x01ba8140"
            ],
            "gasPrice" : "0x0a",
            "nonce" : "0x00",
            "secretKey" : "0x45a915e4d060149eb4365960e6a7a45f334393093061116b197e3240065ff2d8",
            "sender" : "0xa94f5374fce5edbc8e2a8697c15331677e6ebf0b",
            "to" : "0x1000000000000000000000000000000000000000",
            "value" : [
                "0x0a"
            ]
        }
    }
}