{
    "static_Call1024PreCalls3" : {
        "_info" : {
            "comment" : "",
            "filling-rpc-server" : "evm version 1.11.0-unstable-e04d63eb-20230113",
            "filling-tool-version" : "retesteth-0.2.3-postmerge+commit.801c0d4c.Linux.g++",
            "generatedTestHash" : "6ff6bb03fcb8fcc0a7bc443be2f676b4a6634c2532d766f67cdd4d52241f68a7",
            "lllcversion" : "Version: 0.5.14-develop.2021.4.29+commit.14c9d5de.Linux.clang",
            "solidity" : "Version: 0.8.17-develop.2022.9.30+commit.8df45f5f.Linux.clang",
            "source" : "src/GeneralStateTestsFiller/stStaticCall/static_Call1024PreCalls3Filler.json",
            "sourceHash" : "d2b709e2daf45db3c8ec0e49c2dbb4fc0fb5d83120cbfb81720b48ea520c0a82"
        },
        "env" : {
            "currentBaseFee" : "0x0a",
            "currentCoinbase" : "0xb94f5374fce5edbc8e2a8697c15331677e6ebf0b",
            "currentDifficulty" : "0x020000",
            "currentGasLimit" : "0x7fffffffffffffff",
            "currentNumber" : "0x01",
            "currentRandom" : "0x0000000000000000000000000000000000000000000000000000000000020000",
            "currentTimestamp" : "0x03e8",
            "previousHash" : "0x5e20a0453cecd065ea59c37ac63e079ee08998b6045136a8ce6635c7912ec0b6"
        },
        "post" : {
            "Berlin" : [
                {
                    "hash" : "0xd534340a072425c1bf85e1a5ec9c41e08a009aa34920ed64072e3108686fd2bb",
                    "indexes" : {
                        "data" : 0,
                        "gas" : 0,
                        "value" : 0
                    },
                    "logs" : "0x1dcc4de8dec75d7aab85b567b6ccd41ad312451b948a7413f0a142fd40d49347",
                    "txbytes" : "0xf881800a8401ba81409410000000000000000000000000000000000000000aa0000000000000000000000000bbbf5374fce5edbc8e2a8697c15331677e6ebf0b1ba0ac108dc005e452bba3982d5bede8c525d991b710a51cb0f6f5b8737fcfa63538a0044920f614a9b5bdcc8c93309de80f86d6abb85018adc69abffaa8fa3ef41eb9"
                },
                {
                    "hash" : "0xd7e6a6f90bc4d84109ee1ec4e311bb6502758d777a68ef419456ef0fb4d743e4",
                    "indexes" : {
                        "data" : 1,
                        "gas" : 0,
                        "value" : 0
                    },
                    "logs" : "0x1dcc4de8dec75d7aab85b567b6ccd41ad312451b948a7413f0a142fd40d49347",
                    "txbytes" : "0xf881800a8401ba81409410000000000000000000000000000000000000000aa0000000000000000000000000cbbf5374fce5edbc8e2a8697c15331677e6ebf0b1ba06b63d78fcf441d16479890c2299fa1ec7183dcf29ab3fba330b27ae3cafcdbe7a04aa4bfaab57a68b1f5ba642ea9d1ce53068bb7cf42e7f6dba261ce74a6bb690d"
                }
            ],
            "Istanbul" : [
                {
                    "hash" : "0x0313ec3687ca22d7e990089d4e3ad6bfe2665218e4126d681e0cdcc1b63b603a",
                    "indexes" : {
                        "data" : 0,
                        "gas" : 0,
                        "value" : 0
                    },
                    "logs" : "0x1dcc4de8dec75d7aab85b567b6ccd41ad312451b948a7413f0a142fd40d49347",
                    "txbytes" : "0xf881800a8401ba81409410000000000000000000000000000000000000000aa0000000000000000000000000bbbf5374fce5edbc8e2a8697c15331677e6ebf0b1ba0ac108dc005e452bba3982d5bede8c525d991b710a51cb0f6f5b8737fcfa63538a0044920f614a9b5bdcc8c93309de80f86d6abb85018adc69abffaa8fa3ef41eb9"
                },
                {
                    "hash" : "0xf9c956264c4c833b785e46a8873077561b8de76e6dbb24087620ccd608eb57f6",
                    "indexes" : {
                        "data" : 1,
                        "gas" : 0,
                        "value" : 0
                    },
                    "logs" : "0x1dcc4de8dec75d7aab85b567b6ccd41ad312451b948a7413f0a142fd40d49347",
                    "txbytes" : "0xf881800a8401ba81409410000000000000000000000000000000000000000aa0000000000000000000000000cbbf5374fce5edbc8e2a8697c15331677e6ebf0b1ba06b63d78fcf441d16479890c2299fa1ec7183dcf29ab3fba330b27ae3cafcdbe7a04aa4bfaab57a68b1f5ba642ea9d1ce53068bb7cf42e7f6dba261ce74a6bb690d"
                }
            ],
            "London" : [
                {
                    "hash" : "0x93b1a1a902bc7d5fbf486140590972332fc1dea2f48aa3b9a5d69ab251915c77",
                    "indexes" : {
                        "data" : 0,
                        "gas" : 0,
                        "value" : 0
                    },
                    "logs" : "0x1dcc4de8dec75d7aab85b567b6ccd41ad312451b948a7413f0a142fd40d49347",
                    "txbytes" : "0xf881800a8401ba81409410000000000000000000000000000000000000000aa0000000000000000000000000bbbf5374fce5edbc8e2a8697c15331677e6ebf0b1ba0ac108dc005e452bba3982d5bede8c525d991b710a51cb0f6f5b8737fcfa63538a0044920f614a9b5bdcc8c93309de80f86d6abb85018adc69abffaa8fa3ef41eb9"
                },
                {
                    "hash" : "0x7bdb2cbe16445c0e3a9bcf479eab9b02e823a4f22e1cfaba3930c79d1147b3bf",
                    "indexes" : {
                        "data" : 1,
                        "gas" : 0,
                        "value" : 0
                    },
                    "logs" : "0x1dcc4de8dec75d7aab85b567b6ccd41ad312451b948a7413f0a142fd40d49347",
                    "txbytes" : "0xf881800a8401ba81409410000000000000000000000000000000000000000aa0000000000000000000000000cbbf5374fce5edbc8e2a8697c15331677e6ebf0b1ba06b63d78fcf441d16479890c2299fa1ec7183dcf29ab3fba330b27ae3cafcdbe7a04aa4bfaab57a68b1f5ba642ea9d1ce53068bb7cf42e7f6dba261ce74a6bb690d"
                }
            ],
            "Merge" : [
                {
                    "hash" : "0x93b1a1a902bc7d5fbf486140590972332fc1dea2f48aa3b9a5d69ab251915c77",
                    "indexes" : {
                        "data" : 0,
                        "gas" : 0,
                        "value" : 0
                    },
                    "logs" : "0x1dcc4de8dec75d7aab85b567b6ccd41ad312451b948a7413f0a142fd40d49347",
                    "txbytes" : "0xf881800a8401ba81409410000000000000000000000000000000000000000aa0000000000000000000000000bbbf5374fce5edbc8e2a8697c15331677e6ebf0b1ba0ac108dc005e452bba3982d5bede8c525d991b710a51cb0f6f5b8737fcfa63538a0044920f614a9b5bdcc8c93309de80f86d6abb85018adc69abffaa8fa3ef41eb9"
                },
                {
                    "hash" : "0x7bdb2cbe16445c0e3a9bcf479eab9b02e823a4f22e1cfaba3930c79d1147b3bf",
                    "indexes" : {
                        "data" : 1,
                        "gas" : 0,
                        "value" : 0
                    },
                    "logs" : "0x1dcc4de8dec75d7aab85b567b6ccd41ad312451b948a7413f0a142fd40d49347",
                    "txbytes" : "0xf881800a8401ba81409410000000000000000000000000000000000000000aa0000000000000000000000000cbbf5374fce5edbc8e2a8697c15331677e6ebf0b1ba06b63d78fcf441d16479890c2299fa1ec7183dcf29ab3fba330b27ae3cafcdbe7a04aa4bfaab57a68b1f5ba642ea9d1ce53068bb7cf42e7f6dba261ce74a6bb690d"
                }
            ],
            "Shanghai" : [
                {
                    "hash" : "0x93b1a1a902bc7d5fbf486140590972332fc1dea2f48aa3b9a5d69ab251915c77",
                    "indexes" : {
                        "data" : 0,
                        "gas" : 0,
                        "value" : 0
                    },
                    "logs" : "0x1dcc4de8dec75d7aab85b567b6ccd41ad312451b948a7413f0a142fd40d49347",
                    "txbytes" : "0xf881800a8401ba81409410000000000000000000000000000000000000000aa0000000000000000000000000bbbf5374fce5edbc8e2a8697c15331677e6ebf0b1ba0ac108dc005e452bba3982d5bede8c525d991b710a51cb0f6f5b8737fcfa63538a0044920f614a9b5bdcc8c93309de80f86d6abb85018adc69abffaa8fa3ef41eb9"
                },
                {
                    "hash" : "0x7bdb2cbe16445c0e3a9bcf479eab9b02e823a4f22e1cfaba3930c79d1147b3bf",
                    "indexes" : {
                        "data" : 1,
                        "gas" : 0,
                        "value" : 0
                    },
                    "logs" : "0x1dcc4de8dec75d7aab85b567b6ccd41ad312451b948a7413f0a142fd40d49347",
                    "txbytes" : "0xf881800a8401ba81409410000000000000000000000000000000000000000aa0000000000000000000000000cbbf5374fce5edbc8e2a8697c15331677e6ebf0b1ba06b63d78fcf441d16479890c2299fa1ec7183dcf29ab3fba330b27ae3cafcdbe7a04aa4bfaab57a68b1f5ba642ea9d1ce53068bb7cf42e7f6dba261ce74a6bb690d"
                }
            ]
        },
        "pre" : {
            "0x1000000000000000000000000000000000000000" : {
                "balance" : "0x00",
                "code" : "0x6000600060006000346000355af1600055600160015500",
                "nonce" : "0x00",
                "storage" : {
                }
            },
            "0xa94f5374fce5edbc8e2a8697c15331677e6ebf0b" : {
                "balance" : "0x0fffffffffffffffffffffffffffffffff",
                "code" : "0x",
                "nonce" : "0x00",
                "storage" : {
                }
            },
            "0xaaaf5374fce5edbc8e2a8697c15331677e6ebf0b" : {
                "balance" : "0x1b58",
                "code" : "0x",
                "nonce" : "0x00",
                "storage" : {
                }
            },
            "0xbbbf5374fce5edbc8e2a8697c15331677e6ebf0b" : {
                "balance" : "0x07e8",
                "code" : "0x600060006000600073aaaf5374fce5edbc8e2a8697c15331677e6ebf0b61fffffa600255600060006000600073aaaf5374fce5edbc8e2a8697c15331677e6ebf0b61fffffa600355600160005401600055600060006000600073bbbf5374fce5edbc8e2a8697c15331677e6ebf0b650ffffffffffffa60015500",
                "nonce" : "0x00",
                "storage" : {
                }
            },
            "0xcbbf5374fce5edbc8e2a8697c15331677e6ebf0b" : {
                "balance" : "0x07e8",
                "code" : "0x600060006000600073aaaf5374fce5edbc8e2a8697c15331677e6ebf0b61fffffa50600060006000600073aaaf5374fce5edbc8e2a8697c15331677e6ebf0b61fffffa50600160005101600052600060006000600073cbbf5374fce5edbc8e2a8697c15331677e6ebf0b650ffffffffffffa00",
                "nonce" : "0x00",
                "storage" : {
                }
            }
        },
        "transaction" : {
            "data" : [
                "0x000000000000000000000000bbbf5374fce5edbc8e2a8697c15331677e6ebf0b",
                "0x000000000000000000000000cbbf5374fce5edbc8e2a8697c15331677e6ebf0b"
            ],
            "gasLimit" : [
                "0x01ba8140"
            ],
            "gasPrice" : "0x0a",
            "nonce" : "0x00",
            "secretKey" : "0x45a915e4d060149eb4365960e6a7a45f334393093061116b197e3240065ff2d8",
            "sender" : "0xa94f5374fce5edbc8e2a8697c15331677e6ebf0b",
            "to" : "0x1000000000000000000000000000000000000000",
            "value" : [
                "0x0a"
            ]
        }
    }
}