{
    "static_CallRecursiveBomb0_OOG_atMaxCallDepth" : {
        "_info" : {
            "comment" : "",
            "filling-rpc-server" : "evm version 1.11.0-unstable-e04d63eb-20230113",
            "filling-tool-version" : "retesteth-0.2.3-postmerge+commit.801c0d4c.Linux.g++",
            "generatedTestHash" : "6c72871c6266012b035d645bf89f6570013986e17628f2e391671b6886205bf8",
            "lllcversion" : "Version: 0.5.14-develop.2021.4.29+commit.14c9d5de.Linux.clang",
            "solidity" : "Version: 0.8.17-develop.2022.9.30+commit.8df45f5f.Linux.clang",
            "source" : "src/GeneralStateTestsFiller/stStaticCall/static_CallRecursiveBomb0_OOG_atMaxCallDepthFiller.json",
            "sourceHash" : "0d1217c8329f46fc4a389a1159f7a460bb7388bc19cfdb27c1bef14d5f1a68d5"
        },
        "env" : {
            "currentBaseFee" : "0x0a",
            "currentCoinbase" : "0x2adc25665018aa1fe0e6bc666dac8fc2697ff9ba",
            "currentDifficulty" : "0x020000",
            "currentGasLimit" : "0x199c82cc00",
            "currentNumber" : "0x01",
            "currentRandom" : "0x0000000000000000000000000000000000000000000000000000000000020000",
            "currentTimestamp" : "0x03e8",
            "previousHash" : "0x5e20a0453cecd065ea59c37ac63e079ee08998b6045136a8ce6635c7912ec0b6"
        },
        "post" : {
            "Berlin" : [
                {
                    "hash" : "0xfa2058f5dc88f8b794bf3799925c3b7a655ed4de81cdd720c478cf8303ff896a",
                    "indexes" : {
                        "data" : 0,
                        "gas" : 0,
                        "value" : 0
                    },
                    "logs" : "0x1dcc4de8dec75d7aab85b567b6ccd41ad312451b948a7413f0a142fd40d49347",
                    "txbytes" : "0xf864800a8401ba814094195e7baea6a6c7c4c2dfeb977efac326af552d87830186a0801ba04715bfe62d33dcd74a9c3dd073988e7d6ad8e0992e2c3a08aff98ad1c7edf88ea042c1bd898e4e2de8eabbd12795608e60008edd33cc09ad211b02ede91dede913"
                }
            ],
            "Istanbul" : [
                {
                    "hash" : "0xa87c9b9ac811581513bbb6265a4ec12c6f9f31647280b56c19c462f6d358bd63",
                    "indexes" : {
                        "data" : 0,
                        "gas" : 0,
                        "value" : 0
                    },
                    "logs" : "0x1dcc4de8dec75d7aab85b567b6ccd41ad312451b948a7413f0a142fd40d49347",
                    "txbytes" : "0xf864800a8401ba814094195e7baea6a6c7c4c2dfeb977efac326af552d87830186a0801ba04715bfe62d33dcd74a9c3dd073988e7d6ad8e0992e2c3a08aff98ad1c7edf88ea042c1bd898e4e2de8eabbd12795608e60008edd33cc09ad211b02ede91dede913"
                }
            ],
            "London" : [
                {
                    "hash" : "0x064d2103d1d297d603d3c465369fb6712483799223efa6310e5b56f3b2a96a78",
                    "indexes" : {
                        "data" : 0,
                        "gas" : 0,
                        "value" : 0
                    },
                    "logs" : "0x1dcc4de8dec75d7aab85b567b6ccd41ad312451b948a7413f0a142fd40d49347",
                    "txbytes" : "0xf864800a8401ba814094195e7baea6a6c7c4c2dfeb977efac326af552d87830186a0801ba04715bfe62d33dcd74a9c3dd073988e7d6ad8e0992e2c3a08aff98ad1c7edf88ea042c1bd898e4e2de8eabbd12795608e60008edd33cc09ad211b02ede91dede913"
                }
            ],
            "Merge" : [
                {
                    "hash" : "0x064d2103d1d297d603d3c465369fb6712483799223efa6310e5b56f3b2a96a78",
                    "indexes" : {
                        "data" : 0,
                        "gas" : 0,
                        "value" : 0
                    },
                    "logs" : "0x1dcc4de8dec75d7aab85b567b6ccd41ad312451b948a7413f0a142fd40d49347",
                    "txbytes" : "0xf864800a8401ba814094195e7baea6a6c7c4c2dfeb977efac326af552d87830186a0801ba04715bfe62d33dcd74a9c3dd073988e7d6ad8e0992e2c3a08aff98ad1c7edf88ea042c1bd898e4e2de8eabbd12795608e60008edd33cc09ad211b02ede91dede913"
                }
            ],
            "Shanghai" : [
                {
                    "hash" : "0x064d2103d1d297d603d3c465369fb6712483799223efa6310e5b56f3b2a96a78",
                    "indexes" : {
                        "data" : 0,
                        "gas" : 0,
                        "value" : 0
                    },
                    "logs" : "0x1dcc4de8dec75d7aab85b567b6ccd41ad312451b948a7413f0a142fd40d49347",
                    "txbytes" : "0xf864800a8401ba814094195e7baea6a6c7c4c2dfeb977efac326af552d87830186a0801ba04715bfe62d33dcd74a9c3dd073988e7d6ad8e0992e2c3a08aff98ad1c7edf88ea042c1bd898e4e2de8eabbd12795608e60008edd33cc09ad211b02ede91dede913"
                }
            ]
        },
        "pre" : {
            "0x095e7baea6a6c7c4c2dfeb977efac326af552d87" : {
                "balance" : "0x01312d00",
                "code" : "0x600160005401600052690fffffffffffffffffff610402600051040260025260006000690fffffffffffffffffff61040260005104026000306104005a03fa00",
                "nonce" : "0x00",
                "storage" : {
                }
            },
            "0x195e7baea6a6c7c4c2dfeb977efac326af552d87" : {
                "balance" : "0x01312d00",
                "code" : "0x6000600060006000600073095e7baea6a6c7c4c2dfeb977efac326af552d875af250600160015500",
                "nonce" : "0x00",
                "storage" : {
                }
            },
            "0xa94f5374fce5edbc8e2a8697c15331677e6ebf0b" : {
                "balance" : "0x0de0b6b3a7640000",
                "code" : "0x",
                "nonce" : "0x00",
                "storage" : {
                }
            }
        },
        "transaction" : {
            "data" : [
                "0x"
            ],
            "gasLimit" : [
                "0x01ba8140"
            ],
            "gasPrice" : "0x0a",
            "nonce" : "0x00",
            "secretKey" : "0x45a915e4d060149eb4365960e6a7a45f334393093061116b197e3240065ff2d8",
            "sender" : "0xa94f5374fce5edbc8e2a8697c15331677e6ebf0b",
            "to" : "0x195e7baea6a6c7c4c2dfeb977efac326af552d87",
            "value" : [
                "0x0186a0"
            ]
        }
    }
}