{
    "static_Call1024PreCalls" : {
        "_info" : {
            "comment" : "",
            "filling-rpc-server" : "evm version 1.11.0-unstable-e04d63eb-20230113",
            "filling-tool-version" : "retesteth-0.2.3-postmerge+commit.801c0d4c.Linux.g++",
            "generatedTestHash" : "f310638c5f739c8a98fbf1d32d26c3be6b59a2928094e01d9f3aa3365f66313c",
            "lllcversion" : "Version: 0.5.14-develop.2021.4.29+commit.14c9d5de.Linux.clang",
            "solidity" : "Version: 0.8.17-develop.2022.9.30+commit.8df45f5f.Linux.clang",
            "source" : "src/GeneralStateTestsFiller/stStaticCall/static_Call1024PreCallsFiller.json",
            "sourceHash" : "d9c8dd592354b8274ddfbf79568649a0472d62e18832b59fd4946fb59abc6ea4"
        },
        "env" : {
            "currentBaseFee" : "0x0a",
            "currentCoinbase" : "0x2adc25665018aa1fe0e6bc666dac8fc2697ff9ba",
            "currentDifficulty" : "0x020000",
            "currentGasLimit" : "0x7fffffffffffffff",
            "currentNumber" : "0x01",
            "currentRandom" : "0x0000000000000000000000000000000000000000000000000000000000020000",
            "currentTimestamp" : "0x03e8",
            "previousHash" : "0x5e20a0453cecd065ea59c37ac63e079ee08998b6045136a8ce6635c7912ec0b6"
        },
        "post" : {
            "Berlin" : [
                {
                    "hash" : "0x85c7fc6f13714b21064ad9cffd6388f64f6c602def506e545618f4ca0cbb10b4",
                    "indexes" : {
                        "data" : 0,
                        "gas" : 0,
                        "value" : 0
                    },
                    "logs" : "0x1dcc4de8dec75d7aab85b567b6ccd41ad312451b948a7413f0a142fd40d49347",
                    "txbytes" : "0xf881800a8401ba81409410000000000000000000000000000000000000000aa0000000000000000000000000bbbf5374fce5edbc8e2a8697c15331677e6ebf0b1ba0ac108dc005e452bba3982d5bede8c525d991b710a51cb0f6f5b8737fcfa63538a0044920f614a9b5bdcc8c93309de80f86d6abb85018adc69abffaa8fa3ef41eb9"
                },
                {
                    "hash" : "0xe8f719cc701fd4fac560b213c94c31332bddc5f0bebccc0c0bbf5713101a9372",
                    "indexes" : {
                        "data" : 1,
                        "gas" : 0,
                        "value" : 0
                    },
                    "logs" : "0x1dcc4de8dec75d7aab85b567b6ccd41ad312451b948a7413f0a142fd40d49347",
                    "txbytes" : "0xf881800a8401ba81409410000000000000000000000000000000000000000aa0000000000000000000000000cbbf5374fce5edbc8e2a8697c15331677e6ebf0b1ba06b63d78fcf441d16479890c2299fa1ec7183dcf29ab3fba330b27ae3cafcdbe7a04aa4bfaab57a68b1f5ba642ea9d1ce53068bb7cf42e7f6dba261ce74a6bb690d"
                }
            ],
            "Istanbul" : [
                {
                    "hash" : "0xa6dd2a06502456165ce71295034e5242b41504ac7df972cd136c5696e7130f5d",
                    "indexes" : {
                        "data" : 0,
                        "gas" : 0,
                        "value" : 0
                    },
                    "logs" : "0x1dcc4de8dec75d7aab85b567b6ccd41ad312451b948a7413f0a142fd40d49347",
                    "txbytes" : "0xf881800a8401ba81409410000000000000000000000000000000000000000aa0000000000000000000000000bbbf5374fce5edbc8e2a8697c15331677e6ebf0b1ba0ac108dc005e452bba3982d5bede8c525d991b710a51cb0f6f5b8737fcfa63538a0044920f614a9b5bdcc8c93309de80f86d6abb85018adc69abffaa8fa3ef41eb9"
                },
                {
                    "hash" : "0xf47ad186076e4b6857fe9987f5ba5f2a4af9027c791a1e29ad231eea62d14a22",
                    "indexes" : {
                        "data" : 1,
                        "gas" : 0,
                        "value" : 0
                    },
                    "logs" : "0x1dcc4de8dec75d7aab85b567b6ccd41ad312451b948a7413f0a142fd40d49347",
                    "txbytes" : "0xf881800a8401ba81409410000000000000000000000000000000000000000aa0000000000000000000000000cbbf5374fce5edbc8e2a8697c15331677e6ebf0b1ba06b63d78fcf441d16479890c2299fa1ec7183dcf29ab3fba330b27ae3cafcdbe7a04aa4bfaab57a68b1f5ba642ea9d1ce53068bb7cf42e7f6dba261ce74a6bb690d"
                }
            ],
            "London" : [
                {
                    "hash" : "0x93b1a1a902bc7d5fbf486140590972332fc1dea2f48aa3b9a5d69ab251915c77",
                    "indexes" : {
                        "data" : 0,
                        "gas" : 0,
                        "value" : 0
                    },
                    "logs" : "0x1dcc4de8dec75d7aab85b567b6ccd41ad312451b948a7413f0a142fd40d49347",
                    "txbytes" : "0xf881800a8401ba81409410000000000000000000000000000000000000000aa0000000000000000000000000bbbf5374fce5edbc8e2a8697c15331677e6ebf0b1ba0ac108dc005e452bba3982d5bede8c525d991b710a51cb0f6f5b8737fcfa63538a0044920f614a9b5bdcc8c93309de80f86d6abb85018adc69abffaa8fa3ef41eb9"
                },
                {
                    "hash" : "0x7bdb2cbe16445c0e3a9bcf479eab9b02e823a4f22e1cfaba3930c79d1147b3bf",
                    "indexes" : {
                        "data" : 1,
                        "gas" : 0,
                        "value" : 0
                    },
                    "logs" : "0x1dcc4de8dec75d7aab85b567b6ccd41ad312451b948a7413f0a142fd40d49347",
                    "txbytes" : "0xf881800a8401ba81409410000000000000000000000000000000000000000aa0000000000000000000000000cbbf5374fce5edbc8e2a8697c15331677e6ebf0b1ba06b63d78fcf441d16479890c2299fa1ec7183dcf29ab3fba330b27ae3cafcdbe7a04aa4bfaab57a68b1f5ba642ea9d1ce53068bb7cf42e7f6dba261ce74a6bb690d"
                }
            ],
            "Merge" : [
                {
                    "hash" : "0x93b1a1a902bc7d5fbf486140590972332fc1dea2f48aa3b9a5d69ab251915c77",
                    "indexes" : {
                        "data" : 0,
                        "gas" : 0,
                        "value" : 0
                    },
                    "logs" : "0x1dcc4de8dec75d7aab85b567b6ccd41ad312451b948a7413f0a142fd40d49347",
                    "txbytes" : "0xf881800a8401ba81409410000000000000000000000000000000000000000aa0000000000000000000000000bbbf5374fce5edbc8e2a8697c15331677e6ebf0b1ba0ac108dc005e452bba3982d5bede8c525d991b710a51cb0f6f5b8737fcfa63538a0044920f614a9b5bdcc8c93309de80f86d6abb85018adc69abffaa8fa3ef41eb9"
                },
                {
                    "hash" : "0x7bdb2cbe16445c0e3a9bcf479eab9b02e823a4f22e1cfaba3930c79d1147b3bf",
                    "indexes" : {
                        "data" : 1,
                        "gas" : 0,
                        "value" : 0
                    },
                    "logs" : "0x1dcc4de8dec75d7aab85b567b6ccd41ad312451b948a7413f0a142fd40d49347",
                    "txbytes" : "0xf881800a8401ba81409410000000000000000000000000000000000000000aa0000000000000000000000000cbbf5374fce5edbc8e2a8697c15331677e6ebf0b1ba06b63d78fcf441d16479890c2299fa1ec7183dcf29ab3fba330b27ae3cafcdbe7a04aa4bfaab57a68b1f5ba642ea9d1ce53068bb7cf42e7f6dba261ce74a6bb690d"
                }
            ],
            "Shanghai" : [
                {
                    "hash" : "0x93b1a1a902bc7d5fbf486140590972332fc1dea2f48aa3b9a5d69ab251915c77",
                    "indexes" : {
                        "data" : 0,
                        "gas" : 0,
                        "value" : 0
                    },
                    "logs" : "0x1dcc4de8dec75d7aab85b567b6ccd41ad312451b948a7413f0a142fd40d49347",
                    "txbytes" : "0xf881800a8401ba81409410000000000000000000000000000000000000000aa0000000000000000000000000bbbf5374fce5edbc8e2a8697c15331677e6ebf0b1ba0ac108dc005e452bba3982d5bede8c525d991b710a51cb0f6f5b8737fcfa63538a0044920f614a9b5bdcc8c93309de80f86d6abb85018adc69abffaa8fa3ef41eb9"
                },
                {
                    "hash" : "0x7bdb2cbe16445c0e3a9bcf479eab9b02e823a4f22e1cfaba3930c79d1147b3bf",
                    "indexes" : {
                        "data" : 1,
                        "gas" : 0,
                        "value" : 0
                    },
                    "logs" : "0x1dcc4de8dec75d7aab85b567b6ccd41ad312451b948a7413f0a142fd40d49347",
                    "txbytes" : "0xf881800a8401ba81409410000000000000000000000000000000000000000aa0000000000000000000000000cbbf5374fce5edbc8e2a8697c15331677e6ebf0b1ba06b63d78fcf441d16479890c2299fa1ec7183dcf29ab3fba330b27ae3cafcdbe7a04aa4bfaab57a68b1f5ba642ea9d1ce53068bb7cf42e7f6dba261ce74a6bb690d"
                }
            ]
        },
        "pre" : {
            "0x1000000000000000000000000000000000000000" : {
                "balance" : "0x00",
                "code" : "0x6000600060006000346000355af1600055600160015500",
                "nonce" : "0x00",
                "storage" : {
                }
            },
            "0xa94f5374fce5edbc8e2a8697c15331677e6ebf0b" : {
                "balance" : "0x0fffffffffffffffffffffffffffffffff",
                "code" : "0x",
                "nonce" : "0x00",
                "storage" : {
                }
            },
            "0xaaaf5374fce5edbc8e2a8697c15331677e6ebf0b" : {
                "balance" : "0x1b58",
                "code" : "0x",
                "nonce" : "0x00",
                "storage" : {
                }
            },
            "0xbbbf5374fce5edbc8e2a8697c15331677e6ebf0b" : {
                "balance" : "0x07e8",
                "code" : "0x600060006000600073aaaf5374fce5edbc8e2a8697c15331677e6ebf0b61fffffa600255600060006000600073aaaf5374fce5edbc8e2a8697c15331677e6ebf0b61fffffa600355600160005401600055600060006000600073bbbf5374fce5edbc8e2a8697c15331677e6ebf0b650ffffffffffffa60015500",
                "nonce" : "0x00",
                "storage" : {
                }
            },
            "0xcbbf5374fce5edbc8e2a8697c15331677e6ebf0b" : {
                "balance" : "0x07e8",
                "code" : "0x600060006000600073aaaf5374fce5edbc8e2a8697c15331677e6ebf0b61fffffa50600060006000600073aaaf5374fce5edbc8e2a8697c15331677e6ebf0b61fffffa50600160005101600052600060006000600073cbbf5374fce5edbc8e2a8697c15331677e6ebf0b650ffffffffffffa00",
                "nonce" : "0x00",
                "storage" : {
                }
            }
        },
        "transaction" : {
            "data" : [
                "0x000000000000000000000000bbbf5374fce5edbc8e2a8697c15331677e6ebf0b",
                "0x000000000000000000000000cbbf5374fce5edbc8e2a8697c15331677e6ebf0b"
            ],
            "gasLimit" : [
                "0x01ba8140"
            ],
            "gasPrice" : "0x0a",
            "nonce" : "0x00",
            "secretKey" : "0x45a915e4d060149eb4365960e6a7a45f334393093061116b197e3240065ff2d8",
            "sender" : "0xa94f5374fce5edbc8e2a8697c15331677e6ebf0b",
            "to" : "0x1000000000000000000000000000000000000000",
            "value" : [
                "0x0a"
            ]
        }
    }
}