{
    "static_Call1MB1024Calldepth" : {
        "_info" : {
            "comment" : "",
            "filling-rpc-server" : "evm version 1.11.0-unstable-e04d63eb-20230113",
            "filling-tool-version" : "retesteth-0.2.3-postmerge+commit.801c0d4c.Linux.g++",
            "generatedTestHash" : "b03efc0476f6f2864ad77b4cb0ae3c8407b76668b9531509783a776504ed5d94",
            "lllcversion" : "Version: 0.5.14-develop.2021.4.29+commit.14c9d5de.Linux.clang",
            "solidity" : "Version: 0.8.17-develop.2022.9.30+commit.8df45f5f.Linux.clang",
            "source" : "src/GeneralStateTestsFiller/stStaticCall/static_Call1MB1024CalldepthFiller.json",
            "sourceHash" : "d57ec3c07e17843746e43733c5c0cebc9ddd4377ba1208cebbf191e925d0ffde"
        },
        "env" : {
            "currentBaseFee" : "0x0a",
            "currentCoinbase" : "0xb94f5374fce5edbc8e2a8697c15331677e6ebf0b",
            "currentDifficulty" : "0x020000",
            "currentGasLimit" : "0xcfcd253d00",
            "currentNumber" : "0x01",
            "currentRandom" : "0x0000000000000000000000000000000000000000000000000000000000020000",
            "currentTimestamp" : "0x03e8",
            "previousHash" : "0x5e20a0453cecd065ea59c37ac63e079ee08998b6045136a8ce6635c7912ec0b6"
        },
        "post" : {
            "Berlin" : [
                {
                    "hash" : "0xdfd583da2dd87aabf67a0bb24ca7916bd6344331e29b7cc83a6a4df758f5e9a4",
                    "indexes" : {
                        "data" : 0,
                        "gas" : 0,
                        "value" : 0
                    },
                    "logs" : "0x1dcc4de8dec75d7aab85b567b6ccd41ad312451b948a7413f0a142fd40d49347",
                    "txbytes" : "0xf881800a8401ba81409410000000000000000000000000000000000000000aa0000000000000000000000000bbbf5374fce5edbc8e2a8697c15331677e6ebf0b1ba0ac108dc005e452bba3982d5bede8c525d991b710a51cb0f6f5b8737fcfa63538a0044920f614a9b5bdcc8c93309de80f86d6abb85018adc69abffaa8fa3ef41eb9"
                },
                {
                    "hash" : "0x20ad53c39d28d508d79e4cabb9d034e203a124650f3f3477397b9975e9e8f8ca",
                    "indexes" : {
                        "data" : 1,
                        "gas" : 0,
                        "value" : 0
                    },
                    "logs" : "0x1dcc4de8dec75d7aab85b567b6ccd41ad312451b948a7413f0a142fd40d49347",
                    "txbytes" : "0xf881800a8401ba81409410000000000000000000000000000000000000000aa0000000000000000000000000cbbf5374fce5edbc8e2a8697c15331677e6ebf0b1ba06b63d78fcf441d16479890c2299fa1ec7183dcf29ab3fba330b27ae3cafcdbe7a04aa4bfaab57a68b1f5ba642ea9d1ce53068bb7cf42e7f6dba261ce74a6bb690d"
                }
            ],
            "Istanbul" : [
                {
                    "hash" : "0x0bc986d520015766480a36026a02c4cdad627e6e0350388db30ced96c5053fd2",
                    "indexes" : {
                        "data" : 0,
                        "gas" : 0,
                        "value" : 0
                    },
                    "logs" : "0x1dcc4de8dec75d7aab85b567b6ccd41ad312451b948a7413f0a142fd40d49347",
                    "txbytes" : "0xf881800a8401ba81409410000000000000000000000000000000000000000aa0000000000000000000000000bbbf5374fce5edbc8e2a8697c15331677e6ebf0b1ba0ac108dc005e452bba3982d5bede8c525d991b710a51cb0f6f5b8737fcfa63538a0044920f614a9b5bdcc8c93309de80f86d6abb85018adc69abffaa8fa3ef41eb9"
                },
                {
                    "hash" : "0x5672d849f07fc69e0172a93d1053c490968f81ba5da1e635f50e5073f0e6071f",
                    "indexes" : {
                        "data" : 1,
                        "gas" : 0,
                        "value" : 0
                    },
                    "logs" : "0x1dcc4de8dec75d7aab85b567b6ccd41ad312451b948a7413f0a142fd40d49347",
                    "txbytes" : "0xf881800a8401ba81409410000000000000000000000000000000000000000aa0000000000000000000000000cbbf5374fce5edbc8e2a8697c15331677e6ebf0b1ba06b63d78fcf441d16479890c2299fa1ec7183dcf29ab3fba330b27ae3cafcdbe7a04aa4bfaab57a68b1f5ba642ea9d1ce53068bb7cf42e7f6dba261ce74a6bb690d"
                }
            ],
            "London" : [
                {
                    "hash" : "0xbff3f75ea3c91446b0156b674941a8c001c9709f942d91240b12fed4b167de4a",
                    "indexes" : {
                        "data" : 0,
                        "gas" : 0,
                        "value" : 0
                    },
                    "logs" : "0x1dcc4de8dec75d7aab85b567b6ccd41ad312451b948a7413f0a142fd40d49347",
                    "txbytes" : "0xf881800a8401ba81409410000000000000000000000000000000000000000aa0000000000000000000000000bbbf5374fce5edbc8e2a8697c15331677e6ebf0b1ba0ac108dc005e452bba3982d5bede8c525d991b710a51cb0f6f5b8737fcfa63538a0044920f614a9b5bdcc8c93309de80f86d6abb85018adc69abffaa8fa3ef41eb9"
                },
                {
                    "hash" : "0x1e0547e49d837edda95203859924d15a591affd4eb87635fee22bea8b8b21439",
                    "indexes" : {
                        "data" : 1,
                        "gas" : 0,
                        "value" : 0
                    },
                    "logs" : "0x1dcc4de8dec75d7aab85b567b6ccd41ad312451b948a7413f0a142fd40d49347",
                    "txbytes" : "0xf881800a8401ba81409410000000000000000000000000000000000000000aa0000000000000000000000000cbbf5374fce5edbc8e2a8697c15331677e6ebf0b1ba06b63d78fcf441d16479890c2299fa1ec7183dcf29ab3fba330b27ae3cafcdbe7a04aa4bfaab57a68b1f5ba642ea9d1ce53068bb7cf42e7f6dba261ce74a6bb690d"
                }
            ],
            "Merge" : [
                {
                    "hash" : "0xbff3f75ea3c91446b0156b674941a8c001c9709f942d91240b12fed4b167de4a",
                    "indexes" : {
                        "data" : 0,
                        "gas" : 0,
                        "value" : 0
                    },
                    "logs" : "0x1dcc4de8dec75d7aab85b567b6ccd41ad312451b948a7413f0a142fd40d49347",
                    "txbytes" : "0xf881800a8401ba81409410000000000000000000000000000000000000000aa0000000000000000000000000bbbf5374fce5edbc8e2a8697c15331677e6ebf0b1ba0ac108dc005e452bba3982d5bede8c525d991b710a51cb0f6f5b8737fcfa63538a0044920f614a9b5bdcc8c93309de80f86d6abb85018adc69abffaa8fa3ef41eb9"
                },
                {
                    "hash" : "0x1e0547e49d837edda95203859924d15a591affd4eb87635fee22bea8b8b21439",
                    "indexes" : {
                        "data" : 1,
                        "gas" : 0,
                        "value" : 0
                    },
                    "logs" : "0x1dcc4de8dec75d7aab85b567b6ccd41ad312451b948a7413f0a142fd40d49347",
                    "txbytes" : "0xf881800a8401ba81409410000000000000000000000000000000000000000aa0000000000000000000000000cbbf5374fce5edbc8e2a8697c15331677e6ebf0b1ba06b63d78fcf441d16479890c2299fa1ec7183dcf29ab3fba330b27ae3cafcdbe7a04aa4bfaab57a68b1f5ba642ea9d1ce53068bb7cf42e7f6dba261ce74a6bb690d"
                }
            ],
            "Shanghai" : [
                {
                    "hash" : "0xbff3f75ea3c91446b0156b674941a8c001c9709f942d91240b12fed4b167de4a",
                    "indexes" : {
                        "data" : 0,
                        "gas" : 0,
                        "value" : 0
                    },
                    "logs" : "0x1dcc4de8dec75d7aab85b567b6ccd41ad312451b948a7413f0a142fd40d49347",
                    "txbytes" : "0xf881800a8401ba81409410000000000000000000000000000000000000000aa0000000000000000000000000bbbf5374fce5edbc8e2a8697c15331677e6ebf0b1ba0ac108dc005e452bba3982d5bede8c525d991b710a51cb0f6f5b8737fcfa63538a0044920f614a9b5bdcc8c93309de80f86d6abb85018adc69abffaa8fa3ef41eb9"
                },
                {
                    "hash" : "0x1e0547e49d837edda95203859924d15a591affd4eb87635fee22bea8b8b21439",
                    "indexes" : {
                        "data" : 1,
                        "gas" : 0,
                        "value" : 0
                    },
                    "logs" : "0x1dcc4de8dec75d7aab85b567b6ccd41ad312451b948a7413f0a142fd40d49347",
                    "txbytes" : "0xf881800a8401ba81409410000000000000000000000000000000000000000aa0000000000000000000000000cbbf5374fce5edbc8e2a8697c15331677e6ebf0b1ba06b63d78fcf441d16479890c2299fa1ec7183dcf29ab3fba330b27ae3cafcdbe7a04aa4bfaab57a68b1f5ba642ea9d1ce53068bb7cf42e7f6dba261ce74a6bb690d"
                }
            ]
        },
        "pre" : {
            "0x1000000000000000000000000000000000000000" : {
                "balance" : "0x0fffffffffffff",
                "code" : "0x600060006000600060006000355af160005500",
                "nonce" : "0x00",
                "storage" : {
                }
            },
            "0xa94f5374fce5edbc8e2a8697c15331677e6ebf0b" : {
                "balance" : "0xffffffffffffffffffffffffffffffff",
                "code" : "0x",
                "nonce" : "0x00",
                "storage" : {
                }
            },
            "0xaaa50000fce5edbc8e2a8697c15331677e6ebf0b" : {
                "balance" : "0x0fffffffffffff",
                "code" : "0x",
                "nonce" : "0x00",
                "storage" : {
                }
            },
            "0xbbbf5374fce5edbc8e2a8697c15331677e6ebf0b" : {
                "balance" : "0x0fffffffffffff",
                "code" : "0x60016000540160005561040060005410601b5760016002556045565b60006000620f4240600073bbbf5374fce5edbc8e2a8697c15331677e6ebf0b620f55c85a03fa6001555b00",
                "nonce" : "0x00",
                "storage" : {
                }
            },
            "0xcbbf5374fce5edbc8e2a8697c15331677e6ebf0b" : {
                "balance" : "0x0fffffffffffff",
                "code" : "0x60016000510160005261040060005110601b5760016040526045565b60006000620f4240600073cbbf5374fce5edbc8e2a8697c15331677e6ebf0b620f55c85a03fa6020525b00",
                "nonce" : "0x00",
                "storage" : {
                }
            }
        },
        "transaction" : {
            "data" : [
                "0x000000000000000000000000bbbf5374fce5edbc8e2a8697c15331677e6ebf0b",
                "0x000000000000000000000000cbbf5374fce5edbc8e2a8697c15331677e6ebf0b"
            ],
            "gasLimit" : [
                "0x01ba8140"
            ],
            "gasPrice" : "0x0a",
            "nonce" : "0x00",
            "secretKey" : "0x45a915e4d060149eb4365960e6a7a45f334393093061116b197e3240065ff2d8",
            "sender" : "0xa94f5374fce5edbc8e2a8697c15331677e6ebf0b",
            "to" : "0x1000000000000000000000000000000000000000",
            "value" : [
                "0x0a"
            ]
        }
    }
}