{
    "static_ABAcalls2" : {
        "_info" : {
            "comment" : "",
            "filling-rpc-server" : "evm version 1.11.0-unstable-e04d63eb-20230113",
            "filling-tool-version" : "retesteth-0.2.3-postmerge+commit.801c0d4c.Linux.g++",
            "generatedTestHash" : "96aa8c4aad6ac338019c931d8e646a22010ddb0241df8610b2ec2cb6d48687aa",
            "lllcversion" : "Version: 0.5.14-develop.2021.4.29+commit.14c9d5de.Linux.clang",
            "solidity" : "Version: 0.8.17-develop.2022.9.30+commit.8df45f5f.Linux.clang",
            "source" : "src/GeneralStateTestsFiller/stStaticCall/static_ABAcalls2Filler.json",
            "sourceHash" : "5f33f848fb95890a94ab830c072731f65c7b15f07d3bef2a25f9d06981ab1816"
        },
        "env" : {
            "currentBaseFee" : "0x0a",
            "currentCoinbase" : "0x2adc25665018aa1fe0e6bc666dac8fc2697ff9ba",
            "currentDifficulty" : "0x020000",
            "currentGasLimit" : "0x02540be400",
            "currentNumber" : "0x01",
            "currentRandom" : "0x0000000000000000000000000000000000000000000000000000000000020000",
            "currentTimestamp" : "0x03e8",
            "previousHash" : "0x5e20a0453cecd065ea59c37ac63e079ee08998b6045136a8ce6635c7912ec0b6"
        },
        "post" : {
            "Berlin" : [
                {
                    "hash" : "0x6bc5fc2fc694dec8890e0738a1fc1cba9458d74a9413464cc08fea3f7bcec42b",
                    "indexes" : {
                        "data" : 0,
                        "gas" : 0,
                        "value" : 0
                    },
                    "logs" : "0x1dcc4de8dec75d7aab85b567b6ccd41ad312451b948a7413f0a142fd40d49347",
                    "txbytes" : "0xf884800a8401ba8140941000000000000000000000000000000000000000830186a0a0000000000000000000000000095e7baea6a6c7c4c2dfeb977efac326af552d871ba055c2ef58b05a1a523a8f3a7b79c28f925aa1bb620df048ef75094c62c12c819da040f99298a5b6eb6695571ed92c97257a807bd5c1044b8b44ab444b904640a564"
                },
                {
                    "hash" : "0x3fce7084843844574e50ff91f64811f4265f62e1ecf9dddf2ea359285f734b84",
                    "indexes" : {
                        "data" : 1,
                        "gas" : 0,
                        "value" : 0
                    },
                    "logs" : "0x1dcc4de8dec75d7aab85b567b6ccd41ad312451b948a7413f0a142fd40d49347",
                    "txbytes" : "0xf884800a8401ba8140941000000000000000000000000000000000000000830186a0a0000000000000000000000000195e7baea6a6c7c4c2dfeb977efac326af552d871ca08eac307312a6f67c4bbecc9b95e393768e5f82ca67ab2ab602acf865a0c5165aa05e26ad46679b595cd5ee6cba47082d25be71fe84ab163beed4d0313cbf8560cf"
                }
            ],
            "Istanbul" : [
                {
                    "hash" : "0x9765e0f27863539e71664b2a08bd6c5131da39ff2e7f00d1badb0ad8461b650a",
                    "indexes" : {
                        "data" : 0,
                        "gas" : 0,
                        "value" : 0
                    },
                    "logs" : "0x1dcc4de8dec75d7aab85b567b6ccd41ad312451b948a7413f0a142fd40d49347",
                    "txbytes" : "0xf884800a8401ba8140941000000000000000000000000000000000000000830186a0a0000000000000000000000000095e7baea6a6c7c4c2dfeb977efac326af552d871ba055c2ef58b05a1a523a8f3a7b79c28f925aa1bb620df048ef75094c62c12c819da040f99298a5b6eb6695571ed92c97257a807bd5c1044b8b44ab444b904640a564"
                },
                {
                    "hash" : "0x82c7148a95db06d5683eb70af216d232fd7fae604759370f9a269b1898c64ea3",
                    "indexes" : {
                        "data" : 1,
                        "gas" : 0,
                        "value" : 0
                    },
                    "logs" : "0x1dcc4de8dec75d7aab85b567b6ccd41ad312451b948a7413f0a142fd40d49347",
                    "txbytes" : "0xf884800a8401ba8140941000000000000000000000000000000000000000830186a0a0000000000000000000000000195e7baea6a6c7c4c2dfeb977efac326af552d871ca08eac307312a6f67c4bbecc9b95e393768e5f82ca67ab2ab602acf865a0c5165aa05e26ad46679b595cd5ee6cba47082d25be71fe84ab163beed4d0313cbf8560cf"
                }
            ],
            "London" : [
                {
                    "hash" : "0xa6fb05739846537ce44ec672a57cfd58a0dc1faa8a25bb14aa263beb161406fb",
                    "indexes" : {
                        "data" : 0,
                        "gas" : 0,
                        "value" : 0
                    },
                    "logs" : "0x1dcc4de8dec75d7aab85b567b6ccd41ad312451b948a7413f0a142fd40d49347",
                    "txbytes" : "0xf884800a8401ba8140941000000000000000000000000000000000000000830186a0a0000000000000000000000000095e7baea6a6c7c4c2dfeb977efac326af552d871ba055c2ef58b05a1a523a8f3a7b79c28f925aa1bb620df048ef75094c62c12c819da040f99298a5b6eb6695571ed92c97257a807bd5c1044b8b44ab444b904640a564"
                },
                {
                    "hash" : "0xd33aa7dc2ff0769d102433dd3bb2ca43f3f02c9189fdcd5dbacfdc17011b5291",
                    "indexes" : {
                        "data" : 1,
                        "gas" : 0,
                        "value" : 0
                    },
                    "logs" : "0x1dcc4de8dec75d7aab85b567b6ccd41ad312451b948a7413f0a142fd40d49347",
                    "txbytes" : "0xf884800a8401ba8140941000000000000000000000000000000000000000830186a0a0000000000000000000000000195e7baea6a6c7c4c2dfeb977efac326af552d871ca08eac307312a6f67c4bbecc9b95e393768e5f82ca67ab2ab602acf865a0c5165aa05e26ad46679b595cd5ee6cba47082d25be71fe84ab163beed4d0313cbf8560cf"
                }
            ],
            "Merge" : [
                {
                    "hash" : "0xa6fb05739846537ce44ec672a57cfd58a0dc1faa8a25bb14aa263beb161406fb",
                    "indexes" : {
                        "data" : 0,
                        "gas" : 0,
                        "value" : 0
                    },
                    "logs" : "0x1dcc4de8dec75d7aab85b567b6ccd41ad312451b948a7413f0a142fd40d49347",
                    "txbytes" : "0xf884800a8401ba8140941000000000000000000000000000000000000000830186a0a0000000000000000000000000095e7baea6a6c7c4c2dfeb977efac326af552d871ba055c2ef58b05a1a523a8f3a7b79c28f925aa1bb620df048ef75094c62c12c819da040f99298a5b6eb6695571ed92c97257a807bd5c1044b8b44ab444b904640a564"
                },
                {
                    "hash" : "0xd33aa7dc2ff0769d102433dd3bb2ca43f3f02c9189fdcd5dbacfdc17011b5291",
                    "indexes" : {
                        "data" : 1,
                        "gas" : 0,
                        "value" : 0
                    },
                    "logs" : "0x1dcc4de8dec75d7aab85b567b6ccd41ad312451b948a7413f0a142fd40d49347",
                    "txbytes" : "0xf884800a8401ba8140941000000000000000000000000000000000000000830186a0a0000000000000000000000000195e7baea6a6c7c4c2dfeb977efac326af552d871ca08eac307312a6f67c4bbecc9b95e393768e5f82ca67ab2ab602acf865a0c5165aa05e26ad46679b595cd5ee6cba47082d25be71fe84ab163beed4d0313cbf8560cf"
                }
            ],
            "Shanghai" : [
                {
                    "hash" : "0xa6fb05739846537ce44ec672a57cfd58a0dc1faa8a25bb14aa263beb161406fb",
                    "indexes" : {
                        "data" : 0,
                        "gas" : 0,
                        "value" : 0
                    },
                    "logs" : "0x1dcc4de8dec75d7aab85b567b6ccd41ad312451b948a7413f0a142fd40d49347",
                    "txbytes" : "0xf884800a8401ba8140941000000000000000000000000000000000000000830186a0a0000000000000000000000000095e7baea6a6c7c4c2dfeb977efac326af552d871ba055c2ef58b05a1a523a8f3a7b79c28f925aa1bb620df048ef75094c62c12c819da040f99298a5b6eb6695571ed92c97257a807bd5c1044b8b44ab444b904640a564"
                },
                {
                    "hash" : "0xd33aa7dc2ff0769d102433dd3bb2ca43f3f02c9189fdcd5dbacfdc17011b5291",
                    "indexes" : {
                        "data" : 1,
                        "gas" : 0,
                        "value" : 0
                    },
                    "logs" : "0x1dcc4de8dec75d7aab85b567b6ccd41ad312451b948a7413f0a142fd40d49347",
                    "txbytes" : "0xf884800a8401ba8140941000000000000000000000000000000000000000830186a0a0000000000000000000000000195e7baea6a6c7c4c2dfeb977efac326af552d871ca08eac307312a6f67c4bbecc9b95e393768e5f82ca67ab2ab602acf865a0c5165aa05e26ad46679b595cd5ee6cba47082d25be71fe84ab163beed4d0313cbf8560cf"
                }
            ]
        },
        "pre" : {
            "0x095e7baea6a6c7c4c2dfeb977efac326af552d87" : {
                "balance" : "0x0de0b6b3a7640000",
                "code" : "0x600160005401600055600060006000600073945304eb96065b2a98b57a48a06ae28d285a71b5620186a05a03fa00",
                "nonce" : "0x00",
                "storage" : {
                }
            },
            "0x1000000000000000000000000000000000000000" : {
                "balance" : "0x00",
                "code" : "0x6000600060006000346000355af1600055600160015500",
                "nonce" : "0x00",
                "storage" : {
                }
            },
            "0x195e7baea6a6c7c4c2dfeb977efac326af552d87" : {
                "balance" : "0x0de0b6b3a7640000",
                "code" : "0x600160005101600052600060006000600073245304eb96065b2a98b57a48a06ae28d285a71b5620186a05a03fa00",
                "nonce" : "0x00",
                "storage" : {
                }
            },
            "0x245304eb96065b2a98b57a48a06ae28d285a71b5" : {
                "balance" : "0x00",
                "code" : "0x600160005101600052600060006000600073195e7baea6a6c7c4c2dfeb977efac326af552d87620186a05a03fa00",
                "nonce" : "0x00",
                "storage" : {
                }
            },
            "0x945304eb96065b2a98b57a48a06ae28d285a71b5" : {
                "balance" : "0x00",
                "code" : "0x600160005401600055600060006000600073095e7baea6a6c7c4c2dfeb977efac326af552d87620186a05a03fa00",
                "nonce" : "0x00",
                "storage" : {
                }
            },
            "0xa94f5374fce5edbc8e2a8697c15331677e6ebf0b" : {
                "balance" : "0x0de0b6b3a7640000",
                "code" : "0x",
                "nonce" : "0x00",
                "storage" : {
                }
            }
        },
        "transaction" : {
            "data" : [
                "0x000000000000000000000000095e7baea6a6c7c4c2dfeb977efac326af552d87",
                "0x000000000000000000000000195e7baea6a6c7c4c2dfeb977efac326af552d87"
            ],
            "gasLimit" : [
                "0x01ba8140"
            ],
            "gasPrice" : "0x0a",
            "nonce" : "0x00",
            "secretKey" : "0x45a915e4d060149eb4365960e6a7a45f334393093061116b197e3240065ff2d8",
            "sender" : "0xa94f5374fce5edbc8e2a8697c15331677e6ebf0b",
            "to" : "0x1000000000000000000000000000000000000000",
            "value" : [
                "0x0186a0"
            ]
        }
    }
}