{
    "static_Call1024BalanceTooLow2" : {
        "_info" : {
            "comment" : "",
            "filling-rpc-server" : "evm version 1.11.0-unstable-e04d63eb-20230113",
            "filling-tool-version" : "retesteth-0.2.3-postmerge+commit.801c0d4c.Linux.g++",
            "generatedTestHash" : "6129df4e51c846cba6af7e439c63b0c9a4e77b14a1aaadcf1533516f900ea48c",
            "lllcversion" : "Version: 0.5.14-develop.2021.4.29+commit.14c9d5de.Linux.clang",
            "solidity" : "Version: 0.8.17-develop.2022.9.30+commit.8df45f5f.Linux.clang",
            "source" : "src/GeneralStateTestsFiller/stStaticCall/static_Call1024BalanceTooLow2Filler.json",
            "sourceHash" : "9499615926d95a1e2f04203f4170bf3f2bcc95549e0a5496cc1ab9b9b4906154"
        },
        "env" : {
            "currentBaseFee" : "0x0a",
            "currentCoinbase" : "0xb94f5374fce5edbc8e2a8697c15331677e6ebf0b",
            "currentDifficulty" : "0x020000",
            "currentGasLimit" : "0x7fffffffffffffff",
            "currentNumber" : "0x01",
            "currentRandom" : "0x0000000000000000000000000000000000000000000000000000000000020000",
            "currentTimestamp" : "0x03e8",
            "previousHash" : "0x5e20a0453cecd065ea59c37ac63e079ee08998b6045136a8ce6635c7912ec0b6"
        },
        "post" : {
            "Berlin" : [
                {
                    "hash" : "0x4b53faa6f26ba041a7ef80342be0bad3e4d8038bc2675d7d0c37ca49c84bae27",
                    "indexes" : {
                        "data" : 0,
                        "gas" : 0,
                        "value" : 0
                    },
                    "logs" : "0x1dcc4de8dec75d7aab85b567b6ccd41ad312451b948a7413f0a142fd40d49347",
                    "txbytes" : "0xf881800a8401ba81409410000000000000000000000000000000000000000aa0000000000000000000000000bbbf5374fce5edbc8e2a8697c15331677e6ebf0b1ba0ac108dc005e452bba3982d5bede8c525d991b710a51cb0f6f5b8737fcfa63538a0044920f614a9b5bdcc8c93309de80f86d6abb85018adc69abffaa8fa3ef41eb9"
                },
                {
                    "hash" : "0xb6c45c3def96d8ae27ee0fd8f3f4ac082f01827e665ba1ab44a8c847251363de",
                    "indexes" : {
                        "data" : 1,
                        "gas" : 0,
                        "value" : 0
                    },
                    "logs" : "0x1dcc4de8dec75d7aab85b567b6ccd41ad312451b948a7413f0a142fd40d49347",
                    "txbytes" : "0xf881800a8401ba81409410000000000000000000000000000000000000000aa0000000000000000000000000cbbf5374fce5edbc8e2a8697c15331677e6ebf0b1ba06b63d78fcf441d16479890c2299fa1ec7183dcf29ab3fba330b27ae3cafcdbe7a04aa4bfaab57a68b1f5ba642ea9d1ce53068bb7cf42e7f6dba261ce74a6bb690d"
                }
            ],
            "Istanbul" : [
                {
                    "hash" : "0xebf3a233d6a43415478431ec9e553204e06c38c4a10f73f890eae75da04ebefc",
                    "indexes" : {
                        "data" : 0,
                        "gas" : 0,
                        "value" : 0
                    },
                    "logs" : "0x1dcc4de8dec75d7aab85b567b6ccd41ad312451b948a7413f0a142fd40d49347",
                    "txbytes" : "0xf881800a8401ba81409410000000000000000000000000000000000000000aa0000000000000000000000000bbbf5374fce5edbc8e2a8697c15331677e6ebf0b1ba0ac108dc005e452bba3982d5bede8c525d991b710a51cb0f6f5b8737fcfa63538a0044920f614a9b5bdcc8c93309de80f86d6abb85018adc69abffaa8fa3ef41eb9"
                },
                {
                    "hash" : "0x0a653e51cfc242d6ce1c0c73dd597177a44ac914316953d9782f19769df08483",
                    "indexes" : {
                        "data" : 1,
                        "gas" : 0,
                        "value" : 0
                    },
                    "logs" : "0x1dcc4de8dec75d7aab85b567b6ccd41ad312451b948a7413f0a142fd40d49347",
                    "txbytes" : "0xf881800a8401ba81409410000000000000000000000000000000000000000aa0000000000000000000000000cbbf5374fce5edbc8e2a8697c15331677e6ebf0b1ba06b63d78fcf441d16479890c2299fa1ec7183dcf29ab3fba330b27ae3cafcdbe7a04aa4bfaab57a68b1f5ba642ea9d1ce53068bb7cf42e7f6dba261ce74a6bb690d"
                }
            ],
            "London" : [
                {
                    "hash" : "0xe18cc767fd2ae3bf0cae4b4ceec6286a4f302106404b8b3dd3a704e555322573",
                    "indexes" : {
                        "data" : 0,
                        "gas" : 0,
                        "value" : 0
                    },
                    "logs" : "0x1dcc4de8dec75d7aab85b567b6ccd41ad312451b948a7413f0a142fd40d49347",
                    "txbytes" : "0xf881800a8401ba81409410000000000000000000000000000000000000000aa0000000000000000000000000bbbf5374fce5edbc8e2a8697c15331677e6ebf0b1ba0ac108dc005e452bba3982d5bede8c525d991b710a51cb0f6f5b8737fcfa63538a0044920f614a9b5bdcc8c93309de80f86d6abb85018adc69abffaa8fa3ef41eb9"
                },
                {
                    "hash" : "0xa58956ada127795aa12cef56563cb2ba4c7c5abf46dd6f686172e7a77a6eee62",
                    "indexes" : {
                        "data" : 1,
                        "gas" : 0,
                        "value" : 0
                    },
                    "logs" : "0x1dcc4de8dec75d7aab85b567b6ccd41ad312451b948a7413f0a142fd40d49347",
                    "txbytes" : "0xf881800a8401ba81409410000000000000000000000000000000000000000aa0000000000000000000000000cbbf5374fce5edbc8e2a8697c15331677e6ebf0b1ba06b63d78fcf441d16479890c2299fa1ec7183dcf29ab3fba330b27ae3cafcdbe7a04aa4bfaab57a68b1f5ba642ea9d1ce53068bb7cf42e7f6dba261ce74a6bb690d"
                }
            ],
            "Merge" : [
                {
                    "hash" : "0xe18cc767fd2ae3bf0cae4b4ceec6286a4f302106404b8b3dd3a704e555322573",
                    "indexes" : {
                        "data" : 0,
                        "gas" : 0,
                        "value" : 0
                    },
                    "logs" : "0x1dcc4de8dec75d7aab85b567b6ccd41ad312451b948a7413f0a142fd40d49347",
                    "txbytes" : "0xf881800a8401ba81409410000000000000000000000000000000000000000aa0000000000000000000000000bbbf5374fce5edbc8e2a8697c15331677e6ebf0b1ba0ac108dc005e452bba3982d5bede8c525d991b710a51cb0f6f5b8737fcfa63538a0044920f614a9b5bdcc8c93309de80f86d6abb85018adc69abffaa8fa3ef41eb9"
                },
                {
                    "hash" : "0xa58956ada127795aa12cef56563cb2ba4c7c5abf46dd6f686172e7a77a6eee62",
                    "indexes" : {
                        "data" : 1,
                        "gas" : 0,
                        "value" : 0
                    },
                    "logs" : "0x1dcc4de8dec75d7aab85b567b6ccd41ad312451b948a7413f0a142fd40d49347",
                    "txbytes" : "0xf881800a8401ba81409410000000000000000000000000000000000000000aa0000000000000000000000000cbbf5374fce5edbc8e2a8697c15331677e6ebf0b1ba06b63d78fcf441d16479890c2299fa1ec7183dcf29ab3fba330b27ae3cafcdbe7a04aa4bfaab57a68b1f5ba642ea9d1ce53068bb7cf42e7f6dba261ce74a6bb690d"
                }
            ],
            "Shanghai" : [
                {
                    "hash" : "0xe18cc767fd2ae3bf0cae4b4ceec6286a4f302106404b8b3dd3a704e555322573",
                    "indexes" : {
                        "data" : 0,
                        "gas" : 0,
                        "value" : 0
                    },
                    "logs" : "0x1dcc4de8dec75d7aab85b567b6ccd41ad312451b948a7413f0a142fd40d49347",
                    "txbytes" : "0xf881800a8401ba81409410000000000000000000000000000000000000000aa0000000000000000000000000bbbf5374fce5edbc8e2a8697c15331677e6ebf0b1ba0ac108dc005e452bba3982d5bede8c525d991b710a51cb0f6f5b8737fcfa63538a0044920f614a9b5bdcc8c93309de80f86d6abb85018adc69abffaa8fa3ef41eb9"
                },
                {
                    "hash" : "0xa58956ada127795aa12cef56563cb2ba4c7c5abf46dd6f686172e7a77a6eee62",
                    "indexes" : {
                        "data" : 1,
                        "gas" : 0,
                        "value" : 0
                    },
                    "logs" : "0x1dcc4de8dec75d7aab85b567b6ccd41ad312451b948a7413f0a142fd40d49347",
                    "txbytes" : "0xf881800a8401ba81409410000000000000000000000000000000000000000aa0000000000000000000000000cbbf5374fce5edbc8e2a8697c15331677e6ebf0b1ba06b63d78fcf441d16479890c2299fa1ec7183dcf29ab3fba330b27ae3cafcdbe7a04aa4bfaab57a68b1f5ba642ea9d1ce53068bb7cf42e7f6dba261ce74a6bb690d"
                }
            ]
        },
        "pre" : {
            "0x1000000000000000000000000000000000000000" : {
                "balance" : "0x00",
                "code" : "0x6000600060006000346000355af1600055600160015500",
                "nonce" : "0x00",
                "storage" : {
                }
            },
            "0xa94f5374fce5edbc8e2a8697c15331677e6ebf0b" : {
                "balance" : "0xffffffffffffffffffffffffffffffff",
                "code" : "0x",
                "nonce" : "0x00",
                "storage" : {
                }
            },
            "0xaaaf5374fce5edbc8e2a8697c15331677e6ebf0b" : {
                "balance" : "0x1b58",
                "code" : "0x",
                "nonce" : "0x00",
                "storage" : {
                }
            },
            "0xbbbf5374fce5edbc8e2a8697c15331677e6ebf0b" : {
                "balance" : "0x0400",
                "code" : "0x60016000540160005560006000600060005473bbbf5374fce5edbc8e2a8697c15331677e6ebf0b650ffffffffffffa60015500",
                "nonce" : "0x00",
                "storage" : {
                }
            },
            "0xcbbf5374fce5edbc8e2a8697c15331677e6ebf0b" : {
                "balance" : "0x0400",
                "code" : "0x60016000510160005260006000600060005173cbbf5374fce5edbc8e2a8697c15331677e6ebf0b650ffffffffffffa60205200",
                "nonce" : "0x00",
                "storage" : {
                }
            }
        },
        "transaction" : {
            "data" : [
                "0x000000000000000000000000bbbf5374fce5edbc8e2a8697c15331677e6ebf0b",
                "0x000000000000000000000000cbbf5374fce5edbc8e2a8697c15331677e6ebf0b"
            ],
            "gasLimit" : [
                "0x01ba8140"
            ],
            "gasPrice" : "0x0a",
            "nonce" : "0x00",
            "secretKey" : "0x45a915e4d060149eb4365960e6a7a45f334393093061116b197e3240065ff2d8",
            "sender" : "0xa94f5374fce5edbc8e2a8697c15331677e6ebf0b",
            "to" : "0x1000000000000000000000000000000000000000",
            "value" : [
                "0x0a"
            ]
        }
    }
}