{
    "static_LoopCallsDepthThenRevert2" : {
        "_info" : {
            "comment" : "",
            "filling-rpc-server" : "evm version 1.11.0-unstable-e04d63eb-20230113",
            "filling-tool-version" : "retesteth-0.2.3-postmerge+commit.801c0d4c.Linux.g++",
            "generatedTestHash" : "82e4720548b200f82806cc3a513b66e3e9b3bc2b66964f18697f1fd04437da45",
            "lllcversion" : "Version: 0.5.14-develop.2021.4.29+commit.14c9d5de.Linux.clang",
            "solidity" : "Version: 0.8.17-develop.2022.9.30+commit.8df45f5f.Linux.clang",
            "source" : "src/GeneralStateTestsFiller/stStaticCall/static_LoopCallsDepthThenRevert2Filler.json",
            "sourceHash" : "d0d4b36c4523bf99befc329b0cb26fddf1c8829fc93eb007335a061a12adc5ba"
        },
        "env" : {
            "currentBaseFee" : "0x0a",
            "currentCoinbase" : "0x2adc25665018aa1fe0e6bc666dac8fc2697ff9ba",
            "currentDifficulty" : "0x020000",
            "currentGasLimit" : "0x7fffffffffffffff",
            "currentNumber" : "0x01",
            "currentRandom" : "0x0000000000000000000000000000000000000000000000000000000000020000",
            "currentTimestamp" : "0x03e8",
            "previousHash" : "0x5e20a0453cecd065ea59c37ac63e079ee08998b6045136a8ce6635c7912ec0b6"
        },
        "post" : {
            "Berlin" : [
                {
                    "hash" : "0xa1a71635a9574c8b47d3b6c40271f4eff2b45dca9af7efb28eb90a030bab67c3",
                    "indexes" : {
                        "data" : 0,
                        "gas" : 0,
                        "value" : 0
                    },
                    "logs" : "0x1dcc4de8dec75d7aab85b567b6ccd41ad312451b948a7413f0a142fd40d49347",
                    "txbytes" : "0xf861800a8401ba814094a00000000000000000000000000000000000000080801ca0070f50564b5bc758ad65a014168f338fa3ba0ccf2d637b828aeb2241ab924585a039aa1ea3858df2f76e5592127b4ff0a7517cfcf2d7038acaf28fd92ae15f043d"
                }
            ],
            "Istanbul" : [
                {
                    "hash" : "0x703b22596ce4aef3f8b209e0e21c4947074ac89b44885d586ebab934aa8f434d",
                    "indexes" : {
                        "data" : 0,
                        "gas" : 0,
                        "value" : 0
                    },
                    "logs" : "0x1dcc4de8dec75d7aab85b567b6ccd41ad312451b948a7413f0a142fd40d49347",
                    "txbytes" : "0xf861800a8401ba814094a00000000000000000000000000000000000000080801ca0070f50564b5bc758ad65a014168f338fa3ba0ccf2d637b828aeb2241ab924585a039aa1ea3858df2f76e5592127b4ff0a7517cfcf2d7038acaf28fd92ae15f043d"
                }
            ],
            "London" : [
                {
                    "hash" : "0x4f89e03050ff26b6310a1754038110cdd46e2533afd34300e4f441efbd8f2b35",
                    "indexes" : {
                        "data" : 0,
                        "gas" : 0,
                        "value" : 0
                    },
                    "logs" : "0x1dcc4de8dec75d7aab85b567b6ccd41ad312451b948a7413f0a142fd40d49347",
                    "txbytes" : "0xf861800a8401ba814094a00000000000000000000000000000000000000080801ca0070f50564b5bc758ad65a014168f338fa3ba0ccf2d637b828aeb2241ab924585a039aa1ea3858df2f76e5592127b4ff0a7517cfcf2d7038acaf28fd92ae15f043d"
                }
            ],
            "Merge" : [
                {
                    "hash" : "0x4f89e03050ff26b6310a1754038110cdd46e2533afd34300e4f441efbd8f2b35",
                    "indexes" : {
                        "data" : 0,
                        "gas" : 0,
                        "value" : 0
                    },
                    "logs" : "0x1dcc4de8dec75d7aab85b567b6ccd41ad312451b948a7413f0a142fd40d49347",
                    "txbytes" : "0xf861800a8401ba814094a00000000000000000000000000000000000000080801ca0070f50564b5bc758ad65a014168f338fa3ba0ccf2d637b828aeb2241ab924585a039aa1ea3858df2f76e5592127b4ff0a7517cfcf2d7038acaf28fd92ae15f043d"
                }
            ],
            "Shanghai" : [
                {
                    "hash" : "0x4f89e03050ff26b6310a1754038110cdd46e2533afd34300e4f441efbd8f2b35",
                    "indexes" : {
                        "data" : 0,
                        "gas" : 0,
                        "value" : 0
                    },
                    "logs" : "0x1dcc4de8dec75d7aab85b567b6ccd41ad312451b948a7413f0a142fd40d49347",
                    "txbytes" : "0xf861800a8401ba814094a00000000000000000000000000000000000000080801ca0070f50564b5bc758ad65a014168f338fa3ba0ccf2d637b828aeb2241ab924585a039aa1ea3858df2f76e5592127b4ff0a7517cfcf2d7038acaf28fd92ae15f043d"
                }
            ]
        },
        "pre" : {
            "0xa000000000000000000000000000000000000000" : {
                "balance" : "0x0a",
                "code" : "0x6103ff60003514603d57600160003501600052600060006020600073a0000000000000000000000000000000000000005afa5061041a600051106051575b66600060006002f0600052600760196003f0505b",
                "nonce" : "0x00",
                "storage" : {
                }
            },
            "0xa94f5374fce5edbc8e2a8697c15331677e6ebf0b" : {
                "balance" : "0x13426172c74d822b878fe800000000",
                "code" : "0x",
                "nonce" : "0x00",
                "storage" : {
                }
            }
        },
        "transaction" : {
            "data" : [
                "0x"
            ],
            "gasLimit" : [
                "0x01ba8140"
            ],
            "gasPrice" : "0x0a",
            "nonce" : "0x00",
            "secretKey" : "0x45a915e4d060149eb4365960e6a7a45f334393093061116b197e3240065ff2d8",
            "sender" : "0xa94f5374fce5edbc8e2a8697c15331677e6ebf0b",
            "to" : "0xa000000000000000000000000000000000000000",
            "value" : [
                "0x00"
            ]
        }
    }
}