{
    "static_CallRecursiveBombPreCall" : {
        "_info" : {
            "comment" : "",
            "filling-rpc-server" : "evm version 1.11.0-unstable-e04d63eb-20230113",
            "filling-tool-version" : "retesteth-0.2.3-postmerge+commit.801c0d4c.Linux.g++",
            "generatedTestHash" : "1591624954255970f65e1232c1759de47da04901bcdbd999c36b092b091edfc1",
            "lllcversion" : "Version: 0.5.14-develop.2021.4.29+commit.14c9d5de.Linux.clang",
            "solidity" : "Version: 0.8.17-develop.2022.9.30+commit.8df45f5f.Linux.clang",
            "source" : "src/GeneralStateTestsFiller/stStaticCall/static_CallRecursiveBombPreCallFiller.json",
            "sourceHash" : "307d7736b2eb061c1b54db8d6a429f665021dfcaeba0e84cb04d1ab45ea877f4"
        },
        "env" : {
            "currentBaseFee" : "0x0a",
            "currentCoinbase" : "0x2adc25665018aa1fe0e6bc666dac8fc2697ff9ba",
            "currentDifficulty" : "0x020000",
            "currentGasLimit" : "0x7fffffffffffffff",
            "currentNumber" : "0x01",
            "currentRandom" : "0x0000000000000000000000000000000000000000000000000000000000020000",
            "currentTimestamp" : "0x03e8",
            "previousHash" : "0x5e20a0453cecd065ea59c37ac63e079ee08998b6045136a8ce6635c7912ec0b6"
        },
        "post" : {
            "Berlin" : [
                {
                    "hash" : "0xef44a2a62ac67bf2b2b167588e1bf1902b6b9befdd6936fa6321ef42e63b7026",
                    "indexes" : {
                        "data" : 0,
                        "gas" : 0,
                        "value" : 0
                    },
                    "logs" : "0x1dcc4de8dec75d7aab85b567b6ccd41ad312451b948a7413f0a142fd40d49347",
                    "txbytes" : "0xf861800a8401ba814094095e7baea6a6c7c4c2dfeb977efac326af552d8780801ca046ff28a74c0e51d4395f64bd84c0a2eacf5a991b617cecb8dbc5d1d570224485a06fac6142a60b76e77decc315d1bf0dab9b6defde4960da6b066af1717b2f77f4"
                }
            ],
            "Istanbul" : [
                {
                    "hash" : "0x71ca48861cd7a03270348bc22c7c4377254a98765b2f72982741db6252b35060",
                    "indexes" : {
                        "data" : 0,
                        "gas" : 0,
                        "value" : 0
                    },
                    "logs" : "0x1dcc4de8dec75d7aab85b567b6ccd41ad312451b948a7413f0a142fd40d49347",
                    "txbytes" : "0xf861800a8401ba814094095e7baea6a6c7c4c2dfeb977efac326af552d8780801ca046ff28a74c0e51d4395f64bd84c0a2eacf5a991b617cecb8dbc5d1d570224485a06fac6142a60b76e77decc315d1bf0dab9b6defde4960da6b066af1717b2f77f4"
                }
            ],
            "London" : [
                {
                    "hash" : "0x7ba7d64b2a75685d278ee033464c100c7209ee9dec1b4e82ab9831242e55eb39",
                    "indexes" : {
                        "data" : 0,
                        "gas" : 0,
                        "value" : 0
                    },
                    "logs" : "0x1dcc4de8dec75d7aab85b567b6ccd41ad312451b948a7413f0a142fd40d49347",
                    "txbytes" : "0xf861800a8401ba814094095e7baea6a6c7c4c2dfeb977efac326af552d8780801ca046ff28a74c0e51d4395f64bd84c0a2eacf5a991b617cecb8dbc5d1d570224485a06fac6142a60b76e77decc315d1bf0dab9b6defde4960da6b066af1717b2f77f4"
                }
            ],
            "Merge" : [
                {
                    "hash" : "0x7ba7d64b2a75685d278ee033464c100c7209ee9dec1b4e82ab9831242e55eb39",
                    "indexes" : {
                        "data" : 0,
                        "gas" : 0,
                        "value" : 0
                    },
                    "logs" : "0x1dcc4de8dec75d7aab85b567b6ccd41ad312451b948a7413f0a142fd40d49347",
                    "txbytes" : "0xf861800a8401ba814094095e7baea6a6c7c4c2dfeb977efac326af552d8780801ca046ff28a74c0e51d4395f64bd84c0a2eacf5a991b617cecb8dbc5d1d570224485a06fac6142a60b76e77decc315d1bf0dab9b6defde4960da6b066af1717b2f77f4"
                }
            ],
            "Shanghai" : [
                {
                    "hash" : "0x7ba7d64b2a75685d278ee033464c100c7209ee9dec1b4e82ab9831242e55eb39",
                    "indexes" : {
                        "data" : 0,
                        "gas" : 0,
                        "value" : 0
                    },
                    "logs" : "0x1dcc4de8dec75d7aab85b567b6ccd41ad312451b948a7413f0a142fd40d49347",
                    "txbytes" : "0xf861800a8401ba814094095e7baea6a6c7c4c2dfeb977efac326af552d8780801ca046ff28a74c0e51d4395f64bd84c0a2eacf5a991b617cecb8dbc5d1d570224485a06fac6142a60b76e77decc315d1bf0dab9b6defde4960da6b066af1717b2f77f4"
                }
            ]
        },
        "pre" : {
            "0x095e7baea6a6c7c4c2dfeb977efac326af552d87" : {
                "balance" : "0x0fffffffffffffffffffffffffffffff",
                "code" : "0x600060006000600073bad304eb96065b2a98b57a48a06ae28d285a71b5620186a0fa50600060006000600073945304eb96065b2a98b57a48a06ae28d285a71b56707fffffffffffffff4600055600160015500",
                "nonce" : "0x00",
                "storage" : {
                }
            },
            "0x945304eb96065b2a98b57a48a06ae28d285a71b5" : {
                "balance" : "0x0de0b6b3a7640000",
                "code" : "0x600160005101600052600060006000600073945304eb96065b2a98b57a48a06ae28d285a71b562036b005a03fa00",
                "nonce" : "0x00",
                "storage" : {
                }
            },
            "0xa94f5374fce5edbc8e2a8697c15331677e6ebf0b" : {
                "balance" : "0x0fffffffffffffffffffffffffffffff",
                "code" : "0x",
                "nonce" : "0x00",
                "storage" : {
                }
            }
        },
        "transaction" : {
            "data" : [
                "0x"
            ],
            "gasLimit" : [
                "0x01ba8140"
            ],
            "gasPrice" : "0x0a",
            "nonce" : "0x00",
            "secretKey" : "0x45a915e4d060149eb4365960e6a7a45f334393093061116b197e3240065ff2d8",
            "sender" : "0xa94f5374fce5edbc8e2a8697c15331677e6ebf0b",
            "to" : "0x095e7baea6a6c7c4c2dfeb977efac326af552d87",
            "value" : [
                "0x00"
            ]
        }
    }
}