{
    "static_CallRecursiveBomb0" : {
        "_info" : {
            "comment" : "",
            "filling-rpc-server" : "evm version 1.11.0-unstable-e04d63eb-20230113",
            "filling-tool-version" : "retesteth-0.2.3-postmerge+commit.801c0d4c.Linux.g++",
            "generatedTestHash" : "8a35b25a4ce0f25b611ced2ff668f5a0633075090e825a1bbd9713d082efd377",
            "lllcversion" : "Version: 0.5.14-develop.2021.4.29+commit.14c9d5de.Linux.clang",
            "solidity" : "Version: 0.8.17-develop.2022.9.30+commit.8df45f5f.Linux.clang",
            "source" : "src/GeneralStateTestsFiller/stStaticCall/static_CallRecursiveBomb0Filler.json",
            "sourceHash" : "dbe2b597e4364ffeaa6c7ec081cc6c48b85ac77d2372387b5fdc7267847c9d76"
        },
        "env" : {
            "currentBaseFee" : "0x0a",
            "currentCoinbase" : "0x2adc25665018aa1fe0e6bc666dac8fc2697ff9ba",
            "currentDifficulty" : "0x020000",
            "currentGasLimit" : "0x174876e800",
            "currentNumber" : "0x01",
            "currentRandom" : "0x0000000000000000000000000000000000000000000000000000000000020000",
            "currentTimestamp" : "0x03e8",
            "previousHash" : "0x5e20a0453cecd065ea59c37ac63e079ee08998b6045136a8ce6635c7912ec0b6"
        },
        "post" : {
            "Berlin" : [
                {
                    "hash" : "0x6ad8bbd4542415d9d91507bd04a44e38b31443a9ce15b57a78e1e4cfdae00363",
                    "indexes" : {
                        "data" : 0,
                        "gas" : 0,
                        "value" : 0
                    },
                    "logs" : "0x1dcc4de8dec75d7aab85b567b6ccd41ad312451b948a7413f0a142fd40d49347",
                    "txbytes" : "0xf864800a8401ba814094095e7baea6a6c7c4c2dfeb977efac326af552d87830186a0801ca045290492190ac3f5aae05372e9fa01961db4bb2e501247e022e8988b2b11d76ea07ab74926085f718b1fa46746680867b54cef512f286726057463b3849462c918"
                }
            ],
            "Istanbul" : [
                {
                    "hash" : "0xa772fd25eeea74926738f4ccb18dd72f4fc3b04835deb00e93d7b72a131b5ed3",
                    "indexes" : {
                        "data" : 0,
                        "gas" : 0,
                        "value" : 0
                    },
                    "logs" : "0x1dcc4de8dec75d7aab85b567b6ccd41ad312451b948a7413f0a142fd40d49347",
                    "txbytes" : "0xf864800a8401ba814094095e7baea6a6c7c4c2dfeb977efac326af552d87830186a0801ca045290492190ac3f5aae05372e9fa01961db4bb2e501247e022e8988b2b11d76ea07ab74926085f718b1fa46746680867b54cef512f286726057463b3849462c918"
                }
            ],
            "London" : [
                {
                    "hash" : "0xf3a9e8f7433ffd7727bc3915a3107c294d8117d4947ccda48b2db5dffc583409",
                    "indexes" : {
                        "data" : 0,
                        "gas" : 0,
                        "value" : 0
                    },
                    "logs" : "0x1dcc4de8dec75d7aab85b567b6ccd41ad312451b948a7413f0a142fd40d49347",
                    "txbytes" : "0xf864800a8401ba814094095e7baea6a6c7c4c2dfeb977efac326af552d87830186a0801ca045290492190ac3f5aae05372e9fa01961db4bb2e501247e022e8988b2b11d76ea07ab74926085f718b1fa46746680867b54cef512f286726057463b3849462c918"
                }
            ],
            "Merge" : [
                {
                    "hash" : "0xf3a9e8f7433ffd7727bc3915a3107c294d8117d4947ccda48b2db5dffc583409",
                    "indexes" : {
                        "data" : 0,
                        "gas" : 0,
                        "value" : 0
                    },
                    "logs" : "0x1dcc4de8dec75d7aab85b567b6ccd41ad312451b948a7413f0a142fd40d49347",
                    "txbytes" : "0xf864800a8401ba814094095e7baea6a6c7c4c2dfeb977efac326af552d87830186a0801ca045290492190ac3f5aae05372e9fa01961db4bb2e501247e022e8988b2b11d76ea07ab74926085f718b1fa46746680867b54cef512f286726057463b3849462c918"
                }
            ],
            "Shanghai" : [
                {
                    "hash" : "0xf3a9e8f7433ffd7727bc3915a3107c294d8117d4947ccda48b2db5dffc583409",
                    "indexes" : {
                        "data" : 0,
                        "gas" : 0,
                        "value" : 0
                    },
                    "logs" : "0x1dcc4de8dec75d7aab85b567b6ccd41ad312451b948a7413f0a142fd40d49347",
                    "txbytes" : "0xf864800a8401ba814094095e7baea6a6c7c4c2dfeb977efac326af552d87830186a0801ca045290492190ac3f5aae05372e9fa01961db4bb2e501247e022e8988b2b11d76ea07ab74926085f718b1fa46746680867b54cef512f286726057463b3849462c918"
                }
            ]
        },
        "pre" : {
            "0x095e7baea6a6c7c4c2dfeb977efac326af552d87" : {
                "balance" : "0x77359400",
                "code" : "0x600060006000600073945304eb96065b2a98b57a48a06ae28d285a71b56305f5e100fa600055600160015500",
                "nonce" : "0x00",
                "storage" : {
                }
            },
            "0x945304eb96065b2a98b57a48a06ae28d285a71b5" : {
                "balance" : "0x0de0b6b3a7640000",
                "code" : "0x600160005101600052600060006000600030612af85a03fa00",
                "nonce" : "0x00",
                "storage" : {
                }
            },
            "0xa94f5374fce5edbc8e2a8697c15331677e6ebf0b" : {
                "balance" : "0x0de0b6b3a7640000",
                "code" : "0x",
                "nonce" : "0x00",
                "storage" : {
                }
            }
        },
        "transaction" : {
            "data" : [
                "0x"
            ],
            "gasLimit" : [
                "0x01ba8140"
            ],
            "gasPrice" : "0x0a",
            "nonce" : "0x00",
            "secretKey" : "0x45a915e4d060149eb4365960e6a7a45f334393093061116b197e3240065ff2d8",
            "sender" : "0xa94f5374fce5edbc8e2a8697c15331677e6ebf0b",
            "to" : "0x095e7baea6a6c7c4c2dfeb977efac326af552d87",
            "value" : [
                "0x0186a0"
            ]
        }
    }
}