{
    "mload" : {
        "_info" : {
            "comment" : "Ori Pomerantz qbzzt1@gmail.com",
            "filling-rpc-server" : "evm version 1.11.0-unstable-262bd38f-20221210",
            "filling-tool-version" : "retesteth-0.2.3-postmerge+commit.17808a69.Linux.g++",
            "generatedTestHash" : "d740ba5f924cfac65548d6cc4a809618105d5c912c2383f13088982a1065473a",
            "labels" : {
                "0" : "mload",
                "1" : "mloadOOG",
                "2" : "mloadOOG"
            },
            "lllcversion" : "Version: 0.5.14-develop.2021.4.29+commit.14c9d5de.Linux.clang",
            "solidity" : "Version: 0.8.17-develop.2022.9.30+commit.8df45f5f.Linux.clang",
            "source" : "src/GeneralStateTestsFiller/VMTests/vmIOandFlowOperations/mloadFiller.yml",
            "sourceHash" : "893d8127ae377177be19f2ed11673f3bccdf15ba4c63aa3c530ab3a64a2b58f7"
        },
        "env" : {
            "currentBaseFee" : "0x0a",
            "currentCoinbase" : "0x2adc25665018aa1fe0e6bc666dac8fc2697ff9ba",
            "currentDifficulty" : "0x020000",
            "currentGasLimit" : "0x05f5e100",
            "currentNumber" : "0x01",
            "currentRandom" : "0x0000000000000000000000000000000000000000000000000000000000020000",
            "currentTimestamp" : "0x03e8",
            "previousHash" : "0x5e20a0453cecd065ea59c37ac63e079ee08998b6045136a8ce6635c7912ec0b6"
        },
        "post" : {
            "Berlin" : [
                {
                    "hash" : "0x06ac0ce345d002125ab7f31616e79c68bb924f16a8958da32f0f5df29e0ab85b",
                    "indexes" : {
                        "data" : 0,
                        "gas" : 0,
                        "value" : 0
                    },
                    "logs" : "0x1dcc4de8dec75d7aab85b567b6ccd41ad312451b948a7413f0a142fd40d49347",
                    "txbytes" : "0xf885800a8401ba814094cccccccccccccccccccccccccccccccccccccccc01a4693c613900000000000000000000000000000000000000000000000000000000000000001ba0567dec507c79f321aee5fe9acb87eb5be80ec557580c0b11fc8bfc03a49e99e5a00d2e9d241a2cb2cb22b85db9c9e593d28a04ad4022de3814ac79a194c97aa497"
                },
                {
                    "hash" : "0x1b4445f1796e1b368fe3af576be7855b2e736b7edb0518787cdae02fcb377358",
                    "indexes" : {
                        "data" : 1,
                        "gas" : 0,
                        "value" : 0
                    },
                    "logs" : "0x1dcc4de8dec75d7aab85b567b6ccd41ad312451b948a7413f0a142fd40d49347",
                    "txbytes" : "0xf885800a8401ba814094cccccccccccccccccccccccccccccccccccccccc01a4693c613900000000000000000000000000000000000000000000000000000000000000011ca0460aa506804a9e657c91be62de96f457fe1ccf03b2cdbb1056464ca719b39bffa0161d8490ac2eccf337aeb0fb008ee7a9c2215bc8bc64f0b492d5040a4514589f"
                },
                {
                    "hash" : "0x1b4445f1796e1b368fe3af576be7855b2e736b7edb0518787cdae02fcb377358",
                    "indexes" : {
                        "data" : 2,
                        "gas" : 0,
                        "value" : 0
                    },
                    "logs" : "0x1dcc4de8dec75d7aab85b567b6ccd41ad312451b948a7413f0a142fd40d49347",
                    "txbytes" : "0xf885800a8401ba814094cccccccccccccccccccccccccccccccccccccccc01a4693c613900000000000000000000000000000000000000000000000000000000000000021ba0f3570e9410d7c03667e646751038032b0f5b7c4f5642ff56b398457f153d9b39a0797fa257c96ab8223dfe54af1f92bb538e66b86f16adc36aaa00a154b1294d97"
                }
            ],
            "Istanbul" : [
                {
                    "hash" : "0x33eb46cbf8f53e74812b79beccf925a1dd8402162936e56d06cba9e754898a57",
                    "indexes" : {
                        "data" : 0,
                        "gas" : 0,
                        "value" : 0
                    },
                    "logs" : "0x1dcc4de8dec75d7aab85b567b6ccd41ad312451b948a7413f0a142fd40d49347",
                    "txbytes" : "0xf885800a8401ba814094cccccccccccccccccccccccccccccccccccccccc01a4693c613900000000000000000000000000000000000000000000000000000000000000001ba0567dec507c79f321aee5fe9acb87eb5be80ec557580c0b11fc8bfc03a49e99e5a00d2e9d241a2cb2cb22b85db9c9e593d28a04ad4022de3814ac79a194c97aa497"
                },
                {
                    "hash" : "0x094dfe5dc5652ec1a2051a8a82746b20abd25004bf009333403712556e5bf141",
                    "indexes" : {
                        "data" : 1,
                        "gas" : 0,
                        "value" : 0
                    },
                    "logs" : "0x1dcc4de8dec75d7aab85b567b6ccd41ad312451b948a7413f0a142fd40d49347",
                    "txbytes" : "0xf885800a8401ba814094cccccccccccccccccccccccccccccccccccccccc01a4693c613900000000000000000000000000000000000000000000000000000000000000011ca0460aa506804a9e657c91be62de96f457fe1ccf03b2cdbb1056464ca719b39bffa0161d8490ac2eccf337aeb0fb008ee7a9c2215bc8bc64f0b492d5040a4514589f"
                },
                {
                    "hash" : "0x094dfe5dc5652ec1a2051a8a82746b20abd25004bf009333403712556e5bf141",
                    "indexes" : {
                        "data" : 2,
                        "gas" : 0,
                        "value" : 0
                    },
                    "logs" : "0x1dcc4de8dec75d7aab85b567b6ccd41ad312451b948a7413f0a142fd40d49347",
                    "txbytes" : "0xf885800a8401ba814094cccccccccccccccccccccccccccccccccccccccc01a4693c613900000000000000000000000000000000000000000000000000000000000000021ba0f3570e9410d7c03667e646751038032b0f5b7c4f5642ff56b398457f153d9b39a0797fa257c96ab8223dfe54af1f92bb538e66b86f16adc36aaa00a154b1294d97"
                }
            ],
            "London" : [
                {
                    "hash" : "0x9c2cc8b0cb3348aa50fd896df88085445a358dd080c0ffe793c76ac1e9340a7c",
                    "indexes" : {
                        "data" : 0,
                        "gas" : 0,
                        "value" : 0
                    },
                    "logs" : "0x1dcc4de8dec75d7aab85b567b6ccd41ad312451b948a7413f0a142fd40d49347",
                    "txbytes" : "0xf885800a8401ba814094cccccccccccccccccccccccccccccccccccccccc01a4693c613900000000000000000000000000000000000000000000000000000000000000001ba0567dec507c79f321aee5fe9acb87eb5be80ec557580c0b11fc8bfc03a49e99e5a00d2e9d241a2cb2cb22b85db9c9e593d28a04ad4022de3814ac79a194c97aa497"
                },
                {
                    "hash" : "0x6e4c970f98905b19b8e52b390c718d51d2a9663ceaa71593a6b0913ddc97ef36",
                    "indexes" : {
                        "data" : 1,
                        "gas" : 0,
                        "value" : 0
                    },
                    "logs" : "0x1dcc4de8dec75d7aab85b567b6ccd41ad312451b948a7413f0a142fd40d49347",
                    "txbytes" : "0xf885800a8401ba814094cccccccccccccccccccccccccccccccccccccccc01a4693c613900000000000000000000000000000000000000000000000000000000000000011ca0460aa506804a9e657c91be62de96f457fe1ccf03b2cdbb1056464ca719b39bffa0161d8490ac2eccf337aeb0fb008ee7a9c2215bc8bc64f0b492d5040a4514589f"
                },
                {
                    "hash" : "0x6e4c970f98905b19b8e52b390c718d51d2a9663ceaa71593a6b0913ddc97ef36",
                    "indexes" : {
                        "data" : 2,
                        "gas" : 0,
                        "value" : 0
                    },
                    "logs" : "0x1dcc4de8dec75d7aab85b567b6ccd41ad312451b948a7413f0a142fd40d49347",
                    "txbytes" : "0xf885800a8401ba814094cccccccccccccccccccccccccccccccccccccccc01a4693c613900000000000000000000000000000000000000000000000000000000000000021ba0f3570e9410d7c03667e646751038032b0f5b7c4f5642ff56b398457f153d9b39a0797fa257c96ab8223dfe54af1f92bb538e66b86f16adc36aaa00a154b1294d97"
                }
            ],
            "Merge" : [
                {
                    "hash" : "0x9c2cc8b0cb3348aa50fd896df88085445a358dd080c0ffe793c76ac1e9340a7c",
                    "indexes" : {
                        "data" : 0,
                        "gas" : 0,
                        "value" : 0
                    },
                    "logs" : "0x1dcc4de8dec75d7aab85b567b6ccd41ad312451b948a7413f0a142fd40d49347",
                    "txbytes" : "0xf885800a8401ba814094cccccccccccccccccccccccccccccccccccccccc01a4693c613900000000000000000000000000000000000000000000000000000000000000001ba0567dec507c79f321aee5fe9acb87eb5be80ec557580c0b11fc8bfc03a49e99e5a00d2e9d241a2cb2cb22b85db9c9e593d28a04ad4022de3814ac79a194c97aa497"
                },
                {
                    "hash" : "0x6e4c970f98905b19b8e52b390c718d51d2a9663ceaa71593a6b0913ddc97ef36",
                    "indexes" : {
                        "data" : 1,
                        "gas" : 0,
                        "value" : 0
                    },
                    "logs" : "0x1dcc4de8dec75d7aab85b567b6ccd41ad312451b948a7413f0a142fd40d49347",
                    "txbytes" : "0xf885800a8401ba814094cccccccccccccccccccccccccccccccccccccccc01a4693c613900000000000000000000000000000000000000000000000000000000000000011ca0460aa506804a9e657c91be62de96f457fe1ccf03b2cdbb1056464ca719b39bffa0161d8490ac2eccf337aeb0fb008ee7a9c2215bc8bc64f0b492d5040a4514589f"
                },
                {
                    "hash" : "0x6e4c970f98905b19b8e52b390c718d51d2a9663ceaa71593a6b0913ddc97ef36",
                    "indexes" : {
                        "data" : 2,
                        "gas" : 0,
                        "value" : 0
                    },
                    "logs" : "0x1dcc4de8dec75d7aab85b567b6ccd41ad312451b948a7413f0a142fd40d49347",
                    "txbytes" : "0xf885800a8401ba814094cccccccccccccccccccccccccccccccccccccccc01a4693c613900000000000000000000000000000000000000000000000000000000000000021ba0f3570e9410d7c03667e646751038032b0f5b7c4f5642ff56b398457f153d9b39a0797fa257c96ab8223dfe54af1f92bb538e66b86f16adc36aaa00a154b1294d97"
                }
            ]
        },
        "pre" : {
            "0x0000000000000000000000000000000000000100" : {
                "balance" : "0x0ba1a9ce0ba1a9ce",
                "code" : "0x7d111122223333444455556666777788889999aaaabbbbccccddddeeeeffff60005260005160005500",
                "nonce" : "0x00",
                "storage" : {
                }
            },
            "0x0000000000000000000000000000000000000101" : {
                "balance" : "0x0ba1a9ce0ba1a9ce",
                "code" : "0x630fffffff5160005500",
                "nonce" : "0x00",
                "storage" : {
                }
            },
            "0x0000000000000000000000000000000000000102" : {
                "balance" : "0x0ba1a9ce0ba1a9ce",
                "code" : "0x627248255160005500",
                "nonce" : "0x00",
                "storage" : {
                }
            },
            "0xa94f5374fce5edbc8e2a8697c15331677e6ebf0b" : {
                "balance" : "0x100000000000",
                "code" : "0x",
                "nonce" : "0x00",
                "storage" : {
                }
            },
            "0xcccccccccccccccccccccccccccccccccccccccc" : {
                "balance" : "0x0ba1a9ce0ba1a9ce",
                "code" : "0x6000600060006000600435610100015af400",
                "nonce" : "0x00",
                "storage" : {
                    "0x00" : "0x0bad"
                }
            }
        },
        "transaction" : {
            "data" : [
                "0x693c61390000000000000000000000000000000000000000000000000000000000000000",
                "0x693c61390000000000000000000000000000000000000000000000000000000000000001",
                "0x693c61390000000000000000000000000000000000000000000000000000000000000002"
            ],
            "gasLimit" : [
                "0x01ba8140"
            ],
            "gasPrice" : "0x0a",
            "nonce" : "0x00",
            "secretKey" : "0x45a915e4d060149eb4365960e6a7a45f334393093061116b197e3240065ff2d8",
            "sender" : "0xa94f5374fce5edbc8e2a8697c15331677e6ebf0b",
            "to" : "0xcccccccccccccccccccccccccccccccccccccccc",
            "value" : [
                "0x01"
            ]
        }
    }
}