{
    "CREATE2_EOF1" : {
        "_info" : {
            "comment" : "",
            "filling-rpc-server" : "evm version 1.11.3-unstable-cb1f6bdb-20230307",
            "filling-tool-version" : "retesteth-0.2.3-postmerge+commit.5691d0b9.Linux.g++",
            "generatedTestHash" : "3157927567a80ce0aee40a05241dcbb16f50a23766883861752f0eee2b3ae1fb",
            "labels" : {
                "0" : "deploying_0xef",
                "1" : "deploying_0xef00",
                "2" : "deploying_0xef0000",
                "3" : "deploying_0xef00..00"
            },
            "lllcversion" : "Version: 0.5.14-develop.2021.4.29+commit.14c9d5de.Linux.clang",
            "solidity" : "Version: 0.8.17-develop.2022.9.30+commit.8df45f5f.Linux.clang",
            "source" : "src/GeneralStateTestsFiller/EIPTests/stEOF/stEIP3540/CREATE2_EOF1Filler.yml",
            "sourceHash" : "c46b877b342c7e27d7851db8726e997fe65f392d7a6410a8394b694411fcb627"
        },
        "env" : {
            "currentBaseFee" : "0x0a",
            "currentCoinbase" : "0x2adc25665018aa1fe0e6bc666dac8fc2697ff9ba",
            "currentDifficulty" : "0x020000",
            "currentGasLimit" : "0x05500000",
            "currentNumber" : "0x01",
            "currentRandom" : "0x0000000000000000000000000000000000000000000000000000000000020000",
            "currentTimestamp" : "0x03e8",
            "previousHash" : "0x5e20a0453cecd065ea59c37ac63e079ee08998b6045136a8ce6635c7912ec0b6"
        },
        "post" : {
            "Berlin" : [
                {
                    "hash" : "0xb308e59e5b92ae2b6e6b3aa73ae51ac33cecd6e5a0078e634eb0ac22bd09e073",
                    "indexes" : {
                        "data" : 0,
                        "gas" : 0,
                        "value" : 0
                    },
                    "logs" : "0x1dcc4de8dec75d7aab85b567b6ccd41ad312451b948a7413f0a142fd40d49347",
                    "txbytes" : "0xf86a800a83e4e1c094b94f5374fce5edbc8e2a8697c15331677e6ebf0b808a60ef60005360016000f31ba0e855b14706c4e47fd8e765368486ed5ca2cb7ac886b261a46457d21111f05411a03f1314ff819e6ca49b98a5dff224d0693bbac4860a583993dffe6ebab6170f29"
                },
                {
                    "hash" : "0x7327db7be9ce2e934f589036971cd8077223c9f9ddb3215e061da38f940c36fb",
                    "indexes" : {
                        "data" : 1,
                        "gas" : 0,
                        "value" : 0
                    },
                    "logs" : "0x1dcc4de8dec75d7aab85b567b6ccd41ad312451b948a7413f0a142fd40d49347",
                    "txbytes" : "0xf86a800a83e4e1c094b94f5374fce5edbc8e2a8697c15331677e6ebf0b808a60ef60005360026000f31ca06ee98cfd5267b69178e4be20f1329f1c89e166fba19273893ba937d5146f769da0436338587693edaa893c286784edfe7f148a992bbdbafd465ee6b76d7778ea0f"
                },
                {
                    "hash" : "0x618204714fd19a0ea36912b28cea2e0fc90701be12835c7135aaec50ff58296e",
                    "indexes" : {
                        "data" : 2,
                        "gas" : 0,
                        "value" : 0
                    },
                    "logs" : "0x1dcc4de8dec75d7aab85b567b6ccd41ad312451b948a7413f0a142fd40d49347",
                    "txbytes" : "0xf86a800a83e4e1c094b94f5374fce5edbc8e2a8697c15331677e6ebf0b808a60ef60005360036000f31ba0153b6cbc5cfa36fd43c5e3f34648c78e86cf834458596fdea722af3f87e4a218a016e64bbd4f747198175fe26487fbdd138a34b561b8cfd7846262bd950e28cc2c"
                },
                {
                    "hash" : "0x7c3c68557f95a96565382ba6cdb4d727001b6caa97f733feccd26d594a1135c6",
                    "indexes" : {
                        "data" : 3,
                        "gas" : 0,
                        "value" : 0
                    },
                    "logs" : "0x1dcc4de8dec75d7aab85b567b6ccd41ad312451b948a7413f0a142fd40d49347",
                    "txbytes" : "0xf86a800a83e4e1c094b94f5374fce5edbc8e2a8697c15331677e6ebf0b808a60ef60005360206000f31ba036a8d004476109bc6d56b18701fbde81b722c2e2e75dadc47af7a23fba0f9c1fa051d310370e93d5d256a3ef1d477211df118d37500d592336859f294390ca09f6"
                }
            ],
            "London" : [
                {
                    "hash" : "0x2f2d04f87a18ee95041bfc83e64befa06a57fafe757b1e42adeef80147d6ea1d",
                    "indexes" : {
                        "data" : 0,
                        "gas" : 0,
                        "value" : 0
                    },
                    "logs" : "0x1dcc4de8dec75d7aab85b567b6ccd41ad312451b948a7413f0a142fd40d49347",
                    "txbytes" : "0xf86a800a83e4e1c094b94f5374fce5edbc8e2a8697c15331677e6ebf0b808a60ef60005360016000f31ba0e855b14706c4e47fd8e765368486ed5ca2cb7ac886b261a46457d21111f05411a03f1314ff819e6ca49b98a5dff224d0693bbac4860a583993dffe6ebab6170f29"
                },
                {
                    "hash" : "0x2f2d04f87a18ee95041bfc83e64befa06a57fafe757b1e42adeef80147d6ea1d",
                    "indexes" : {
                        "data" : 1,
                        "gas" : 0,
                        "value" : 0
                    },
                    "logs" : "0x1dcc4de8dec75d7aab85b567b6ccd41ad312451b948a7413f0a142fd40d49347",
                    "txbytes" : "0xf86a800a83e4e1c094b94f5374fce5edbc8e2a8697c15331677e6ebf0b808a60ef60005360026000f31ca06ee98cfd5267b69178e4be20f1329f1c89e166fba19273893ba937d5146f769da0436338587693edaa893c286784edfe7f148a992bbdbafd465ee6b76d7778ea0f"
                },
                {
                    "hash" : "0x2f2d04f87a18ee95041bfc83e64befa06a57fafe757b1e42adeef80147d6ea1d",
                    "indexes" : {
                        "data" : 2,
                        "gas" : 0,
                        "value" : 0
                    },
                    "logs" : "0x1dcc4de8dec75d7aab85b567b6ccd41ad312451b948a7413f0a142fd40d49347",
                    "txbytes" : "0xf86a800a83e4e1c094b94f5374fce5edbc8e2a8697c15331677e6ebf0b808a60ef60005360036000f31ba0153b6cbc5cfa36fd43c5e3f34648c78e86cf834458596fdea722af3f87e4a218a016e64bbd4f747198175fe26487fbdd138a34b561b8cfd7846262bd950e28cc2c"
                },
                {
                    "hash" : "0x2f2d04f87a18ee95041bfc83e64befa06a57fafe757b1e42adeef80147d6ea1d",
                    "indexes" : {
                        "data" : 3,
                        "gas" : 0,
                        "value" : 0
                    },
                    "logs" : "0x1dcc4de8dec75d7aab85b567b6ccd41ad312451b948a7413f0a142fd40d49347",
                    "txbytes" : "0xf86a800a83e4e1c094b94f5374fce5edbc8e2a8697c15331677e6ebf0b808a60ef60005360206000f31ba036a8d004476109bc6d56b18701fbde81b722c2e2e75dadc47af7a23fba0f9c1fa051d310370e93d5d256a3ef1d477211df118d37500d592336859f294390ca09f6"
                }
            ],
            "Merge" : [
                {
                    "hash" : "0x2f2d04f87a18ee95041bfc83e64befa06a57fafe757b1e42adeef80147d6ea1d",
                    "indexes" : {
                        "data" : 0,
                        "gas" : 0,
                        "value" : 0
                    },
                    "logs" : "0x1dcc4de8dec75d7aab85b567b6ccd41ad312451b948a7413f0a142fd40d49347",
                    "txbytes" : "0xf86a800a83e4e1c094b94f5374fce5edbc8e2a8697c15331677e6ebf0b808a60ef60005360016000f31ba0e855b14706c4e47fd8e765368486ed5ca2cb7ac886b261a46457d21111f05411a03f1314ff819e6ca49b98a5dff224d0693bbac4860a583993dffe6ebab6170f29"
                },
                {
                    "hash" : "0x2f2d04f87a18ee95041bfc83e64befa06a57fafe757b1e42adeef80147d6ea1d",
                    "indexes" : {
                        "data" : 1,
                        "gas" : 0,
                        "value" : 0
                    },
                    "logs" : "0x1dcc4de8dec75d7aab85b567b6ccd41ad312451b948a7413f0a142fd40d49347",
                    "txbytes" : "0xf86a800a83e4e1c094b94f5374fce5edbc8e2a8697c15331677e6ebf0b808a60ef60005360026000f31ca06ee98cfd5267b69178e4be20f1329f1c89e166fba19273893ba937d5146f769da0436338587693edaa893c286784edfe7f148a992bbdbafd465ee6b76d7778ea0f"
                },
                {
                    "hash" : "0x2f2d04f87a18ee95041bfc83e64befa06a57fafe757b1e42adeef80147d6ea1d",
                    "indexes" : {
                        "data" : 2,
                        "gas" : 0,
                        "value" : 0
                    },
                    "logs" : "0x1dcc4de8dec75d7aab85b567b6ccd41ad312451b948a7413f0a142fd40d49347",
                    "txbytes" : "0xf86a800a83e4e1c094b94f5374fce5edbc8e2a8697c15331677e6ebf0b808a60ef60005360036000f31ba0153b6cbc5cfa36fd43c5e3f34648c78e86cf834458596fdea722af3f87e4a218a016e64bbd4f747198175fe26487fbdd138a34b561b8cfd7846262bd950e28cc2c"
                },
                {
                    "hash" : "0x2f2d04f87a18ee95041bfc83e64befa06a57fafe757b1e42adeef80147d6ea1d",
                    "indexes" : {
                        "data" : 3,
                        "gas" : 0,
                        "value" : 0
                    },
                    "logs" : "0x1dcc4de8dec75d7aab85b567b6ccd41ad312451b948a7413f0a142fd40d49347",
                    "txbytes" : "0xf86a800a83e4e1c094b94f5374fce5edbc8e2a8697c15331677e6ebf0b808a60ef60005360206000f31ba036a8d004476109bc6d56b18701fbde81b722c2e2e75dadc47af7a23fba0f9c1fa051d310370e93d5d256a3ef1d477211df118d37500d592336859f294390ca09f6"
                }
            ],
            "Shanghai" : [
                {
                    "hash" : "0x2f2d04f87a18ee95041bfc83e64befa06a57fafe757b1e42adeef80147d6ea1d",
                    "indexes" : {
                        "data" : 0,
                        "gas" : 0,
                        "value" : 0
                    },
                    "logs" : "0x1dcc4de8dec75d7aab85b567b6ccd41ad312451b948a7413f0a142fd40d49347",
                    "txbytes" : "0xf86a800a83e4e1c094b94f5374fce5edbc8e2a8697c15331677e6ebf0b808a60ef60005360016000f31ba0e855b14706c4e47fd8e765368486ed5ca2cb7ac886b261a46457d21111f05411a03f1314ff819e6ca49b98a5dff224d0693bbac4860a583993dffe6ebab6170f29"
                },
                {
                    "hash" : "0x2f2d04f87a18ee95041bfc83e64befa06a57fafe757b1e42adeef80147d6ea1d",
                    "indexes" : {
                        "data" : 1,
                        "gas" : 0,
                        "value" : 0
                    },
                    "logs" : "0x1dcc4de8dec75d7aab85b567b6ccd41ad312451b948a7413f0a142fd40d49347",
                    "txbytes" : "0xf86a800a83e4e1c094b94f5374fce5edbc8e2a8697c15331677e6ebf0b808a60ef60005360026000f31ca06ee98cfd5267b69178e4be20f1329f1c89e166fba19273893ba937d5146f769da0436338587693edaa893c286784edfe7f148a992bbdbafd465ee6b76d7778ea0f"
                },
                {
                    "hash" : "0x2f2d04f87a18ee95041bfc83e64befa06a57fafe757b1e42adeef80147d6ea1d",
                    "indexes" : {
                        "data" : 2,
                        "gas" : 0,
                        "value" : 0
                    },
                    "logs" : "0x1dcc4de8dec75d7aab85b567b6ccd41ad312451b948a7413f0a142fd40d49347",
                    "txbytes" : "0xf86a800a83e4e1c094b94f5374fce5edbc8e2a8697c15331677e6ebf0b808a60ef60005360036000f31ba0153b6cbc5cfa36fd43c5e3f34648c78e86cf834458596fdea722af3f87e4a218a016e64bbd4f747198175fe26487fbdd138a34b561b8cfd7846262bd950e28cc2c"
                },
                {
                    "hash" : "0x2f2d04f87a18ee95041bfc83e64befa06a57fafe757b1e42adeef80147d6ea1d",
                    "indexes" : {
                        "data" : 3,
                        "gas" : 0,
                        "value" : 0
                    },
                    "logs" : "0x1dcc4de8dec75d7aab85b567b6ccd41ad312451b948a7413f0a142fd40d49347",
                    "txbytes" : "0xf86a800a83e4e1c094b94f5374fce5edbc8e2a8697c15331677e6ebf0b808a60ef60005360206000f31ba036a8d004476109bc6d56b18701fbde81b722c2e2e75dadc47af7a23fba0f9c1fa051d310370e93d5d256a3ef1d477211df118d37500d592336859f294390ca09f6"
                }
            ]
        },
        "pre" : {
            "0xa94f5374fce5edbc8e2a8697c15331677e6ebf0b" : {
                "balance" : "0x0bebc200",
                "code" : "0x",
                "nonce" : "0x00",
                "storage" : {
                }
            },
            "0xb94f5374fce5edbc8e2a8697c15331677e6ebf0b" : {
                "balance" : "0x00",
                "code" : "0x3660008037600036600080f560005560018055",
                "nonce" : "0x00",
                "storage" : {
                }
            }
        },
        "transaction" : {
            "data" : [
                "0x60ef60005360016000f3",
                "0x60ef60005360026000f3",
                "0x60ef60005360036000f3",
                "0x60ef60005360206000f3"
            ],
            "gasLimit" : [
                "0xe4e1c0"
            ],
            "gasPrice" : "0x0a",
            "nonce" : "0x00",
            "secretKey" : "0x45a915e4d060149eb4365960e6a7a45f334393093061116b197e3240065ff2d8",
            "sender" : "0xa94f5374fce5edbc8e2a8697c15331677e6ebf0b",
            "to" : "0xb94f5374fce5edbc8e2a8697c15331677e6ebf0b",
            "value" : [
                "0x00"
            ]
        }
    }
}