{
    "ecrecoverShortBuff_d0g0v0_Berlin" : {
        "_info" : {
            "comment" : "",
            "filling-rpc-server" : "evm version 1.10.26-stable-e5eb32ac",
            "filling-tool-version" : "retesteth-0.2.3-postmerge+commit.801c0d4c.Linux.g++",
            "generatedTestHash" : "2633f0f926c47fea83d4f0e4dc362dfa2aaa8da215d6f85fcc543e6805594c7f",
            "lllcversion" : "Version: 0.5.14-develop.2022.6.30+commit.401d5358.mod.Linux.g++",
            "solidity" : "Version: 0.8.18-develop.2022.12.14+commit.a9fe05e8.Linux.g++",
            "source" : "src/GeneralStateTestsFiller/stPreCompiledContracts2/ecrecoverShortBuffFiller.yml",
            "sourceHash" : "a7c3047d600d0afcbb38e2e722539b2dcb24335a39a8dc62e041e02fb5491bc3"
        },
        "blocks" : [
            {
                "blockHeader" : {
                    "bloom" : "0x00000000000000000000000000000000000000000000000000000000000000000000000000000000000000000000000000000000000000000000000000000000000000000000000000000000000000000000000000000000000000000000000000000000000000000000000000000000000000000000000000000000000000000000000000000000000000000000000000000000000000000000000000000000000000000000000000000000000000000000000000000000000000000000000000000000000000000000000000000000000000000000000000000000000000000000000000000000000000000000000000000000000000000000000000000000",
                    "coinbase" : "0x2adc25665018aa1fe0e6bc666dac8fc2697ff9ba",
                    "difficulty" : "0x020000",
                    "extraData" : "0x00",
                    "gasLimit" : "0xff112233445566",
                    "gasUsed" : "0x37fcb0",
                    "hash" : "0x54657b0f2129655a039ffb1f1ad351c7f89e2252ae36e6e0208dc66e025bb5ff",
                    "mixHash" : "0x0000000000000000000000000000000000000000000000000000000000000000",
                    "nonce" : "0x0000000000000000",
                    "number" : "0x01",
                    "parentHash" : "0xe6278303ddd5b29d48d97a1480a89a701bde4064866f2d67898d3ff42f641af1",
                    "receiptTrie" : "0x0cee87e8e3259f1789493d4fa97bab6f413ff5339f93bd7deffee2af83b1f066",
                    "stateRoot" : "0xc99f66ee9ad8fd1d5cc24fcef2a8896e5df61278c1358389467b5789c1523d01",
                    "timestamp" : "0x03e8",
                    "transactionsTrie" : "0x5efcef06100c361aee77e1a5c5d3bf50a736b4b0e3d30492b3ef385b04f2a2f4",
                    "uncleHash" : "0x1dcc4de8dec75d7aab85b567b6ccd41ad312451b948a7413f0a142fd40d49347"
                },
                "rlp" : "0xf90268f901fca0e6278303ddd5b29d48d97a1480a89a701bde4064866f2d67898d3ff42f641af1a01dcc4de8dec75d7aab85b567b6ccd41ad312451b948a7413f0a142fd40d49347942adc25665018aa1fe0e6bc666dac8fc2697ff9baa0c99f66ee9ad8fd1d5cc24fcef2a8896e5df61278c1358389467b5789c1523d01a05efcef06100c361aee77e1a5c5d3bf50a736b4b0e3d30492b3ef385b04f2a2f4a00cee87e8e3259f1789493d4fa97bab6f413ff5339f93bd7deffee2af83b1f066b9010000000000000000000000000000000000000000000000000000000000000000000000000000000000000000000000000000000000000000000000000000000000000000000000000000000000000000000000000000000000000000000000000000000000000000000000000000000000000000000000000000000000000000000000000000000000000000000000000000000000000000000000000000000000000000000000000000000000000000000000000000000000000000000000000000000000000000000000000000000000000000000000000000000000000000000000000000000000000000000000000000000000000000000000000000000000830200000187ff1122334455668337fcb08203e800a00000000000000000000000000000000000000000000000000000000000000000880000000000000000f866f864010a8401ba814094cccccccccccccccccccccccccccccccccccccccc830186a0001ba0adc1df389709657378f05372754e3a82eb045b91ea7022b7fa6fd0fa05a7d23ca034320e0cdeeb63f5a92de1a3d9fa0f5f701deebb1efdc585df522a5d7890a751c0",
                "transactions" : [
                    {
                        "data" : "0x00",
                        "gasLimit" : "0x01ba8140",
                        "gasPrice" : "0x0a",
                        "nonce" : "0x01",
                        "r" : "0xadc1df389709657378f05372754e3a82eb045b91ea7022b7fa6fd0fa05a7d23c",
                        "s" : "0x34320e0cdeeb63f5a92de1a3d9fa0f5f701deebb1efdc585df522a5d7890a751",
                        "sender" : "0xa94f5374fce5edbc8e2a8697c15331677e6ebf0b",
                        "to" : "0xcccccccccccccccccccccccccccccccccccccccc",
                        "v" : "0x1b",
                        "value" : "0x0186a0"
                    }
                ],
                "uncleHeaders" : [
                ]
            }
        ],
        "genesisBlockHeader" : {
            "bloom" : "0x00000000000000000000000000000000000000000000000000000000000000000000000000000000000000000000000000000000000000000000000000000000000000000000000000000000000000000000000000000000000000000000000000000000000000000000000000000000000000000000000000000000000000000000000000000000000000000000000000000000000000000000000000000000000000000000000000000000000000000000000000000000000000000000000000000000000000000000000000000000000000000000000000000000000000000000000000000000000000000000000000000000000000000000000000000000",
            "coinbase" : "0x2adc25665018aa1fe0e6bc666dac8fc2697ff9ba",
            "difficulty" : "0x020000",
            "extraData" : "0x00",
            "gasLimit" : "0xff112233445566",
            "gasUsed" : "0x00",
            "hash" : "0xe6278303ddd5b29d48d97a1480a89a701bde4064866f2d67898d3ff42f641af1",
            "mixHash" : "0x0000000000000000000000000000000000000000000000000000000000000000",
            "nonce" : "0x0000000000000000",
            "number" : "0x00",
            "parentHash" : "0x0000000000000000000000000000000000000000000000000000000000000000",
            "receiptTrie" : "0x56e81f171bcc55a6ff8345e692c0f86e5b48e01b996cadc001622fb5e363b421",
            "stateRoot" : "0x679930b5b377d3d6d4502e9ed9d763aa9758a7c7a84da952285660cc3ee175f5",
            "timestamp" : "0x00",
            "transactionsTrie" : "0x56e81f171bcc55a6ff8345e692c0f86e5b48e01b996cadc001622fb5e363b421",
            "uncleHash" : "0x1dcc4de8dec75d7aab85b567b6ccd41ad312451b948a7413f0a142fd40d49347"
        },
        "genesisRLP" : "0xf901fcf901f7a00000000000000000000000000000000000000000000000000000000000000000a01dcc4de8dec75d7aab85b567b6ccd41ad312451b948a7413f0a142fd40d49347942adc25665018aa1fe0e6bc666dac8fc2697ff9baa0679930b5b377d3d6d4502e9ed9d763aa9758a7c7a84da952285660cc3ee175f5a056e81f171bcc55a6ff8345e692c0f86e5b48e01b996cadc001622fb5e363b421a056e81f171bcc55a6ff8345e692c0f86e5b48e01b996cadc001622fb5e363b421b9010000000000000000000000000000000000000000000000000000000000000000000000000000000000000000000000000000000000000000000000000000000000000000000000000000000000000000000000000000000000000000000000000000000000000000000000000000000000000000000000000000000000000000000000000000000000000000000000000000000000000000000000000000000000000000000000000000000000000000000000000000000000000000000000000000000000000000000000000000000000000000000000000000000000000000000000000000000000000000000000000000000000000000000000000000000000830200008087ff112233445566808000a00000000000000000000000000000000000000000000000000000000000000000880000000000000000c0c0",
        "lastblockhash" : "0x54657b0f2129655a039ffb1f1ad351c7f89e2252ae36e6e0208dc66e025bb5ff",
        "network" : "Berlin",
        "postState" : {
            "0x2adc25665018aa1fe0e6bc666dac8fc2697ff9ba" : {
                "balance" : "0x1bc16d6750f7dee0",
                "code" : "0x",
                "nonce" : "0x00",
                "storage" : {
                }
            },
            "0xa94f5374fce5edbc8e2a8697c15331677e6ebf0b" : {
                "balance" : "0x0de0b6b3a5329a80",
                "code" : "0x",
                "nonce" : "0x02",
                "storage" : {
                }
            },
            "0xcccccccccccccccccccccccccccccccccccccccc" : {
                "balance" : "0x0186a0",
                "code" : "0x60a060005b8181101560275763dead60a7815563dead60a78161100001556001810190506004565b5060008052601b6020527f184870a8e4faa6065ddf65c873935d3e48e3d1c7b7853f25cd79b8247f7719106040527f226140b6b66554c7fcfa38589e433cc148ebe5c8482eb3093ab1d9a932c96f5860605260005b8181101560ad5760206101008260008060015af181556001815403815561010051816110000155600181019050607c565b5050",
                "nonce" : "0x01",
                "storage" : {
                    "0x1061" : "0x8e5817968f74ffb0255ae41eefa6f89dd0183fa1",
                    "0x1062" : "0xb7529ed60a10291754a635ed9fd67c1723f4d83b",
                    "0x1063" : "0x0669457ce81442f235ffc4123662ba14a72b3d68",
                    "0x1064" : "0xdcc53a4a0719101437e8791abf273af5893cb174",
                    "0x1065" : "0xa1889691e30136d95c0543f516bf2357b282d835",
                    "0x1066" : "0x06642c4fd062a12b980d2bf28334e48ffe609248",
                    "0x1067" : "0x628f176bc4c64973abaf9acb6bd8bb8d9b1ae97c",
                    "0x1068" : "0x16fe7fa0cb8a861f855039c2eda9251ca7cc79d0",
                    "0x1069" : "0x01c954021193a220878900cf5f7db5b3ea4c2b24",
                    "0x106a" : "0x5c4725e00d8f9415e2b77630543fe41dcdaaa304",
                    "0x106b" : "0xf6defd0f92f2a018ba20bf6051698a8dde7cc949",
                    "0x106c" : "0x99cd51158e59da36ba48b457c02db77c17a6b91a",
                    "0x106d" : "0xfc4539330fee551b296f9396d01ab7643521d5df",
                    "0x106e" : "0x389a57ba1c546578b67167c6571d92e047bd4029",
                    "0x106f" : "0x294091b609877b020b4f5a01357936fc0a877a3f",
                    "0x1070" : "0xad5a9fc193dcf16041d4e96433ef3a6d82d36b16",
                    "0x1071" : "0x8324683aaae32ccebdeb758e2777ab2b1ce3d3f1",
                    "0x1072" : "0x295ad34cb312eaf9574511208848caf57b7429e0",
                    "0x1073" : "0x0a74178ec0a865b84eed705e85ddf9b5002389ab",
                    "0x1074" : "0xd1d3bc125318dd71176248d9c86f41a842d4bec9",
                    "0x1075" : "0xe8e2d3e49d1bb0ddf5beeff311456f251dae9ea9",
                    "0x1076" : "0xd8765900c0f467df6bc4f514ed39c568497a8ead",
                    "0x1077" : "0xdb658a31f5a174be0e3fc0d0ce05dd6a76084910",
                    "0x1078" : "0x1387af122c1e31a2dd1dac303b3f20ad83f0ed1b",
                    "0x1079" : "0x9ca540e3f00347324bd94a94ce8e3a34b97c8244",
                    "0x107a" : "0x8d682238981c4940830fa6971d25e036d1fb3d27",
                    "0x107b" : "0xf571eb5abd7da99c6b32b3f3ed0740f6fac7d14b",
                    "0x107c" : "0x79e727f2f0f816efd56fc2af37d98af6798551df",
                    "0x107d" : "0x0f00d6a30e65104b909aa43d947ef2010e09446a",
                    "0x107e" : "0x4c78739de03a70dbcf9b94bc21daf2bf46d44375",
                    "0x107f" : "0x364a9dae48110760306b009bf2297819176be559",
                    "0x1080" : "0x3f9ecb7b25fa567afb2a4c7b633749bda578b593",
                    "0x1081" : "0x3f9ecb7b25fa567afb2a4c7b633749bda578b593",
                    "0x1082" : "0x3f9ecb7b25fa567afb2a4c7b633749bda578b593",
                    "0x1083" : "0x3f9ecb7b25fa567afb2a4c7b633749bda578b593",
                    "0x1084" : "0x3f9ecb7b25fa567afb2a4c7b633749bda578b593",
                    "0x1085" : "0x3f9ecb7b25fa567afb2a4c7b633749bda578b593",
                    "0x1086" : "0x3f9ecb7b25fa567afb2a4c7b633749bda578b593",
                    "0x1087" : "0x3f9ecb7b25fa567afb2a4c7b633749bda578b593",
                    "0x1088" : "0x3f9ecb7b25fa567afb2a4c7b633749bda578b593",
                    "0x1089" : "0x3f9ecb7b25fa567afb2a4c7b633749bda578b593",
                    "0x108a" : "0x3f9ecb7b25fa567afb2a4c7b633749bda578b593",
                    "0x108b" : "0x3f9ecb7b25fa567afb2a4c7b633749bda578b593",
                    "0x108c" : "0x3f9ecb7b25fa567afb2a4c7b633749bda578b593",
                    "0x108d" : "0x3f9ecb7b25fa567afb2a4c7b633749bda578b593",
                    "0x108e" : "0x3f9ecb7b25fa567afb2a4c7b633749bda578b593",
                    "0x108f" : "0x3f9ecb7b25fa567afb2a4c7b633749bda578b593",
                    "0x1090" : "0x3f9ecb7b25fa567afb2a4c7b633749bda578b593",
                    "0x1091" : "0x3f9ecb7b25fa567afb2a4c7b633749bda578b593",
                    "0x1092" : "0x3f9ecb7b25fa567afb2a4c7b633749bda578b593",
                    "0x1093" : "0x3f9ecb7b25fa567afb2a4c7b633749bda578b593",
                    "0x1094" : "0x3f9ecb7b25fa567afb2a4c7b633749bda578b593",
                    "0x1095" : "0x3f9ecb7b25fa567afb2a4c7b633749bda578b593",
                    "0x1096" : "0x3f9ecb7b25fa567afb2a4c7b633749bda578b593",
                    "0x1097" : "0x3f9ecb7b25fa567afb2a4c7b633749bda578b593",
                    "0x1098" : "0x3f9ecb7b25fa567afb2a4c7b633749bda578b593",
                    "0x1099" : "0x3f9ecb7b25fa567afb2a4c7b633749bda578b593",
                    "0x109a" : "0x3f9ecb7b25fa567afb2a4c7b633749bda578b593",
                    "0x109b" : "0x3f9ecb7b25fa567afb2a4c7b633749bda578b593",
                    "0x109c" : "0x3f9ecb7b25fa567afb2a4c7b633749bda578b593",
                    "0x109d" : "0x3f9ecb7b25fa567afb2a4c7b633749bda578b593",
                    "0x109e" : "0x3f9ecb7b25fa567afb2a4c7b633749bda578b593",
                    "0x109f" : "0x3f9ecb7b25fa567afb2a4c7b633749bda578b593"
                }
            }
        },
        "pre" : {
            "0xa94f5374fce5edbc8e2a8697c15331677e6ebf0b" : {
                "balance" : "0x0de0b6b3a7640000",
                "code" : "0x",
                "nonce" : "0x01",
                "storage" : {
                }
            },
            "0xcccccccccccccccccccccccccccccccccccccccc" : {
                "balance" : "0x00",
                "code" : "0x60a060005b8181101560275763dead60a7815563dead60a78161100001556001810190506004565b5060008052601b6020527f184870a8e4faa6065ddf65c873935d3e48e3d1c7b7853f25cd79b8247f7719106040527f226140b6b66554c7fcfa38589e433cc148ebe5c8482eb3093ab1d9a932c96f5860605260005b8181101560ad5760206101008260008060015af181556001815403815561010051816110000155600181019050607c565b5050",
                "nonce" : "0x01",
                "storage" : {
                    "0x00" : "0x60a7",
                    "0x1000" : "0x60a7",
                    "0x1011" : "0x60a7",
                    "0x1022" : "0x60a7",
                    "0x1033" : "0x60a7",
                    "0x1044" : "0x60a7",
                    "0x1055" : "0x60a7",
                    "0x1066" : "0x60a7",
                    "0x1077" : "0x60a7",
                    "0x1080" : "0x60a7",
                    "0x1099" : "0x60a7",
                    "0x11" : "0x60a7",
                    "0x22" : "0x60a7",
                    "0x33" : "0x60a7",
                    "0x44" : "0x60a7",
                    "0x55" : "0x60a7",
                    "0x66" : "0x60a7",
                    "0x77" : "0x60a7",
                    "0x80" : "0x60a7",
                    "0x99" : "0x60a7"
                }
            }
        },
        "sealEngine" : "NoProof"
    }
}