{
    "random" : {
        "_info" : {
            "comment" : "Ori Pomerantz qbzzt1@gmail.com",
            "filling-rpc-server" : "evm version 1.11.0-unstable-262bd38f-20221210",
            "filling-tool-version" : "retesteth-0.2.3-postmerge+commit.17808a69.Linux.g++",
            "generatedTestHash" : "88936ad82ec825ca0fe882e8a99d1599191c308c71453634367a72cd4d7cae85",
            "labels" : {
                "0" : "random0",
                "1" : "random1",
                "2" : "random2",
                "3" : "random3",
                "4" : "random4",
                "5" : "random5"
            },
            "lllcversion" : "Version: 0.5.14-develop.2021.4.29+commit.14c9d5de.Linux.clang",
            "solidity" : "Version: 0.8.17-develop.2022.9.30+commit.8df45f5f.Linux.clang",
            "source" : "src/GeneralStateTestsFiller/VMTests/vmTests/randomFiller.yml",
            "sourceHash" : "b375df6df5b27c9819cb9617949d5747bf44cf5a58fc2fb46b6b46a120fe6067"
        },
        "env" : {
            "currentBaseFee" : "0x0a",
            "currentCoinbase" : "0x2adc25665018aa1fe0e6bc666dac8fc2697ff9ba",
            "currentDifficulty" : "0x020000",
            "currentGasLimit" : "0x05f5e100",
            "currentNumber" : "0x01",
            "currentRandom" : "0x0000000000000000000000000000000000000000000000000000000000020000",
            "currentTimestamp" : "0x03e8",
            "previousHash" : "0x5e20a0453cecd065ea59c37ac63e079ee08998b6045136a8ce6635c7912ec0b6"
        },
        "post" : {
            "Berlin" : [
                {
                    "hash" : "0x3873cd043cb6579b71c78bec5ab58234e61814a2a341b725bfdac78bb6e5f816",
                    "indexes" : {
                        "data" : 0,
                        "gas" : 0,
                        "value" : 0
                    },
                    "logs" : "0x1dcc4de8dec75d7aab85b567b6ccd41ad312451b948a7413f0a142fd40d49347",
                    "txbytes" : "0xf885800a8401ba814094cccccccccccccccccccccccccccccccccccccccc01a4693c613900000000000000000000000000000000000000000000000000000000000000001ba0567dec507c79f321aee5fe9acb87eb5be80ec557580c0b11fc8bfc03a49e99e5a00d2e9d241a2cb2cb22b85db9c9e593d28a04ad4022de3814ac79a194c97aa497"
                },
                {
                    "hash" : "0x3873cd043cb6579b71c78bec5ab58234e61814a2a341b725bfdac78bb6e5f816",
                    "indexes" : {
                        "data" : 1,
                        "gas" : 0,
                        "value" : 0
                    },
                    "logs" : "0x1dcc4de8dec75d7aab85b567b6ccd41ad312451b948a7413f0a142fd40d49347",
                    "txbytes" : "0xf885800a8401ba814094cccccccccccccccccccccccccccccccccccccccc01a4693c613900000000000000000000000000000000000000000000000000000000000000011ca0460aa506804a9e657c91be62de96f457fe1ccf03b2cdbb1056464ca719b39bffa0161d8490ac2eccf337aeb0fb008ee7a9c2215bc8bc64f0b492d5040a4514589f"
                },
                {
                    "hash" : "0x3873cd043cb6579b71c78bec5ab58234e61814a2a341b725bfdac78bb6e5f816",
                    "indexes" : {
                        "data" : 2,
                        "gas" : 0,
                        "value" : 0
                    },
                    "logs" : "0x1dcc4de8dec75d7aab85b567b6ccd41ad312451b948a7413f0a142fd40d49347",
                    "txbytes" : "0xf885800a8401ba814094cccccccccccccccccccccccccccccccccccccccc01a4693c613900000000000000000000000000000000000000000000000000000000000000021ba0f3570e9410d7c03667e646751038032b0f5b7c4f5642ff56b398457f153d9b39a0797fa257c96ab8223dfe54af1f92bb538e66b86f16adc36aaa00a154b1294d97"
                },
                {
                    "hash" : "0xfc2ab535024db7d4f464a3266f0626b2b5193046d5ccf3aed700245630586edd",
                    "indexes" : {
                        "data" : 3,
                        "gas" : 0,
                        "value" : 0
                    },
                    "logs" : "0x1dcc4de8dec75d7aab85b567b6ccd41ad312451b948a7413f0a142fd40d49347",
                    "txbytes" : "0xf885800a8401ba814094cccccccccccccccccccccccccccccccccccccccc01a4693c613900000000000000000000000000000000000000000000000000000000000000031ca0324f9dee6c04ba7a8f965b73adb769b5465e8f0715474c70b9db67ac446d0e24a02122f082939a61ee4bb3163055d2b2c0441c7c7d45d6b0c808eee7894664a36e"
                },
                {
                    "hash" : "0xfc2ab535024db7d4f464a3266f0626b2b5193046d5ccf3aed700245630586edd",
                    "indexes" : {
                        "data" : 4,
                        "gas" : 0,
                        "value" : 0
                    },
                    "logs" : "0x1dcc4de8dec75d7aab85b567b6ccd41ad312451b948a7413f0a142fd40d49347",
                    "txbytes" : "0xf885800a8401ba814094cccccccccccccccccccccccccccccccccccccccc01a4693c613900000000000000000000000000000000000000000000000000000000000000041ba03fbab7e66d34067dc796d0476f420679bc07628b4a69d1273c09b75aca056477a053103b2d0ba9aa3e60e8225135fcfa5a7f6b2d11c51047272ca17c328f2efc48"
                },
                {
                    "hash" : "0x3873cd043cb6579b71c78bec5ab58234e61814a2a341b725bfdac78bb6e5f816",
                    "indexes" : {
                        "data" : 5,
                        "gas" : 0,
                        "value" : 0
                    },
                    "logs" : "0x1dcc4de8dec75d7aab85b567b6ccd41ad312451b948a7413f0a142fd40d49347",
                    "txbytes" : "0xf885800a8401ba814094cccccccccccccccccccccccccccccccccccccccc01a4693c613900000000000000000000000000000000000000000000000000000000000000051ba05f52a438f648ee70213c86295b583cd640cbcead8a0bc16b0238104da39d664fa0075f22d47ddd604ed4c83e38eeb7904811c4f0a22f8c6aad3978996b09a66339"
                }
            ],
            "Istanbul" : [
                {
                    "hash" : "0x0f29b478415edd76cc3994c75d3b1a939c4d907e6be56790999645186910405e",
                    "indexes" : {
                        "data" : 0,
                        "gas" : 0,
                        "value" : 0
                    },
                    "logs" : "0x1dcc4de8dec75d7aab85b567b6ccd41ad312451b948a7413f0a142fd40d49347",
                    "txbytes" : "0xf885800a8401ba814094cccccccccccccccccccccccccccccccccccccccc01a4693c613900000000000000000000000000000000000000000000000000000000000000001ba0567dec507c79f321aee5fe9acb87eb5be80ec557580c0b11fc8bfc03a49e99e5a00d2e9d241a2cb2cb22b85db9c9e593d28a04ad4022de3814ac79a194c97aa497"
                },
                {
                    "hash" : "0x0f29b478415edd76cc3994c75d3b1a939c4d907e6be56790999645186910405e",
                    "indexes" : {
                        "data" : 1,
                        "gas" : 0,
                        "value" : 0
                    },
                    "logs" : "0x1dcc4de8dec75d7aab85b567b6ccd41ad312451b948a7413f0a142fd40d49347",
                    "txbytes" : "0xf885800a8401ba814094cccccccccccccccccccccccccccccccccccccccc01a4693c613900000000000000000000000000000000000000000000000000000000000000011ca0460aa506804a9e657c91be62de96f457fe1ccf03b2cdbb1056464ca719b39bffa0161d8490ac2eccf337aeb0fb008ee7a9c2215bc8bc64f0b492d5040a4514589f"
                },
                {
                    "hash" : "0x0f29b478415edd76cc3994c75d3b1a939c4d907e6be56790999645186910405e",
                    "indexes" : {
                        "data" : 2,
                        "gas" : 0,
                        "value" : 0
                    },
                    "logs" : "0x1dcc4de8dec75d7aab85b567b6ccd41ad312451b948a7413f0a142fd40d49347",
                    "txbytes" : "0xf885800a8401ba814094cccccccccccccccccccccccccccccccccccccccc01a4693c613900000000000000000000000000000000000000000000000000000000000000021ba0f3570e9410d7c03667e646751038032b0f5b7c4f5642ff56b398457f153d9b39a0797fa257c96ab8223dfe54af1f92bb538e66b86f16adc36aaa00a154b1294d97"
                },
                {
                    "hash" : "0xe3862ec2d4fa3aa7d0859aae7763bcacda6ce0b7ee79179c163527a65cc336c8",
                    "indexes" : {
                        "data" : 3,
                        "gas" : 0,
                        "value" : 0
                    },
                    "logs" : "0x1dcc4de8dec75d7aab85b567b6ccd41ad312451b948a7413f0a142fd40d49347",
                    "txbytes" : "0xf885800a8401ba814094cccccccccccccccccccccccccccccccccccccccc01a4693c613900000000000000000000000000000000000000000000000000000000000000031ca0324f9dee6c04ba7a8f965b73adb769b5465e8f0715474c70b9db67ac446d0e24a02122f082939a61ee4bb3163055d2b2c0441c7c7d45d6b0c808eee7894664a36e"
                },
                {
                    "hash" : "0xe3862ec2d4fa3aa7d0859aae7763bcacda6ce0b7ee79179c163527a65cc336c8",
                    "indexes" : {
                        "data" : 4,
                        "gas" : 0,
                        "value" : 0
                    },
                    "logs" : "0x1dcc4de8dec75d7aab85b567b6ccd41ad312451b948a7413f0a142fd40d49347",
                    "txbytes" : "0xf885800a8401ba814094cccccccccccccccccccccccccccccccccccccccc01a4693c613900000000000000000000000000000000000000000000000000000000000000041ba03fbab7e66d34067dc796d0476f420679bc07628b4a69d1273c09b75aca056477a053103b2d0ba9aa3e60e8225135fcfa5a7f6b2d11c51047272ca17c328f2efc48"
                },
                {
                    "hash" : "0x0f29b478415edd76cc3994c75d3b1a939c4d907e6be56790999645186910405e",
                    "indexes" : {
                        "data" : 5,
                        "gas" : 0,
                        "value" : 0
                    },
                    "logs" : "0x1dcc4de8dec75d7aab85b567b6ccd41ad312451b948a7413f0a142fd40d49347",
                    "txbytes" : "0xf885800a8401ba814094cccccccccccccccccccccccccccccccccccccccc01a4693c613900000000000000000000000000000000000000000000000000000000000000051ba05f52a438f648ee70213c86295b583cd640cbcead8a0bc16b0238104da39d664fa0075f22d47ddd604ed4c83e38eeb7904811c4f0a22f8c6aad3978996b09a66339"
                }
            ],
            "London" : [
                {
                    "hash" : "0xb6b724b47edfe80a69645c3d3ffaf231c9a118c37d4a4af3b013dd16c38f26ca",
                    "indexes" : {
                        "data" : 0,
                        "gas" : 0,
                        "value" : 0
                    },
                    "logs" : "0x1dcc4de8dec75d7aab85b567b6ccd41ad312451b948a7413f0a142fd40d49347",
                    "txbytes" : "0xf885800a8401ba814094cccccccccccccccccccccccccccccccccccccccc01a4693c613900000000000000000000000000000000000000000000000000000000000000001ba0567dec507c79f321aee5fe9acb87eb5be80ec557580c0b11fc8bfc03a49e99e5a00d2e9d241a2cb2cb22b85db9c9e593d28a04ad4022de3814ac79a194c97aa497"
                },
                {
                    "hash" : "0xb6b724b47edfe80a69645c3d3ffaf231c9a118c37d4a4af3b013dd16c38f26ca",
                    "indexes" : {
                        "data" : 1,
                        "gas" : 0,
                        "value" : 0
                    },
                    "logs" : "0x1dcc4de8dec75d7aab85b567b6ccd41ad312451b948a7413f0a142fd40d49347",
                    "txbytes" : "0xf885800a8401ba814094cccccccccccccccccccccccccccccccccccccccc01a4693c613900000000000000000000000000000000000000000000000000000000000000011ca0460aa506804a9e657c91be62de96f457fe1ccf03b2cdbb1056464ca719b39bffa0161d8490ac2eccf337aeb0fb008ee7a9c2215bc8bc64f0b492d5040a4514589f"
                },
                {
                    "hash" : "0xb6b724b47edfe80a69645c3d3ffaf231c9a118c37d4a4af3b013dd16c38f26ca",
                    "indexes" : {
                        "data" : 2,
                        "gas" : 0,
                        "value" : 0
                    },
                    "logs" : "0x1dcc4de8dec75d7aab85b567b6ccd41ad312451b948a7413f0a142fd40d49347",
                    "txbytes" : "0xf885800a8401ba814094cccccccccccccccccccccccccccccccccccccccc01a4693c613900000000000000000000000000000000000000000000000000000000000000021ba0f3570e9410d7c03667e646751038032b0f5b7c4f5642ff56b398457f153d9b39a0797fa257c96ab8223dfe54af1f92bb538e66b86f16adc36aaa00a154b1294d97"
                },
                {
                    "hash" : "0x49c3cc4cc11a5c41cd5005b494012383c640ecc654691af6e24efcc6277f7c27",
                    "indexes" : {
                        "data" : 3,
                        "gas" : 0,
                        "value" : 0
                    },
                    "logs" : "0x1dcc4de8dec75d7aab85b567b6ccd41ad312451b948a7413f0a142fd40d49347",
                    "txbytes" : "0xf885800a8401ba814094cccccccccccccccccccccccccccccccccccccccc01a4693c613900000000000000000000000000000000000000000000000000000000000000031ca0324f9dee6c04ba7a8f965b73adb769b5465e8f0715474c70b9db67ac446d0e24a02122f082939a61ee4bb3163055d2b2c0441c7c7d45d6b0c808eee7894664a36e"
                },
                {
                    "hash" : "0x49c3cc4cc11a5c41cd5005b494012383c640ecc654691af6e24efcc6277f7c27",
                    "indexes" : {
                        "data" : 4,
                        "gas" : 0,
                        "value" : 0
                    },
                    "logs" : "0x1dcc4de8dec75d7aab85b567b6ccd41ad312451b948a7413f0a142fd40d49347",
                    "txbytes" : "0xf885800a8401ba814094cccccccccccccccccccccccccccccccccccccccc01a4693c613900000000000000000000000000000000000000000000000000000000000000041ba03fbab7e66d34067dc796d0476f420679bc07628b4a69d1273c09b75aca056477a053103b2d0ba9aa3e60e8225135fcfa5a7f6b2d11c51047272ca17c328f2efc48"
                },
                {
                    "hash" : "0xb6b724b47edfe80a69645c3d3ffaf231c9a118c37d4a4af3b013dd16c38f26ca",
                    "indexes" : {
                        "data" : 5,
                        "gas" : 0,
                        "value" : 0
                    },
                    "logs" : "0x1dcc4de8dec75d7aab85b567b6ccd41ad312451b948a7413f0a142fd40d49347",
                    "txbytes" : "0xf885800a8401ba814094cccccccccccccccccccccccccccccccccccccccc01a4693c613900000000000000000000000000000000000000000000000000000000000000051ba05f52a438f648ee70213c86295b583cd640cbcead8a0bc16b0238104da39d664fa0075f22d47ddd604ed4c83e38eeb7904811c4f0a22f8c6aad3978996b09a66339"
                }
            ],
            "Merge" : [
                {
                    "hash" : "0xb6b724b47edfe80a69645c3d3ffaf231c9a118c37d4a4af3b013dd16c38f26ca",
                    "indexes" : {
                        "data" : 0,
                        "gas" : 0,
                        "value" : 0
                    },
                    "logs" : "0x1dcc4de8dec75d7aab85b567b6ccd41ad312451b948a7413f0a142fd40d49347",
                    "txbytes" : "0xf885800a8401ba814094cccccccccccccccccccccccccccccccccccccccc01a4693c613900000000000000000000000000000000000000000000000000000000000000001ba0567dec507c79f321aee5fe9acb87eb5be80ec557580c0b11fc8bfc03a49e99e5a00d2e9d241a2cb2cb22b85db9c9e593d28a04ad4022de3814ac79a194c97aa497"
                },
                {
                    "hash" : "0xb6b724b47edfe80a69645c3d3ffaf231c9a118c37d4a4af3b013dd16c38f26ca",
                    "indexes" : {
                        "data" : 1,
                        "gas" : 0,
                        "value" : 0
                    },
                    "logs" : "0x1dcc4de8dec75d7aab85b567b6ccd41ad312451b948a7413f0a142fd40d49347",
                    "txbytes" : "0xf885800a8401ba814094cccccccccccccccccccccccccccccccccccccccc01a4693c613900000000000000000000000000000000000000000000000000000000000000011ca0460aa506804a9e657c91be62de96f457fe1ccf03b2cdbb1056464ca719b39bffa0161d8490ac2eccf337aeb0fb008ee7a9c2215bc8bc64f0b492d5040a4514589f"
                },
                {
                    "hash" : "0xb6b724b47edfe80a69645c3d3ffaf231c9a118c37d4a4af3b013dd16c38f26ca",
                    "indexes" : {
                        "data" : 2,
                        "gas" : 0,
                        "value" : 0
                    },
                    "logs" : "0x1dcc4de8dec75d7aab85b567b6ccd41ad312451b948a7413f0a142fd40d49347",
                    "txbytes" : "0xf885800a8401ba814094cccccccccccccccccccccccccccccccccccccccc01a4693c613900000000000000000000000000000000000000000000000000000000000000021ba0f3570e9410d7c03667e646751038032b0f5b7c4f5642ff56b398457f153d9b39a0797fa257c96ab8223dfe54af1f92bb538e66b86f16adc36aaa00a154b1294d97"
                },
                {
                    "hash" : "0x49c3cc4cc11a5c41cd5005b494012383c640ecc654691af6e24efcc6277f7c27",
                    "indexes" : {
                        "data" : 3,
                        "gas" : 0,
                        "value" : 0
                    },
                    "logs" : "0x1dcc4de8dec75d7aab85b567b6ccd41ad312451b948a7413f0a142fd40d49347",
                    "txbytes" : "0xf885800a8401ba814094cccccccccccccccccccccccccccccccccccccccc01a4693c613900000000000000000000000000000000000000000000000000000000000000031ca0324f9dee6c04ba7a8f965b73adb769b5465e8f0715474c70b9db67ac446d0e24a02122f082939a61ee4bb3163055d2b2c0441c7c7d45d6b0c808eee7894664a36e"
                },
                {
                    "hash" : "0x49c3cc4cc11a5c41cd5005b494012383c640ecc654691af6e24efcc6277f7c27",
                    "indexes" : {
                        "data" : 4,
                        "gas" : 0,
                        "value" : 0
                    },
                    "logs" : "0x1dcc4de8dec75d7aab85b567b6ccd41ad312451b948a7413f0a142fd40d49347",
                    "txbytes" : "0xf885800a8401ba814094cccccccccccccccccccccccccccccccccccccccc01a4693c613900000000000000000000000000000000000000000000000000000000000000041ba03fbab7e66d34067dc796d0476f420679bc07628b4a69d1273c09b75aca056477a053103b2d0ba9aa3e60e8225135fcfa5a7f6b2d11c51047272ca17c328f2efc48"
                },
                {
                    "hash" : "0xb6b724b47edfe80a69645c3d3ffaf231c9a118c37d4a4af3b013dd16c38f26ca",
                    "indexes" : {
                        "data" : 5,
                        "gas" : 0,
                        "value" : 0
                    },
                    "logs" : "0x1dcc4de8dec75d7aab85b567b6ccd41ad312451b948a7413f0a142fd40d49347",
                    "txbytes" : "0xf885800a8401ba814094cccccccccccccccccccccccccccccccccccccccc01a4693c613900000000000000000000000000000000000000000000000000000000000000051ba05f52a438f648ee70213c86295b583cd640cbcead8a0bc16b0238104da39d664fa0075f22d47ddd604ed4c83e38eeb7904811c4f0a22f8c6aad3978996b09a66339"
                }
            ]
        },
        "pre" : {
            "0x0000000000000000000000000000000000000100" : {
                "balance" : "0x0ba1a9ce0ba1a9ce",
                "code" : "0x434342444244454597",
                "nonce" : "0x00",
                "storage" : {
                }
            },
            "0x0000000000000000000000000000000000000101" : {
                "balance" : "0x0ba1a9ce0ba1a9ce",
                "code" : "0x4045404145454441343987ff3735043055",
                "nonce" : "0x00",
                "storage" : {
                }
            },
            "0x0000000000000000000000000000000000000102" : {
                "balance" : "0x0ba1a9ce0ba1a9ce",
                "code" : "0x4040459143404144809759886d608f",
                "nonce" : "0x00",
                "storage" : {
                }
            },
            "0x0000000000000000000000000000000000000103" : {
                "balance" : "0x0ba1a9ce0ba1a9ce",
                "code" : "0x7745414245403745f31387900a8d55",
                "nonce" : "0x00",
                "storage" : {
                }
            },
            "0x0000000000000000000000000000000000000104" : {
                "balance" : "0x0ba1a9ce0ba1a9ce",
                "code" : "0x65424555",
                "nonce" : "0x00",
                "storage" : {
                }
            },
            "0x0000000000000000000000000000000000000105" : {
                "balance" : "0x0ba1a9ce0ba1a9ce",
                "code" : "0x4041",
                "nonce" : "0x00",
                "storage" : {
                }
            },
            "0xa94f5374fce5edbc8e2a8697c15331677e6ebf0b" : {
                "balance" : "0x10000000000000",
                "code" : "0x",
                "nonce" : "0x00",
                "storage" : {
                }
            },
            "0xcccccccccccccccccccccccccccccccccccccccc" : {
                "balance" : "0x0ba1a9ce0ba1a9ce",
                "code" : "0x60006000600060006000600435610100015af100",
                "nonce" : "0x00",
                "storage" : {
                }
            }
        },
        "transaction" : {
            "data" : [
                "0x693c61390000000000000000000000000000000000000000000000000000000000000000",
                "0x693c61390000000000000000000000000000000000000000000000000000000000000001",
                "0x693c61390000000000000000000000000000000000000000000000000000000000000002",
                "0x693c61390000000000000000000000000000000000000000000000000000000000000003",
                "0x693c61390000000000000000000000000000000000000000000000000000000000000004",
                "0x693c61390000000000000000000000000000000000000000000000000000000000000005"
            ],
            "gasLimit" : [
                "0x01ba8140"
            ],
            "gasPrice" : "0x0a",
            "nonce" : "0x00",
            "secretKey" : "0x45a915e4d060149eb4365960e6a7a45f334393093061116b197e3240065ff2d8",
            "sender" : "0xa94f5374fce5edbc8e2a8697c15331677e6ebf0b",
            "to" : "0xcccccccccccccccccccccccccccccccccccccccc",
            "value" : [
                "0x01"
            ]
        }
    }
}