{
    "FailedCreateRevertsDeletion_d0g0v0_Berlin" : {
        "_info" : {
            "comment" : "A modification of stRevertTests/RevertInCreateInInit.  That test, for EIP158 only, accidentially tested the case where a contract creation transaction touches an empty account and then fails.  This one tests the same thing not just for EIP158 but any network thereafter.",
            "filling-rpc-server" : "evm version 1.11.0-unstable-e04d63eb-20230113",
            "filling-tool-version" : "retesteth-0.2.3-postmerge+commit.801c0d4c.Linux.g++",
            "generatedTestHash" : "1255902c776a7a4b0a72252a594ca1c5e7a42e482c136207a838d043a2a4c4f7",
            "lllcversion" : "Version: 0.5.14-develop.2021.4.29+commit.14c9d5de.Linux.clang",
            "solidity" : "Version: 0.8.17-develop.2022.9.30+commit.8df45f5f.Linux.clang",
            "source" : "src/GeneralStateTestsFiller/stSpecialTest/FailedCreateRevertsDeletionFiller.json",
            "sourceHash" : "e061728bc6acd95bd1217630a4c77587bae5ce1604d9ad4cf6827affe21f3b49"
        },
        "blocks" : [
            {
                "blockHeader" : {
                    "bloom" : "0x00000000000000000000000000000000000000000000000000000000000000000000000000000000000000000000000000000000000000000000000000000000000000000000000000000000000000000000000000000000000000000000000000000000000000000000000000000000000000000000000000000000000000000000000000000000000000000000000000000000000000000000000000000000000000000000000000000000000000000000000000000000000000000000000000000000000000000000000000000000000000000000000000000000000000000000000000000000000000000000000000000000000000000000000000000000",
                    "coinbase" : "0x2adc25665018aa1fe0e6bc666dac8fc2697ff9ba",
                    "difficulty" : "0x020000",
                    "extraData" : "0x00",
                    "gasLimit" : "0x0a10000000",
                    "gasUsed" : "0x01ba8140",
                    "hash" : "0x41d3f4026e9fdbf127583e13a85dfd3400222ae765884c39f72bc25ab8dcdafb",
                    "mixHash" : "0x0000000000000000000000000000000000000000000000000000000000000000",
                    "nonce" : "0x0000000000000000",
                    "number" : "0x01",
                    "parentHash" : "0x61b2253366eab37849d21ac066b96c9de133b8c58a9a38652deae1dd7ec22e7b",
                    "receiptTrie" : "0x6b94625e17e64fae3f022ee553f7b2d9a082c89dc32d37ac411370bad31c2a3e",
                    "stateRoot" : "0x254000a620f4ecc9aa8a37e410fe44f4bf34a29b5c150ff3ceaf22048e34a574",
                    "timestamp" : "0x03e8",
                    "transactionsTrie" : "0x334deb1e009a01b05408e2c529fd09ee9b5371b64ab1b6d2e2d8f5cc7488d4ae",
                    "uncleHash" : "0x1dcc4de8dec75d7aab85b567b6ccd41ad312451b948a7413f0a142fd40d49347"
                },
                "rlp" : "0xf90270f901fba061b2253366eab37849d21ac066b96c9de133b8c58a9a38652deae1dd7ec22e7ba01dcc4de8dec75d7aab85b567b6ccd41ad312451b948a7413f0a142fd40d49347942adc25665018aa1fe0e6bc666dac8fc2697ff9baa0254000a620f4ecc9aa8a37e410fe44f4bf34a29b5c150ff3ceaf22048e34a574a0334deb1e009a01b05408e2c529fd09ee9b5371b64ab1b6d2e2d8f5cc7488d4aea06b94625e17e64fae3f022ee553f7b2d9a082c89dc32d37ac411370bad31c2a3eb90100000000000000000000000000000000000000000000000000000000000000000000000000000000000000000000000000000000000000000000000000000000000000000000000000000000000000000000000000000000000000000000000000000000000000000000000000000000000000000000000000000000000000000000000000000000000000000000000000000000000000000000000000000000000000000000000000000000000000000000000000000000000000000000000000000000000000000000000000000000000000000000000000000000000000000000000000000000000000000000000000000000000000000000000000000000008302000001850a100000008401ba81408203e800a00000000000000000000000000000000000000000000000000000000000000000880000000000000000f86ff86d800a8401ba81408080a03050600d80601360003960006000f050fe00fe6211223360005260206000fd001ba0d6dbeb8512c03a1384c626a05ca60a71216a2e04ae0fed06f5b442f0c9772a42a044bbe797e8ecb88f57e44e2ad18fe6f7579ed333c294616b25709e2e7b7fa60fc0",
                "transactions" : [
                    {
                        "data" : "0x3050600d80601360003960006000f050fe00fe6211223360005260206000fd00",
                        "gasLimit" : "0x01ba8140",
                        "gasPrice" : "0x0a",
                        "nonce" : "0x00",
                        "r" : "0xd6dbeb8512c03a1384c626a05ca60a71216a2e04ae0fed06f5b442f0c9772a42",
                        "s" : "0x44bbe797e8ecb88f57e44e2ad18fe6f7579ed333c294616b25709e2e7b7fa60f",
                        "sender" : "0xa94f5374fce5edbc8e2a8697c15331677e6ebf0b",
                        "to" : "",
                        "v" : "0x1b",
                        "value" : "0x00"
                    }
                ],
                "uncleHeaders" : [
                ]
            }
        ],
        "genesisBlockHeader" : {
            "bloom" : "0x00000000000000000000000000000000000000000000000000000000000000000000000000000000000000000000000000000000000000000000000000000000000000000000000000000000000000000000000000000000000000000000000000000000000000000000000000000000000000000000000000000000000000000000000000000000000000000000000000000000000000000000000000000000000000000000000000000000000000000000000000000000000000000000000000000000000000000000000000000000000000000000000000000000000000000000000000000000000000000000000000000000000000000000000000000000",
            "coinbase" : "0x2adc25665018aa1fe0e6bc666dac8fc2697ff9ba",
            "difficulty" : "0x020000",
            "extraData" : "0x00",
            "gasLimit" : "0x0a10000000",
            "gasUsed" : "0x00",
            "hash" : "0x61b2253366eab37849d21ac066b96c9de133b8c58a9a38652deae1dd7ec22e7b",
            "mixHash" : "0x0000000000000000000000000000000000000000000000000000000000000000",
            "nonce" : "0x0000000000000000",
            "number" : "0x00",
            "parentHash" : "0x0000000000000000000000000000000000000000000000000000000000000000",
            "receiptTrie" : "0x56e81f171bcc55a6ff8345e692c0f86e5b48e01b996cadc001622fb5e363b421",
            "stateRoot" : "0xbb66f5a3f61c86eba37c5ea6c3464988e4a07b794414d7791770c44c065cfae9",
            "timestamp" : "0x00",
            "transactionsTrie" : "0x56e81f171bcc55a6ff8345e692c0f86e5b48e01b996cadc001622fb5e363b421",
            "uncleHash" : "0x1dcc4de8dec75d7aab85b567b6ccd41ad312451b948a7413f0a142fd40d49347"
        },
        "genesisRLP" : "0xf901faf901f5a00000000000000000000000000000000000000000000000000000000000000000a01dcc4de8dec75d7aab85b567b6ccd41ad312451b948a7413f0a142fd40d49347942adc25665018aa1fe0e6bc666dac8fc2697ff9baa0bb66f5a3f61c86eba37c5ea6c3464988e4a07b794414d7791770c44c065cfae9a056e81f171bcc55a6ff8345e692c0f86e5b48e01b996cadc001622fb5e363b421a056e81f171bcc55a6ff8345e692c0f86e5b48e01b996cadc001622fb5e363b421b90100000000000000000000000000000000000000000000000000000000000000000000000000000000000000000000000000000000000000000000000000000000000000000000000000000000000000000000000000000000000000000000000000000000000000000000000000000000000000000000000000000000000000000000000000000000000000000000000000000000000000000000000000000000000000000000000000000000000000000000000000000000000000000000000000000000000000000000000000000000000000000000000000000000000000000000000000000000000000000000000000000000000000000000000000000000008302000080850a10000000808000a00000000000000000000000000000000000000000000000000000000000000000880000000000000000c0c0",
        "lastblockhash" : "0x41d3f4026e9fdbf127583e13a85dfd3400222ae765884c39f72bc25ab8dcdafb",
        "network" : "Berlin",
        "postState" : {
            "0x2adc25665018aa1fe0e6bc666dac8fc2697ff9ba" : {
                "balance" : "0x1bc16d6760110c80",
                "code" : "0x",
                "nonce" : "0x00",
                "storage" : {
                }
            },
            "0x6295ee1b4f6dd65047762f924ecd367c17eabf8f" : {
                "balance" : "0x00",
                "code" : "0x",
                "nonce" : "0x00",
                "storage" : {
                    "0x00" : "0x01"
                }
            },
            "0xa94f5374fce5edbc8e2a8697c15331677e6ebf0b" : {
                "balance" : "0x63eeb6f380",
                "code" : "0x",
                "nonce" : "0x01",
                "storage" : {
                }
            }
        },
        "pre" : {
            "0x6295ee1b4f6dd65047762f924ecd367c17eabf8f" : {
                "balance" : "0x00",
                "code" : "0x",
                "nonce" : "0x00",
                "storage" : {
                    "0x00" : "0x01"
                }
            },
            "0xa94f5374fce5edbc8e2a8697c15331677e6ebf0b" : {
                "balance" : "0x6400000000",
                "code" : "0x",
                "nonce" : "0x00",
                "storage" : {
                }
            }
        },
        "sealEngine" : "NoProof"
    },
    "FailedCreateRevertsDeletion_d0g0v0_Istanbul" : {
        "_info" : {
            "comment" : "A modification of stRevertTests/RevertInCreateInInit.  That test, for EIP158 only, accidentially tested the case where a contract creation transaction touches an empty account and then fails.  This one tests the same thing not just for EIP158 but any network thereafter.",
            "filling-rpc-server" : "evm version 1.11.0-unstable-e04d63eb-20230113",
            "filling-tool-version" : "retesteth-0.2.3-postmerge+commit.801c0d4c.Linux.g++",
            "generatedTestHash" : "02f90ad693642de697e3b245cb605754666cbe280ac80218ee6298e3380c81fa",
            "lllcversion" : "Version: 0.5.14-develop.2021.4.29+commit.14c9d5de.Linux.clang",
            "solidity" : "Version: 0.8.17-develop.2022.9.30+commit.8df45f5f.Linux.clang",
            "source" : "src/GeneralStateTestsFiller/stSpecialTest/FailedCreateRevertsDeletionFiller.json",
            "sourceHash" : "e061728bc6acd95bd1217630a4c77587bae5ce1604d9ad4cf6827affe21f3b49"
        },
        "blocks" : [
            {
                "blockHeader" : {
                    "bloom" : "0x00000000000000000000000000000000000000000000000000000000000000000000000000000000000000000000000000000000000000000000000000000000000000000000000000000000000000000000000000000000000000000000000000000000000000000000000000000000000000000000000000000000000000000000000000000000000000000000000000000000000000000000000000000000000000000000000000000000000000000000000000000000000000000000000000000000000000000000000000000000000000000000000000000000000000000000000000000000000000000000000000000000000000000000000000000000",
                    "coinbase" : "0x2adc25665018aa1fe0e6bc666dac8fc2697ff9ba",
                    "difficulty" : "0x020000",
                    "extraData" : "0x00",
                    "gasLimit" : "0x0a10000000",
                    "gasUsed" : "0x01ba8140",
                    "hash" : "0x41d3f4026e9fdbf127583e13a85dfd3400222ae765884c39f72bc25ab8dcdafb",
                    "mixHash" : "0x0000000000000000000000000000000000000000000000000000000000000000",
                    "nonce" : "0x0000000000000000",
                    "number" : "0x01",
                    "parentHash" : "0x61b2253366eab37849d21ac066b96c9de133b8c58a9a38652deae1dd7ec22e7b",
                    "receiptTrie" : "0x6b94625e17e64fae3f022ee553f7b2d9a082c89dc32d37ac411370bad31c2a3e",
                    "stateRoot" : "0x254000a620f4ecc9aa8a37e410fe44f4bf34a29b5c150ff3ceaf22048e34a574",
                    "timestamp" : "0x03e8",
                    "transactionsTrie" : "0x334deb1e009a01b05408e2c529fd09ee9b5371b64ab1b6d2e2d8f5cc7488d4ae",
                    "uncleHash" : "0x1dcc4de8dec75d7aab85b567b6ccd41ad312451b948a7413f0a142fd40d49347"
                },
                "rlp" : "0xf90270f901fba061b2253366eab37849d21ac066b96c9de133b8c58a9a38652deae1dd7ec22e7ba01dcc4de8dec75d7aab85b567b6ccd41ad312451b948a7413f0a142fd40d49347942adc25665018aa1fe0e6bc666dac8fc2697ff9baa0254000a620f4ecc9aa8a37e410fe44f4bf34a29b5c150ff3ceaf22048e34a574a0334deb1e009a01b05408e2c529fd09ee9b5371b64ab1b6d2e2d8f5cc7488d4aea06b94625e17e64fae3f022ee553f7b2d9a082c89dc32d37ac411370bad31c2a3eb90100000000000000000000000000000000000000000000000000000000000000000000000000000000000000000000000000000000000000000000000000000000000000000000000000000000000000000000000000000000000000000000000000000000000000000000000000000000000000000000000000000000000000000000000000000000000000000000000000000000000000000000000000000000000000000000000000000000000000000000000000000000000000000000000000000000000000000000000000000000000000000000000000000000000000000000000000000000000000000000000000000000000000000000000000000000008302000001850a100000008401ba81408203e800a00000000000000000000000000000000000000000000000000000000000000000880000000000000000f86ff86d800a8401ba81408080a03050600d80601360003960006000f050fe00fe6211223360005260206000fd001ba0d6dbeb8512c03a1384c626a05ca60a71216a2e04ae0fed06f5b442f0c9772a42a044bbe797e8ecb88f57e44e2ad18fe6f7579ed333c294616b25709e2e7b7fa60fc0",
                "transactions" : [
                    {
                        "data" : "0x3050600d80601360003960006000f050fe00fe6211223360005260206000fd00",
                        "gasLimit" : "0x01ba8140",
                        "gasPrice" : "0x0a",
                        "nonce" : "0x00",
                        "r" : "0xd6dbeb8512c03a1384c626a05ca60a71216a2e04ae0fed06f5b442f0c9772a42",
                        "s" : "0x44bbe797e8ecb88f57e44e2ad18fe6f7579ed333c294616b25709e2e7b7fa60f",
                        "sender" : "0xa94f5374fce5edbc8e2a8697c15331677e6ebf0b",
                        "to" : "",
                        "v" : "0x1b",
                        "value" : "0x00"
                    }
                ],
                "uncleHeaders" : [
                ]
            }
        ],
        "genesisBlockHeader" : {
            "bloom" : "0x00000000000000000000000000000000000000000000000000000000000000000000000000000000000000000000000000000000000000000000000000000000000000000000000000000000000000000000000000000000000000000000000000000000000000000000000000000000000000000000000000000000000000000000000000000000000000000000000000000000000000000000000000000000000000000000000000000000000000000000000000000000000000000000000000000000000000000000000000000000000000000000000000000000000000000000000000000000000000000000000000000000000000000000000000000000",
            "coinbase" : "0x2adc25665018aa1fe0e6bc666dac8fc2697ff9ba",
            "difficulty" : "0x020000",
            "extraData" : "0x00",
            "gasLimit" : "0x0a10000000",
            "gasUsed" : "0x00",
            "hash" : "0x61b2253366eab37849d21ac066b96c9de133b8c58a9a38652deae1dd7ec22e7b",
            "mixHash" : "0x0000000000000000000000000000000000000000000000000000000000000000",
            "nonce" : "0x0000000000000000",
            "number" : "0x00",
            "parentHash" : "0x0000000000000000000000000000000000000000000000000000000000000000",
            "receiptTrie" : "0x56e81f171bcc55a6ff8345e692c0f86e5b48e01b996cadc001622fb5e363b421",
            "stateRoot" : "0xbb66f5a3f61c86eba37c5ea6c3464988e4a07b794414d7791770c44c065cfae9",
            "timestamp" : "0x00",
            "transactionsTrie" : "0x56e81f171bcc55a6ff8345e692c0f86e5b48e01b996cadc001622fb5e363b421",
            "uncleHash" : "0x1dcc4de8dec75d7aab85b567b6ccd41ad312451b948a7413f0a142fd40d49347"
        },
        "genesisRLP" : "0xf901faf901f5a00000000000000000000000000000000000000000000000000000000000000000a01dcc4de8dec75d7aab85b567b6ccd41ad312451b948a7413f0a142fd40d49347942adc25665018aa1fe0e6bc666dac8fc2697ff9baa0bb66f5a3f61c86eba37c5ea6c3464988e4a07b794414d7791770c44c065cfae9a056e81f171bcc55a6ff8345e692c0f86e5b48e01b996cadc001622fb5e363b421a056e81f171bcc55a6ff8345e692c0f86e5b48e01b996cadc001622fb5e363b421b90100000000000000000000000000000000000000000000000000000000000000000000000000000000000000000000000000000000000000000000000000000000000000000000000000000000000000000000000000000000000000000000000000000000000000000000000000000000000000000000000000000000000000000000000000000000000000000000000000000000000000000000000000000000000000000000000000000000000000000000000000000000000000000000000000000000000000000000000000000000000000000000000000000000000000000000000000000000000000000000000000000000000000000000000000000000008302000080850a10000000808000a00000000000000000000000000000000000000000000000000000000000000000880000000000000000c0c0",
        "lastblockhash" : "0x41d3f4026e9fdbf127583e13a85dfd3400222ae765884c39f72bc25ab8dcdafb",
        "network" : "Istanbul",
        "postState" : {
            "0x2adc25665018aa1fe0e6bc666dac8fc2697ff9ba" : {
                "balance" : "0x1bc16d6760110c80",
                "code" : "0x",
                "nonce" : "0x00",
                "storage" : {
                }
            },
            "0x6295ee1b4f6dd65047762f924ecd367c17eabf8f" : {
                "balance" : "0x00",
                "code" : "0x",
                "nonce" : "0x00",
                "storage" : {
                    "0x00" : "0x01"
                }
            },
            "0xa94f5374fce5edbc8e2a8697c15331677e6ebf0b" : {
                "balance" : "0x63eeb6f380",
                "code" : "0x",
                "nonce" : "0x01",
                "storage" : {
                }
            }
        },
        "pre" : {
            "0x6295ee1b4f6dd65047762f924ecd367c17eabf8f" : {
                "balance" : "0x00",
                "code" : "0x",
                "nonce" : "0x00",
                "storage" : {
                    "0x00" : "0x01"
                }
            },
            "0xa94f5374fce5edbc8e2a8697c15331677e6ebf0b" : {
                "balance" : "0x6400000000",
                "code" : "0x",
                "nonce" : "0x00",
                "storage" : {
                }
            }
        },
        "sealEngine" : "NoProof"
    },
    "FailedCreateRevertsDeletion_d0g0v0_London" : {
        "_info" : {
            "comment" : "A modification of stRevertTests/RevertInCreateInInit.  That test, for EIP158 only, accidentially tested the case where a contract creation transaction touches an empty account and then fails.  This one tests the same thing not just for EIP158 but any network thereafter.",
            "filling-rpc-server" : "evm version 1.11.0-unstable-e04d63eb-20230113",
            "filling-tool-version" : "retesteth-0.2.3-postmerge+commit.801c0d4c.Linux.g++",
            "generatedTestHash" : "a33bbe961ce01e4a6eab7d5bc6b79e6708bbe11791cf171d4efef29b4dc8df0a",
            "lllcversion" : "Version: 0.5.14-develop.2021.4.29+commit.14c9d5de.Linux.clang",
            "solidity" : "Version: 0.8.17-develop.2022.9.30+commit.8df45f5f.Linux.clang",
            "source" : "src/GeneralStateTestsFiller/stSpecialTest/FailedCreateRevertsDeletionFiller.json",
            "sourceHash" : "e061728bc6acd95bd1217630a4c77587bae5ce1604d9ad4cf6827affe21f3b49"
        },
        "blocks" : [
            {
                "blockHeader" : {
                    "baseFeePerGas" : "0x0a",
                    "bloom" : "0x00000000000000000000000000000000000000000000000000000000000000000000000000000000000000000000000000000000000000000000000000000000000000000000000000000000000000000000000000000000000000000000000000000000000000000000000000000000000000000000000000000000000000000000000000000000000000000000000000000000000000000000000000000000000000000000000000000000000000000000000000000000000000000000000000000000000000000000000000000000000000000000000000000000000000000000000000000000000000000000000000000000000000000000000000000000",
                    "coinbase" : "0x2adc25665018aa1fe0e6bc666dac8fc2697ff9ba",
                    "difficulty" : "0x020000",
                    "extraData" : "0x00",
                    "gasLimit" : "0x0a10000000",
                    "gasUsed" : "0x01ba8140",
                    "hash" : "0x40e62a5fdc5313b7b8ef7112268bbaa4aac1830bb7992c7b40fb97cfb0f08cd8",
                    "mixHash" : "0x0000000000000000000000000000000000000000000000000000000000000000",
                    "nonce" : "0x0000000000000000",
                    "number" : "0x01",
                    "parentHash" : "0x842abe4e8f3e26e853530e38d44478686284f5d4e8d74c084fc27e2726791414",
                    "receiptTrie" : "0x6b94625e17e64fae3f022ee553f7b2d9a082c89dc32d37ac411370bad31c2a3e",
                    "stateRoot" : "0x6cd81fe8207b5f540b2167af7328ee15584dbaa9617bf85b9c2b7444c5f52a44",
                    "timestamp" : "0x03e8",
                    "transactionsTrie" : "0x334deb1e009a01b05408e2c529fd09ee9b5371b64ab1b6d2e2d8f5cc7488d4ae",
                    "uncleHash" : "0x1dcc4de8dec75d7aab85b567b6ccd41ad312451b948a7413f0a142fd40d49347"
                },
                "rlp" : "0xf90271f901fca0842abe4e8f3e26e853530e38d44478686284f5d4e8d74c084fc27e2726791414a01dcc4de8dec75d7aab85b567b6ccd41ad312451b948a7413f0a142fd40d49347942adc25665018aa1fe0e6bc666dac8fc2697ff9baa06cd81fe8207b5f540b2167af7328ee15584dbaa9617bf85b9c2b7444c5f52a44a0334deb1e009a01b05408e2c529fd09ee9b5371b64ab1b6d2e2d8f5cc7488d4aea06b94625e17e64fae3f022ee553f7b2d9a082c89dc32d37ac411370bad31c2a3eb90100000000000000000000000000000000000000000000000000000000000000000000000000000000000000000000000000000000000000000000000000000000000000000000000000000000000000000000000000000000000000000000000000000000000000000000000000000000000000000000000000000000000000000000000000000000000000000000000000000000000000000000000000000000000000000000000000000000000000000000000000000000000000000000000000000000000000000000000000000000000000000000000000000000000000000000000000000000000000000000000000000000000000000000000000000000008302000001850a100000008401ba81408203e800a000000000000000000000000000000000000000000000000000000000000000008800000000000000000af86ff86d800a8401ba81408080a03050600d80601360003960006000f050fe00fe6211223360005260206000fd001ba0d6dbeb8512c03a1384c626a05ca60a71216a2e04ae0fed06f5b442f0c9772a42a044bbe797e8ecb88f57e44e2ad18fe6f7579ed333c294616b25709e2e7b7fa60fc0",
                "transactions" : [
                    {
                        "data" : "0x3050600d80601360003960006000f050fe00fe6211223360005260206000fd00",
                        "gasLimit" : "0x01ba8140",
                        "gasPrice" : "0x0a",
                        "nonce" : "0x00",
                        "r" : "0xd6dbeb8512c03a1384c626a05ca60a71216a2e04ae0fed06f5b442f0c9772a42",
                        "s" : "0x44bbe797e8ecb88f57e44e2ad18fe6f7579ed333c294616b25709e2e7b7fa60f",
                        "sender" : "0xa94f5374fce5edbc8e2a8697c15331677e6ebf0b",
                        "to" : "",
                        "v" : "0x1b",
                        "value" : "0x00"
                    }
                ],
                "uncleHeaders" : [
                ]
            }
        ],
        "genesisBlockHeader" : {
            "baseFeePerGas" : "0x0b",
            "bloom" : "0x00000000000000000000000000000000000000000000000000000000000000000000000000000000000000000000000000000000000000000000000000000000000000000000000000000000000000000000000000000000000000000000000000000000000000000000000000000000000000000000000000000000000000000000000000000000000000000000000000000000000000000000000000000000000000000000000000000000000000000000000000000000000000000000000000000000000000000000000000000000000000000000000000000000000000000000000000000000000000000000000000000000000000000000000000000000",
            "coinbase" : "0x2adc25665018aa1fe0e6bc666dac8fc2697ff9ba",
            "difficulty" : "0x020000",
            "extraData" : "0x00",
            "gasLimit" : "0x0a10000000",
            "gasUsed" : "0x00",
            "hash" : "0x842abe4e8f3e26e853530e38d44478686284f5d4e8d74c084fc27e2726791414",
            "mixHash" : "0x0000000000000000000000000000000000000000000000000000000000000000",
            "nonce" : "0x0000000000000000",
            "number" : "0x00",
            "parentHash" : "0x0000000000000000000000000000000000000000000000000000000000000000",
            "receiptTrie" : "0x56e81f171bcc55a6ff8345e692c0f86e5b48e01b996cadc001622fb5e363b421",
            "stateRoot" : "0xbb66f5a3f61c86eba37c5ea6c3464988e4a07b794414d7791770c44c065cfae9",
            "timestamp" : "0x00",
            "transactionsTrie" : "0x56e81f171bcc55a6ff8345e692c0f86e5b48e01b996cadc001622fb5e363b421",
            "uncleHash" : "0x1dcc4de8dec75d7aab85b567b6ccd41ad312451b948a7413f0a142fd40d49347"
        },
        "genesisRLP" : "0xf901fbf901f6a00000000000000000000000000000000000000000000000000000000000000000a01dcc4de8dec75d7aab85b567b6ccd41ad312451b948a7413f0a142fd40d49347942adc25665018aa1fe0e6bc666dac8fc2697ff9baa0bb66f5a3f61c86eba37c5ea6c3464988e4a07b794414d7791770c44c065cfae9a056e81f171bcc55a6ff8345e692c0f86e5b48e01b996cadc001622fb5e363b421a056e81f171bcc55a6ff8345e692c0f86e5b48e01b996cadc001622fb5e363b421b90100000000000000000000000000000000000000000000000000000000000000000000000000000000000000000000000000000000000000000000000000000000000000000000000000000000000000000000000000000000000000000000000000000000000000000000000000000000000000000000000000000000000000000000000000000000000000000000000000000000000000000000000000000000000000000000000000000000000000000000000000000000000000000000000000000000000000000000000000000000000000000000000000000000000000000000000000000000000000000000000000000000000000000000000000000000008302000080850a10000000808000a000000000000000000000000000000000000000000000000000000000000000008800000000000000000bc0c0",
        "lastblockhash" : "0x40e62a5fdc5313b7b8ef7112268bbaa4aac1830bb7992c7b40fb97cfb0f08cd8",
        "network" : "London",
        "postState" : {
            "0x2adc25665018aa1fe0e6bc666dac8fc2697ff9ba" : {
                "balance" : "0x1bc16d674ec80000",
                "code" : "0x",
                "nonce" : "0x00",
                "storage" : {
                }
            },
            "0x6295ee1b4f6dd65047762f924ecd367c17eabf8f" : {
                "balance" : "0x00",
                "code" : "0x",
                "nonce" : "0x00",
                "storage" : {
                    "0x00" : "0x01"
                }
            },
            "0xa94f5374fce5edbc8e2a8697c15331677e6ebf0b" : {
                "balance" : "0x63eeb6f380",
                "code" : "0x",
                "nonce" : "0x01",
                "storage" : {
                }
            }
        },
        "pre" : {
            "0x6295ee1b4f6dd65047762f924ecd367c17eabf8f" : {
                "balance" : "0x00",
                "code" : "0x",
                "nonce" : "0x00",
                "storage" : {
                    "0x00" : "0x01"
                }
            },
            "0xa94f5374fce5edbc8e2a8697c15331677e6ebf0b" : {
                "balance" : "0x6400000000",
                "code" : "0x",
                "nonce" : "0x00",
                "storage" : {
                }
            }
        },
        "sealEngine" : "NoProof"
    },
    "FailedCreateRevertsDeletion_d0g0v0_Merge" : {
        "_info" : {
            "comment" : "A modification of stRevertTests/RevertInCreateInInit.  That test, for EIP158 only, accidentially tested the case where a contract creation transaction touches an empty account and then fails.  This one tests the same thing not just for EIP158 but any network thereafter.",
            "filling-rpc-server" : "evm version 1.11.0-unstable-e04d63eb-20230113",
            "filling-tool-version" : "retesteth-0.2.3-postmerge+commit.801c0d4c.Linux.g++",
            "generatedTestHash" : "7b32679fffc660cced22e8a883de4ad5dca586f38a177f306cec140da8f480cc",
            "lllcversion" : "Version: 0.5.14-develop.2021.4.29+commit.14c9d5de.Linux.clang",
            "solidity" : "Version: 0.8.17-develop.2022.9.30+commit.8df45f5f.Linux.clang",
            "source" : "src/GeneralStateTestsFiller/stSpecialTest/FailedCreateRevertsDeletionFiller.json",
            "sourceHash" : "e061728bc6acd95bd1217630a4c77587bae5ce1604d9ad4cf6827affe21f3b49"
        },
        "blocks" : [
            {
                "blockHeader" : {
                    "baseFeePerGas" : "0x0a",
                    "bloom" : "0x00000000000000000000000000000000000000000000000000000000000000000000000000000000000000000000000000000000000000000000000000000000000000000000000000000000000000000000000000000000000000000000000000000000000000000000000000000000000000000000000000000000000000000000000000000000000000000000000000000000000000000000000000000000000000000000000000000000000000000000000000000000000000000000000000000000000000000000000000000000000000000000000000000000000000000000000000000000000000000000000000000000000000000000000000000000",
                    "coinbase" : "0x2adc25665018aa1fe0e6bc666dac8fc2697ff9ba",
                    "difficulty" : "0x00",
                    "extraData" : "0x00",
                    "gasLimit" : "0x0a10000000",
                    "gasUsed" : "0x01ba8140",
                    "hash" : "0x9771316687adb6ad1b83c9169c28edde3a7f85ff3ce741fd5190fee7a0ccfdd7",
                    "mixHash" : "0x0000000000000000000000000000000000000000000000000000000000020000",
                    "nonce" : "0x0000000000000000",
                    "number" : "0x01",
                    "parentHash" : "0x9f441a32575d5767c94161f37b85388b32c15b081ef93169bb2a7073007e0e04",
                    "receiptTrie" : "0x6b94625e17e64fae3f022ee553f7b2d9a082c89dc32d37ac411370bad31c2a3e",
                    "stateRoot" : "0xb05f8f991903a58bc704a3f1d0a40efb4d3358e6e8aff12e4dace9d558be5193",
                    "timestamp" : "0x03e8",
                    "transactionsTrie" : "0x334deb1e009a01b05408e2c529fd09ee9b5371b64ab1b6d2e2d8f5cc7488d4ae",
                    "uncleHash" : "0x1dcc4de8dec75d7aab85b567b6ccd41ad312451b948a7413f0a142fd40d49347"
                },
                "rlp" : "0xf9026ef901f9a09f441a32575d5767c94161f37b85388b32c15b081ef93169bb2a7073007e0e04a01dcc4de8dec75d7aab85b567b6ccd41ad312451b948a7413f0a142fd40d49347942adc25665018aa1fe0e6bc666dac8fc2697ff9baa0b05f8f991903a58bc704a3f1d0a40efb4d3358e6e8aff12e4dace9d558be5193a0334deb1e009a01b05408e2c529fd09ee9b5371b64ab1b6d2e2d8f5cc7488d4aea06b94625e17e64fae3f022ee553f7b2d9a082c89dc32d37ac411370bad31c2a3eb90100000000000000000000000000000000000000000000000000000000000000000000000000000000000000000000000000000000000000000000000000000000000000000000000000000000000000000000000000000000000000000000000000000000000000000000000000000000000000000000000000000000000000000000000000000000000000000000000000000000000000000000000000000000000000000000000000000000000000000000000000000000000000000000000000000000000000000000000000000000000000000000000000000000000000000000000000000000000000000000000000000000000000000000000000000000008001850a100000008401ba81408203e800a000000000000000000000000000000000000000000000000000000000000200008800000000000000000af86ff86d800a8401ba81408080a03050600d80601360003960006000f050fe00fe6211223360005260206000fd001ba0d6dbeb8512c03a1384c626a05ca60a71216a2e04ae0fed06f5b442f0c9772a42a044bbe797e8ecb88f57e44e2ad18fe6f7579ed333c294616b25709e2e7b7fa60fc0",
                "transactions" : [
                    {
                        "data" : "0x3050600d80601360003960006000f050fe00fe6211223360005260206000fd00",
                        "gasLimit" : "0x01ba8140",
                        "gasPrice" : "0x0a",
                        "nonce" : "0x00",
                        "r" : "0xd6dbeb8512c03a1384c626a05ca60a71216a2e04ae0fed06f5b442f0c9772a42",
                        "s" : "0x44bbe797e8ecb88f57e44e2ad18fe6f7579ed333c294616b25709e2e7b7fa60f",
                        "sender" : "0xa94f5374fce5edbc8e2a8697c15331677e6ebf0b",
                        "to" : "",
                        "v" : "0x1b",
                        "value" : "0x00"
                    }
                ],
                "uncleHeaders" : [
                ]
            }
        ],
        "genesisBlockHeader" : {
            "baseFeePerGas" : "0x0b",
            "bloom" : "0x00000000000000000000000000000000000000000000000000000000000000000000000000000000000000000000000000000000000000000000000000000000000000000000000000000000000000000000000000000000000000000000000000000000000000000000000000000000000000000000000000000000000000000000000000000000000000000000000000000000000000000000000000000000000000000000000000000000000000000000000000000000000000000000000000000000000000000000000000000000000000000000000000000000000000000000000000000000000000000000000000000000000000000000000000000000",
            "coinbase" : "0x2adc25665018aa1fe0e6bc666dac8fc2697ff9ba",
            "difficulty" : "0x00",
            "extraData" : "0x00",
            "gasLimit" : "0x0a10000000",
            "gasUsed" : "0x00",
            "hash" : "0x9f441a32575d5767c94161f37b85388b32c15b081ef93169bb2a7073007e0e04",
            "mixHash" : "0x0000000000000000000000000000000000000000000000000000000000020000",
            "nonce" : "0x0000000000000000",
            "number" : "0x00",
            "parentHash" : "0x0000000000000000000000000000000000000000000000000000000000000000",
            "receiptTrie" : "0x56e81f171bcc55a6ff8345e692c0f86e5b48e01b996cadc001622fb5e363b421",
            "stateRoot" : "0xbb66f5a3f61c86eba37c5ea6c3464988e4a07b794414d7791770c44c065cfae9",
            "timestamp" : "0x00",
            "transactionsTrie" : "0x56e81f171bcc55a6ff8345e692c0f86e5b48e01b996cadc001622fb5e363b421",
            "uncleHash" : "0x1dcc4de8dec75d7aab85b567b6ccd41ad312451b948a7413f0a142fd40d49347"
        },
        "genesisRLP" : "0xf901f8f901f3a00000000000000000000000000000000000000000000000000000000000000000a01dcc4de8dec75d7aab85b567b6ccd41ad312451b948a7413f0a142fd40d49347942adc25665018aa1fe0e6bc666dac8fc2697ff9baa0bb66f5a3f61c86eba37c5ea6c3464988e4a07b794414d7791770c44c065cfae9a056e81f171bcc55a6ff8345e692c0f86e5b48e01b996cadc001622fb5e363b421a056e81f171bcc55a6ff8345e692c0f86e5b48e01b996cadc001622fb5e363b421b90100000000000000000000000000000000000000000000000000000000000000000000000000000000000000000000000000000000000000000000000000000000000000000000000000000000000000000000000000000000000000000000000000000000000000000000000000000000000000000000000000000000000000000000000000000000000000000000000000000000000000000000000000000000000000000000000000000000000000000000000000000000000000000000000000000000000000000000000000000000000000000000000000000000000000000000000000000000000000000000000000000000000000000000000000000000008080850a10000000808000a000000000000000000000000000000000000000000000000000000000000200008800000000000000000bc0c0",
        "lastblockhash" : "0x9771316687adb6ad1b83c9169c28edde3a7f85ff3ce741fd5190fee7a0ccfdd7",
        "network" : "Merge",
        "postState" : {
            "0x6295ee1b4f6dd65047762f924ecd367c17eabf8f" : {
                "balance" : "0x00",
                "code" : "0x",
                "nonce" : "0x00",
                "storage" : {
                    "0x00" : "0x01"
                }
            },
            "0xa94f5374fce5edbc8e2a8697c15331677e6ebf0b" : {
                "balance" : "0x63eeb6f380",
                "code" : "0x",
                "nonce" : "0x01",
                "storage" : {
                }
            }
        },
        "pre" : {
            "0x6295ee1b4f6dd65047762f924ecd367c17eabf8f" : {
                "balance" : "0x00",
                "code" : "0x",
                "nonce" : "0x00",
                "storage" : {
                    "0x00" : "0x01"
                }
            },
            "0xa94f5374fce5edbc8e2a8697c15331677e6ebf0b" : {
                "balance" : "0x6400000000",
                "code" : "0x",
                "nonce" : "0x00",
                "storage" : {
                }
            }
        },
        "sealEngine" : "NoProof"
    },
    "FailedCreateRevertsDeletion_d0g0v0_Shanghai" : {
        "_info" : {
            "comment" : "A modification of stRevertTests/RevertInCreateInInit.  That test, for EIP158 only, accidentially tested the case where a contract creation transaction touches an empty account and then fails.  This one tests the same thing not just for EIP158 but any network thereafter.",
            "filling-rpc-server" : "evm version 1.11.0-unstable-e04d63eb-20230113",
            "filling-tool-version" : "retesteth-0.2.3-postmerge+commit.801c0d4c.Linux.g++",
            "generatedTestHash" : "d668848b1fb1b893d16e7d4ca64f739852182d53ec3caafc529c63749bcb284c",
            "lllcversion" : "Version: 0.5.14-develop.2021.4.29+commit.14c9d5de.Linux.clang",
            "solidity" : "Version: 0.8.17-develop.2022.9.30+commit.8df45f5f.Linux.clang",
            "source" : "src/GeneralStateTestsFiller/stSpecialTest/FailedCreateRevertsDeletionFiller.json",
            "sourceHash" : "e061728bc6acd95bd1217630a4c77587bae5ce1604d9ad4cf6827affe21f3b49"
        },
        "blocks" : [
            {
                "blockHeader" : {
                    "baseFeePerGas" : "0x0a",
                    "bloom" : "0x00000000000000000000000000000000000000000000000000000000000000000000000000000000000000000000000000000000000000000000000000000000000000000000000000000000000000000000000000000000000000000000000000000000000000000000000000000000000000000000000000000000000000000000000000000000000000000000000000000000000000000000000000000000000000000000000000000000000000000000000000000000000000000000000000000000000000000000000000000000000000000000000000000000000000000000000000000000000000000000000000000000000000000000000000000000",
                    "coinbase" : "0x2adc25665018aa1fe0e6bc666dac8fc2697ff9ba",
                    "difficulty" : "0x00",
                    "extraData" : "0x00",
                    "gasLimit" : "0x0a10000000",
                    "gasUsed" : "0x01ba8140",
                    "hash" : "0x78843a57111a6203c417d1f4c79eed91e47f194296723c588c912bb3f861d21f",
                    "mixHash" : "0x0000000000000000000000000000000000000000000000000000000000020000",
                    "nonce" : "0x0000000000000000",
                    "number" : "0x01",
                    "parentHash" : "0xdc5525484ccb26bfb4f550bce34ae54c609da7d737b163cfe3c96cb702e25a59",
                    "receiptTrie" : "0x6b94625e17e64fae3f022ee553f7b2d9a082c89dc32d37ac411370bad31c2a3e",
                    "stateRoot" : "0xb05f8f991903a58bc704a3f1d0a40efb4d3358e6e8aff12e4dace9d558be5193",
                    "timestamp" : "0x03e8",
                    "transactionsTrie" : "0x334deb1e009a01b05408e2c529fd09ee9b5371b64ab1b6d2e2d8f5cc7488d4ae",
                    "uncleHash" : "0x1dcc4de8dec75d7aab85b567b6ccd41ad312451b948a7413f0a142fd40d49347",
                    "withdrawalsRoot" : "0x0000000000000000000000000000000000000000000000000000000000000000"
                },
                "rlp" : "0xf90290f9021aa0dc5525484ccb26bfb4f550bce34ae54c609da7d737b163cfe3c96cb702e25a59a01dcc4de8dec75d7aab85b567b6ccd41ad312451b948a7413f0a142fd40d49347942adc25665018aa1fe0e6bc666dac8fc2697ff9baa0b05f8f991903a58bc704a3f1d0a40efb4d3358e6e8aff12e4dace9d558be5193a0334deb1e009a01b05408e2c529fd09ee9b5371b64ab1b6d2e2d8f5cc7488d4aea06b94625e17e64fae3f022ee553f7b2d9a082c89dc32d37ac411370bad31c2a3eb90100000000000000000000000000000000000000000000000000000000000000000000000000000000000000000000000000000000000000000000000000000000000000000000000000000000000000000000000000000000000000000000000000000000000000000000000000000000000000000000000000000000000000000000000000000000000000000000000000000000000000000000000000000000000000000000000000000000000000000000000000000000000000000000000000000000000000000000000000000000000000000000000000000000000000000000000000000000000000000000000000000000000000000000000000000000008001850a100000008401ba81408203e800a000000000000000000000000000000000000000000000000000000000000200008800000000000000000aa00000000000000000000000000000000000000000000000000000000000000000f86ff86d800a8401ba81408080a03050600d80601360003960006000f050fe00fe6211223360005260206000fd001ba0d6dbeb8512c03a1384c626a05ca60a71216a2e04ae0fed06f5b442f0c9772a42a044bbe797e8ecb88f57e44e2ad18fe6f7579ed333c294616b25709e2e7b7fa60fc0c0",
                "transactions" : [
                    {
                        "data" : "0x3050600d80601360003960006000f050fe00fe6211223360005260206000fd00",
                        "gasLimit" : "0x01ba8140",
                        "gasPrice" : "0x0a",
                        "nonce" : "0x00",
                        "r" : "0xd6dbeb8512c03a1384c626a05ca60a71216a2e04ae0fed06f5b442f0c9772a42",
                        "s" : "0x44bbe797e8ecb88f57e44e2ad18fe6f7579ed333c294616b25709e2e7b7fa60f",
                        "sender" : "0xa94f5374fce5edbc8e2a8697c15331677e6ebf0b",
                        "to" : "",
                        "v" : "0x1b",
                        "value" : "0x00"
                    }
                ],
                "uncleHeaders" : [
                ]
            }
        ],
        "genesisBlockHeader" : {
            "baseFeePerGas" : "0x0b",
            "bloom" : "0x00000000000000000000000000000000000000000000000000000000000000000000000000000000000000000000000000000000000000000000000000000000000000000000000000000000000000000000000000000000000000000000000000000000000000000000000000000000000000000000000000000000000000000000000000000000000000000000000000000000000000000000000000000000000000000000000000000000000000000000000000000000000000000000000000000000000000000000000000000000000000000000000000000000000000000000000000000000000000000000000000000000000000000000000000000000",
            "coinbase" : "0x2adc25665018aa1fe0e6bc666dac8fc2697ff9ba",
            "difficulty" : "0x00",
            "extraData" : "0x00",
            "gasLimit" : "0x0a10000000",
            "gasUsed" : "0x00",
            "hash" : "0xdc5525484ccb26bfb4f550bce34ae54c609da7d737b163cfe3c96cb702e25a59",
            "mixHash" : "0x0000000000000000000000000000000000000000000000000000000000020000",
            "nonce" : "0x0000000000000000",
            "number" : "0x00",
            "parentHash" : "0x0000000000000000000000000000000000000000000000000000000000000000",
            "receiptTrie" : "0x56e81f171bcc55a6ff8345e692c0f86e5b48e01b996cadc001622fb5e363b421",
            "stateRoot" : "0xbb66f5a3f61c86eba37c5ea6c3464988e4a07b794414d7791770c44c065cfae9",
            "timestamp" : "0x00",
            "transactionsTrie" : "0x56e81f171bcc55a6ff8345e692c0f86e5b48e01b996cadc001622fb5e363b421",
            "uncleHash" : "0x1dcc4de8dec75d7aab85b567b6ccd41ad312451b948a7413f0a142fd40d49347",
            "withdrawalsRoot" : "0x56e81f171bcc55a6ff8345e692c0f86e5b48e01b996cadc001622fb5e363b421"
        },
        "genesisRLP" : "0xf9021af90214a00000000000000000000000000000000000000000000000000000000000000000a01dcc4de8dec75d7aab85b567b6ccd41ad312451b948a7413f0a142fd40d49347942adc25665018aa1fe0e6bc666dac8fc2697ff9baa0bb66f5a3f61c86eba37c5ea6c3464988e4a07b794414d7791770c44c065cfae9a056e81f171bcc55a6ff8345e692c0f86e5b48e01b996cadc001622fb5e363b421a056e81f171bcc55a6ff8345e692c0f86e5b48e01b996cadc001622fb5e363b421b90100000000000000000000000000000000000000000000000000000000000000000000000000000000000000000000000000000000000000000000000000000000000000000000000000000000000000000000000000000000000000000000000000000000000000000000000000000000000000000000000000000000000000000000000000000000000000000000000000000000000000000000000000000000000000000000000000000000000000000000000000000000000000000000000000000000000000000000000000000000000000000000000000000000000000000000000000000000000000000000000000000000000000000000000000000000008080850a10000000808000a000000000000000000000000000000000000000000000000000000000000200008800000000000000000ba056e81f171bcc55a6ff8345e692c0f86e5b48e01b996cadc001622fb5e363b421c0c0c0",
        "lastblockhash" : "0x78843a57111a6203c417d1f4c79eed91e47f194296723c588c912bb3f861d21f",
        "network" : "Shanghai",
        "postState" : {
            "0x6295ee1b4f6dd65047762f924ecd367c17eabf8f" : {
                "balance" : "0x00",
                "code" : "0x",
                "nonce" : "0x00",
                "storage" : {
                    "0x00" : "0x01"
                }
            },
            "0xa94f5374fce5edbc8e2a8697c15331677e6ebf0b" : {
                "balance" : "0x63eeb6f380",
                "code" : "0x",
                "nonce" : "0x01",
                "storage" : {
                }
            }
        },
        "pre" : {
            "0x6295ee1b4f6dd65047762f924ecd367c17eabf8f" : {
                "balance" : "0x00",
                "code" : "0x",
                "nonce" : "0x00",
                "storage" : {
                    "0x00" : "0x01"
                }
            },
            "0xa94f5374fce5edbc8e2a8697c15331677e6ebf0b" : {
                "balance" : "0x6400000000",
                "code" : "0x",
                "nonce" : "0x00",
                "storage" : {
                }
            }
        },
        "sealEngine" : "NoProof"
    }
}