{
    "add" : {
        "_info" : {
            "comment" : "Ori Pomerantz qbzzt1@gmail.com",
            "filling-rpc-server" : "evm version 1.10.26-stable-e5eb32ac",
            "filling-tool-version" : "retesteth-0.2.3-postmerge+commit.801c0d4c.Linux.g++",
            "generatedTestHash" : "1f8c4be445ce27d325996d46a69073ead4c641170d5e573de51c3a3cb903f53d",
            "labels" : {
                "0" : "add_neg1_neg1",
                "1" : "add_neg1_4",
                "2" : "add_neg1_1",
                "3" : "add_0_0",
                "4" : "add_1_neg1"
            },
            "lllcversion" : "Version: 0.5.14-develop.2022.6.30+commit.401d5358.mod.Linux.g++",
            "solidity" : "Version: 0.8.18-develop.2022.12.14+commit.a9fe05e8.Linux.g++",
            "source" : "src/GeneralStateTestsFiller/VMTests/vmArithmeticTest/addFiller.yml",
            "sourceHash" : "1f3a18ab17f22c178571119399b2dcf897ae7bb027bcadf850591f4e94b2fbb9"
        },
        "env" : {
            "currentBaseFee" : "0x0a",
            "currentCoinbase" : "0x2adc25665018aa1fe0e6bc666dac8fc2697ff9ba",
            "currentDifficulty" : "0x020000",
            "currentGasLimit" : "0x05f5e100",
            "currentNumber" : "0x01",
            "currentRandom" : "0x0000000000000000000000000000000000000000000000000000000000020000",
            "currentTimestamp" : "0x03e8",
            "previousHash" : "0x5e20a0453cecd065ea59c37ac63e079ee08998b6045136a8ce6635c7912ec0b6"
        },
        "post" : {
            "Berlin" : [
                {
                    "hash" : "0xb9eda41f4a719d9f2ae332e3954de18bceeeba2248a44110878949384b184888",
                    "indexes" : {
                        "data" : 0,
                        "gas" : 0,
                        "value" : 0
                    },
                    "logs" : "0x1dcc4de8dec75d7aab85b567b6ccd41ad312451b948a7413f0a142fd40d49347",
                    "txbytes" : "0xf884800a83030d4094cccccccccccccccccccccccccccccccccccccccc01a4693c613900000000000000000000000000000000000000000000000000000000000000001ca082d454d38b5a93ae5a94b1597404477c94db1377436778d98f6fb94d0b7ee12fa040d1b9723c91bea85e7e1a72e8db306f4453abbdfdff9915d6e15ddbdade8ad7"
                },
                {
                    "hash" : "0x087e7839e47daed35865a982673e27b82aab8da617a2abf9b853e677f942453e",
                    "indexes" : {
                        "data" : 1,
                        "gas" : 0,
                        "value" : 0
                    },
                    "logs" : "0x1dcc4de8dec75d7aab85b567b6ccd41ad312451b948a7413f0a142fd40d49347",
                    "txbytes" : "0xf884800a83030d4094cccccccccccccccccccccccccccccccccccccccc01a4693c613900000000000000000000000000000000000000000000000000000000000000011ca05ca6b656839b1fdd3438c2ecbf1127f72088c88a2294dd6a86523e8879407a6ea04fdae13c62fbae453662b87bec4e0e2e608116c007cfdcdea3c0d12d2c9c1ffb"
                },
                {
                    "hash" : "0xf4bf0cd7a5634829eb622ab8d85e2e21fc0caa24f584b22f5de5479939e151f1",
                    "indexes" : {
                        "data" : 2,
                        "gas" : 0,
                        "value" : 0
                    },
                    "logs" : "0x1dcc4de8dec75d7aab85b567b6ccd41ad312451b948a7413f0a142fd40d49347",
                    "txbytes" : "0xf884800a83030d4094cccccccccccccccccccccccccccccccccccccccc01a4693c613900000000000000000000000000000000000000000000000000000000000000021ca0968bf07b4d5157aa7baacf4bfccd07ba5efbf18a1b6496dc94408e6e6028a501a027bdf3e74928457452db743f3d72efe83f3689997954c42bc04f9de0c2e9a85b"
                },
                {
                    "hash" : "0xf4bf0cd7a5634829eb622ab8d85e2e21fc0caa24f584b22f5de5479939e151f1",
                    "indexes" : {
                        "data" : 3,
                        "gas" : 0,
                        "value" : 0
                    },
                    "logs" : "0x1dcc4de8dec75d7aab85b567b6ccd41ad312451b948a7413f0a142fd40d49347",
                    "txbytes" : "0xf884800a83030d4094cccccccccccccccccccccccccccccccccccccccc01a4693c613900000000000000000000000000000000000000000000000000000000000000031ba0662c9a3d2f5c54ead2d310d24f37ea2f0f63f2561c47bd1a26b11e6181ce9730a053f271ad44848f63b11d813308992c21f6bfba1939665d6c83eccfeb9c285421"
                },
                {
                    "hash" : "0xf4bf0cd7a5634829eb622ab8d85e2e21fc0caa24f584b22f5de5479939e151f1",
                    "indexes" : {
                        "data" : 4,
                        "gas" : 0,
                        "value" : 0
                    },
                    "logs" : "0x1dcc4de8dec75d7aab85b567b6ccd41ad312451b948a7413f0a142fd40d49347",
                    "txbytes" : "0xf884800a83030d4094cccccccccccccccccccccccccccccccccccccccc01a4693c613900000000000000000000000000000000000000000000000000000000000000041ca0a2d13f86217e0ef81382010a757497e9935617a95a112f15d2b3e90bd4635443a003c9858df352eeddbeacb13e168075aaaba917c38e26762c942cae1ff695c5e8"
                }
            ]
        },
        "pre" : {
            "0x0000000000000000000000000000000000000100" : {
                "balance" : "0x0ba1a9ce0ba1a9ce",
                "code" : "0x7fffffffffffffffffffffffffffffffffffffffffffffffffffffffffffffffff7fffffffffffffffffffffffffffffffffffffffffffffffffffffffffffffffff0160005500",
                "nonce" : "0x00",
                "storage" : {
                }
            },
            "0x0000000000000000000000000000000000000101" : {
                "balance" : "0x0ba1a9ce0ba1a9ce",
                "code" : "0x60047fffffffffffffffffffffffffffffffffffffffffffffffffffffffffffffffff0160005500",
                "nonce" : "0x00",
                "storage" : {
                }
            },
            "0x0000000000000000000000000000000000000102" : {
                "balance" : "0x0ba1a9ce0ba1a9ce",
                "code" : "0x60017fffffffffffffffffffffffffffffffffffffffffffffffffffffffffffffffff0160005500",
                "nonce" : "0x00",
                "storage" : {
                }
            },
            "0x0000000000000000000000000000000000000103" : {
                "balance" : "0x0ba1a9ce0ba1a9ce",
                "code" : "0x600060000160005500",
                "nonce" : "0x00",
                "storage" : {
                }
            },
            "0x0000000000000000000000000000000000000104" : {
                "balance" : "0x0ba1a9ce0ba1a9ce",
                "code" : "0x7fffffffffffffffffffffffffffffffffffffffffffffffffffffffffffffffff60010160005500",
                "nonce" : "0x00",
                "storage" : {
                }
            },
            "0xa94f5374fce5edbc8e2a8697c15331677e6ebf0b" : {
                "balance" : "0x0ba1a9ce0ba1a9ce",
                "code" : "0x",
                "nonce" : "0x00",
                "storage" : {
                }
            },
            "0xcccccccccccccccccccccccccccccccccccccccc" : {
                "balance" : "0x0ba1a9ce0ba1a9ce",
                "code" : "0x600060006000600060006004356101000162fffffff100",
                "nonce" : "0x00",
                "storage" : {
                }
            }
        },
        "transaction" : {
            "data" : [
                "0x693c61390000000000000000000000000000000000000000000000000000000000000000",
                "0x693c61390000000000000000000000000000000000000000000000000000000000000001",
                "0x693c61390000000000000000000000000000000000000000000000000000000000000002",
                "0x693c61390000000000000000000000000000000000000000000000000000000000000003",
                "0x693c61390000000000000000000000000000000000000000000000000000000000000004"
            ],
            "gasLimit" : [
                "0x030d40"
            ],
            "gasPrice" : "0x0a",
            "nonce" : "0x00",
            "secretKey" : "0x45a915e4d060149eb4365960e6a7a45f334393093061116b197e3240065ff2d8",
            "sender" : "0xa94f5374fce5edbc8e2a8697c15331677e6ebf0b",
            "to" : "0xcccccccccccccccccccccccccccccccccccccccc",
            "value" : [
                "0x01"
            ]
        }
    }
}