{
    "addmod" : {
        "_info" : {
            "comment" : "Ori Pomerantz qbzzt1@gmail.com",
            "filling-rpc-server" : "evm version 1.10.26-stable-e5eb32ac",
            "filling-tool-version" : "retesteth-0.2.3-postmerge+commit.801c0d4c.Linux.g++",
            "generatedTestHash" : "4d8cfbbfb52f16250ecf536625c51e04e7c75509148d75a16ec52e09f9060282",
            "labels" : {
                "0" : "addmod_1_2_2",
                "1" : "addmod_neg1_neg2_2",
                "10" : "addmod_neg1_neg2_5",
                "11" : "addmod_2_160_1_5",
                "12" : "addmod_4_1_0",
                "13" : "addmod_0_1_0",
                "14" : "addmod_1_0_0",
                "15" : "addmod_0_0_0_min_1",
                "2" : "addmod_neg6_1_3",
                "3" : "addmod_eq_smod",
                "4" : "addmod_eq_mod",
                "5" : "addmod_4_1_neg3",
                "6" : "addmod_4_1_neg3_eq",
                "7" : "addmod_neg1_0_5",
                "8" : "addmod_neg1_1_5",
                "9" : "addmod_neg1_2_5"
            },
            "lllcversion" : "Version: 0.5.14-develop.2022.6.30+commit.401d5358.mod.Linux.g++",
            "solidity" : "Version: 0.8.18-develop.2022.12.14+commit.a9fe05e8.Linux.g++",
            "source" : "src/GeneralStateTestsFiller/VMTests/vmArithmeticTest/addmodFiller.yml",
            "sourceHash" : "e35999c59a0247931423519b8c684894eff8db46d6bf6c07003e76e41af3dc55"
        },
        "env" : {
            "currentBaseFee" : "0x0a",
            "currentCoinbase" : "0x2adc25665018aa1fe0e6bc666dac8fc2697ff9ba",
            "currentDifficulty" : "0x020000",
            "currentGasLimit" : "0x05f5e100",
            "currentNumber" : "0x01",
            "currentRandom" : "0x0000000000000000000000000000000000000000000000000000000000020000",
            "currentTimestamp" : "0x03e8",
            "previousHash" : "0x5e20a0453cecd065ea59c37ac63e079ee08998b6045136a8ce6635c7912ec0b6"
        },
        "post" : {
            "Berlin" : [
                {
                    "hash" : "0x3eeb017c5113c67c030354b4f3272ae6dd62e30e4ffffd810aa1dda8336b4b45",
                    "indexes" : {
                        "data" : 0,
                        "gas" : 0,
                        "value" : 0
                    },
                    "logs" : "0x1dcc4de8dec75d7aab85b567b6ccd41ad312451b948a7413f0a142fd40d49347",
                    "txbytes" : "0xf884800a83030d4094cccccccccccccccccccccccccccccccccccccccc01a4693c613900000000000000000000000000000000000000000000000000000000000000001ca082d454d38b5a93ae5a94b1597404477c94db1377436778d98f6fb94d0b7ee12fa040d1b9723c91bea85e7e1a72e8db306f4453abbdfdff9915d6e15ddbdade8ad7"
                },
                {
                    "hash" : "0x7f0f6f350f35d509f68273ef54493fac3554ea676f01a2e96922635e7d45ff0d",
                    "indexes" : {
                        "data" : 1,
                        "gas" : 0,
                        "value" : 0
                    },
                    "logs" : "0x1dcc4de8dec75d7aab85b567b6ccd41ad312451b948a7413f0a142fd40d49347",
                    "txbytes" : "0xf884800a83030d4094cccccccccccccccccccccccccccccccccccccccc01a4693c613900000000000000000000000000000000000000000000000000000000000000011ca05ca6b656839b1fdd3438c2ecbf1127f72088c88a2294dd6a86523e8879407a6ea04fdae13c62fbae453662b87bec4e0e2e608116c007cfdcdea3c0d12d2c9c1ffb"
                },
                {
                    "hash" : "0xbea48aa0440f6b6a11ad2639ddfcbd572990398188b6d934cdbfd7cd82226ee1",
                    "indexes" : {
                        "data" : 2,
                        "gas" : 0,
                        "value" : 0
                    },
                    "logs" : "0x1dcc4de8dec75d7aab85b567b6ccd41ad312451b948a7413f0a142fd40d49347",
                    "txbytes" : "0xf884800a83030d4094cccccccccccccccccccccccccccccccccccccccc01a4693c613900000000000000000000000000000000000000000000000000000000000000021ca0968bf07b4d5157aa7baacf4bfccd07ba5efbf18a1b6496dc94408e6e6028a501a027bdf3e74928457452db743f3d72efe83f3689997954c42bc04f9de0c2e9a85b"
                },
                {
                    "hash" : "0xab150ff26e4dd268dc9bcfbb12647340a80e69b9301ec41b67eb49cd93d46937",
                    "indexes" : {
                        "data" : 3,
                        "gas" : 0,
                        "value" : 0
                    },
                    "logs" : "0x1dcc4de8dec75d7aab85b567b6ccd41ad312451b948a7413f0a142fd40d49347",
                    "txbytes" : "0xf884800a83030d4094cccccccccccccccccccccccccccccccccccccccc01a4693c613900000000000000000000000000000000000000000000000000000000000000031ba0662c9a3d2f5c54ead2d310d24f37ea2f0f63f2561c47bd1a26b11e6181ce9730a053f271ad44848f63b11d813308992c21f6bfba1939665d6c83eccfeb9c285421"
                },
                {
                    "hash" : "0xa42300632ded021a2fa1e42a5c4dbe9b18f41bd0d4d446189ed07a6b4b1905ca",
                    "indexes" : {
                        "data" : 4,
                        "gas" : 0,
                        "value" : 0
                    },
                    "logs" : "0x1dcc4de8dec75d7aab85b567b6ccd41ad312451b948a7413f0a142fd40d49347",
                    "txbytes" : "0xf884800a83030d4094cccccccccccccccccccccccccccccccccccccccc01a4693c613900000000000000000000000000000000000000000000000000000000000000041ca0a2d13f86217e0ef81382010a757497e9935617a95a112f15d2b3e90bd4635443a003c9858df352eeddbeacb13e168075aaaba917c38e26762c942cae1ff695c5e8"
                },
                {
                    "hash" : "0x8f372aa3357a615e97243f22b1e893fc429e5ed0f212e6f1fd6ae590124c50f0",
                    "indexes" : {
                        "data" : 5,
                        "gas" : 0,
                        "value" : 0
                    },
                    "logs" : "0x1dcc4de8dec75d7aab85b567b6ccd41ad312451b948a7413f0a142fd40d49347",
                    "txbytes" : "0xf884800a83030d4094cccccccccccccccccccccccccccccccccccccccc01a4693c613900000000000000000000000000000000000000000000000000000000000000051ca08db9e61fe78786496d83a5b225c428d2159165316a9775ca984978aac5542979a03712468478b21c65076b5b89771870605eb55dfe1f40568fe17d712722da953c"
                },
                {
                    "hash" : "0x48c01bc25e581a9b36f01cb17b7fc44af30a340028f829adc52c0aeacf36f7aa",
                    "indexes" : {
                        "data" : 6,
                        "gas" : 0,
                        "value" : 0
                    },
                    "logs" : "0x1dcc4de8dec75d7aab85b567b6ccd41ad312451b948a7413f0a142fd40d49347",
                    "txbytes" : "0xf884800a83030d4094cccccccccccccccccccccccccccccccccccccccc01a4693c613900000000000000000000000000000000000000000000000000000000000000061ca0bea2d4de087115951d627a0c187c11c5bf3d54c6634cfad0768dbff486611d63a0339e73155a9b810a72b0ebdde8e13adabb7ec2d90b730ce9210c312b8d62df13"
                },
                {
                    "hash" : "0x8e5bdd6e2f914c8483e334ead56e77ff79721bd6dff2e6e860a3f8ada2a259b4",
                    "indexes" : {
                        "data" : 7,
                        "gas" : 0,
                        "value" : 0
                    },
                    "logs" : "0x1dcc4de8dec75d7aab85b567b6ccd41ad312451b948a7413f0a142fd40d49347",
                    "txbytes" : "0xf884800a83030d4094cccccccccccccccccccccccccccccccccccccccc01a4693c613900000000000000000000000000000000000000000000000000000000000000071ca0ebc13e3c31e3d932d9988e00bd3df65ea8c9411ca70c5676a70ab1f1d80732daa07b128bc1d07512e55f239e539894c18040836b5f7dee814b82474eb167ccd6e2"
                },
                {
                    "hash" : "0x26df34ac405e230d73ea269a03bd624c3483b1ef0d5cd75a1a23d842968923d5",
                    "indexes" : {
                        "data" : 8,
                        "gas" : 0,
                        "value" : 0
                    },
                    "logs" : "0x1dcc4de8dec75d7aab85b567b6ccd41ad312451b948a7413f0a142fd40d49347",
                    "txbytes" : "0xf884800a83030d4094cccccccccccccccccccccccccccccccccccccccc01a4693c613900000000000000000000000000000000000000000000000000000000000000081ca03f017163ffa2963382f0ca6e274503bca0dbee82ce15b5d2f4922967702cbd7da0466f0d722d08ce0384576e3681d92606694d6957235d14365707c415cce00260"
                },
                {
                    "hash" : "0x42224c883d1c202896fbf1c950249693498a8dd7139c4e03f0d4880f2578a75f",
                    "indexes" : {
                        "data" : 9,
                        "gas" : 0,
                        "value" : 0
                    },
                    "logs" : "0x1dcc4de8dec75d7aab85b567b6ccd41ad312451b948a7413f0a142fd40d49347",
                    "txbytes" : "0xf884800a83030d4094cccccccccccccccccccccccccccccccccccccccc01a4693c613900000000000000000000000000000000000000000000000000000000000000091ba06713dbab643703b0682753256068a001bd990973191d025e97a644b9d42c405aa060d49f75c46b5d3218d8af88371c47c75cd66db47221e6917ff3ceaeb4436295"
                },
                {
                    "hash" : "0x5559be5806d81b70b0c87e57079164e4e1d139e18cc408ec1ac68521393ddee9",
                    "indexes" : {
                        "data" : 10,
                        "gas" : 0,
                        "value" : 0
                    },
                    "logs" : "0x1dcc4de8dec75d7aab85b567b6ccd41ad312451b948a7413f0a142fd40d49347",
                    "txbytes" : "0xf884800a83030d4094cccccccccccccccccccccccccccccccccccccccc01a4693c6139000000000000000000000000000000000000000000000000000000000000000a1ba08254f209c41090690eef5345536faa266876700a964ba98e8c23063160fac25ca04d5d547c7e062ab6a9e1a72ce965b22047084bcfc0ea5e655c36984290784ed1"
                },
                {
                    "hash" : "0x32d9399e5677ea819d76838a7c42bf823b425c7c68a7a0bbf65f7c158bfc4627",
                    "indexes" : {
                        "data" : 11,
                        "gas" : 0,
                        "value" : 0
                    },
                    "logs" : "0x1dcc4de8dec75d7aab85b567b6ccd41ad312451b948a7413f0a142fd40d49347",
                    "txbytes" : "0xf884800a83030d4094cccccccccccccccccccccccccccccccccccccccc01a4693c6139000000000000000000000000000000000000000000000000000000000000000b1ba09b368656328218bcca77f7b31d60ee518550e97f940201f84933d1964a1a0f04a00ef099e88709f8fe53b7f9edf3385d25217cb5752cf7c7f130b25f7166d245e7"
                },
                {
                    "hash" : "0xc1531ed1d06e57fc97947811bca2817f4cab8852630321169bcaba9905e4deb0",
                    "indexes" : {
                        "data" : 12,
                        "gas" : 0,
                        "value" : 0
                    },
                    "logs" : "0x1dcc4de8dec75d7aab85b567b6ccd41ad312451b948a7413f0a142fd40d49347",
                    "txbytes" : "0xf884800a83030d4094cccccccccccccccccccccccccccccccccccccccc01a4693c6139000000000000000000000000000000000000000000000000000000000000000c1ba0c23819079765d612d7338e8633cab0043581652c9b9768c647d2e1a429c18507a0314d30a562eef001b890f60d7d4978993c4ff72129f93fc95146c5f9b270d4f2"
                },
                {
                    "hash" : "0xc1531ed1d06e57fc97947811bca2817f4cab8852630321169bcaba9905e4deb0",
                    "indexes" : {
                        "data" : 13,
                        "gas" : 0,
                        "value" : 0
                    },
                    "logs" : "0x1dcc4de8dec75d7aab85b567b6ccd41ad312451b948a7413f0a142fd40d49347",
                    "txbytes" : "0xf884800a83030d4094cccccccccccccccccccccccccccccccccccccccc01a4693c6139000000000000000000000000000000000000000000000000000000000000000d1ca04ffaf6a490f6f1a419991f5f098938939f8f824bcb881e6c4466167167fcbe82a0697bec73eaadcf74c81544e1f627ab62102a4bcaa5c8b5e0d269ff65e26ed315"
                },
                {
                    "hash" : "0xc1531ed1d06e57fc97947811bca2817f4cab8852630321169bcaba9905e4deb0",
                    "indexes" : {
                        "data" : 14,
                        "gas" : 0,
                        "value" : 0
                    },
                    "logs" : "0x1dcc4de8dec75d7aab85b567b6ccd41ad312451b948a7413f0a142fd40d49347",
                    "txbytes" : "0xf884800a83030d4094cccccccccccccccccccccccccccccccccccccccc01a4693c6139000000000000000000000000000000000000000000000000000000000000000e1ba01cf92c7bac1e5c3fe77643fbc1789178eb2d202e4ea6995b241b9c4bebfe2ee6a07046a35b8efc81a8aa325f8c9ac23fcd48e9c1a240c2cc56c7222afc155abe9d"
                },
                {
                    "hash" : "0xea5eaf0013b035e28488124e3752df2437807c002008aa951fb1ba00f2078735",
                    "indexes" : {
                        "data" : 15,
                        "gas" : 0,
                        "value" : 0
                    },
                    "logs" : "0x1dcc4de8dec75d7aab85b567b6ccd41ad312451b948a7413f0a142fd40d49347",
                    "txbytes" : "0xf884800a83030d4094cccccccccccccccccccccccccccccccccccccccc01a4693c6139000000000000000000000000000000000000000000000000000000000000000f1ca0ce841293e7368a6881469fcb9e8d7ee004afccd05158b7c93331f743e07a1010a03c76d17103835600dce3a7291f755c949e8bd45479083e2348882794c4020ecb"
                }
            ]
        },
        "pre" : {
            "0x0000000000000000000000000000000000000100" : {
                "balance" : "0x0ba1a9ce0ba1a9ce",
                "code" : "0x6002600260010860005500",
                "nonce" : "0x00",
                "storage" : {
                }
            },
            "0x0000000000000000000000000000000000000101" : {
                "balance" : "0x0ba1a9ce0ba1a9ce",
                "code" : "0x6002600260000360016000030860005500",
                "nonce" : "0x00",
                "storage" : {
                }
            },
            "0x0000000000000000000000000000000000000102" : {
                "balance" : "0x0ba1a9ce0ba1a9ce",
                "code" : "0x6003600160066000030860005500",
                "nonce" : "0x00",
                "storage" : {
                }
            },
            "0x0000000000000000000000000000000000000103" : {
                "balance" : "0x0ba1a9ce0ba1a9ce",
                "code" : "0x6003600160066000030860036005600003071460005500",
                "nonce" : "0x00",
                "storage" : {
                }
            },
            "0x0000000000000000000000000000000000000104" : {
                "balance" : "0x0ba1a9ce0ba1a9ce",
                "code" : "0x6003600160066000030860036005600003061460005500",
                "nonce" : "0x00",
                "storage" : {
                }
            },
            "0x0000000000000000000000000000000000000105" : {
                "balance" : "0x0ba1a9ce0ba1a9ce",
                "code" : "0x6003600003600160040860005500",
                "nonce" : "0x00",
                "storage" : {
                }
            },
            "0x0000000000000000000000000000000000000106" : {
                "balance" : "0x0ba1a9ce0ba1a9ce",
                "code" : "0x6002600360000360016004081460005500",
                "nonce" : "0x00",
                "storage" : {
                }
            },
            "0x0000000000000000000000000000000000000107" : {
                "balance" : "0x0ba1a9ce0ba1a9ce",
                "code" : "0x6005600060016000030860005500",
                "nonce" : "0x00",
                "storage" : {
                }
            },
            "0x0000000000000000000000000000000000000108" : {
                "balance" : "0x0ba1a9ce0ba1a9ce",
                "code" : "0x6005600160016000030860005500",
                "nonce" : "0x00",
                "storage" : {
                }
            },
            "0x0000000000000000000000000000000000000109" : {
                "balance" : "0x0ba1a9ce0ba1a9ce",
                "code" : "0x6005600260016000030860005500",
                "nonce" : "0x00",
                "storage" : {
                }
            },
            "0x000000000000000000000000000000000000010a" : {
                "balance" : "0x0ba1a9ce0ba1a9ce",
                "code" : "0x6005600260000360016000030860005500",
                "nonce" : "0x00",
                "storage" : {
                }
            },
            "0x000000000000000000000000000000000000010b" : {
                "balance" : "0x0ba1a9ce0ba1a9ce",
                "code" : "0x600560017fffffffffffffffffffffffffffffffffffffffffffffffffffffffffffffffff0860005500",
                "nonce" : "0x00",
                "storage" : {
                }
            },
            "0x000000000000000000000000000000000000010c" : {
                "balance" : "0x0ba1a9ce0ba1a9ce",
                "code" : "0x6000600160040860005500",
                "nonce" : "0x00",
                "storage" : {
                }
            },
            "0x000000000000000000000000000000000000010d" : {
                "balance" : "0x0ba1a9ce0ba1a9ce",
                "code" : "0x6000600160000860005500",
                "nonce" : "0x00",
                "storage" : {
                }
            },
            "0x000000000000000000000000000000000000010e" : {
                "balance" : "0x0ba1a9ce0ba1a9ce",
                "code" : "0x6000600060010860005500",
                "nonce" : "0x00",
                "storage" : {
                }
            },
            "0x000000000000000000000000000000000000010f" : {
                "balance" : "0x0ba1a9ce0ba1a9ce",
                "code" : "0x6001600060006000080360005500",
                "nonce" : "0x00",
                "storage" : {
                }
            },
            "0xa94f5374fce5edbc8e2a8697c15331677e6ebf0b" : {
                "balance" : "0x0ba1a9ce0ba1a9ce",
                "code" : "0x",
                "nonce" : "0x00",
                "storage" : {
                }
            },
            "0xcccccccccccccccccccccccccccccccccccccccc" : {
                "balance" : "0x0ba1a9ce0ba1a9ce",
                "code" : "0x600060006000600060006004356101000162fffffff100",
                "nonce" : "0x00",
                "storage" : {
                }
            }
        },
        "transaction" : {
            "data" : [
                "0x693c61390000000000000000000000000000000000000000000000000000000000000000",
                "0x693c61390000000000000000000000000000000000000000000000000000000000000001",
                "0x693c61390000000000000000000000000000000000000000000000000000000000000002",
                "0x693c61390000000000000000000000000000000000000000000000000000000000000003",
                "0x693c61390000000000000000000000000000000000000000000000000000000000000004",
                "0x693c61390000000000000000000000000000000000000000000000000000000000000005",
                "0x693c61390000000000000000000000000000000000000000000000000000000000000006",
                "0x693c61390000000000000000000000000000000000000000000000000000000000000007",
                "0x693c61390000000000000000000000000000000000000000000000000000000000000008",
                "0x693c61390000000000000000000000000000000000000000000000000000000000000009",
                "0x693c6139000000000000000000000000000000000000000000000000000000000000000a",
                "0x693c6139000000000000000000000000000000000000000000000000000000000000000b",
                "0x693c6139000000000000000000000000000000000000000000000000000000000000000c",
                "0x693c6139000000000000000000000000000000000000000000000000000000000000000d",
                "0x693c6139000000000000000000000000000000000000000000000000000000000000000e",
                "0x693c6139000000000000000000000000000000000000000000000000000000000000000f"
            ],
            "gasLimit" : [
                "0x030d40"
            ],
            "gasPrice" : "0x0a",
            "nonce" : "0x00",
            "secretKey" : "0x45a915e4d060149eb4365960e6a7a45f334393093061116b197e3240065ff2d8",
            "sender" : "0xa94f5374fce5edbc8e2a8697c15331677e6ebf0b",
            "to" : "0xcccccccccccccccccccccccccccccccccccccccc",
            "value" : [
                "0x01"
            ]
        }
    }
}