{
    "loopMul" : {
        "_info" : {
            "comment" : "Ori Pomerantz qbzzt1@gmail.com",
            "filling-rpc-server" : "evm version 1.11.0-unstable-262bd38f-20221210",
            "filling-tool-version" : "retesteth-0.2.3-postmerge+commit.17808a69.Linux.g++",
            "generatedTestHash" : "dc194cd954330340905aa7a24474de4198d19283eb0fd9506a575c1480813e17",
            "labels" : {
                "0" : "add-10M",
                "1" : "divadd-10M",
                "2" : "mulmod-2M"
            },
            "lllcversion" : "Version: 0.5.14-develop.2021.4.29+commit.14c9d5de.Linux.clang",
            "solidity" : "Version: 0.8.17-develop.2022.9.30+commit.8df45f5f.Linux.clang",
            "source" : "src/GeneralStateTestsFiller/VMTests/vmPerformance/loopMulFiller.yml",
            "sourceHash" : "08b552ecef08551f5547198a46e3e084ee655acf3823934a9ea370ff50b456ef"
        },
        "env" : {
            "currentBaseFee" : "0x0a",
            "currentCoinbase" : "0x2adc25665018aa1fe0e6bc666dac8fc2697ff9ba",
            "currentDifficulty" : "0x020000",
            "currentGasLimit" : "0x7fffffffffffffff",
            "currentNumber" : "0x01",
            "currentRandom" : "0x0000000000000000000000000000000000000000000000000000000000020000",
            "currentTimestamp" : "0x03e8",
            "previousHash" : "0x5e20a0453cecd065ea59c37ac63e079ee08998b6045136a8ce6635c7912ec0b6"
        },
        "post" : {
            "Berlin" : [
                {
                    "hash" : "0x767c3ffd6cbe888e9c7ee80439f28ebf79f5deeb91f20c64e81638e2d480597c",
                    "indexes" : {
                        "data" : 0,
                        "gas" : 0,
                        "value" : 0
                    },
                    "logs" : "0x1dcc4de8dec75d7aab85b567b6ccd41ad312451b948a7413f0a142fd40d49347",
                    "txbytes" : "0xf8c6800a8401ba814094cccccccccccccccccccccccccccccccccccccccc80b864c4f8b9fb8edad8b55b1586805ea8c245d8c16b06a5102b791fc6eb60693731c0677bf5018edad8b55b1586805ea8c245d8c16b06a5102b791fc6eb60693731c0677bf50100000000000000000000000000000000000000000000000000000000000186a01ba0ccef9064cc4d74f60d7fb2e977e9fa78f716dde6e9e0e0dc64336fd95fb902d8a00d3a4c10547476313955e6bf8c899837fb4bcab2c544045df6d5886ea4153890"
                },
                {
                    "hash" : "0xe128206e2bbfe6ebdf4bb6c7ee98d4c0027cff457c1fc03785022af135a9d4e9",
                    "indexes" : {
                        "data" : 1,
                        "gas" : 0,
                        "value" : 0
                    },
                    "logs" : "0x1dcc4de8dec75d7aab85b567b6ccd41ad312451b948a7413f0a142fd40d49347",
                    "txbytes" : "0xf8e6800a8401ba814094cccccccccccccccccccccccccccccccccccccccc80b88459e3e1ea8edad8b55b1586805ea8c245d8c16b06a5102b791fc6eb60693731c0677bf5011c68db1c179cd35ab3fc60c63704aa7fcbea40f19782b1611aaba86726a7686cffffffffffffffffffffffffffaaffffffffffffffffbbffffffffffffff000000000000000000000000000000000000000000000000000000000000000027101ba0c22fab832781b725208a854df3826a75d5668a8163f99a30f62e1f72d68ebe97a04a8e8d501cfb424df30292b1b7cd8525ddaf245ce0db3a2209ceb42224cafddb"
                },
                {
                    "hash" : "0x86ff2b81012a5ddbbb88f870b88edc0d80ce07429ea99183ec78b57fa9a1ce5a",
                    "indexes" : {
                        "data" : 2,
                        "gas" : 0,
                        "value" : 0
                    },
                    "logs" : "0x1dcc4de8dec75d7aab85b567b6ccd41ad312451b948a7413f0a142fd40d49347",
                    "txbytes" : "0xf8e6800a8401ba814094cccccccccccccccccccccccccccccccccccccccc80b88415d423278edad8b55b1586805ea8c245d8c16b06a5102b791fc6eb60693731c0677bf5011c68db1c179cd35ab3fc60c63704aa7fcbea40f19782b1611aaba86726a7686cffffffffffffffffffffffffffffffffffffffffffffffffffffffffffffffff0000000000000000000000000000000000000000000000000000000000004e201ca0a9f0e3b0a3c7ebf0467a7d2d3c29646dd1a08242b113eeab2cb4e8d90a9146dea037efe54be9d9514da77fb0e57e29cfca7b3f60b808c074174198daba40081998"
                }
            ],
            "Istanbul" : [
                {
                    "hash" : "0x7051530278d902e7d6f65fa8deb59c850ab22f9bac4f895c9be0c36ba462eda2",
                    "indexes" : {
                        "data" : 0,
                        "gas" : 0,
                        "value" : 0
                    },
                    "logs" : "0x1dcc4de8dec75d7aab85b567b6ccd41ad312451b948a7413f0a142fd40d49347",
                    "txbytes" : "0xf8c6800a8401ba814094cccccccccccccccccccccccccccccccccccccccc80b864c4f8b9fb8edad8b55b1586805ea8c245d8c16b06a5102b791fc6eb60693731c0677bf5018edad8b55b1586805ea8c245d8c16b06a5102b791fc6eb60693731c0677bf50100000000000000000000000000000000000000000000000000000000000186a01ba0ccef9064cc4d74f60d7fb2e977e9fa78f716dde6e9e0e0dc64336fd95fb902d8a00d3a4c10547476313955e6bf8c899837fb4bcab2c544045df6d5886ea4153890"
                },
                {
                    "hash" : "0x09b131d9c37f9762e969317ec6f0ea28c3656bcdf58d75b7e91fde3960602bb0",
                    "indexes" : {
                        "data" : 1,
                        "gas" : 0,
                        "value" : 0
                    },
                    "logs" : "0x1dcc4de8dec75d7aab85b567b6ccd41ad312451b948a7413f0a142fd40d49347",
                    "txbytes" : "0xf8e6800a8401ba814094cccccccccccccccccccccccccccccccccccccccc80b88459e3e1ea8edad8b55b1586805ea8c245d8c16b06a5102b791fc6eb60693731c0677bf5011c68db1c179cd35ab3fc60c63704aa7fcbea40f19782b1611aaba86726a7686cffffffffffffffffffffffffffaaffffffffffffffffbbffffffffffffff000000000000000000000000000000000000000000000000000000000000000027101ba0c22fab832781b725208a854df3826a75d5668a8163f99a30f62e1f72d68ebe97a04a8e8d501cfb424df30292b1b7cd8525ddaf245ce0db3a2209ceb42224cafddb"
                },
                {
                    "hash" : "0x6748ede560cc5e931b78107825301f6655f028b9b175652ff8a92cdd5f73859c",
                    "indexes" : {
                        "data" : 2,
                        "gas" : 0,
                        "value" : 0
                    },
                    "logs" : "0x1dcc4de8dec75d7aab85b567b6ccd41ad312451b948a7413f0a142fd40d49347",
                    "txbytes" : "0xf8e6800a8401ba814094cccccccccccccccccccccccccccccccccccccccc80b88415d423278edad8b55b1586805ea8c245d8c16b06a5102b791fc6eb60693731c0677bf5011c68db1c179cd35ab3fc60c63704aa7fcbea40f19782b1611aaba86726a7686cffffffffffffffffffffffffffffffffffffffffffffffffffffffffffffffff0000000000000000000000000000000000000000000000000000000000004e201ca0a9f0e3b0a3c7ebf0467a7d2d3c29646dd1a08242b113eeab2cb4e8d90a9146dea037efe54be9d9514da77fb0e57e29cfca7b3f60b808c074174198daba40081998"
                }
            ],
            "London" : [
                {
                    "hash" : "0x5afe5af21e294ad922840355e4002f87d3a6a9723541cf53e5d36691b4c8adb7",
                    "indexes" : {
                        "data" : 0,
                        "gas" : 0,
                        "value" : 0
                    },
                    "logs" : "0x1dcc4de8dec75d7aab85b567b6ccd41ad312451b948a7413f0a142fd40d49347",
                    "txbytes" : "0xf8c6800a8401ba814094cccccccccccccccccccccccccccccccccccccccc80b864c4f8b9fb8edad8b55b1586805ea8c245d8c16b06a5102b791fc6eb60693731c0677bf5018edad8b55b1586805ea8c245d8c16b06a5102b791fc6eb60693731c0677bf50100000000000000000000000000000000000000000000000000000000000186a01ba0ccef9064cc4d74f60d7fb2e977e9fa78f716dde6e9e0e0dc64336fd95fb902d8a00d3a4c10547476313955e6bf8c899837fb4bcab2c544045df6d5886ea4153890"
                },
                {
                    "hash" : "0xe653e993c2d14368b53a95f1735fed5b8c2d1aac957b06ee725e33eaaf980262",
                    "indexes" : {
                        "data" : 1,
                        "gas" : 0,
                        "value" : 0
                    },
                    "logs" : "0x1dcc4de8dec75d7aab85b567b6ccd41ad312451b948a7413f0a142fd40d49347",
                    "txbytes" : "0xf8e6800a8401ba814094cccccccccccccccccccccccccccccccccccccccc80b88459e3e1ea8edad8b55b1586805ea8c245d8c16b06a5102b791fc6eb60693731c0677bf5011c68db1c179cd35ab3fc60c63704aa7fcbea40f19782b1611aaba86726a7686cffffffffffffffffffffffffffaaffffffffffffffffbbffffffffffffff000000000000000000000000000000000000000000000000000000000000000027101ba0c22fab832781b725208a854df3826a75d5668a8163f99a30f62e1f72d68ebe97a04a8e8d501cfb424df30292b1b7cd8525ddaf245ce0db3a2209ceb42224cafddb"
                },
                {
                    "hash" : "0xf6bbe0bc22aab043fb2c8903e6a097e2ac9b6d117c5fb45d621609065209892b",
                    "indexes" : {
                        "data" : 2,
                        "gas" : 0,
                        "value" : 0
                    },
                    "logs" : "0x1dcc4de8dec75d7aab85b567b6ccd41ad312451b948a7413f0a142fd40d49347",
                    "txbytes" : "0xf8e6800a8401ba814094cccccccccccccccccccccccccccccccccccccccc80b88415d423278edad8b55b1586805ea8c245d8c16b06a5102b791fc6eb60693731c0677bf5011c68db1c179cd35ab3fc60c63704aa7fcbea40f19782b1611aaba86726a7686cffffffffffffffffffffffffffffffffffffffffffffffffffffffffffffffff0000000000000000000000000000000000000000000000000000000000004e201ca0a9f0e3b0a3c7ebf0467a7d2d3c29646dd1a08242b113eeab2cb4e8d90a9146dea037efe54be9d9514da77fb0e57e29cfca7b3f60b808c074174198daba40081998"
                }
            ],
            "Merge" : [
                {
                    "hash" : "0x5afe5af21e294ad922840355e4002f87d3a6a9723541cf53e5d36691b4c8adb7",
                    "indexes" : {
                        "data" : 0,
                        "gas" : 0,
                        "value" : 0
                    },
                    "logs" : "0x1dcc4de8dec75d7aab85b567b6ccd41ad312451b948a7413f0a142fd40d49347",
                    "txbytes" : "0xf8c6800a8401ba814094cccccccccccccccccccccccccccccccccccccccc80b864c4f8b9fb8edad8b55b1586805ea8c245d8c16b06a5102b791fc6eb60693731c0677bf5018edad8b55b1586805ea8c245d8c16b06a5102b791fc6eb60693731c0677bf50100000000000000000000000000000000000000000000000000000000000186a01ba0ccef9064cc4d74f60d7fb2e977e9fa78f716dde6e9e0e0dc64336fd95fb902d8a00d3a4c10547476313955e6bf8c899837fb4bcab2c544045df6d5886ea4153890"
                },
                {
                    "hash" : "0xe653e993c2d14368b53a95f1735fed5b8c2d1aac957b06ee725e33eaaf980262",
                    "indexes" : {
                        "data" : 1,
                        "gas" : 0,
                        "value" : 0
                    },
                    "logs" : "0x1dcc4de8dec75d7aab85b567b6ccd41ad312451b948a7413f0a142fd40d49347",
                    "txbytes" : "0xf8e6800a8401ba814094cccccccccccccccccccccccccccccccccccccccc80b88459e3e1ea8edad8b55b1586805ea8c245d8c16b06a5102b791fc6eb60693731c0677bf5011c68db1c179cd35ab3fc60c63704aa7fcbea40f19782b1611aaba86726a7686cffffffffffffffffffffffffffaaffffffffffffffffbbffffffffffffff000000000000000000000000000000000000000000000000000000000000000027101ba0c22fab832781b725208a854df3826a75d5668a8163f99a30f62e1f72d68ebe97a04a8e8d501cfb424df30292b1b7cd8525ddaf245ce0db3a2209ceb42224cafddb"
                },
                {
                    "hash" : "0xf6bbe0bc22aab043fb2c8903e6a097e2ac9b6d117c5fb45d621609065209892b",
                    "indexes" : {
                        "data" : 2,
                        "gas" : 0,
                        "value" : 0
                    },
                    "logs" : "0x1dcc4de8dec75d7aab85b567b6ccd41ad312451b948a7413f0a142fd40d49347",
                    "txbytes" : "0xf8e6800a8401ba814094cccccccccccccccccccccccccccccccccccccccc80b88415d423278edad8b55b1586805ea8c245d8c16b06a5102b791fc6eb60693731c0677bf5011c68db1c179cd35ab3fc60c63704aa7fcbea40f19782b1611aaba86726a7686cffffffffffffffffffffffffffffffffffffffffffffffffffffffffffffffff0000000000000000000000000000000000000000000000000000000000004e201ca0a9f0e3b0a3c7ebf0467a7d2d3c29646dd1a08242b113eeab2cb4e8d90a9146dea037efe54be9d9514da77fb0e57e29cfca7b3f60b808c074174198daba40081998"
                }
            ]
        },
        "pre" : {
            "0xa94f5374fce5edbc8e2a8697c15331677e6ebf0b" : {
                "balance" : "0x7fffffffffffffff00",
                "code" : "0x",
                "nonce" : "0x00",
                "storage" : {
                }
            },
            "0xcccccccccccccccccccccccccccccccccccccccc" : {
                "balance" : "0x0ba1a9ce0ba1a9ce",
                "code" : "0x608060405234801561001057600080fd5b506004361061004c5760003560e01c806315d423271461005157806359e3e1ea14610081578063c4f8b9fb146100b1578063e01330bb146100e1575b600080fd5b61006b60048036038101906100669190610268565b610111565b60405161007891906102de565b60405180910390f35b61009b60048036038101906100969190610268565b61015e565b6040516100a891906102de565b60405180910390f35b6100cb60048036038101906100c691906102f9565b6101b3565b6040516100d891906102de565b60405180910390f35b6100fb60048036038101906100f691906102f9565b6101f0565b60405161010891906102de565b60405180910390f35b60008085905060005b8381101561014a5784806101315761013061034c565b5b868309915060018161014391906103aa565b905061011a565b508060008190555080915050949350505050565b60008085905060005b8381101561019f57858261017b91906103de565b9150848261018991906103aa565b915060018161019891906103aa565b9050610167565b508060008190555080915050949350505050565b60008084905060005b838110156101dd5784820191506001816101d691906103aa565b90506101bc565b5080600081905550809150509392505050565b60008084905060005b8381101561021a57848202915060018161021391906103aa565b90506101f9565b5080600081905550809150509392505050565b600080fd5b6000819050919050565b61024581610232565b811461025057600080fd5b50565b6000813590506102628161023c565b92915050565b600080600080608085870312156102825761028161022d565b5b600061029087828801610253565b94505060206102a187828801610253565b93505060406102b287828801610253565b92505060606102c387828801610253565b91505092959194509250565b6102d881610232565b82525050565b60006020820190506102f360008301846102cf565b92915050565b6000806000606084860312156103125761031161022d565b5b600061032086828701610253565b935050602061033186828701610253565b925050604061034286828701610253565b9150509250925092565b7f4e487b7100000000000000000000000000000000000000000000000000000000600052601260045260246000fd5b7f4e487b7100000000000000000000000000000000000000000000000000000000600052601160045260246000fd5b60006103b582610232565b91506103c083610232565b92508282019050808211156103d8576103d761037b565b5b92915050565b60006103e982610232565b91506103f483610232565b9250826104045761040361034c565b5b82820490509291505056fea26469706673582212201983f486b494a055afc1f086ba16421693297b564a1dd2682ff5daf1df3a48a664736f6c637828302e382e31372d646576656c6f702e323032322e392e33302b636f6d6d69742e38646634356635660059",
                "nonce" : "0x01",
                "storage" : {
                }
            }
        },
        "transaction" : {
            "data" : [
                "0xc4f8b9fb8edad8b55b1586805ea8c245d8c16b06a5102b791fc6eb60693731c0677bf5018edad8b55b1586805ea8c245d8c16b06a5102b791fc6eb60693731c0677bf50100000000000000000000000000000000000000000000000000000000000186a0",
                "0x59e3e1ea8edad8b55b1586805ea8c245d8c16b06a5102b791fc6eb60693731c0677bf5011c68db1c179cd35ab3fc60c63704aa7fcbea40f19782b1611aaba86726a7686cffffffffffffffffffffffffffaaffffffffffffffffbbffffffffffffff00000000000000000000000000000000000000000000000000000000000000002710",
                "0x15d423278edad8b55b1586805ea8c245d8c16b06a5102b791fc6eb60693731c0677bf5011c68db1c179cd35ab3fc60c63704aa7fcbea40f19782b1611aaba86726a7686cffffffffffffffffffffffffffffffffffffffffffffffffffffffffffffffff0000000000000000000000000000000000000000000000000000000000004e20"
            ],
            "gasLimit" : [
                "0x01ba8140"
            ],
            "gasPrice" : "0x0a",
            "nonce" : "0x00",
            "secretKey" : "0x45a915e4d060149eb4365960e6a7a45f334393093061116b197e3240065ff2d8",
            "sender" : "0xa94f5374fce5edbc8e2a8697c15331677e6ebf0b",
            "to" : "0xcccccccccccccccccccccccccccccccccccccccc",
            "value" : [
                "0x00"
            ]
        }
    }
}