{
    "ABAcalls1_d0g0v0_Berlin" : {
        "_info" : {
            "comment" : "",
            "filling-rpc-server" : "evm version 1.11.0-unstable-e04d63eb-20230113",
            "filling-tool-version" : "retesteth-0.2.3-postmerge+commit.801c0d4c.Linux.g++",
            "generatedTestHash" : "2a8fae4ce582bdf0b6c61571c38ae34875a7f2e651b50201846fff66dedf2539",
            "lllcversion" : "Version: 0.5.14-develop.2021.4.29+commit.14c9d5de.Linux.clang",
            "solidity" : "Version: 0.8.17-develop.2022.9.30+commit.8df45f5f.Linux.clang",
            "source" : "src/GeneralStateTestsFiller/stSystemOperationsTest/ABAcalls1Filler.json",
            "sourceHash" : "8fa9f9e676dd4328a38a6f4f6b73857a691c7c6e7abd6e955552f490cdceb820"
        },
        "blocks" : [
            {
                "blockHeader" : {
                    "bloom" : "0x00000000000000000000000000000000000000000000000000000000000000000000000000000000000000000000000000000000000000000000000000000000000000000000000000000000000000000000000000000000000000000000000000000000000000000000000000000000000000000000000000000000000000000000000000000000000000000000000000000000000000000000000000000000000000000000000000000000000000000000000000000000000000000000000000000000000000000000000000000000000000000000000000000000000000000000000000000000000000000000000000000000000000000000000000000000",
                    "coinbase" : "0x2adc25665018aa1fe0e6bc666dac8fc2697ff9ba",
                    "difficulty" : "0x020000",
                    "extraData" : "0x00",
                    "gasLimit" : "0x02540be400",
                    "gasUsed" : "0x12fd87",
                    "hash" : "0xe5fa2a96a489bb1d47398df4f7b8f4b1948d900f6d444a5f6ac18efb23d244b3",
                    "mixHash" : "0x0000000000000000000000000000000000000000000000000000000000000000",
                    "nonce" : "0x0000000000000000",
                    "number" : "0x01",
                    "parentHash" : "0xba06929da63148e6bc499e02368e020d20819b66b934b42d4edeb7ad4caa2e40",
                    "receiptTrie" : "0x2e7df5f4e6c7882fee62ec49a3fb6e554d7836b7176c63ec91748bc8e4e2c20a",
                    "stateRoot" : "0x3eaee35dbc8d69072ecfb3b3a8d2d6328c7af4d1d9ccf98aa8aee5282f14d6a8",
                    "timestamp" : "0x03e8",
                    "transactionsTrie" : "0x78f83483a1832654e03024247795fed47a1c589267b8e2e15bc8e12266966669",
                    "uncleHash" : "0x1dcc4de8dec75d7aab85b567b6ccd41ad312451b948a7413f0a142fd40d49347"
                },
                "rlp" : "0xf90266f901faa0ba06929da63148e6bc499e02368e020d20819b66b934b42d4edeb7ad4caa2e40a01dcc4de8dec75d7aab85b567b6ccd41ad312451b948a7413f0a142fd40d49347942adc25665018aa1fe0e6bc666dac8fc2697ff9baa03eaee35dbc8d69072ecfb3b3a8d2d6328c7af4d1d9ccf98aa8aee5282f14d6a8a078f83483a1832654e03024247795fed47a1c589267b8e2e15bc8e12266966669a02e7df5f4e6c7882fee62ec49a3fb6e554d7836b7176c63ec91748bc8e4e2c20ab901000000000000000000000000000000000000000000000000000000000000000000000000000000000000000000000000000000000000000000000000000000000000000000000000000000000000000000000000000000000000000000000000000000000000000000000000000000000000000000000000000000000000000000000000000000000000000000000000000000000000000000000000000000000000000000000000000000000000000000000000000000000000000000000000000000000000000000000000000000000000000000000000000000000000000000000000000000000000000000000000000000000000000000000000000000000083020000018502540be4008312fd878203e800a00000000000000000000000000000000000000000000000000000000000000000880000000000000000f866f864800a8401ba814094095e7baea6a6c7c4c2dfeb977efac326af552d87830186a0801ca045290492190ac3f5aae05372e9fa01961db4bb2e501247e022e8988b2b11d76ea07ab74926085f718b1fa46746680867b54cef512f286726057463b3849462c918c0",
                "transactions" : [
                    {
                        "data" : "0x",
                        "gasLimit" : "0x01ba8140",
                        "gasPrice" : "0x0a",
                        "nonce" : "0x00",
                        "r" : "0x45290492190ac3f5aae05372e9fa01961db4bb2e501247e022e8988b2b11d76e",
                        "s" : "0x7ab74926085f718b1fa46746680867b54cef512f286726057463b3849462c918",
                        "sender" : "0xa94f5374fce5edbc8e2a8697c15331677e6ebf0b",
                        "to" : "0x095e7baea6a6c7c4c2dfeb977efac326af552d87",
                        "v" : "0x1c",
                        "value" : "0x0186a0"
                    }
                ],
                "uncleHeaders" : [
                ]
            }
        ],
        "genesisBlockHeader" : {
            "bloom" : "0x00000000000000000000000000000000000000000000000000000000000000000000000000000000000000000000000000000000000000000000000000000000000000000000000000000000000000000000000000000000000000000000000000000000000000000000000000000000000000000000000000000000000000000000000000000000000000000000000000000000000000000000000000000000000000000000000000000000000000000000000000000000000000000000000000000000000000000000000000000000000000000000000000000000000000000000000000000000000000000000000000000000000000000000000000000000",
            "coinbase" : "0x2adc25665018aa1fe0e6bc666dac8fc2697ff9ba",
            "difficulty" : "0x020000",
            "extraData" : "0x00",
            "gasLimit" : "0x02540be400",
            "gasUsed" : "0x00",
            "hash" : "0xba06929da63148e6bc499e02368e020d20819b66b934b42d4edeb7ad4caa2e40",
            "mixHash" : "0x0000000000000000000000000000000000000000000000000000000000000000",
            "nonce" : "0x0000000000000000",
            "number" : "0x00",
            "parentHash" : "0x0000000000000000000000000000000000000000000000000000000000000000",
            "receiptTrie" : "0x56e81f171bcc55a6ff8345e692c0f86e5b48e01b996cadc001622fb5e363b421",
            "stateRoot" : "0xc1e1710c21d22cd419833c07e702e418c40f0904a9c1e56fde98aa5155021848",
            "timestamp" : "0x00",
            "transactionsTrie" : "0x56e81f171bcc55a6ff8345e692c0f86e5b48e01b996cadc001622fb5e363b421",
            "uncleHash" : "0x1dcc4de8dec75d7aab85b567b6ccd41ad312451b948a7413f0a142fd40d49347"
        },
        "genesisRLP" : "0xf901faf901f5a00000000000000000000000000000000000000000000000000000000000000000a01dcc4de8dec75d7aab85b567b6ccd41ad312451b948a7413f0a142fd40d49347942adc25665018aa1fe0e6bc666dac8fc2697ff9baa0c1e1710c21d22cd419833c07e702e418c40f0904a9c1e56fde98aa5155021848a056e81f171bcc55a6ff8345e692c0f86e5b48e01b996cadc001622fb5e363b421a056e81f171bcc55a6ff8345e692c0f86e5b48e01b996cadc001622fb5e363b421b901000000000000000000000000000000000000000000000000000000000000000000000000000000000000000000000000000000000000000000000000000000000000000000000000000000000000000000000000000000000000000000000000000000000000000000000000000000000000000000000000000000000000000000000000000000000000000000000000000000000000000000000000000000000000000000000000000000000000000000000000000000000000000000000000000000000000000000000000000000000000000000000000000000000000000000000000000000000000000000000000000000000000000000000000000000000083020000808502540be400808000a00000000000000000000000000000000000000000000000000000000000000000880000000000000000c0c0",
        "lastblockhash" : "0xe5fa2a96a489bb1d47398df4f7b8f4b1948d900f6d444a5f6ac18efb23d244b3",
        "network" : "Berlin",
        "postState" : {
            "0x095e7baea6a6c7c4c2dfeb977efac326af552d87" : {
                "balance" : "0x0de0b6b3a7658652",
                "code" : "0x6000600060006000601873945304eb96065b2a98b57a48a06ae28d285a71b5620186a05a03f1585500",
                "nonce" : "0x00",
                "storage" : {
                    "0x26" : "0x01"
                }
            },
            "0x2adc25665018aa1fe0e6bc666dac8fc2697ff9ba" : {
                "balance" : "0x1bc16d674f85e746",
                "code" : "0x",
                "nonce" : "0x00",
                "storage" : {
                }
            },
            "0x945304eb96065b2a98b57a48a06ae28d285a71b5" : {
                "balance" : "0x65",
                "code" : "0x6000600060006000601773095e7baea6a6c7c4c2dfeb977efac326af552d87620186a05a03f1600101585500",
                "nonce" : "0x00",
                "storage" : {
                    "0x29" : "0x02"
                }
            },
            "0xa94f5374fce5edbc8e2a8697c15331677e6ebf0b" : {
                "balance" : "0x0de0b6b3a6a4921a",
                "code" : "0x",
                "nonce" : "0x01",
                "storage" : {
                }
            }
        },
        "pre" : {
            "0x095e7baea6a6c7c4c2dfeb977efac326af552d87" : {
                "balance" : "0x0de0b6b3a7640000",
                "code" : "0x6000600060006000601873945304eb96065b2a98b57a48a06ae28d285a71b5620186a05a03f1585500",
                "nonce" : "0x00",
                "storage" : {
                }
            },
            "0x945304eb96065b2a98b57a48a06ae28d285a71b5" : {
                "balance" : "0x17",
                "code" : "0x6000600060006000601773095e7baea6a6c7c4c2dfeb977efac326af552d87620186a05a03f1600101585500",
                "nonce" : "0x00",
                "storage" : {
                }
            },
            "0xa94f5374fce5edbc8e2a8697c15331677e6ebf0b" : {
                "balance" : "0x0de0b6b3a7640000",
                "code" : "0x",
                "nonce" : "0x00",
                "storage" : {
                }
            }
        },
        "sealEngine" : "NoProof"
    },
    "ABAcalls1_d0g0v0_Istanbul" : {
        "_info" : {
            "comment" : "",
            "filling-rpc-server" : "evm version 1.11.0-unstable-e04d63eb-20230113",
            "filling-tool-version" : "retesteth-0.2.3-postmerge+commit.801c0d4c.Linux.g++",
            "generatedTestHash" : "67da58a4d79e5dfdad7a2dd71acc0dca31e706b5dffb302b8ef52d4ccb32044b",
            "lllcversion" : "Version: 0.5.14-develop.2021.4.29+commit.14c9d5de.Linux.clang",
            "solidity" : "Version: 0.8.17-develop.2022.9.30+commit.8df45f5f.Linux.clang",
            "source" : "src/GeneralStateTestsFiller/stSystemOperationsTest/ABAcalls1Filler.json",
            "sourceHash" : "8fa9f9e676dd4328a38a6f4f6b73857a691c7c6e7abd6e955552f490cdceb820"
        },
        "blocks" : [
            {
                "blockHeader" : {
                    "bloom" : "0x00000000000000000000000000000000000000000000000000000000000000000000000000000000000000000000000000000000000000000000000000000000000000000000000000000000000000000000000000000000000000000000000000000000000000000000000000000000000000000000000000000000000000000000000000000000000000000000000000000000000000000000000000000000000000000000000000000000000000000000000000000000000000000000000000000000000000000000000000000000000000000000000000000000000000000000000000000000000000000000000000000000000000000000000000000000",
                    "coinbase" : "0x2adc25665018aa1fe0e6bc666dac8fc2697ff9ba",
                    "difficulty" : "0x020000",
                    "extraData" : "0x00",
                    "gasLimit" : "0x02540be400",
                    "gasUsed" : "0x158899",
                    "hash" : "0x59cd7caaee8c71eb6eb404b0be76a347aa545e9caba9ae470d6930cd24898d24",
                    "mixHash" : "0x0000000000000000000000000000000000000000000000000000000000000000",
                    "nonce" : "0x0000000000000000",
                    "number" : "0x01",
                    "parentHash" : "0xba06929da63148e6bc499e02368e020d20819b66b934b42d4edeb7ad4caa2e40",
                    "receiptTrie" : "0x77d423f33080299919c2ea26581a9d546091e8c02b91fdb16ee0891f00aefb41",
                    "stateRoot" : "0xfc92ffc22349e86d813032b9d0d8412fc8ccc030cc26250b01d193ec88768176",
                    "timestamp" : "0x03e8",
                    "transactionsTrie" : "0x78f83483a1832654e03024247795fed47a1c589267b8e2e15bc8e12266966669",
                    "uncleHash" : "0x1dcc4de8dec75d7aab85b567b6ccd41ad312451b948a7413f0a142fd40d49347"
                },
                "rlp" : "0xf90266f901faa0ba06929da63148e6bc499e02368e020d20819b66b934b42d4edeb7ad4caa2e40a01dcc4de8dec75d7aab85b567b6ccd41ad312451b948a7413f0a142fd40d49347942adc25665018aa1fe0e6bc666dac8fc2697ff9baa0fc92ffc22349e86d813032b9d0d8412fc8ccc030cc26250b01d193ec88768176a078f83483a1832654e03024247795fed47a1c589267b8e2e15bc8e12266966669a077d423f33080299919c2ea26581a9d546091e8c02b91fdb16ee0891f00aefb41b901000000000000000000000000000000000000000000000000000000000000000000000000000000000000000000000000000000000000000000000000000000000000000000000000000000000000000000000000000000000000000000000000000000000000000000000000000000000000000000000000000000000000000000000000000000000000000000000000000000000000000000000000000000000000000000000000000000000000000000000000000000000000000000000000000000000000000000000000000000000000000000000000000000000000000000000000000000000000000000000000000000000000000000000000000000000083020000018502540be400831588998203e800a00000000000000000000000000000000000000000000000000000000000000000880000000000000000f866f864800a8401ba814094095e7baea6a6c7c4c2dfeb977efac326af552d87830186a0801ca045290492190ac3f5aae05372e9fa01961db4bb2e501247e022e8988b2b11d76ea07ab74926085f718b1fa46746680867b54cef512f286726057463b3849462c918c0",
                "transactions" : [
                    {
                        "data" : "0x",
                        "gasLimit" : "0x01ba8140",
                        "gasPrice" : "0x0a",
                        "nonce" : "0x00",
                        "r" : "0x45290492190ac3f5aae05372e9fa01961db4bb2e501247e022e8988b2b11d76e",
                        "s" : "0x7ab74926085f718b1fa46746680867b54cef512f286726057463b3849462c918",
                        "sender" : "0xa94f5374fce5edbc8e2a8697c15331677e6ebf0b",
                        "to" : "0x095e7baea6a6c7c4c2dfeb977efac326af552d87",
                        "v" : "0x1c",
                        "value" : "0x0186a0"
                    }
                ],
                "uncleHeaders" : [
                ]
            }
        ],
        "genesisBlockHeader" : {
            "bloom" : "0x00000000000000000000000000000000000000000000000000000000000000000000000000000000000000000000000000000000000000000000000000000000000000000000000000000000000000000000000000000000000000000000000000000000000000000000000000000000000000000000000000000000000000000000000000000000000000000000000000000000000000000000000000000000000000000000000000000000000000000000000000000000000000000000000000000000000000000000000000000000000000000000000000000000000000000000000000000000000000000000000000000000000000000000000000000000",
            "coinbase" : "0x2adc25665018aa1fe0e6bc666dac8fc2697ff9ba",
            "difficulty" : "0x020000",
            "extraData" : "0x00",
            "gasLimit" : "0x02540be400",
            "gasUsed" : "0x00",
            "hash" : "0xba06929da63148e6bc499e02368e020d20819b66b934b42d4edeb7ad4caa2e40",
            "mixHash" : "0x0000000000000000000000000000000000000000000000000000000000000000",
            "nonce" : "0x0000000000000000",
            "number" : "0x00",
            "parentHash" : "0x0000000000000000000000000000000000000000000000000000000000000000",
            "receiptTrie" : "0x56e81f171bcc55a6ff8345e692c0f86e5b48e01b996cadc001622fb5e363b421",
            "stateRoot" : "0xc1e1710c21d22cd419833c07e702e418c40f0904a9c1e56fde98aa5155021848",
            "timestamp" : "0x00",
            "transactionsTrie" : "0x56e81f171bcc55a6ff8345e692c0f86e5b48e01b996cadc001622fb5e363b421",
            "uncleHash" : "0x1dcc4de8dec75d7aab85b567b6ccd41ad312451b948a7413f0a142fd40d49347"
        },
        "genesisRLP" : "0xf901faf901f5a00000000000000000000000000000000000000000000000000000000000000000a01dcc4de8dec75d7aab85b567b6ccd41ad312451b948a7413f0a142fd40d49347942adc25665018aa1fe0e6bc666dac8fc2697ff9baa0c1e1710c21d22cd419833c07e702e418c40f0904a9c1e56fde98aa5155021848a056e81f171bcc55a6ff8345e692c0f86e5b48e01b996cadc001622fb5e363b421a056e81f171bcc55a6ff8345e692c0f86e5b48e01b996cadc001622fb5e363b421b901000000000000000000000000000000000000000000000000000000000000000000000000000000000000000000000000000000000000000000000000000000000000000000000000000000000000000000000000000000000000000000000000000000000000000000000000000000000000000000000000000000000000000000000000000000000000000000000000000000000000000000000000000000000000000000000000000000000000000000000000000000000000000000000000000000000000000000000000000000000000000000000000000000000000000000000000000000000000000000000000000000000000000000000000000000000083020000808502540be400808000a00000000000000000000000000000000000000000000000000000000000000000880000000000000000c0c0",
        "lastblockhash" : "0x59cd7caaee8c71eb6eb404b0be76a347aa545e9caba9ae470d6930cd24898d24",
        "network" : "Istanbul",
        "postState" : {
            "0x095e7baea6a6c7c4c2dfeb977efac326af552d87" : {
                "balance" : "0x0de0b6b3a7658652",
                "code" : "0x6000600060006000601873945304eb96065b2a98b57a48a06ae28d285a71b5620186a05a03f1585500",
                "nonce" : "0x00",
                "storage" : {
                    "0x26" : "0x01"
                }
            },
            "0x2adc25665018aa1fe0e6bc666dac8fc2697ff9ba" : {
                "balance" : "0x1bc16d674f9f55fa",
                "code" : "0x",
                "nonce" : "0x00",
                "storage" : {
                }
            },
            "0x945304eb96065b2a98b57a48a06ae28d285a71b5" : {
                "balance" : "0x65",
                "code" : "0x6000600060006000601773095e7baea6a6c7c4c2dfeb977efac326af552d87620186a05a03f1600101585500",
                "nonce" : "0x00",
                "storage" : {
                    "0x29" : "0x02"
                }
            },
            "0xa94f5374fce5edbc8e2a8697c15331677e6ebf0b" : {
                "balance" : "0x0de0b6b3a68b2366",
                "code" : "0x",
                "nonce" : "0x01",
                "storage" : {
                }
            }
        },
        "pre" : {
            "0x095e7baea6a6c7c4c2dfeb977efac326af552d87" : {
                "balance" : "0x0de0b6b3a7640000",
                "code" : "0x6000600060006000601873945304eb96065b2a98b57a48a06ae28d285a71b5620186a05a03f1585500",
                "nonce" : "0x00",
                "storage" : {
                }
            },
            "0x945304eb96065b2a98b57a48a06ae28d285a71b5" : {
                "balance" : "0x17",
                "code" : "0x6000600060006000601773095e7baea6a6c7c4c2dfeb977efac326af552d87620186a05a03f1600101585500",
                "nonce" : "0x00",
                "storage" : {
                }
            },
            "0xa94f5374fce5edbc8e2a8697c15331677e6ebf0b" : {
                "balance" : "0x0de0b6b3a7640000",
                "code" : "0x",
                "nonce" : "0x00",
                "storage" : {
                }
            }
        },
        "sealEngine" : "NoProof"
    },
    "ABAcalls1_d0g0v0_London" : {
        "_info" : {
            "comment" : "",
            "filling-rpc-server" : "evm version 1.11.0-unstable-e04d63eb-20230113",
            "filling-tool-version" : "retesteth-0.2.3-postmerge+commit.801c0d4c.Linux.g++",
            "generatedTestHash" : "7b7a7bfaf9068d6bcce6d4da5709a307a667097c160cc3efa06a3de6c92d698c",
            "lllcversion" : "Version: 0.5.14-develop.2021.4.29+commit.14c9d5de.Linux.clang",
            "solidity" : "Version: 0.8.17-develop.2022.9.30+commit.8df45f5f.Linux.clang",
            "source" : "src/GeneralStateTestsFiller/stSystemOperationsTest/ABAcalls1Filler.json",
            "sourceHash" : "8fa9f9e676dd4328a38a6f4f6b73857a691c7c6e7abd6e955552f490cdceb820"
        },
        "blocks" : [
            {
                "blockHeader" : {
                    "baseFeePerGas" : "0x0a",
                    "bloom" : "0x00000000000000000000000000000000000000000000000000000000000000000000000000000000000000000000000000000000000000000000000000000000000000000000000000000000000000000000000000000000000000000000000000000000000000000000000000000000000000000000000000000000000000000000000000000000000000000000000000000000000000000000000000000000000000000000000000000000000000000000000000000000000000000000000000000000000000000000000000000000000000000000000000000000000000000000000000000000000000000000000000000000000000000000000000000000",
                    "coinbase" : "0x2adc25665018aa1fe0e6bc666dac8fc2697ff9ba",
                    "difficulty" : "0x020000",
                    "extraData" : "0x00",
                    "gasLimit" : "0x02540be400",
                    "gasUsed" : "0x12fd87",
                    "hash" : "0x58a7ce5de793d619cdb425784a0701cf5c21f0938a04beaae7648398f6febf97",
                    "mixHash" : "0x0000000000000000000000000000000000000000000000000000000000000000",
                    "nonce" : "0x0000000000000000",
                    "number" : "0x01",
                    "parentHash" : "0x4a5b0a6680c7a2369e0774d0dcf4b603c2ed349ab64763079172845d40211f57",
                    "receiptTrie" : "0x2e7df5f4e6c7882fee62ec49a3fb6e554d7836b7176c63ec91748bc8e4e2c20a",
                    "stateRoot" : "0x5f39c276f9588f90f34970349de62800037f6e9f9bc1d9a222e453990e92a9fb",
                    "timestamp" : "0x03e8",
                    "transactionsTrie" : "0x78f83483a1832654e03024247795fed47a1c589267b8e2e15bc8e12266966669",
                    "uncleHash" : "0x1dcc4de8dec75d7aab85b567b6ccd41ad312451b948a7413f0a142fd40d49347"
                },
                "rlp" : "0xf90267f901fba04a5b0a6680c7a2369e0774d0dcf4b603c2ed349ab64763079172845d40211f57a01dcc4de8dec75d7aab85b567b6ccd41ad312451b948a7413f0a142fd40d49347942adc25665018aa1fe0e6bc666dac8fc2697ff9baa05f39c276f9588f90f34970349de62800037f6e9f9bc1d9a222e453990e92a9fba078f83483a1832654e03024247795fed47a1c589267b8e2e15bc8e12266966669a02e7df5f4e6c7882fee62ec49a3fb6e554d7836b7176c63ec91748bc8e4e2c20ab901000000000000000000000000000000000000000000000000000000000000000000000000000000000000000000000000000000000000000000000000000000000000000000000000000000000000000000000000000000000000000000000000000000000000000000000000000000000000000000000000000000000000000000000000000000000000000000000000000000000000000000000000000000000000000000000000000000000000000000000000000000000000000000000000000000000000000000000000000000000000000000000000000000000000000000000000000000000000000000000000000000000000000000000000000000000083020000018502540be4008312fd878203e800a000000000000000000000000000000000000000000000000000000000000000008800000000000000000af866f864800a8401ba814094095e7baea6a6c7c4c2dfeb977efac326af552d87830186a0801ca045290492190ac3f5aae05372e9fa01961db4bb2e501247e022e8988b2b11d76ea07ab74926085f718b1fa46746680867b54cef512f286726057463b3849462c918c0",
                "transactions" : [
                    {
                        "data" : "0x",
                        "gasLimit" : "0x01ba8140",
                        "gasPrice" : "0x0a",
                        "nonce" : "0x00",
                        "r" : "0x45290492190ac3f5aae05372e9fa01961db4bb2e501247e022e8988b2b11d76e",
                        "s" : "0x7ab74926085f718b1fa46746680867b54cef512f286726057463b3849462c918",
                        "sender" : "0xa94f5374fce5edbc8e2a8697c15331677e6ebf0b",
                        "to" : "0x095e7baea6a6c7c4c2dfeb977efac326af552d87",
                        "v" : "0x1c",
                        "value" : "0x0186a0"
                    }
                ],
                "uncleHeaders" : [
                ]
            }
        ],
        "genesisBlockHeader" : {
            "baseFeePerGas" : "0x0b",
            "bloom" : "0x00000000000000000000000000000000000000000000000000000000000000000000000000000000000000000000000000000000000000000000000000000000000000000000000000000000000000000000000000000000000000000000000000000000000000000000000000000000000000000000000000000000000000000000000000000000000000000000000000000000000000000000000000000000000000000000000000000000000000000000000000000000000000000000000000000000000000000000000000000000000000000000000000000000000000000000000000000000000000000000000000000000000000000000000000000000",
            "coinbase" : "0x2adc25665018aa1fe0e6bc666dac8fc2697ff9ba",
            "difficulty" : "0x020000",
            "extraData" : "0x00",
            "gasLimit" : "0x02540be400",
            "gasUsed" : "0x00",
            "hash" : "0x4a5b0a6680c7a2369e0774d0dcf4b603c2ed349ab64763079172845d40211f57",
            "mixHash" : "0x0000000000000000000000000000000000000000000000000000000000000000",
            "nonce" : "0x0000000000000000",
            "number" : "0x00",
            "parentHash" : "0x0000000000000000000000000000000000000000000000000000000000000000",
            "receiptTrie" : "0x56e81f171bcc55a6ff8345e692c0f86e5b48e01b996cadc001622fb5e363b421",
            "stateRoot" : "0xc1e1710c21d22cd419833c07e702e418c40f0904a9c1e56fde98aa5155021848",
            "timestamp" : "0x00",
            "transactionsTrie" : "0x56e81f171bcc55a6ff8345e692c0f86e5b48e01b996cadc001622fb5e363b421",
            "uncleHash" : "0x1dcc4de8dec75d7aab85b567b6ccd41ad312451b948a7413f0a142fd40d49347"
        },
        "genesisRLP" : "0xf901fbf901f6a00000000000000000000000000000000000000000000000000000000000000000a01dcc4de8dec75d7aab85b567b6ccd41ad312451b948a7413f0a142fd40d49347942adc25665018aa1fe0e6bc666dac8fc2697ff9baa0c1e1710c21d22cd419833c07e702e418c40f0904a9c1e56fde98aa5155021848a056e81f171bcc55a6ff8345e692c0f86e5b48e01b996cadc001622fb5e363b421a056e81f171bcc55a6ff8345e692c0f86e5b48e01b996cadc001622fb5e363b421b901000000000000000000000000000000000000000000000000000000000000000000000000000000000000000000000000000000000000000000000000000000000000000000000000000000000000000000000000000000000000000000000000000000000000000000000000000000000000000000000000000000000000000000000000000000000000000000000000000000000000000000000000000000000000000000000000000000000000000000000000000000000000000000000000000000000000000000000000000000000000000000000000000000000000000000000000000000000000000000000000000000000000000000000000000000000083020000808502540be400808000a000000000000000000000000000000000000000000000000000000000000000008800000000000000000bc0c0",
        "lastblockhash" : "0x58a7ce5de793d619cdb425784a0701cf5c21f0938a04beaae7648398f6febf97",
        "network" : "London",
        "postState" : {
            "0x095e7baea6a6c7c4c2dfeb977efac326af552d87" : {
                "balance" : "0x0de0b6b3a7658652",
                "code" : "0x6000600060006000601873945304eb96065b2a98b57a48a06ae28d285a71b5620186a05a03f1585500",
                "nonce" : "0x00",
                "storage" : {
                    "0x26" : "0x01"
                }
            },
            "0x2adc25665018aa1fe0e6bc666dac8fc2697ff9ba" : {
                "balance" : "0x1bc16d674ec80000",
                "code" : "0x",
                "nonce" : "0x00",
                "storage" : {
                }
            },
            "0x945304eb96065b2a98b57a48a06ae28d285a71b5" : {
                "balance" : "0x65",
                "code" : "0x6000600060006000601773095e7baea6a6c7c4c2dfeb977efac326af552d87620186a05a03f1600101585500",
                "nonce" : "0x00",
                "storage" : {
                    "0x29" : "0x02"
                }
            },
            "0xa94f5374fce5edbc8e2a8697c15331677e6ebf0b" : {
                "balance" : "0x0de0b6b3a6a4921a",
                "code" : "0x",
                "nonce" : "0x01",
                "storage" : {
                }
            }
        },
        "pre" : {
            "0x095e7baea6a6c7c4c2dfeb977efac326af552d87" : {
                "balance" : "0x0de0b6b3a7640000",
                "code" : "0x6000600060006000601873945304eb96065b2a98b57a48a06ae28d285a71b5620186a05a03f1585500",
                "nonce" : "0x00",
                "storage" : {
                }
            },
            "0x945304eb96065b2a98b57a48a06ae28d285a71b5" : {
                "balance" : "0x17",
                "code" : "0x6000600060006000601773095e7baea6a6c7c4c2dfeb977efac326af552d87620186a05a03f1600101585500",
                "nonce" : "0x00",
                "storage" : {
                }
            },
            "0xa94f5374fce5edbc8e2a8697c15331677e6ebf0b" : {
                "balance" : "0x0de0b6b3a7640000",
                "code" : "0x",
                "nonce" : "0x00",
                "storage" : {
                }
            }
        },
        "sealEngine" : "NoProof"
    },
    "ABAcalls1_d0g0v0_Merge" : {
        "_info" : {
            "comment" : "",
            "filling-rpc-server" : "evm version 1.11.0-unstable-e04d63eb-20230113",
            "filling-tool-version" : "retesteth-0.2.3-postmerge+commit.801c0d4c.Linux.g++",
            "generatedTestHash" : "216442ebefc2a8980b52d217aaf2b2675f90baf1c044ef4199e7382bc7bb9211",
            "lllcversion" : "Version: 0.5.14-develop.2021.4.29+commit.14c9d5de.Linux.clang",
            "solidity" : "Version: 0.8.17-develop.2022.9.30+commit.8df45f5f.Linux.clang",
            "source" : "src/GeneralStateTestsFiller/stSystemOperationsTest/ABAcalls1Filler.json",
            "sourceHash" : "8fa9f9e676dd4328a38a6f4f6b73857a691c7c6e7abd6e955552f490cdceb820"
        },
        "blocks" : [
            {
                "blockHeader" : {
                    "baseFeePerGas" : "0x0a",
                    "bloom" : "0x00000000000000000000000000000000000000000000000000000000000000000000000000000000000000000000000000000000000000000000000000000000000000000000000000000000000000000000000000000000000000000000000000000000000000000000000000000000000000000000000000000000000000000000000000000000000000000000000000000000000000000000000000000000000000000000000000000000000000000000000000000000000000000000000000000000000000000000000000000000000000000000000000000000000000000000000000000000000000000000000000000000000000000000000000000000",
                    "coinbase" : "0x2adc25665018aa1fe0e6bc666dac8fc2697ff9ba",
                    "difficulty" : "0x00",
                    "extraData" : "0x00",
                    "gasLimit" : "0x02540be400",
                    "gasUsed" : "0x12fd87",
                    "hash" : "0x360e9d16d4406375ea061ff44e2e9e5eaecd95a1e9036b762216d4e0a260a9f6",
                    "mixHash" : "0x0000000000000000000000000000000000000000000000000000000000020000",
                    "nonce" : "0x0000000000000000",
                    "number" : "0x01",
                    "parentHash" : "0x801a5e4f90d847bf049e76228207512e1516bc9c0764d9bb3b44948799f5ac1a",
                    "receiptTrie" : "0x2e7df5f4e6c7882fee62ec49a3fb6e554d7836b7176c63ec91748bc8e4e2c20a",
                    "stateRoot" : "0xa38db7e65cfbd651ae250c2946dc635421eb733724e29514b087b2875e909e91",
                    "timestamp" : "0x03e8",
                    "transactionsTrie" : "0x78f83483a1832654e03024247795fed47a1c589267b8e2e15bc8e12266966669",
                    "uncleHash" : "0x1dcc4de8dec75d7aab85b567b6ccd41ad312451b948a7413f0a142fd40d49347"
                },
                "rlp" : "0xf90264f901f8a0801a5e4f90d847bf049e76228207512e1516bc9c0764d9bb3b44948799f5ac1aa01dcc4de8dec75d7aab85b567b6ccd41ad312451b948a7413f0a142fd40d49347942adc25665018aa1fe0e6bc666dac8fc2697ff9baa0a38db7e65cfbd651ae250c2946dc635421eb733724e29514b087b2875e909e91a078f83483a1832654e03024247795fed47a1c589267b8e2e15bc8e12266966669a02e7df5f4e6c7882fee62ec49a3fb6e554d7836b7176c63ec91748bc8e4e2c20ab901000000000000000000000000000000000000000000000000000000000000000000000000000000000000000000000000000000000000000000000000000000000000000000000000000000000000000000000000000000000000000000000000000000000000000000000000000000000000000000000000000000000000000000000000000000000000000000000000000000000000000000000000000000000000000000000000000000000000000000000000000000000000000000000000000000000000000000000000000000000000000000000000000000000000000000000000000000000000000000000000000000000000000000000000000000000080018502540be4008312fd878203e800a000000000000000000000000000000000000000000000000000000000000200008800000000000000000af866f864800a8401ba814094095e7baea6a6c7c4c2dfeb977efac326af552d87830186a0801ca045290492190ac3f5aae05372e9fa01961db4bb2e501247e022e8988b2b11d76ea07ab74926085f718b1fa46746680867b54cef512f286726057463b3849462c918c0",
                "transactions" : [
                    {
                        "data" : "0x",
                        "gasLimit" : "0x01ba8140",
                        "gasPrice" : "0x0a",
                        "nonce" : "0x00",
                        "r" : "0x45290492190ac3f5aae05372e9fa01961db4bb2e501247e022e8988b2b11d76e",
                        "s" : "0x7ab74926085f718b1fa46746680867b54cef512f286726057463b3849462c918",
                        "sender" : "0xa94f5374fce5edbc8e2a8697c15331677e6ebf0b",
                        "to" : "0x095e7baea6a6c7c4c2dfeb977efac326af552d87",
                        "v" : "0x1c",
                        "value" : "0x0186a0"
                    }
                ],
                "uncleHeaders" : [
                ]
            }
        ],
        "genesisBlockHeader" : {
            "baseFeePerGas" : "0x0b",
            "bloom" : "0x00000000000000000000000000000000000000000000000000000000000000000000000000000000000000000000000000000000000000000000000000000000000000000000000000000000000000000000000000000000000000000000000000000000000000000000000000000000000000000000000000000000000000000000000000000000000000000000000000000000000000000000000000000000000000000000000000000000000000000000000000000000000000000000000000000000000000000000000000000000000000000000000000000000000000000000000000000000000000000000000000000000000000000000000000000000",
            "coinbase" : "0x2adc25665018aa1fe0e6bc666dac8fc2697ff9ba",
            "difficulty" : "0x00",
            "extraData" : "0x00",
            "gasLimit" : "0x02540be400",
            "gasUsed" : "0x00",
            "hash" : "0x801a5e4f90d847bf049e76228207512e1516bc9c0764d9bb3b44948799f5ac1a",
            "mixHash" : "0x0000000000000000000000000000000000000000000000000000000000020000",
            "nonce" : "0x0000000000000000",
            "number" : "0x00",
            "parentHash" : "0x0000000000000000000000000000000000000000000000000000000000000000",
            "receiptTrie" : "0x56e81f171bcc55a6ff8345e692c0f86e5b48e01b996cadc001622fb5e363b421",
            "stateRoot" : "0xc1e1710c21d22cd419833c07e702e418c40f0904a9c1e56fde98aa5155021848",
            "timestamp" : "0x00",
            "transactionsTrie" : "0x56e81f171bcc55a6ff8345e692c0f86e5b48e01b996cadc001622fb5e363b421",
            "uncleHash" : "0x1dcc4de8dec75d7aab85b567b6ccd41ad312451b948a7413f0a142fd40d49347"
        },
        "genesisRLP" : "0xf901f8f901f3a00000000000000000000000000000000000000000000000000000000000000000a01dcc4de8dec75d7aab85b567b6ccd41ad312451b948a7413f0a142fd40d49347942adc25665018aa1fe0e6bc666dac8fc2697ff9baa0c1e1710c21d22cd419833c07e702e418c40f0904a9c1e56fde98aa5155021848a056e81f171bcc55a6ff8345e692c0f86e5b48e01b996cadc001622fb5e363b421a056e81f171bcc55a6ff8345e692c0f86e5b48e01b996cadc001622fb5e363b421b901000000000000000000000000000000000000000000000000000000000000000000000000000000000000000000000000000000000000000000000000000000000000000000000000000000000000000000000000000000000000000000000000000000000000000000000000000000000000000000000000000000000000000000000000000000000000000000000000000000000000000000000000000000000000000000000000000000000000000000000000000000000000000000000000000000000000000000000000000000000000000000000000000000000000000000000000000000000000000000000000000000000000000000000000000000000080808502540be400808000a000000000000000000000000000000000000000000000000000000000000200008800000000000000000bc0c0",
        "lastblockhash" : "0x360e9d16d4406375ea061ff44e2e9e5eaecd95a1e9036b762216d4e0a260a9f6",
        "network" : "Merge",
        "postState" : {
            "0x095e7baea6a6c7c4c2dfeb977efac326af552d87" : {
                "balance" : "0x0de0b6b3a7658652",
                "code" : "0x6000600060006000601873945304eb96065b2a98b57a48a06ae28d285a71b5620186a05a03f1585500",
                "nonce" : "0x00",
                "storage" : {
                    "0x26" : "0x01"
                }
            },
            "0x945304eb96065b2a98b57a48a06ae28d285a71b5" : {
                "balance" : "0x65",
                "code" : "0x6000600060006000601773095e7baea6a6c7c4c2dfeb977efac326af552d87620186a05a03f1600101585500",
                "nonce" : "0x00",
                "storage" : {
                    "0x29" : "0x02"
                }
            },
            "0xa94f5374fce5edbc8e2a8697c15331677e6ebf0b" : {
                "balance" : "0x0de0b6b3a6a4921a",
                "code" : "0x",
                "nonce" : "0x01",
                "storage" : {
                }
            }
        },
        "pre" : {
            "0x095e7baea6a6c7c4c2dfeb977efac326af552d87" : {
                "balance" : "0x0de0b6b3a7640000",
                "code" : "0x6000600060006000601873945304eb96065b2a98b57a48a06ae28d285a71b5620186a05a03f1585500",
                "nonce" : "0x00",
                "storage" : {
                }
            },
            "0x945304eb96065b2a98b57a48a06ae28d285a71b5" : {
                "balance" : "0x17",
                "code" : "0x6000600060006000601773095e7baea6a6c7c4c2dfeb977efac326af552d87620186a05a03f1600101585500",
                "nonce" : "0x00",
                "storage" : {
                }
            },
            "0xa94f5374fce5edbc8e2a8697c15331677e6ebf0b" : {
                "balance" : "0x0de0b6b3a7640000",
                "code" : "0x",
                "nonce" : "0x00",
                "storage" : {
                }
            }
        },
        "sealEngine" : "NoProof"
    },
    "ABAcalls1_d0g0v0_Shanghai" : {
        "_info" : {
            "comment" : "",
            "filling-rpc-server" : "evm version 1.11.0-unstable-e04d63eb-20230113",
            "filling-tool-version" : "retesteth-0.2.3-postmerge+commit.801c0d4c.Linux.g++",
            "generatedTestHash" : "0c047b7e4f8ce083b88f62cf78805193b36577082b9419933f293c319b0b9713",
            "lllcversion" : "Version: 0.5.14-develop.2021.4.29+commit.14c9d5de.Linux.clang",
            "solidity" : "Version: 0.8.17-develop.2022.9.30+commit.8df45f5f.Linux.clang",
            "source" : "src/GeneralStateTestsFiller/stSystemOperationsTest/ABAcalls1Filler.json",
            "sourceHash" : "8fa9f9e676dd4328a38a6f4f6b73857a691c7c6e7abd6e955552f490cdceb820"
        },
        "blocks" : [
            {
                "blockHeader" : {
                    "baseFeePerGas" : "0x0a",
                    "bloom" : "0x00000000000000000000000000000000000000000000000000000000000000000000000000000000000000000000000000000000000000000000000000000000000000000000000000000000000000000000000000000000000000000000000000000000000000000000000000000000000000000000000000000000000000000000000000000000000000000000000000000000000000000000000000000000000000000000000000000000000000000000000000000000000000000000000000000000000000000000000000000000000000000000000000000000000000000000000000000000000000000000000000000000000000000000000000000000",
                    "coinbase" : "0x2adc25665018aa1fe0e6bc666dac8fc2697ff9ba",
                    "difficulty" : "0x00",
                    "extraData" : "0x00",
                    "gasLimit" : "0x02540be400",
                    "gasUsed" : "0x12fd87",
                    "hash" : "0xb9a470acc684be09dacc7a9c0100cf9cbc821a9489ce51f424d51c1ba2eeffa3",
                    "mixHash" : "0x0000000000000000000000000000000000000000000000000000000000020000",
                    "nonce" : "0x0000000000000000",
                    "number" : "0x01",
                    "parentHash" : "0x714590e3910427c39332b33809948af72ac84ed8f5552324dade4b587dc2f6bc",
                    "receiptTrie" : "0x2e7df5f4e6c7882fee62ec49a3fb6e554d7836b7176c63ec91748bc8e4e2c20a",
                    "stateRoot" : "0xa38db7e65cfbd651ae250c2946dc635421eb733724e29514b087b2875e909e91",
                    "timestamp" : "0x03e8",
                    "transactionsTrie" : "0x78f83483a1832654e03024247795fed47a1c589267b8e2e15bc8e12266966669",
                    "uncleHash" : "0x1dcc4de8dec75d7aab85b567b6ccd41ad312451b948a7413f0a142fd40d49347",
                    "withdrawalsRoot" : "0x0000000000000000000000000000000000000000000000000000000000000000"
                },
                "rlp" : "0xf90286f90219a0714590e3910427c39332b33809948af72ac84ed8f5552324dade4b587dc2f6bca01dcc4de8dec75d7aab85b567b6ccd41ad312451b948a7413f0a142fd40d49347942adc25665018aa1fe0e6bc666dac8fc2697ff9baa0a38db7e65cfbd651ae250c2946dc635421eb733724e29514b087b2875e909e91a078f83483a1832654e03024247795fed47a1c589267b8e2e15bc8e12266966669a02e7df5f4e6c7882fee62ec49a3fb6e554d7836b7176c63ec91748bc8e4e2c20ab901000000000000000000000000000000000000000000000000000000000000000000000000000000000000000000000000000000000000000000000000000000000000000000000000000000000000000000000000000000000000000000000000000000000000000000000000000000000000000000000000000000000000000000000000000000000000000000000000000000000000000000000000000000000000000000000000000000000000000000000000000000000000000000000000000000000000000000000000000000000000000000000000000000000000000000000000000000000000000000000000000000000000000000000000000000000080018502540be4008312fd878203e800a000000000000000000000000000000000000000000000000000000000000200008800000000000000000aa00000000000000000000000000000000000000000000000000000000000000000f866f864800a8401ba814094095e7baea6a6c7c4c2dfeb977efac326af552d87830186a0801ca045290492190ac3f5aae05372e9fa01961db4bb2e501247e022e8988b2b11d76ea07ab74926085f718b1fa46746680867b54cef512f286726057463b3849462c918c0c0",
                "transactions" : [
                    {
                        "data" : "0x",
                        "gasLimit" : "0x01ba8140",
                        "gasPrice" : "0x0a",
                        "nonce" : "0x00",
                        "r" : "0x45290492190ac3f5aae05372e9fa01961db4bb2e501247e022e8988b2b11d76e",
                        "s" : "0x7ab74926085f718b1fa46746680867b54cef512f286726057463b3849462c918",
                        "sender" : "0xa94f5374fce5edbc8e2a8697c15331677e6ebf0b",
                        "to" : "0x095e7baea6a6c7c4c2dfeb977efac326af552d87",
                        "v" : "0x1c",
                        "value" : "0x0186a0"
                    }
                ],
                "uncleHeaders" : [
                ]
            }
        ],
        "genesisBlockHeader" : {
            "baseFeePerGas" : "0x0b",
            "bloom" : "0x00000000000000000000000000000000000000000000000000000000000000000000000000000000000000000000000000000000000000000000000000000000000000000000000000000000000000000000000000000000000000000000000000000000000000000000000000000000000000000000000000000000000000000000000000000000000000000000000000000000000000000000000000000000000000000000000000000000000000000000000000000000000000000000000000000000000000000000000000000000000000000000000000000000000000000000000000000000000000000000000000000000000000000000000000000000",
            "coinbase" : "0x2adc25665018aa1fe0e6bc666dac8fc2697ff9ba",
            "difficulty" : "0x00",
            "extraData" : "0x00",
            "gasLimit" : "0x02540be400",
            "gasUsed" : "0x00",
            "hash" : "0x714590e3910427c39332b33809948af72ac84ed8f5552324dade4b587dc2f6bc",
            "mixHash" : "0x0000000000000000000000000000000000000000000000000000000000020000",
            "nonce" : "0x0000000000000000",
            "number" : "0x00",
            "parentHash" : "0x0000000000000000000000000000000000000000000000000000000000000000",
            "receiptTrie" : "0x56e81f171bcc55a6ff8345e692c0f86e5b48e01b996cadc001622fb5e363b421",
            "stateRoot" : "0xc1e1710c21d22cd419833c07e702e418c40f0904a9c1e56fde98aa5155021848",
            "timestamp" : "0x00",
            "transactionsTrie" : "0x56e81f171bcc55a6ff8345e692c0f86e5b48e01b996cadc001622fb5e363b421",
            "uncleHash" : "0x1dcc4de8dec75d7aab85b567b6ccd41ad312451b948a7413f0a142fd40d49347",
            "withdrawalsRoot" : "0x56e81f171bcc55a6ff8345e692c0f86e5b48e01b996cadc001622fb5e363b421"
        },
        "genesisRLP" : "0xf9021af90214a00000000000000000000000000000000000000000000000000000000000000000a01dcc4de8dec75d7aab85b567b6ccd41ad312451b948a7413f0a142fd40d49347942adc25665018aa1fe0e6bc666dac8fc2697ff9baa0c1e1710c21d22cd419833c07e702e418c40f0904a9c1e56fde98aa5155021848a056e81f171bcc55a6ff8345e692c0f86e5b48e01b996cadc001622fb5e363b421a056e81f171bcc55a6ff8345e692c0f86e5b48e01b996cadc001622fb5e363b421b901000000000000000000000000000000000000000000000000000000000000000000000000000000000000000000000000000000000000000000000000000000000000000000000000000000000000000000000000000000000000000000000000000000000000000000000000000000000000000000000000000000000000000000000000000000000000000000000000000000000000000000000000000000000000000000000000000000000000000000000000000000000000000000000000000000000000000000000000000000000000000000000000000000000000000000000000000000000000000000000000000000000000000000000000000000000080808502540be400808000a000000000000000000000000000000000000000000000000000000000000200008800000000000000000ba056e81f171bcc55a6ff8345e692c0f86e5b48e01b996cadc001622fb5e363b421c0c0c0",
        "lastblockhash" : "0xb9a470acc684be09dacc7a9c0100cf9cbc821a9489ce51f424d51c1ba2eeffa3",
        "network" : "Shanghai",
        "postState" : {
            "0x095e7baea6a6c7c4c2dfeb977efac326af552d87" : {
                "balance" : "0x0de0b6b3a7658652",
                "code" : "0x6000600060006000601873945304eb96065b2a98b57a48a06ae28d285a71b5620186a05a03f1585500",
                "nonce" : "0x00",
                "storage" : {
                    "0x26" : "0x01"
                }
            },
            "0x945304eb96065b2a98b57a48a06ae28d285a71b5" : {
                "balance" : "0x65",
                "code" : "0x6000600060006000601773095e7baea6a6c7c4c2dfeb977efac326af552d87620186a05a03f1600101585500",
                "nonce" : "0x00",
                "storage" : {
                    "0x29" : "0x02"
                }
            },
            "0xa94f5374fce5edbc8e2a8697c15331677e6ebf0b" : {
                "balance" : "0x0de0b6b3a6a4921a",
                "code" : "0x",
                "nonce" : "0x01",
                "storage" : {
                }
            }
        },
        "pre" : {
            "0x095e7baea6a6c7c4c2dfeb977efac326af552d87" : {
                "balance" : "0x0de0b6b3a7640000",
                "code" : "0x6000600060006000601873945304eb96065b2a98b57a48a06ae28d285a71b5620186a05a03f1585500",
                "nonce" : "0x00",
                "storage" : {
                }
            },
            "0x945304eb96065b2a98b57a48a06ae28d285a71b5" : {
                "balance" : "0x17",
                "code" : "0x6000600060006000601773095e7baea6a6c7c4c2dfeb977efac326af552d87620186a05a03f1600101585500",
                "nonce" : "0x00",
                "storage" : {
                }
            },
            "0xa94f5374fce5edbc8e2a8697c15331677e6ebf0b" : {
                "balance" : "0x0de0b6b3a7640000",
                "code" : "0x",
                "nonce" : "0x00",
                "storage" : {
                }
            }
        },
        "sealEngine" : "NoProof"
    }
}