{
    "doubleSelfdestructTouch_d0g0v0_Berlin" : {
        "_info" : {
            "comment" : "A single contract can execute SELFDESTRUCT multiple times using by being called\nmultiple times. The second and later SELFDESTRUCTs have little effect but can\ntouch some new beneficiary addresses.\n",
            "filling-rpc-server" : "evm version 1.10.26-stable-e5eb32ac",
            "filling-tool-version" : "retesteth-0.2.3-postmerge+commit.801c0d4c.Linux.g++",
            "generatedTestHash" : "18c8ca5c75d495f5bcae4a1d37a1aedbecfac8fe51a28943e0c9285056439630",
            "lllcversion" : "Version: 0.5.14-develop.2022.6.30+commit.401d5358.mod.Linux.g++",
            "solidity" : "Version: 0.8.18-develop.2022.12.14+commit.a9fe05e8.Linux.g++",
            "source" : "src/GeneralStateTestsFiller/stSystemOperationsTest/doubleSelfdestructTouchFiller.yml",
            "sourceHash" : "bb18f14e2abc20529c359ff3dfe5dd632da90015dc83e02b2d141c3d98efbb1a"
        },
        "blocks" : [
            {
                "blockHeader" : {
                    "bloom" : "0x00000000000000000000000000000000000000000000000000000000000000000000000000000000000000000000000000000000000000000000000000000000000000000000000000000000000000000000000000000000000000000000000000000000000000000000000000000000000000000000000000000000000000000000000000000000000000000000000000000000000000000000000000000000000000000000000000000000000000000000000000000000000000000000000000000000000000000000000000000000000000000000000000000000000000000000000000000000000000000000000000000000000000000000000000000000",
                    "coinbase" : "0x2adc25665018aa1fe0e6bc666dac8fc2697ff9ba",
                    "difficulty" : "0x020000",
                    "extraData" : "0x00",
                    "gasLimit" : "0x01c9c380",
                    "gasUsed" : "0x91c8",
                    "hash" : "0xc1da542d045b386e5e8bad966296449502a4b63093f44138d6d3b674ac85fcf5",
                    "mixHash" : "0x0000000000000000000000000000000000000000000000000000000000000000",
                    "nonce" : "0x0000000000000000",
                    "number" : "0x01",
                    "parentHash" : "0x422128ab0af1337d4b502880f24d66ae40d38d618acd3d0b7f4ff9cedda2f189",
                    "receiptTrie" : "0x731b06e07661d088be1cdfa0b219736aad2c7afd63190e4ac488fee3c5e4389c",
                    "stateRoot" : "0x5ce62b422e8f50e46023a4b8ac3832dd8275136dc39d6cd60604a984660262a6",
                    "timestamp" : "0x03e7",
                    "transactionsTrie" : "0xfff05990ef72e0d81327f8ee0e8a54c451a032c7e23cabfc74e3a587f77058c8",
                    "uncleHash" : "0x1dcc4de8dec75d7aab85b567b6ccd41ad312451b948a7413f0a142fd40d49347"
                },
                "rlp" : "0xf90260f901f8a0422128ab0af1337d4b502880f24d66ae40d38d618acd3d0b7f4ff9cedda2f189a01dcc4de8dec75d7aab85b567b6ccd41ad312451b948a7413f0a142fd40d49347942adc25665018aa1fe0e6bc666dac8fc2697ff9baa05ce62b422e8f50e46023a4b8ac3832dd8275136dc39d6cd60604a984660262a6a0fff05990ef72e0d81327f8ee0e8a54c451a032c7e23cabfc74e3a587f77058c8a0731b06e07661d088be1cdfa0b219736aad2c7afd63190e4ac488fee3c5e4389cb901000000000000000000000000000000000000000000000000000000000000000000000000000000000000000000000000000000000000000000000000000000000000000000000000000000000000000000000000000000000000000000000000000000000000000000000000000000000000000000000000000000000000000000000000000000000000000000000000000000000000000000000000000000000000000000000000000000000000000000000000000000000000000000000000000000000000000000000000000000000000000000000000000000000000000000000000000000000000000000000000000000000000000000000000000000000083020000018401c9c3808291c88203e700a00000000000000000000000000000000000000000000000000000000000000000880000000000000000f862f860800a8398968094000000000000000000000000000000000000c0de80801ca01cddd1fa480d8833a1c1922f13d448a373a04424d353cb58733883e209f492b0a03697dd551832c88b4e983e8508261664b37da53d32239d7c3b9c5a5cfa68b7a5c0",
                "transactions" : [
                    {
                        "data" : "0x",
                        "gasLimit" : "0x989680",
                        "gasPrice" : "0x0a",
                        "nonce" : "0x00",
                        "r" : "0x1cddd1fa480d8833a1c1922f13d448a373a04424d353cb58733883e209f492b0",
                        "s" : "0x3697dd551832c88b4e983e8508261664b37da53d32239d7c3b9c5a5cfa68b7a5",
                        "sender" : "0xa94f5374fce5edbc8e2a8697c15331677e6ebf0b",
                        "to" : "0x000000000000000000000000000000000000c0de",
                        "v" : "0x1c",
                        "value" : "0x00"
                    }
                ],
                "uncleHeaders" : [
                ]
            }
        ],
        "genesisBlockHeader" : {
            "bloom" : "0x00000000000000000000000000000000000000000000000000000000000000000000000000000000000000000000000000000000000000000000000000000000000000000000000000000000000000000000000000000000000000000000000000000000000000000000000000000000000000000000000000000000000000000000000000000000000000000000000000000000000000000000000000000000000000000000000000000000000000000000000000000000000000000000000000000000000000000000000000000000000000000000000000000000000000000000000000000000000000000000000000000000000000000000000000000000",
            "coinbase" : "0x2adc25665018aa1fe0e6bc666dac8fc2697ff9ba",
            "difficulty" : "0x01",
            "extraData" : "0x00",
            "gasLimit" : "0x01c9c380",
            "gasUsed" : "0x00",
            "hash" : "0x422128ab0af1337d4b502880f24d66ae40d38d618acd3d0b7f4ff9cedda2f189",
            "mixHash" : "0x0000000000000000000000000000000000000000000000000000000000000000",
            "nonce" : "0x0000000000000000",
            "number" : "0x00",
            "parentHash" : "0x0000000000000000000000000000000000000000000000000000000000000000",
            "receiptTrie" : "0x56e81f171bcc55a6ff8345e692c0f86e5b48e01b996cadc001622fb5e363b421",
            "stateRoot" : "0x3b986662b81fcf7ed7356d637f6212435209259bb1f4a3383a5d9fa1810f4f89",
            "timestamp" : "0x00",
            "transactionsTrie" : "0x56e81f171bcc55a6ff8345e692c0f86e5b48e01b996cadc001622fb5e363b421",
            "uncleHash" : "0x1dcc4de8dec75d7aab85b567b6ccd41ad312451b948a7413f0a142fd40d49347"
        },
        "genesisRLP" : "0xf901f6f901f1a00000000000000000000000000000000000000000000000000000000000000000a01dcc4de8dec75d7aab85b567b6ccd41ad312451b948a7413f0a142fd40d49347942adc25665018aa1fe0e6bc666dac8fc2697ff9baa03b986662b81fcf7ed7356d637f6212435209259bb1f4a3383a5d9fa1810f4f89a056e81f171bcc55a6ff8345e692c0f86e5b48e01b996cadc001622fb5e363b421a056e81f171bcc55a6ff8345e692c0f86e5b48e01b996cadc001622fb5e363b421b901000000000000000000000000000000000000000000000000000000000000000000000000000000000000000000000000000000000000000000000000000000000000000000000000000000000000000000000000000000000000000000000000000000000000000000000000000000000000000000000000000000000000000000000000000000000000000000000000000000000000000000000000000000000000000000000000000000000000000000000000000000000000000000000000000000000000000000000000000000000000000000000000000000000000000000000000000000000000000000000000000000000000000000000000000000000001808401c9c380808000a00000000000000000000000000000000000000000000000000000000000000000880000000000000000c0c0",
        "lastblockhash" : "0xc1da542d045b386e5e8bad966296449502a4b63093f44138d6d3b674ac85fcf5",
        "network" : "Berlin",
        "postState" : {
            "0x000000000000000000000000000000000000c0de" : {
                "balance" : "0x00",
                "code" : "0x348060011c6000806000808461dead62011170f18183036000806000808461dead62011170f15050505050",
                "nonce" : "0x00",
                "storage" : {
                }
            },
            "0x2adc25665018aa1fe0e6bc666dac8fc2697ff9ba" : {
                "balance" : "0x1bc16d674ecdb1d0",
                "code" : "0x",
                "nonce" : "0x00",
                "storage" : {
                }
            },
            "0xa94f5374fce5edbc8e2a8697c15331677e6ebf0b" : {
                "balance" : "0x05f02f32",
                "code" : "0x",
                "nonce" : "0x01",
                "storage" : {
                }
            }
        },
        "pre" : {
            "0x000000000000000000000000000000000000c0de" : {
                "balance" : "0x00",
                "code" : "0x348060011c6000806000808461dead62011170f18183036000806000808461dead62011170f15050505050",
                "nonce" : "0x00",
                "storage" : {
                }
            },
            "0x000000000000000000000000000000000000dead" : {
                "balance" : "0x00",
                "code" : "0x600054600181016000558062e4970101ff",
                "nonce" : "0x00",
                "storage" : {
                }
            },
            "0x0000000000000000000000000000000000e49701" : {
                "balance" : "0x00",
                "code" : "0x",
                "nonce" : "0x00",
                "storage" : {
                }
            },
            "0x0000000000000000000000000000000000e49702" : {
                "balance" : "0x00",
                "code" : "0x",
                "nonce" : "0x00",
                "storage" : {
                }
            },
            "0xa94f5374fce5edbc8e2a8697c15331677e6ebf0b" : {
                "balance" : "0x05f5e102",
                "code" : "0x",
                "nonce" : "0x00",
                "storage" : {
                }
            }
        },
        "sealEngine" : "NoProof"
    },
    "doubleSelfdestructTouch_d0g0v1_Berlin" : {
        "_info" : {
            "comment" : "A single contract can execute SELFDESTRUCT multiple times using by being called\nmultiple times. The second and later SELFDESTRUCTs have little effect but can\ntouch some new beneficiary addresses.\n",
            "filling-rpc-server" : "evm version 1.10.26-stable-e5eb32ac",
            "filling-tool-version" : "retesteth-0.2.3-postmerge+commit.801c0d4c.Linux.g++",
            "generatedTestHash" : "16423fd994c0673d244cd34837e06ef706f7b2d31541e9b81bc2592f66706dea",
            "lllcversion" : "Version: 0.5.14-develop.2022.6.30+commit.401d5358.mod.Linux.g++",
            "solidity" : "Version: 0.8.18-develop.2022.12.14+commit.a9fe05e8.Linux.g++",
            "source" : "src/GeneralStateTestsFiller/stSystemOperationsTest/doubleSelfdestructTouchFiller.yml",
            "sourceHash" : "bb18f14e2abc20529c359ff3dfe5dd632da90015dc83e02b2d141c3d98efbb1a"
        },
        "blocks" : [
            {
                "blockHeader" : {
                    "bloom" : "0x00000000000000000000000000000000000000000000000000000000000000000000000000000000000000000000000000000000000000000000000000000000000000000000000000000000000000000000000000000000000000000000000000000000000000000000000000000000000000000000000000000000000000000000000000000000000000000000000000000000000000000000000000000000000000000000000000000000000000000000000000000000000000000000000000000000000000000000000000000000000000000000000000000000000000000000000000000000000000000000000000000000000000000000000000000000",
                    "coinbase" : "0x2adc25665018aa1fe0e6bc666dac8fc2697ff9ba",
                    "difficulty" : "0x020000",
                    "extraData" : "0x00",
                    "gasLimit" : "0x01c9c380",
                    "gasUsed" : "0x010d9c",
                    "hash" : "0x267ab436836e4184e2e76b903ec6073a7698b0d5c2cb3f90402cde05ffbbc750",
                    "mixHash" : "0x0000000000000000000000000000000000000000000000000000000000000000",
                    "nonce" : "0x0000000000000000",
                    "number" : "0x01",
                    "parentHash" : "0x422128ab0af1337d4b502880f24d66ae40d38d618acd3d0b7f4ff9cedda2f189",
                    "receiptTrie" : "0x9e1d33e32131a988cc76e7e1856e4774c47715c8b3204ce9510cf436bc38e971",
                    "stateRoot" : "0x9bf25ea955c37dae63fbc19525c3d7d4e0f56aaba6cb390ef72f8487f751c317",
                    "timestamp" : "0x03e7",
                    "transactionsTrie" : "0x53b496a52b078a7fbb825459edc93192bed43d252f449d4c8c021447bd4504ea",
                    "uncleHash" : "0x1dcc4de8dec75d7aab85b567b6ccd41ad312451b948a7413f0a142fd40d49347"
                },
                "rlp" : "0xf90261f901f9a0422128ab0af1337d4b502880f24d66ae40d38d618acd3d0b7f4ff9cedda2f189a01dcc4de8dec75d7aab85b567b6ccd41ad312451b948a7413f0a142fd40d49347942adc25665018aa1fe0e6bc666dac8fc2697ff9baa09bf25ea955c37dae63fbc19525c3d7d4e0f56aaba6cb390ef72f8487f751c317a053b496a52b078a7fbb825459edc93192bed43d252f449d4c8c021447bd4504eaa09e1d33e32131a988cc76e7e1856e4774c47715c8b3204ce9510cf436bc38e971b901000000000000000000000000000000000000000000000000000000000000000000000000000000000000000000000000000000000000000000000000000000000000000000000000000000000000000000000000000000000000000000000000000000000000000000000000000000000000000000000000000000000000000000000000000000000000000000000000000000000000000000000000000000000000000000000000000000000000000000000000000000000000000000000000000000000000000000000000000000000000000000000000000000000000000000000000000000000000000000000000000000000000000000000000000000000083020000018401c9c38083010d9c8203e700a00000000000000000000000000000000000000000000000000000000000000000880000000000000000f862f860800a8398968094000000000000000000000000000000000000c0de01801ba0b630c7ad45cb532d85abed8dd322669e988c4f83d831b8e7bb5f5c98ff592639a01ce6b874effb97e10ac1e88473a868028e8683dbe7236b1080bbfd085572b062c0",
                "transactions" : [
                    {
                        "data" : "0x",
                        "gasLimit" : "0x989680",
                        "gasPrice" : "0x0a",
                        "nonce" : "0x00",
                        "r" : "0xb630c7ad45cb532d85abed8dd322669e988c4f83d831b8e7bb5f5c98ff592639",
                        "s" : "0x1ce6b874effb97e10ac1e88473a868028e8683dbe7236b1080bbfd085572b062",
                        "sender" : "0xa94f5374fce5edbc8e2a8697c15331677e6ebf0b",
                        "to" : "0x000000000000000000000000000000000000c0de",
                        "v" : "0x1b",
                        "value" : "0x01"
                    }
                ],
                "uncleHeaders" : [
                ]
            }
        ],
        "genesisBlockHeader" : {
            "bloom" : "0x00000000000000000000000000000000000000000000000000000000000000000000000000000000000000000000000000000000000000000000000000000000000000000000000000000000000000000000000000000000000000000000000000000000000000000000000000000000000000000000000000000000000000000000000000000000000000000000000000000000000000000000000000000000000000000000000000000000000000000000000000000000000000000000000000000000000000000000000000000000000000000000000000000000000000000000000000000000000000000000000000000000000000000000000000000000",
            "coinbase" : "0x2adc25665018aa1fe0e6bc666dac8fc2697ff9ba",
            "difficulty" : "0x01",
            "extraData" : "0x00",
            "gasLimit" : "0x01c9c380",
            "gasUsed" : "0x00",
            "hash" : "0x422128ab0af1337d4b502880f24d66ae40d38d618acd3d0b7f4ff9cedda2f189",
            "mixHash" : "0x0000000000000000000000000000000000000000000000000000000000000000",
            "nonce" : "0x0000000000000000",
            "number" : "0x00",
            "parentHash" : "0x0000000000000000000000000000000000000000000000000000000000000000",
            "receiptTrie" : "0x56e81f171bcc55a6ff8345e692c0f86e5b48e01b996cadc001622fb5e363b421",
            "stateRoot" : "0x3b986662b81fcf7ed7356d637f6212435209259bb1f4a3383a5d9fa1810f4f89",
            "timestamp" : "0x00",
            "transactionsTrie" : "0x56e81f171bcc55a6ff8345e692c0f86e5b48e01b996cadc001622fb5e363b421",
            "uncleHash" : "0x1dcc4de8dec75d7aab85b567b6ccd41ad312451b948a7413f0a142fd40d49347"
        },
        "genesisRLP" : "0xf901f6f901f1a00000000000000000000000000000000000000000000000000000000000000000a01dcc4de8dec75d7aab85b567b6ccd41ad312451b948a7413f0a142fd40d49347942adc25665018aa1fe0e6bc666dac8fc2697ff9baa03b986662b81fcf7ed7356d637f6212435209259bb1f4a3383a5d9fa1810f4f89a056e81f171bcc55a6ff8345e692c0f86e5b48e01b996cadc001622fb5e363b421a056e81f171bcc55a6ff8345e692c0f86e5b48e01b996cadc001622fb5e363b421b901000000000000000000000000000000000000000000000000000000000000000000000000000000000000000000000000000000000000000000000000000000000000000000000000000000000000000000000000000000000000000000000000000000000000000000000000000000000000000000000000000000000000000000000000000000000000000000000000000000000000000000000000000000000000000000000000000000000000000000000000000000000000000000000000000000000000000000000000000000000000000000000000000000000000000000000000000000000000000000000000000000000000000000000000000000000001808401c9c380808000a00000000000000000000000000000000000000000000000000000000000000000880000000000000000c0c0",
        "lastblockhash" : "0x267ab436836e4184e2e76b903ec6073a7698b0d5c2cb3f90402cde05ffbbc750",
        "network" : "Berlin",
        "postState" : {
            "0x000000000000000000000000000000000000c0de" : {
                "balance" : "0x00",
                "code" : "0x348060011c6000806000808461dead62011170f18183036000806000808461dead62011170f15050505050",
                "nonce" : "0x00",
                "storage" : {
                }
            },
            "0x0000000000000000000000000000000000e49702" : {
                "balance" : "0x01",
                "code" : "0x",
                "nonce" : "0x00",
                "storage" : {
                }
            },
            "0x2adc25665018aa1fe0e6bc666dac8fc2697ff9ba" : {
                "balance" : "0x1bc16d674ed28818",
                "code" : "0x",
                "nonce" : "0x00",
                "storage" : {
                }
            },
            "0xa94f5374fce5edbc8e2a8697c15331677e6ebf0b" : {
                "balance" : "0x05eb58e9",
                "code" : "0x",
                "nonce" : "0x01",
                "storage" : {
                }
            }
        },
        "pre" : {
            "0x000000000000000000000000000000000000c0de" : {
                "balance" : "0x00",
                "code" : "0x348060011c6000806000808461dead62011170f18183036000806000808461dead62011170f15050505050",
                "nonce" : "0x00",
                "storage" : {
                }
            },
            "0x000000000000000000000000000000000000dead" : {
                "balance" : "0x00",
                "code" : "0x600054600181016000558062e4970101ff",
                "nonce" : "0x00",
                "storage" : {
                }
            },
            "0x0000000000000000000000000000000000e49701" : {
                "balance" : "0x00",
                "code" : "0x",
                "nonce" : "0x00",
                "storage" : {
                }
            },
            "0x0000000000000000000000000000000000e49702" : {
                "balance" : "0x00",
                "code" : "0x",
                "nonce" : "0x00",
                "storage" : {
                }
            },
            "0xa94f5374fce5edbc8e2a8697c15331677e6ebf0b" : {
                "balance" : "0x05f5e102",
                "code" : "0x",
                "nonce" : "0x00",
                "storage" : {
                }
            }
        },
        "sealEngine" : "NoProof"
    },
    "doubleSelfdestructTouch_d0g0v2_Berlin" : {
        "_info" : {
            "comment" : "A single contract can execute SELFDESTRUCT multiple times using by being called\nmultiple times. The second and later SELFDESTRUCTs have little effect but can\ntouch some new beneficiary addresses.\n",
            "filling-rpc-server" : "evm version 1.10.26-stable-e5eb32ac",
            "filling-tool-version" : "retesteth-0.2.3-postmerge+commit.801c0d4c.Linux.g++",
            "generatedTestHash" : "c0af14a542c8c3976b440a6d6c352fc8647210fcea9eee89f002643dce781eeb",
            "lllcversion" : "Version: 0.5.14-develop.2022.6.30+commit.401d5358.mod.Linux.g++",
            "solidity" : "Version: 0.8.18-develop.2022.12.14+commit.a9fe05e8.Linux.g++",
            "source" : "src/GeneralStateTestsFiller/stSystemOperationsTest/doubleSelfdestructTouchFiller.yml",
            "sourceHash" : "bb18f14e2abc20529c359ff3dfe5dd632da90015dc83e02b2d141c3d98efbb1a"
        },
        "blocks" : [
            {
                "blockHeader" : {
                    "bloom" : "0x00000000000000000000000000000000000000000000000000000000000000000000000000000000000000000000000000000000000000000000000000000000000000000000000000000000000000000000000000000000000000000000000000000000000000000000000000000000000000000000000000000000000000000000000000000000000000000000000000000000000000000000000000000000000000000000000000000000000000000000000000000000000000000000000000000000000000000000000000000000000000000000000000000000000000000000000000000000000000000000000000000000000000000000000000000000",
                    "coinbase" : "0x2adc25665018aa1fe0e6bc666dac8fc2697ff9ba",
                    "difficulty" : "0x020000",
                    "extraData" : "0x00",
                    "gasLimit" : "0x01c9c380",
                    "gasUsed" : "0x018970",
                    "hash" : "0x8855878a34408905a58cc9a2204af57e26c230b20bf3a442291e777b36982258",
                    "mixHash" : "0x0000000000000000000000000000000000000000000000000000000000000000",
                    "nonce" : "0x0000000000000000",
                    "number" : "0x01",
                    "parentHash" : "0x422128ab0af1337d4b502880f24d66ae40d38d618acd3d0b7f4ff9cedda2f189",
                    "receiptTrie" : "0x92f70fdb09a67f8381a125a67908d97fc2f6d0813110ce71010d64583104d11d",
                    "stateRoot" : "0x5f4c110e1cd73841075167dd34cf8822ab7ab50d8cfcac8926d5becc837546b2",
                    "timestamp" : "0x03e7",
                    "transactionsTrie" : "0xb8c6029186ab0f37bc3a87e6f57b80150a3bee3d6e3bcbdcc0459bc2b853616d",
                    "uncleHash" : "0x1dcc4de8dec75d7aab85b567b6ccd41ad312451b948a7413f0a142fd40d49347"
                },
                "rlp" : "0xf90261f901f9a0422128ab0af1337d4b502880f24d66ae40d38d618acd3d0b7f4ff9cedda2f189a01dcc4de8dec75d7aab85b567b6ccd41ad312451b948a7413f0a142fd40d49347942adc25665018aa1fe0e6bc666dac8fc2697ff9baa05f4c110e1cd73841075167dd34cf8822ab7ab50d8cfcac8926d5becc837546b2a0b8c6029186ab0f37bc3a87e6f57b80150a3bee3d6e3bcbdcc0459bc2b853616da092f70fdb09a67f8381a125a67908d97fc2f6d0813110ce71010d64583104d11db901000000000000000000000000000000000000000000000000000000000000000000000000000000000000000000000000000000000000000000000000000000000000000000000000000000000000000000000000000000000000000000000000000000000000000000000000000000000000000000000000000000000000000000000000000000000000000000000000000000000000000000000000000000000000000000000000000000000000000000000000000000000000000000000000000000000000000000000000000000000000000000000000000000000000000000000000000000000000000000000000000000000000000000000000000000000083020000018401c9c380830189708203e700a00000000000000000000000000000000000000000000000000000000000000000880000000000000000f862f860800a8398968094000000000000000000000000000000000000c0de02801ba08de3eff308292c26341278d16ef97a70dd68627837f9ef3f8d54453cca94f968a03393ddb781b3c6cc797b361f64be66cff0ef348d3a0c4f91fd7f60701558e3b4c0",
                "transactions" : [
                    {
                        "data" : "0x",
                        "gasLimit" : "0x989680",
                        "gasPrice" : "0x0a",
                        "nonce" : "0x00",
                        "r" : "0x8de3eff308292c26341278d16ef97a70dd68627837f9ef3f8d54453cca94f968",
                        "s" : "0x3393ddb781b3c6cc797b361f64be66cff0ef348d3a0c4f91fd7f60701558e3b4",
                        "sender" : "0xa94f5374fce5edbc8e2a8697c15331677e6ebf0b",
                        "to" : "0x000000000000000000000000000000000000c0de",
                        "v" : "0x1b",
                        "value" : "0x02"
                    }
                ],
                "uncleHeaders" : [
                ]
            }
        ],
        "genesisBlockHeader" : {
            "bloom" : "0x00000000000000000000000000000000000000000000000000000000000000000000000000000000000000000000000000000000000000000000000000000000000000000000000000000000000000000000000000000000000000000000000000000000000000000000000000000000000000000000000000000000000000000000000000000000000000000000000000000000000000000000000000000000000000000000000000000000000000000000000000000000000000000000000000000000000000000000000000000000000000000000000000000000000000000000000000000000000000000000000000000000000000000000000000000000",
            "coinbase" : "0x2adc25665018aa1fe0e6bc666dac8fc2697ff9ba",
            "difficulty" : "0x01",
            "extraData" : "0x00",
            "gasLimit" : "0x01c9c380",
            "gasUsed" : "0x00",
            "hash" : "0x422128ab0af1337d4b502880f24d66ae40d38d618acd3d0b7f4ff9cedda2f189",
            "mixHash" : "0x0000000000000000000000000000000000000000000000000000000000000000",
            "nonce" : "0x0000000000000000",
            "number" : "0x00",
            "parentHash" : "0x0000000000000000000000000000000000000000000000000000000000000000",
            "receiptTrie" : "0x56e81f171bcc55a6ff8345e692c0f86e5b48e01b996cadc001622fb5e363b421",
            "stateRoot" : "0x3b986662b81fcf7ed7356d637f6212435209259bb1f4a3383a5d9fa1810f4f89",
            "timestamp" : "0x00",
            "transactionsTrie" : "0x56e81f171bcc55a6ff8345e692c0f86e5b48e01b996cadc001622fb5e363b421",
            "uncleHash" : "0x1dcc4de8dec75d7aab85b567b6ccd41ad312451b948a7413f0a142fd40d49347"
        },
        "genesisRLP" : "0xf901f6f901f1a00000000000000000000000000000000000000000000000000000000000000000a01dcc4de8dec75d7aab85b567b6ccd41ad312451b948a7413f0a142fd40d49347942adc25665018aa1fe0e6bc666dac8fc2697ff9baa03b986662b81fcf7ed7356d637f6212435209259bb1f4a3383a5d9fa1810f4f89a056e81f171bcc55a6ff8345e692c0f86e5b48e01b996cadc001622fb5e363b421a056e81f171bcc55a6ff8345e692c0f86e5b48e01b996cadc001622fb5e363b421b901000000000000000000000000000000000000000000000000000000000000000000000000000000000000000000000000000000000000000000000000000000000000000000000000000000000000000000000000000000000000000000000000000000000000000000000000000000000000000000000000000000000000000000000000000000000000000000000000000000000000000000000000000000000000000000000000000000000000000000000000000000000000000000000000000000000000000000000000000000000000000000000000000000000000000000000000000000000000000000000000000000000000000000000000000000000001808401c9c380808000a00000000000000000000000000000000000000000000000000000000000000000880000000000000000c0c0",
        "lastblockhash" : "0x8855878a34408905a58cc9a2204af57e26c230b20bf3a442291e777b36982258",
        "network" : "Berlin",
        "postState" : {
            "0x000000000000000000000000000000000000c0de" : {
                "balance" : "0x00",
                "code" : "0x348060011c6000806000808461dead62011170f18183036000806000808461dead62011170f15050505050",
                "nonce" : "0x00",
                "storage" : {
                }
            },
            "0x0000000000000000000000000000000000e49701" : {
                "balance" : "0x01",
                "code" : "0x",
                "nonce" : "0x00",
                "storage" : {
                }
            },
            "0x0000000000000000000000000000000000e49702" : {
                "balance" : "0x01",
                "code" : "0x",
                "nonce" : "0x00",
                "storage" : {
                }
            },
            "0x2adc25665018aa1fe0e6bc666dac8fc2697ff9ba" : {
                "balance" : "0x1bc16d674ed75e60",
                "code" : "0x",
                "nonce" : "0x00",
                "storage" : {
                }
            },
            "0xa94f5374fce5edbc8e2a8697c15331677e6ebf0b" : {
                "balance" : "0x05e682a0",
                "code" : "0x",
                "nonce" : "0x01",
                "storage" : {
                }
            }
        },
        "pre" : {
            "0x000000000000000000000000000000000000c0de" : {
                "balance" : "0x00",
                "code" : "0x348060011c6000806000808461dead62011170f18183036000806000808461dead62011170f15050505050",
                "nonce" : "0x00",
                "storage" : {
                }
            },
            "0x000000000000000000000000000000000000dead" : {
                "balance" : "0x00",
                "code" : "0x600054600181016000558062e4970101ff",
                "nonce" : "0x00",
                "storage" : {
                }
            },
            "0x0000000000000000000000000000000000e49701" : {
                "balance" : "0x00",
                "code" : "0x",
                "nonce" : "0x00",
                "storage" : {
                }
            },
            "0x0000000000000000000000000000000000e49702" : {
                "balance" : "0x00",
                "code" : "0x",
                "nonce" : "0x00",
                "storage" : {
                }
            },
            "0xa94f5374fce5edbc8e2a8697c15331677e6ebf0b" : {
                "balance" : "0x05f5e102",
                "code" : "0x",
                "nonce" : "0x00",
                "storage" : {
                }
            }
        },
        "sealEngine" : "NoProof"
    }
}