{
    "log0" : {
        "_info" : {
            "comment" : "Ori Pomerantz qbzzt1@gmail.com",
            "filling-rpc-server" : "evm version 1.11.0-unstable-262bd38f-20221210",
            "filling-tool-version" : "retesteth-0.2.3-postmerge+commit.17808a69.Linux.g++",
            "generatedTestHash" : "4646c90c070441545ee02fa10885c4342220fcf9943d7bc7d580f2b4f3c23a5c",
            "labels" : {
                "0" : "emptyMem",
                "1" : "memStartTooHigh",
                "2" : "memSizeTooHigh",
                "3" : "memSizeZero",
                "4" : "nonEmptyMem",
                "5" : "log_0_1",
                "6" : "log_31_1",
                "7" : "logTwice"
            },
            "lllcversion" : "Version: 0.5.14-develop.2021.4.29+commit.14c9d5de.Linux.clang",
            "solidity" : "Version: 0.8.17-develop.2022.9.30+commit.8df45f5f.Linux.clang",
            "source" : "src/GeneralStateTestsFiller/VMTests/vmLogTest/log0Filler.yml",
            "sourceHash" : "e8fadf22e84b0ab34aee4508a6904ee9f063e9bd16ac91e6cc16d75c8eb34034"
        },
        "env" : {
            "currentBaseFee" : "0x0a",
            "currentCoinbase" : "0x2adc25665018aa1fe0e6bc666dac8fc2697ff9ba",
            "currentDifficulty" : "0x020000",
            "currentGasLimit" : "0x05f5e100",
            "currentNumber" : "0x01",
            "currentRandom" : "0x0000000000000000000000000000000000000000000000000000000000020000",
            "currentTimestamp" : "0x03e8",
            "previousHash" : "0x5e20a0453cecd065ea59c37ac63e079ee08998b6045136a8ce6635c7912ec0b6"
        },
        "post" : {
            "Berlin" : [
                {
                    "hash" : "0xe9718e754eef58a8af8635e2cdc299bda123c8c3f46df6da4294c082a5f4cceb",
                    "indexes" : {
                        "data" : 0,
                        "gas" : 0,
                        "value" : 0
                    },
                    "logs" : "0x1ae9fd79989921bc833057bee34b7db08d408220c2a189297be17229a7cd010f",
                    "txbytes" : "0xf885800a8401ba814094cccccccccccccccccccccccccccccccccccccccc01a4693c613900000000000000000000000000000000000000000000000000000000000000001ba0567dec507c79f321aee5fe9acb87eb5be80ec557580c0b11fc8bfc03a49e99e5a00d2e9d241a2cb2cb22b85db9c9e593d28a04ad4022de3814ac79a194c97aa497"
                },
                {
                    "hash" : "0xfb21cdf2c2af765418249942b6abd87c4513dc3ca455e08c5464518fc607ba9b",
                    "indexes" : {
                        "data" : 3,
                        "gas" : 0,
                        "value" : 0
                    },
                    "logs" : "0x1ae9fd79989921bc833057bee34b7db08d408220c2a189297be17229a7cd010f",
                    "txbytes" : "0xf885800a8401ba814094cccccccccccccccccccccccccccccccccccccccc01a4693c613900000000000000000000000000000000000000000000000000000000000000031ca0324f9dee6c04ba7a8f965b73adb769b5465e8f0715474c70b9db67ac446d0e24a02122f082939a61ee4bb3163055d2b2c0441c7c7d45d6b0c808eee7894664a36e"
                },
                {
                    "hash" : "0x7aeaad28627a39a6fcdd58124889ce14214b925cafd1d91cdc2ff00efbd2307d",
                    "indexes" : {
                        "data" : 4,
                        "gas" : 0,
                        "value" : 0
                    },
                    "logs" : "0xa13f02bd34ba9597139d24fc87a53ee276d74c3ee716ff8d52dcab6bae93f7a7",
                    "txbytes" : "0xf885800a8401ba814094cccccccccccccccccccccccccccccccccccccccc01a4693c613900000000000000000000000000000000000000000000000000000000000000041ba03fbab7e66d34067dc796d0476f420679bc07628b4a69d1273c09b75aca056477a053103b2d0ba9aa3e60e8225135fcfa5a7f6b2d11c51047272ca17c328f2efc48"
                },
                {
                    "hash" : "0x6f4585159b033952b2ff2c5b7dfc15f11a38fb47901aca003a7ffd8ac9e7c655",
                    "indexes" : {
                        "data" : 5,
                        "gas" : 0,
                        "value" : 0
                    },
                    "logs" : "0xcd28418ca7c40dcc06d3b9d2c4ce996d873e8995615e389c4c8bbc596f7f5eae",
                    "txbytes" : "0xf885800a8401ba814094cccccccccccccccccccccccccccccccccccccccc01a4693c613900000000000000000000000000000000000000000000000000000000000000051ba05f52a438f648ee70213c86295b583cd640cbcead8a0bc16b0238104da39d664fa0075f22d47ddd604ed4c83e38eeb7904811c4f0a22f8c6aad3978996b09a66339"
                },
                {
                    "hash" : "0x6f4585159b033952b2ff2c5b7dfc15f11a38fb47901aca003a7ffd8ac9e7c655",
                    "indexes" : {
                        "data" : 6,
                        "gas" : 0,
                        "value" : 0
                    },
                    "logs" : "0xae8ff79be2ff33bb29588f17c425bb856937e3eb889f9595299eec0581184fd1",
                    "txbytes" : "0xf885800a8401ba814094cccccccccccccccccccccccccccccccccccccccc01a4693c613900000000000000000000000000000000000000000000000000000000000000061ca05575830943c824d434dc3cb30519886334e90e11b353989a062f5b65d06d3397a07b432538e227abcefa2d7fbc0514459374e5f54dfb969a68a4250a771c3ea665"
                },
                {
                    "hash" : "0xd2bf9735768f2c705433f3fded170c83bc78f93cc7b85c56e1a4da63d5929202",
                    "indexes" : {
                        "data" : 7,
                        "gas" : 0,
                        "value" : 0
                    },
                    "logs" : "0x8158c4dd9e2ec309f0ecf2edd274b27663e8075c3bb8b0357b040d1484a2930e",
                    "txbytes" : "0xf885800a8401ba814094cccccccccccccccccccccccccccccccccccccccc01a4693c6139000000000000000000000000000000000000000000000000000000000000000a1ca07a32e8b4b780c827683a6b6082b08f588ac2d99347ee53908f0045b66f2452bea046b2c1cd657e57950d6f2995a9af1abc2fd8ed39a398329981bcbe1432db0464"
                },
                {
                    "hash" : "0xb347076c2908437c5ed0bbe5dc01537001458da9629ac583c16faf7e45d0907e",
                    "indexes" : {
                        "data" : 1,
                        "gas" : 0,
                        "value" : 0
                    },
                    "logs" : "0x1dcc4de8dec75d7aab85b567b6ccd41ad312451b948a7413f0a142fd40d49347",
                    "txbytes" : "0xf885800a8401ba814094cccccccccccccccccccccccccccccccccccccccc01a4693c613900000000000000000000000000000000000000000000000000000000000000011ca0460aa506804a9e657c91be62de96f457fe1ccf03b2cdbb1056464ca719b39bffa0161d8490ac2eccf337aeb0fb008ee7a9c2215bc8bc64f0b492d5040a4514589f"
                },
                {
                    "hash" : "0xb347076c2908437c5ed0bbe5dc01537001458da9629ac583c16faf7e45d0907e",
                    "indexes" : {
                        "data" : 2,
                        "gas" : 0,
                        "value" : 0
                    },
                    "logs" : "0x1dcc4de8dec75d7aab85b567b6ccd41ad312451b948a7413f0a142fd40d49347",
                    "txbytes" : "0xf885800a8401ba814094cccccccccccccccccccccccccccccccccccccccc01a4693c613900000000000000000000000000000000000000000000000000000000000000021ba0f3570e9410d7c03667e646751038032b0f5b7c4f5642ff56b398457f153d9b39a0797fa257c96ab8223dfe54af1f92bb538e66b86f16adc36aaa00a154b1294d97"
                }
            ],
            "Istanbul" : [
                {
                    "hash" : "0x4b69f335dc2d8ed728d7e6c02345bc0c4457dee4e07c4ae9eba2b1a6d20b5bf9",
                    "indexes" : {
                        "data" : 0,
                        "gas" : 0,
                        "value" : 0
                    },
                    "logs" : "0x1ae9fd79989921bc833057bee34b7db08d408220c2a189297be17229a7cd010f",
                    "txbytes" : "0xf885800a8401ba814094cccccccccccccccccccccccccccccccccccccccc01a4693c613900000000000000000000000000000000000000000000000000000000000000001ba0567dec507c79f321aee5fe9acb87eb5be80ec557580c0b11fc8bfc03a49e99e5a00d2e9d241a2cb2cb22b85db9c9e593d28a04ad4022de3814ac79a194c97aa497"
                },
                {
                    "hash" : "0xa91bb9b4d93ea1af3241575ea53458c0b5ab6fad7c56c37eccef98450c0f02d5",
                    "indexes" : {
                        "data" : 3,
                        "gas" : 0,
                        "value" : 0
                    },
                    "logs" : "0x1ae9fd79989921bc833057bee34b7db08d408220c2a189297be17229a7cd010f",
                    "txbytes" : "0xf885800a8401ba814094cccccccccccccccccccccccccccccccccccccccc01a4693c613900000000000000000000000000000000000000000000000000000000000000031ca0324f9dee6c04ba7a8f965b73adb769b5465e8f0715474c70b9db67ac446d0e24a02122f082939a61ee4bb3163055d2b2c0441c7c7d45d6b0c808eee7894664a36e"
                },
                {
                    "hash" : "0x8695a90b018a7999d34af73ea99b92efb3255e5c0fbaa6af2555d49baac5f2b7",
                    "indexes" : {
                        "data" : 4,
                        "gas" : 0,
                        "value" : 0
                    },
                    "logs" : "0xa13f02bd34ba9597139d24fc87a53ee276d74c3ee716ff8d52dcab6bae93f7a7",
                    "txbytes" : "0xf885800a8401ba814094cccccccccccccccccccccccccccccccccccccccc01a4693c613900000000000000000000000000000000000000000000000000000000000000041ba03fbab7e66d34067dc796d0476f420679bc07628b4a69d1273c09b75aca056477a053103b2d0ba9aa3e60e8225135fcfa5a7f6b2d11c51047272ca17c328f2efc48"
                },
                {
                    "hash" : "0xca14f3f3ea88987329ff6dfdae58a4d1d8ffc717fe9d1f26f8575da15d0a073e",
                    "indexes" : {
                        "data" : 5,
                        "gas" : 0,
                        "value" : 0
                    },
                    "logs" : "0xcd28418ca7c40dcc06d3b9d2c4ce996d873e8995615e389c4c8bbc596f7f5eae",
                    "txbytes" : "0xf885800a8401ba814094cccccccccccccccccccccccccccccccccccccccc01a4693c613900000000000000000000000000000000000000000000000000000000000000051ba05f52a438f648ee70213c86295b583cd640cbcead8a0bc16b0238104da39d664fa0075f22d47ddd604ed4c83e38eeb7904811c4f0a22f8c6aad3978996b09a66339"
                },
                {
                    "hash" : "0xca14f3f3ea88987329ff6dfdae58a4d1d8ffc717fe9d1f26f8575da15d0a073e",
                    "indexes" : {
                        "data" : 6,
                        "gas" : 0,
                        "value" : 0
                    },
                    "logs" : "0xae8ff79be2ff33bb29588f17c425bb856937e3eb889f9595299eec0581184fd1",
                    "txbytes" : "0xf885800a8401ba814094cccccccccccccccccccccccccccccccccccccccc01a4693c613900000000000000000000000000000000000000000000000000000000000000061ca05575830943c824d434dc3cb30519886334e90e11b353989a062f5b65d06d3397a07b432538e227abcefa2d7fbc0514459374e5f54dfb969a68a4250a771c3ea665"
                },
                {
                    "hash" : "0x93cdfa860d21d481773261fc91f1cc2c146eb5197ad885793dc5cec512048125",
                    "indexes" : {
                        "data" : 7,
                        "gas" : 0,
                        "value" : 0
                    },
                    "logs" : "0x8158c4dd9e2ec309f0ecf2edd274b27663e8075c3bb8b0357b040d1484a2930e",
                    "txbytes" : "0xf885800a8401ba814094cccccccccccccccccccccccccccccccccccccccc01a4693c6139000000000000000000000000000000000000000000000000000000000000000a1ca07a32e8b4b780c827683a6b6082b08f588ac2d99347ee53908f0045b66f2452bea046b2c1cd657e57950d6f2995a9af1abc2fd8ed39a398329981bcbe1432db0464"
                },
                {
                    "hash" : "0xd6aa9f8e49f4da5f3b840534a808b0a8eeb15b73120f9d7c70b42b69c16aa703",
                    "indexes" : {
                        "data" : 1,
                        "gas" : 0,
                        "value" : 0
                    },
                    "logs" : "0x1dcc4de8dec75d7aab85b567b6ccd41ad312451b948a7413f0a142fd40d49347",
                    "txbytes" : "0xf885800a8401ba814094cccccccccccccccccccccccccccccccccccccccc01a4693c613900000000000000000000000000000000000000000000000000000000000000011ca0460aa506804a9e657c91be62de96f457fe1ccf03b2cdbb1056464ca719b39bffa0161d8490ac2eccf337aeb0fb008ee7a9c2215bc8bc64f0b492d5040a4514589f"
                },
                {
                    "hash" : "0xd6aa9f8e49f4da5f3b840534a808b0a8eeb15b73120f9d7c70b42b69c16aa703",
                    "indexes" : {
                        "data" : 2,
                        "gas" : 0,
                        "value" : 0
                    },
                    "logs" : "0x1dcc4de8dec75d7aab85b567b6ccd41ad312451b948a7413f0a142fd40d49347",
                    "txbytes" : "0xf885800a8401ba814094cccccccccccccccccccccccccccccccccccccccc01a4693c613900000000000000000000000000000000000000000000000000000000000000021ba0f3570e9410d7c03667e646751038032b0f5b7c4f5642ff56b398457f153d9b39a0797fa257c96ab8223dfe54af1f92bb538e66b86f16adc36aaa00a154b1294d97"
                }
            ],
            "London" : [
                {
                    "hash" : "0x7c6f1fd51857d994576a5294fed3fc38f2a216d86c83c56b17f3e2554a0893ba",
                    "indexes" : {
                        "data" : 0,
                        "gas" : 0,
                        "value" : 0
                    },
                    "logs" : "0x1ae9fd79989921bc833057bee34b7db08d408220c2a189297be17229a7cd010f",
                    "txbytes" : "0xf885800a8401ba814094cccccccccccccccccccccccccccccccccccccccc01a4693c613900000000000000000000000000000000000000000000000000000000000000001ba0567dec507c79f321aee5fe9acb87eb5be80ec557580c0b11fc8bfc03a49e99e5a00d2e9d241a2cb2cb22b85db9c9e593d28a04ad4022de3814ac79a194c97aa497"
                },
                {
                    "hash" : "0xb13042c5e06002eaab4473c521188aea43f6e29b2c7c135a0fdcba7fa9b93d7a",
                    "indexes" : {
                        "data" : 3,
                        "gas" : 0,
                        "value" : 0
                    },
                    "logs" : "0x1ae9fd79989921bc833057bee34b7db08d408220c2a189297be17229a7cd010f",
                    "txbytes" : "0xf885800a8401ba814094cccccccccccccccccccccccccccccccccccccccc01a4693c613900000000000000000000000000000000000000000000000000000000000000031ca0324f9dee6c04ba7a8f965b73adb769b5465e8f0715474c70b9db67ac446d0e24a02122f082939a61ee4bb3163055d2b2c0441c7c7d45d6b0c808eee7894664a36e"
                },
                {
                    "hash" : "0x8f9de45ddab95a092507917fc22d2a6880671185cc2a8361e75fd95039a3de68",
                    "indexes" : {
                        "data" : 4,
                        "gas" : 0,
                        "value" : 0
                    },
                    "logs" : "0xa13f02bd34ba9597139d24fc87a53ee276d74c3ee716ff8d52dcab6bae93f7a7",
                    "txbytes" : "0xf885800a8401ba814094cccccccccccccccccccccccccccccccccccccccc01a4693c613900000000000000000000000000000000000000000000000000000000000000041ba03fbab7e66d34067dc796d0476f420679bc07628b4a69d1273c09b75aca056477a053103b2d0ba9aa3e60e8225135fcfa5a7f6b2d11c51047272ca17c328f2efc48"
                },
                {
                    "hash" : "0x8ef8a6aa6a8d75c81da33dfb837a8eb66fd358eb8dc002d2d81c05fa74859943",
                    "indexes" : {
                        "data" : 5,
                        "gas" : 0,
                        "value" : 0
                    },
                    "logs" : "0xcd28418ca7c40dcc06d3b9d2c4ce996d873e8995615e389c4c8bbc596f7f5eae",
                    "txbytes" : "0xf885800a8401ba814094cccccccccccccccccccccccccccccccccccccccc01a4693c613900000000000000000000000000000000000000000000000000000000000000051ba05f52a438f648ee70213c86295b583cd640cbcead8a0bc16b0238104da39d664fa0075f22d47ddd604ed4c83e38eeb7904811c4f0a22f8c6aad3978996b09a66339"
                },
                {
                    "hash" : "0x8ef8a6aa6a8d75c81da33dfb837a8eb66fd358eb8dc002d2d81c05fa74859943",
                    "indexes" : {
                        "data" : 6,
                        "gas" : 0,
                        "value" : 0
                    },
                    "logs" : "0xae8ff79be2ff33bb29588f17c425bb856937e3eb889f9595299eec0581184fd1",
                    "txbytes" : "0xf885800a8401ba814094cccccccccccccccccccccccccccccccccccccccc01a4693c613900000000000000000000000000000000000000000000000000000000000000061ca05575830943c824d434dc3cb30519886334e90e11b353989a062f5b65d06d3397a07b432538e227abcefa2d7fbc0514459374e5f54dfb969a68a4250a771c3ea665"
                },
                {
                    "hash" : "0xc818059618232744af3bd8d2e4cdbf5bdc90bacfe35efab0d51efa26b4123483",
                    "indexes" : {
                        "data" : 7,
                        "gas" : 0,
                        "value" : 0
                    },
                    "logs" : "0x8158c4dd9e2ec309f0ecf2edd274b27663e8075c3bb8b0357b040d1484a2930e",
                    "txbytes" : "0xf885800a8401ba814094cccccccccccccccccccccccccccccccccccccccc01a4693c6139000000000000000000000000000000000000000000000000000000000000000a1ca07a32e8b4b780c827683a6b6082b08f588ac2d99347ee53908f0045b66f2452bea046b2c1cd657e57950d6f2995a9af1abc2fd8ed39a398329981bcbe1432db0464"
                },
                {
                    "hash" : "0xd278c97d02be78505494b11abcd4c57d5478fa4efd72db4b9f7073b417f41765",
                    "indexes" : {
                        "data" : 1,
                        "gas" : 0,
                        "value" : 0
                    },
                    "logs" : "0x1dcc4de8dec75d7aab85b567b6ccd41ad312451b948a7413f0a142fd40d49347",
                    "txbytes" : "0xf885800a8401ba814094cccccccccccccccccccccccccccccccccccccccc01a4693c613900000000000000000000000000000000000000000000000000000000000000011ca0460aa506804a9e657c91be62de96f457fe1ccf03b2cdbb1056464ca719b39bffa0161d8490ac2eccf337aeb0fb008ee7a9c2215bc8bc64f0b492d5040a4514589f"
                },
                {
                    "hash" : "0xd278c97d02be78505494b11abcd4c57d5478fa4efd72db4b9f7073b417f41765",
                    "indexes" : {
                        "data" : 2,
                        "gas" : 0,
                        "value" : 0
                    },
                    "logs" : "0x1dcc4de8dec75d7aab85b567b6ccd41ad312451b948a7413f0a142fd40d49347",
                    "txbytes" : "0xf885800a8401ba814094cccccccccccccccccccccccccccccccccccccccc01a4693c613900000000000000000000000000000000000000000000000000000000000000021ba0f3570e9410d7c03667e646751038032b0f5b7c4f5642ff56b398457f153d9b39a0797fa257c96ab8223dfe54af1f92bb538e66b86f16adc36aaa00a154b1294d97"
                }
            ],
            "Merge" : [
                {
                    "hash" : "0x7c6f1fd51857d994576a5294fed3fc38f2a216d86c83c56b17f3e2554a0893ba",
                    "indexes" : {
                        "data" : 0,
                        "gas" : 0,
                        "value" : 0
                    },
                    "logs" : "0x1ae9fd79989921bc833057bee34b7db08d408220c2a189297be17229a7cd010f",
                    "txbytes" : "0xf885800a8401ba814094cccccccccccccccccccccccccccccccccccccccc01a4693c613900000000000000000000000000000000000000000000000000000000000000001ba0567dec507c79f321aee5fe9acb87eb5be80ec557580c0b11fc8bfc03a49e99e5a00d2e9d241a2cb2cb22b85db9c9e593d28a04ad4022de3814ac79a194c97aa497"
                },
                {
                    "hash" : "0xb13042c5e06002eaab4473c521188aea43f6e29b2c7c135a0fdcba7fa9b93d7a",
                    "indexes" : {
                        "data" : 3,
                        "gas" : 0,
                        "value" : 0
                    },
                    "logs" : "0x1ae9fd79989921bc833057bee34b7db08d408220c2a189297be17229a7cd010f",
                    "txbytes" : "0xf885800a8401ba814094cccccccccccccccccccccccccccccccccccccccc01a4693c613900000000000000000000000000000000000000000000000000000000000000031ca0324f9dee6c04ba7a8f965b73adb769b5465e8f0715474c70b9db67ac446d0e24a02122f082939a61ee4bb3163055d2b2c0441c7c7d45d6b0c808eee7894664a36e"
                },
                {
                    "hash" : "0x8f9de45ddab95a092507917fc22d2a6880671185cc2a8361e75fd95039a3de68",
                    "indexes" : {
                        "data" : 4,
                        "gas" : 0,
                        "value" : 0
                    },
                    "logs" : "0xa13f02bd34ba9597139d24fc87a53ee276d74c3ee716ff8d52dcab6bae93f7a7",
                    "txbytes" : "0xf885800a8401ba814094cccccccccccccccccccccccccccccccccccccccc01a4693c613900000000000000000000000000000000000000000000000000000000000000041ba03fbab7e66d34067dc796d0476f420679bc07628b4a69d1273c09b75aca056477a053103b2d0ba9aa3e60e8225135fcfa5a7f6b2d11c51047272ca17c328f2efc48"
                },
                {
                    "hash" : "0x8ef8a6aa6a8d75c81da33dfb837a8eb66fd358eb8dc002d2d81c05fa74859943",
                    "indexes" : {
                        "data" : 5,
                        "gas" : 0,
                        "value" : 0
                    },
                    "logs" : "0xcd28418ca7c40dcc06d3b9d2c4ce996d873e8995615e389c4c8bbc596f7f5eae",
                    "txbytes" : "0xf885800a8401ba814094cccccccccccccccccccccccccccccccccccccccc01a4693c613900000000000000000000000000000000000000000000000000000000000000051ba05f52a438f648ee70213c86295b583cd640cbcead8a0bc16b0238104da39d664fa0075f22d47ddd604ed4c83e38eeb7904811c4f0a22f8c6aad3978996b09a66339"
                },
                {
                    "hash" : "0x8ef8a6aa6a8d75c81da33dfb837a8eb66fd358eb8dc002d2d81c05fa74859943",
                    "indexes" : {
                        "data" : 6,
                        "gas" : 0,
                        "value" : 0
                    },
                    "logs" : "0xae8ff79be2ff33bb29588f17c425bb856937e3eb889f9595299eec0581184fd1",
                    "txbytes" : "0xf885800a8401ba814094cccccccccccccccccccccccccccccccccccccccc01a4693c613900000000000000000000000000000000000000000000000000000000000000061ca05575830943c824d434dc3cb30519886334e90e11b353989a062f5b65d06d3397a07b432538e227abcefa2d7fbc0514459374e5f54dfb969a68a4250a771c3ea665"
                },
                {
                    "hash" : "0xc818059618232744af3bd8d2e4cdbf5bdc90bacfe35efab0d51efa26b4123483",
                    "indexes" : {
                        "data" : 7,
                        "gas" : 0,
                        "value" : 0
                    },
                    "logs" : "0x8158c4dd9e2ec309f0ecf2edd274b27663e8075c3bb8b0357b040d1484a2930e",
                    "txbytes" : "0xf885800a8401ba814094cccccccccccccccccccccccccccccccccccccccc01a4693c6139000000000000000000000000000000000000000000000000000000000000000a1ca07a32e8b4b780c827683a6b6082b08f588ac2d99347ee53908f0045b66f2452bea046b2c1cd657e57950d6f2995a9af1abc2fd8ed39a398329981bcbe1432db0464"
                },
                {
                    "hash" : "0xd278c97d02be78505494b11abcd4c57d5478fa4efd72db4b9f7073b417f41765",
                    "indexes" : {
                        "data" : 1,
                        "gas" : 0,
                        "value" : 0
                    },
                    "logs" : "0x1dcc4de8dec75d7aab85b567b6ccd41ad312451b948a7413f0a142fd40d49347",
                    "txbytes" : "0xf885800a8401ba814094cccccccccccccccccccccccccccccccccccccccc01a4693c613900000000000000000000000000000000000000000000000000000000000000011ca0460aa506804a9e657c91be62de96f457fe1ccf03b2cdbb1056464ca719b39bffa0161d8490ac2eccf337aeb0fb008ee7a9c2215bc8bc64f0b492d5040a4514589f"
                },
                {
                    "hash" : "0xd278c97d02be78505494b11abcd4c57d5478fa4efd72db4b9f7073b417f41765",
                    "indexes" : {
                        "data" : 2,
                        "gas" : 0,
                        "value" : 0
                    },
                    "logs" : "0x1dcc4de8dec75d7aab85b567b6ccd41ad312451b948a7413f0a142fd40d49347",
                    "txbytes" : "0xf885800a8401ba814094cccccccccccccccccccccccccccccccccccccccc01a4693c613900000000000000000000000000000000000000000000000000000000000000021ba0f3570e9410d7c03667e646751038032b0f5b7c4f5642ff56b398457f153d9b39a0797fa257c96ab8223dfe54af1f92bb538e66b86f16adc36aaa00a154b1294d97"
                }
            ]
        },
        "pre" : {
            "0x0000000000000000000000000000000000000100" : {
                "balance" : "0x0ba1a9ce0ba1a9ce",
                "code" : "0x60006000a061600d60005500",
                "nonce" : "0x00",
                "storage" : {
                }
            },
            "0x0000000000000000000000000000000000000101" : {
                "balance" : "0x0ba1a9ce0ba1a9ce",
                "code" : "0x7faabbffffffffffffffffffffffffffffffffffffffffffffffffffffffffccdd60005260017fffffffffffffffffffffffffffffffffffffffffffffffffffffffffffffffffa061600d60005500",
                "nonce" : "0x00",
                "storage" : {
                }
            },
            "0x0000000000000000000000000000000000000102" : {
                "balance" : "0x0ba1a9ce0ba1a9ce",
                "code" : "0x7faabbffffffffffffffffffffffffffffffffffffffffffffffffffffffffccdd6000527fffffffffffffffffffffffffffffffffffffffffffffffffffffffffffffffff6001a061600d60005500",
                "nonce" : "0x00",
                "storage" : {
                }
            },
            "0x0000000000000000000000000000000000000103" : {
                "balance" : "0x0ba1a9ce0ba1a9ce",
                "code" : "0x7faabbffffffffffffffffffffffffffffffffffffffffffffffffffffffffccdd60005260006001a061600d60005500",
                "nonce" : "0x00",
                "storage" : {
                }
            },
            "0x0000000000000000000000000000000000000104" : {
                "balance" : "0x0ba1a9ce0ba1a9ce",
                "code" : "0x7fffffffffffffffffffffffffffffffffffffffffffffffffffffffffffffffff60005260206000a061600d60005500",
                "nonce" : "0x00",
                "storage" : {
                }
            },
            "0x0000000000000000000000000000000000000105" : {
                "balance" : "0x0ba1a9ce0ba1a9ce",
                "code" : "0x7faabbffffffffffffffffffffffffffffffffffffffffffffffffffffffffccdd60005260016000a061600d60005500",
                "nonce" : "0x00",
                "storage" : {
                }
            },
            "0x0000000000000000000000000000000000000106" : {
                "balance" : "0x0ba1a9ce0ba1a9ce",
                "code" : "0x7faabbffffffffffffffffffffffffffffffffffffffffffffffffffffffffccdd6000526001601fa061600d60005500",
                "nonce" : "0x00",
                "storage" : {
                }
            },
            "0x000000000000000000000000000000000000010a" : {
                "balance" : "0x0ba1a9ce0ba1a9ce",
                "code" : "0x7faabbffffffffffffffffffffffffffffffffffffffffffffffffffffffffccdd60005260206000a060106002a061600d60005500",
                "nonce" : "0x00",
                "storage" : {
                }
            },
            "0xa94f5374fce5edbc8e2a8697c15331677e6ebf0b" : {
                "balance" : "0x100000000000",
                "code" : "0x",
                "nonce" : "0x00",
                "storage" : {
                }
            },
            "0xcccccccccccccccccccccccccccccccccccccccc" : {
                "balance" : "0x0ba1a9ce0ba1a9ce",
                "code" : "0x6000600060006000600435610100015af400",
                "nonce" : "0x00",
                "storage" : {
                    "0x00" : "0x0bad"
                }
            }
        },
        "transaction" : {
            "data" : [
                "0x693c61390000000000000000000000000000000000000000000000000000000000000000",
                "0x693c61390000000000000000000000000000000000000000000000000000000000000001",
                "0x693c61390000000000000000000000000000000000000000000000000000000000000002",
                "0x693c61390000000000000000000000000000000000000000000000000000000000000003",
                "0x693c61390000000000000000000000000000000000000000000000000000000000000004",
                "0x693c61390000000000000000000000000000000000000000000000000000000000000005",
                "0x693c61390000000000000000000000000000000000000000000000000000000000000006",
                "0x693c6139000000000000000000000000000000000000000000000000000000000000000a"
            ],
            "gasLimit" : [
                "0x01ba8140"
            ],
            "gasPrice" : "0x0a",
            "nonce" : "0x00",
            "secretKey" : "0x45a915e4d060149eb4365960e6a7a45f334393093061116b197e3240065ff2d8",
            "sender" : "0xa94f5374fce5edbc8e2a8697c15331677e6ebf0b",
            "to" : "0xcccccccccccccccccccccccccccccccccccccccc",
            "value" : [
                "0x01"
            ]
        }
    }
}