{
    "log2" : {
        "_info" : {
            "comment" : "Ori Pomerantz qbzzt1@gmail.com",
            "filling-rpc-server" : "evm version 1.11.0-unstable-262bd38f-20221210",
            "filling-tool-version" : "retesteth-0.2.3-postmerge+commit.17808a69.Linux.g++",
            "generatedTestHash" : "6d2dd494d495914a7db7587d5e21d7fa9388123045aa7f9515651be4391fe250",
            "labels" : {
                "0" : "emptyMem",
                "1" : "memStartTooHigh",
                "2" : "memSizeTooHigh",
                "3" : "memSizeZero",
                "4" : "nonEmptyMem",
                "5" : "log_0_1",
                "6" : "log_31_1",
                "7" : "caller",
                "8" : "maxTopic"
            },
            "lllcversion" : "Version: 0.5.14-develop.2021.4.29+commit.14c9d5de.Linux.clang",
            "solidity" : "Version: 0.8.17-develop.2022.9.30+commit.8df45f5f.Linux.clang",
            "source" : "src/GeneralStateTestsFiller/VMTests/vmLogTest/log2Filler.yml",
            "sourceHash" : "1f243aa264d111504ae49508ae8b8393cd286efb2ae71705d4f7af0a0a47f343"
        },
        "env" : {
            "currentBaseFee" : "0x0a",
            "currentCoinbase" : "0x2adc25665018aa1fe0e6bc666dac8fc2697ff9ba",
            "currentDifficulty" : "0x020000",
            "currentGasLimit" : "0x05f5e100",
            "currentNumber" : "0x01",
            "currentRandom" : "0x0000000000000000000000000000000000000000000000000000000000020000",
            "currentTimestamp" : "0x03e8",
            "previousHash" : "0x5e20a0453cecd065ea59c37ac63e079ee08998b6045136a8ce6635c7912ec0b6"
        },
        "post" : {
            "Berlin" : [
                {
                    "hash" : "0x415b6d14187e07b26f33514406659d8a82207b08bf46e82c56adeaf58879d4a7",
                    "indexes" : {
                        "data" : 0,
                        "gas" : 0,
                        "value" : 0
                    },
                    "logs" : "0xa0ad4cc3b9b1f2235d984d26e2a4fd8db9cb0784a7433fc5e1ad4cbe635c420a",
                    "txbytes" : "0xf885800a8401ba814094cccccccccccccccccccccccccccccccccccccccc01a4693c613900000000000000000000000000000000000000000000000000000000000000001ba0567dec507c79f321aee5fe9acb87eb5be80ec557580c0b11fc8bfc03a49e99e5a00d2e9d241a2cb2cb22b85db9c9e593d28a04ad4022de3814ac79a194c97aa497"
                },
                {
                    "hash" : "0xc9759b95e087d824edad3df445dd00b3071a2c7c1a7e958e944744dc45ec3ed1",
                    "indexes" : {
                        "data" : 3,
                        "gas" : 0,
                        "value" : 0
                    },
                    "logs" : "0xa0ad4cc3b9b1f2235d984d26e2a4fd8db9cb0784a7433fc5e1ad4cbe635c420a",
                    "txbytes" : "0xf885800a8401ba814094cccccccccccccccccccccccccccccccccccccccc01a4693c613900000000000000000000000000000000000000000000000000000000000000031ca0324f9dee6c04ba7a8f965b73adb769b5465e8f0715474c70b9db67ac446d0e24a02122f082939a61ee4bb3163055d2b2c0441c7c7d45d6b0c808eee7894664a36e"
                },
                {
                    "hash" : "0x2016d9e0b58bc90116ca275a1a25ae1512fa29f3c15678149ddd2acc7fcd97a7",
                    "indexes" : {
                        "data" : 4,
                        "gas" : 0,
                        "value" : 0
                    },
                    "logs" : "0xcc4f84ff1703bf76a94f6d18685f5aa92389f614cd23e823247b7b4dac760e2b",
                    "txbytes" : "0xf885800a8401ba814094cccccccccccccccccccccccccccccccccccccccc01a4693c613900000000000000000000000000000000000000000000000000000000000000041ba03fbab7e66d34067dc796d0476f420679bc07628b4a69d1273c09b75aca056477a053103b2d0ba9aa3e60e8225135fcfa5a7f6b2d11c51047272ca17c328f2efc48"
                },
                {
                    "hash" : "0x9ac54b4719514b9169a1632c6467360166395118a0f439dfe299d78bcddf8244",
                    "indexes" : {
                        "data" : 5,
                        "gas" : 0,
                        "value" : 0
                    },
                    "logs" : "0x2a5309efe3140e824b3fc01a44d40dfc4195559a607273fc21270d1b557e7bed",
                    "txbytes" : "0xf885800a8401ba814094cccccccccccccccccccccccccccccccccccccccc01a4693c613900000000000000000000000000000000000000000000000000000000000000051ba05f52a438f648ee70213c86295b583cd640cbcead8a0bc16b0238104da39d664fa0075f22d47ddd604ed4c83e38eeb7904811c4f0a22f8c6aad3978996b09a66339"
                },
                {
                    "hash" : "0x9ac54b4719514b9169a1632c6467360166395118a0f439dfe299d78bcddf8244",
                    "indexes" : {
                        "data" : 6,
                        "gas" : 0,
                        "value" : 0
                    },
                    "logs" : "0x9204e2be2656af9e0ae9d695e25d94c026401c6dadc270b309c8b5bf8fe2bfa6",
                    "txbytes" : "0xf885800a8401ba814094cccccccccccccccccccccccccccccccccccccccc01a4693c613900000000000000000000000000000000000000000000000000000000000000061ca05575830943c824d434dc3cb30519886334e90e11b353989a062f5b65d06d3397a07b432538e227abcefa2d7fbc0514459374e5f54dfb969a68a4250a771c3ea665"
                },
                {
                    "hash" : "0x7c5a1aa0546a426c18b7b17e8749e676f78df5b2c9b3232d2ac0aa3f251fc76b",
                    "indexes" : {
                        "data" : 7,
                        "gas" : 0,
                        "value" : 0
                    },
                    "logs" : "0x5b635076f52914b8b430a38c8e9a4f385b7a4688fe5f0d9afc48f8759558b2f5",
                    "txbytes" : "0xf885800a8401ba814094cccccccccccccccccccccccccccccccccccccccc01a4693c613900000000000000000000000000000000000000000000000000000000000000071ca0841684fac3b4ccebc609d76ce76ee17093e2a6d6a3665cc542bcde1afd38227ea07ff01c245381e13f831021548cb7f7731f7426dffb2fb3046c00fa2cbce5531f"
                },
                {
                    "hash" : "0xb8a0aa39689274a07572658c02c951f0833e80824df1810b0b97391c4e8266c4",
                    "indexes" : {
                        "data" : 8,
                        "gas" : 0,
                        "value" : 0
                    },
                    "logs" : "0x3f501839a7af2fa7d063e2d8c456adde9ea462c6c8f5f2905f13df9065113f16",
                    "txbytes" : "0xf885800a8401ba814094cccccccccccccccccccccccccccccccccccccccc01a4693c613900000000000000000000000000000000000000000000000000000000000000081ba0580f60284c01b0ce2958cf7450a5c2fc91678a6cc3957803703341a233080de6a07de8dc7d1dffc99cc8c909b838a621f56bf5dec7b6f29c38c1bdc923f6e24287"
                },
                {
                    "hash" : "0x78f62657f7ea42b7dc7d99498480bc400bb19e4d9d12447aedd327fd6cf8918f",
                    "indexes" : {
                        "data" : 1,
                        "gas" : 0,
                        "value" : 0
                    },
                    "logs" : "0x1dcc4de8dec75d7aab85b567b6ccd41ad312451b948a7413f0a142fd40d49347",
                    "txbytes" : "0xf885800a8401ba814094cccccccccccccccccccccccccccccccccccccccc01a4693c613900000000000000000000000000000000000000000000000000000000000000011ca0460aa506804a9e657c91be62de96f457fe1ccf03b2cdbb1056464ca719b39bffa0161d8490ac2eccf337aeb0fb008ee7a9c2215bc8bc64f0b492d5040a4514589f"
                },
                {
                    "hash" : "0x78f62657f7ea42b7dc7d99498480bc400bb19e4d9d12447aedd327fd6cf8918f",
                    "indexes" : {
                        "data" : 2,
                        "gas" : 0,
                        "value" : 0
                    },
                    "logs" : "0x1dcc4de8dec75d7aab85b567b6ccd41ad312451b948a7413f0a142fd40d49347",
                    "txbytes" : "0xf885800a8401ba814094cccccccccccccccccccccccccccccccccccccccc01a4693c613900000000000000000000000000000000000000000000000000000000000000021ba0f3570e9410d7c03667e646751038032b0f5b7c4f5642ff56b398457f153d9b39a0797fa257c96ab8223dfe54af1f92bb538e66b86f16adc36aaa00a154b1294d97"
                }
            ],
            "Istanbul" : [
                {
                    "hash" : "0x82a323f02abfeeaaf4aae35b9766de612911b1343cce1b16dec350d05177c9e7",
                    "indexes" : {
                        "data" : 0,
                        "gas" : 0,
                        "value" : 0
                    },
                    "logs" : "0xa0ad4cc3b9b1f2235d984d26e2a4fd8db9cb0784a7433fc5e1ad4cbe635c420a",
                    "txbytes" : "0xf885800a8401ba814094cccccccccccccccccccccccccccccccccccccccc01a4693c613900000000000000000000000000000000000000000000000000000000000000001ba0567dec507c79f321aee5fe9acb87eb5be80ec557580c0b11fc8bfc03a49e99e5a00d2e9d241a2cb2cb22b85db9c9e593d28a04ad4022de3814ac79a194c97aa497"
                },
                {
                    "hash" : "0xcbd7f88c49e1a53ae604446d91c7a62325ccc40e63ec6b0a129e35e5b3d2dab0",
                    "indexes" : {
                        "data" : 3,
                        "gas" : 0,
                        "value" : 0
                    },
                    "logs" : "0xa0ad4cc3b9b1f2235d984d26e2a4fd8db9cb0784a7433fc5e1ad4cbe635c420a",
                    "txbytes" : "0xf885800a8401ba814094cccccccccccccccccccccccccccccccccccccccc01a4693c613900000000000000000000000000000000000000000000000000000000000000031ca0324f9dee6c04ba7a8f965b73adb769b5465e8f0715474c70b9db67ac446d0e24a02122f082939a61ee4bb3163055d2b2c0441c7c7d45d6b0c808eee7894664a36e"
                },
                {
                    "hash" : "0xa0dc18606c9641128841e07c1833613db95c6bc3060c251b6acb214e8b278889",
                    "indexes" : {
                        "data" : 4,
                        "gas" : 0,
                        "value" : 0
                    },
                    "logs" : "0xcc4f84ff1703bf76a94f6d18685f5aa92389f614cd23e823247b7b4dac760e2b",
                    "txbytes" : "0xf885800a8401ba814094cccccccccccccccccccccccccccccccccccccccc01a4693c613900000000000000000000000000000000000000000000000000000000000000041ba03fbab7e66d34067dc796d0476f420679bc07628b4a69d1273c09b75aca056477a053103b2d0ba9aa3e60e8225135fcfa5a7f6b2d11c51047272ca17c328f2efc48"
                },
                {
                    "hash" : "0x7af81c9409fbdbd188f3559c55a153c41383f9d874490e8558e0565c34c372a8",
                    "indexes" : {
                        "data" : 5,
                        "gas" : 0,
                        "value" : 0
                    },
                    "logs" : "0x2a5309efe3140e824b3fc01a44d40dfc4195559a607273fc21270d1b557e7bed",
                    "txbytes" : "0xf885800a8401ba814094cccccccccccccccccccccccccccccccccccccccc01a4693c613900000000000000000000000000000000000000000000000000000000000000051ba05f52a438f648ee70213c86295b583cd640cbcead8a0bc16b0238104da39d664fa0075f22d47ddd604ed4c83e38eeb7904811c4f0a22f8c6aad3978996b09a66339"
                },
                {
                    "hash" : "0x7af81c9409fbdbd188f3559c55a153c41383f9d874490e8558e0565c34c372a8",
                    "indexes" : {
                        "data" : 6,
                        "gas" : 0,
                        "value" : 0
                    },
                    "logs" : "0x9204e2be2656af9e0ae9d695e25d94c026401c6dadc270b309c8b5bf8fe2bfa6",
                    "txbytes" : "0xf885800a8401ba814094cccccccccccccccccccccccccccccccccccccccc01a4693c613900000000000000000000000000000000000000000000000000000000000000061ca05575830943c824d434dc3cb30519886334e90e11b353989a062f5b65d06d3397a07b432538e227abcefa2d7fbc0514459374e5f54dfb969a68a4250a771c3ea665"
                },
                {
                    "hash" : "0xd84c184ff9447dd3c700dce2a89dabbe1fe57bfc77cd5276b373fe3ca4373bdf",
                    "indexes" : {
                        "data" : 7,
                        "gas" : 0,
                        "value" : 0
                    },
                    "logs" : "0x5b635076f52914b8b430a38c8e9a4f385b7a4688fe5f0d9afc48f8759558b2f5",
                    "txbytes" : "0xf885800a8401ba814094cccccccccccccccccccccccccccccccccccccccc01a4693c613900000000000000000000000000000000000000000000000000000000000000071ca0841684fac3b4ccebc609d76ce76ee17093e2a6d6a3665cc542bcde1afd38227ea07ff01c245381e13f831021548cb7f7731f7426dffb2fb3046c00fa2cbce5531f"
                },
                {
                    "hash" : "0x5813072e2fdb6f0ec13973ed888e675d1b415c1f251acdbc5f4bbc479f1bda38",
                    "indexes" : {
                        "data" : 8,
                        "gas" : 0,
                        "value" : 0
                    },
                    "logs" : "0x3f501839a7af2fa7d063e2d8c456adde9ea462c6c8f5f2905f13df9065113f16",
                    "txbytes" : "0xf885800a8401ba814094cccccccccccccccccccccccccccccccccccccccc01a4693c613900000000000000000000000000000000000000000000000000000000000000081ba0580f60284c01b0ce2958cf7450a5c2fc91678a6cc3957803703341a233080de6a07de8dc7d1dffc99cc8c909b838a621f56bf5dec7b6f29c38c1bdc923f6e24287"
                },
                {
                    "hash" : "0xe0dc2a9adb53c050fb5a9b05e16321ecf4f5712f8ca79d5b33bd7bbd5a0179fe",
                    "indexes" : {
                        "data" : 1,
                        "gas" : 0,
                        "value" : 0
                    },
                    "logs" : "0x1dcc4de8dec75d7aab85b567b6ccd41ad312451b948a7413f0a142fd40d49347",
                    "txbytes" : "0xf885800a8401ba814094cccccccccccccccccccccccccccccccccccccccc01a4693c613900000000000000000000000000000000000000000000000000000000000000011ca0460aa506804a9e657c91be62de96f457fe1ccf03b2cdbb1056464ca719b39bffa0161d8490ac2eccf337aeb0fb008ee7a9c2215bc8bc64f0b492d5040a4514589f"
                },
                {
                    "hash" : "0xe0dc2a9adb53c050fb5a9b05e16321ecf4f5712f8ca79d5b33bd7bbd5a0179fe",
                    "indexes" : {
                        "data" : 2,
                        "gas" : 0,
                        "value" : 0
                    },
                    "logs" : "0x1dcc4de8dec75d7aab85b567b6ccd41ad312451b948a7413f0a142fd40d49347",
                    "txbytes" : "0xf885800a8401ba814094cccccccccccccccccccccccccccccccccccccccc01a4693c613900000000000000000000000000000000000000000000000000000000000000021ba0f3570e9410d7c03667e646751038032b0f5b7c4f5642ff56b398457f153d9b39a0797fa257c96ab8223dfe54af1f92bb538e66b86f16adc36aaa00a154b1294d97"
                }
            ],
            "London" : [
                {
                    "hash" : "0xc3945db338db2b0f8fcaed515f3fcc78d0b902e92b1b5302d874ef6ea07cd9b7",
                    "indexes" : {
                        "data" : 0,
                        "gas" : 0,
                        "value" : 0
                    },
                    "logs" : "0xa0ad4cc3b9b1f2235d984d26e2a4fd8db9cb0784a7433fc5e1ad4cbe635c420a",
                    "txbytes" : "0xf885800a8401ba814094cccccccccccccccccccccccccccccccccccccccc01a4693c613900000000000000000000000000000000000000000000000000000000000000001ba0567dec507c79f321aee5fe9acb87eb5be80ec557580c0b11fc8bfc03a49e99e5a00d2e9d241a2cb2cb22b85db9c9e593d28a04ad4022de3814ac79a194c97aa497"
                },
                {
                    "hash" : "0x4b8311071953505bd41709d166799f7937e0c70bf621a7daa820ba65b5beba1a",
                    "indexes" : {
                        "data" : 3,
                        "gas" : 0,
                        "value" : 0
                    },
                    "logs" : "0xa0ad4cc3b9b1f2235d984d26e2a4fd8db9cb0784a7433fc5e1ad4cbe635c420a",
                    "txbytes" : "0xf885800a8401ba814094cccccccccccccccccccccccccccccccccccccccc01a4693c613900000000000000000000000000000000000000000000000000000000000000031ca0324f9dee6c04ba7a8f965b73adb769b5465e8f0715474c70b9db67ac446d0e24a02122f082939a61ee4bb3163055d2b2c0441c7c7d45d6b0c808eee7894664a36e"
                },
                {
                    "hash" : "0x03b19089b4662365ec6da924fe381c8a7fe16ba5d6f576ae0ad6dcd8f1996f34",
                    "indexes" : {
                        "data" : 4,
                        "gas" : 0,
                        "value" : 0
                    },
                    "logs" : "0xcc4f84ff1703bf76a94f6d18685f5aa92389f614cd23e823247b7b4dac760e2b",
                    "txbytes" : "0xf885800a8401ba814094cccccccccccccccccccccccccccccccccccccccc01a4693c613900000000000000000000000000000000000000000000000000000000000000041ba03fbab7e66d34067dc796d0476f420679bc07628b4a69d1273c09b75aca056477a053103b2d0ba9aa3e60e8225135fcfa5a7f6b2d11c51047272ca17c328f2efc48"
                },
                {
                    "hash" : "0x010f1f0324141a427937640f43478b7a643ebbac5f38a07910302698e3580717",
                    "indexes" : {
                        "data" : 5,
                        "gas" : 0,
                        "value" : 0
                    },
                    "logs" : "0x2a5309efe3140e824b3fc01a44d40dfc4195559a607273fc21270d1b557e7bed",
                    "txbytes" : "0xf885800a8401ba814094cccccccccccccccccccccccccccccccccccccccc01a4693c613900000000000000000000000000000000000000000000000000000000000000051ba05f52a438f648ee70213c86295b583cd640cbcead8a0bc16b0238104da39d664fa0075f22d47ddd604ed4c83e38eeb7904811c4f0a22f8c6aad3978996b09a66339"
                },
                {
                    "hash" : "0x010f1f0324141a427937640f43478b7a643ebbac5f38a07910302698e3580717",
                    "indexes" : {
                        "data" : 6,
                        "gas" : 0,
                        "value" : 0
                    },
                    "logs" : "0x9204e2be2656af9e0ae9d695e25d94c026401c6dadc270b309c8b5bf8fe2bfa6",
                    "txbytes" : "0xf885800a8401ba814094cccccccccccccccccccccccccccccccccccccccc01a4693c613900000000000000000000000000000000000000000000000000000000000000061ca05575830943c824d434dc3cb30519886334e90e11b353989a062f5b65d06d3397a07b432538e227abcefa2d7fbc0514459374e5f54dfb969a68a4250a771c3ea665"
                },
                {
                    "hash" : "0x19d00aea2cd113da4597dd98c539208563e0034c711e141c2c9ac93b55aa7451",
                    "indexes" : {
                        "data" : 7,
                        "gas" : 0,
                        "value" : 0
                    },
                    "logs" : "0x5b635076f52914b8b430a38c8e9a4f385b7a4688fe5f0d9afc48f8759558b2f5",
                    "txbytes" : "0xf885800a8401ba814094cccccccccccccccccccccccccccccccccccccccc01a4693c613900000000000000000000000000000000000000000000000000000000000000071ca0841684fac3b4ccebc609d76ce76ee17093e2a6d6a3665cc542bcde1afd38227ea07ff01c245381e13f831021548cb7f7731f7426dffb2fb3046c00fa2cbce5531f"
                },
                {
                    "hash" : "0xcfa1cade39ec52fadf0e573edf1dfe7f11ce51542be2c7742cf5391cd9e7f4ec",
                    "indexes" : {
                        "data" : 8,
                        "gas" : 0,
                        "value" : 0
                    },
                    "logs" : "0x3f501839a7af2fa7d063e2d8c456adde9ea462c6c8f5f2905f13df9065113f16",
                    "txbytes" : "0xf885800a8401ba814094cccccccccccccccccccccccccccccccccccccccc01a4693c613900000000000000000000000000000000000000000000000000000000000000081ba0580f60284c01b0ce2958cf7450a5c2fc91678a6cc3957803703341a233080de6a07de8dc7d1dffc99cc8c909b838a621f56bf5dec7b6f29c38c1bdc923f6e24287"
                },
                {
                    "hash" : "0x086c3493778ea88db0b7450c3bdb40942c971ce169c23ecbceae2f24cb6ecf09",
                    "indexes" : {
                        "data" : 1,
                        "gas" : 0,
                        "value" : 0
                    },
                    "logs" : "0x1dcc4de8dec75d7aab85b567b6ccd41ad312451b948a7413f0a142fd40d49347",
                    "txbytes" : "0xf885800a8401ba814094cccccccccccccccccccccccccccccccccccccccc01a4693c613900000000000000000000000000000000000000000000000000000000000000011ca0460aa506804a9e657c91be62de96f457fe1ccf03b2cdbb1056464ca719b39bffa0161d8490ac2eccf337aeb0fb008ee7a9c2215bc8bc64f0b492d5040a4514589f"
                },
                {
                    "hash" : "0x086c3493778ea88db0b7450c3bdb40942c971ce169c23ecbceae2f24cb6ecf09",
                    "indexes" : {
                        "data" : 2,
                        "gas" : 0,
                        "value" : 0
                    },
                    "logs" : "0x1dcc4de8dec75d7aab85b567b6ccd41ad312451b948a7413f0a142fd40d49347",
                    "txbytes" : "0xf885800a8401ba814094cccccccccccccccccccccccccccccccccccccccc01a4693c613900000000000000000000000000000000000000000000000000000000000000021ba0f3570e9410d7c03667e646751038032b0f5b7c4f5642ff56b398457f153d9b39a0797fa257c96ab8223dfe54af1f92bb538e66b86f16adc36aaa00a154b1294d97"
                }
            ],
            "Merge" : [
                {
                    "hash" : "0xc3945db338db2b0f8fcaed515f3fcc78d0b902e92b1b5302d874ef6ea07cd9b7",
                    "indexes" : {
                        "data" : 0,
                        "gas" : 0,
                        "value" : 0
                    },
                    "logs" : "0xa0ad4cc3b9b1f2235d984d26e2a4fd8db9cb0784a7433fc5e1ad4cbe635c420a",
                    "txbytes" : "0xf885800a8401ba814094cccccccccccccccccccccccccccccccccccccccc01a4693c613900000000000000000000000000000000000000000000000000000000000000001ba0567dec507c79f321aee5fe9acb87eb5be80ec557580c0b11fc8bfc03a49e99e5a00d2e9d241a2cb2cb22b85db9c9e593d28a04ad4022de3814ac79a194c97aa497"
                },
                {
                    "hash" : "0x4b8311071953505bd41709d166799f7937e0c70bf621a7daa820ba65b5beba1a",
                    "indexes" : {
                        "data" : 3,
                        "gas" : 0,
                        "value" : 0
                    },
                    "logs" : "0xa0ad4cc3b9b1f2235d984d26e2a4fd8db9cb0784a7433fc5e1ad4cbe635c420a",
                    "txbytes" : "0xf885800a8401ba814094cccccccccccccccccccccccccccccccccccccccc01a4693c613900000000000000000000000000000000000000000000000000000000000000031ca0324f9dee6c04ba7a8f965b73adb769b5465e8f0715474c70b9db67ac446d0e24a02122f082939a61ee4bb3163055d2b2c0441c7c7d45d6b0c808eee7894664a36e"
                },
                {
                    "hash" : "0x03b19089b4662365ec6da924fe381c8a7fe16ba5d6f576ae0ad6dcd8f1996f34",
                    "indexes" : {
                        "data" : 4,
                        "gas" : 0,
                        "value" : 0
                    },
                    "logs" : "0xcc4f84ff1703bf76a94f6d18685f5aa92389f614cd23e823247b7b4dac760e2b",
                    "txbytes" : "0xf885800a8401ba814094cccccccccccccccccccccccccccccccccccccccc01a4693c613900000000000000000000000000000000000000000000000000000000000000041ba03fbab7e66d34067dc796d0476f420679bc07628b4a69d1273c09b75aca056477a053103b2d0ba9aa3e60e8225135fcfa5a7f6b2d11c51047272ca17c328f2efc48"
                },
                {
                    "hash" : "0x010f1f0324141a427937640f43478b7a643ebbac5f38a07910302698e3580717",
                    "indexes" : {
                        "data" : 5,
                        "gas" : 0,
                        "value" : 0
                    },
                    "logs" : "0x2a5309efe3140e824b3fc01a44d40dfc4195559a607273fc21270d1b557e7bed",
                    "txbytes" : "0xf885800a8401ba814094cccccccccccccccccccccccccccccccccccccccc01a4693c613900000000000000000000000000000000000000000000000000000000000000051ba05f52a438f648ee70213c86295b583cd640cbcead8a0bc16b0238104da39d664fa0075f22d47ddd604ed4c83e38eeb7904811c4f0a22f8c6aad3978996b09a66339"
                },
                {
                    "hash" : "0x010f1f0324141a427937640f43478b7a643ebbac5f38a07910302698e3580717",
                    "indexes" : {
                        "data" : 6,
                        "gas" : 0,
                        "value" : 0
                    },
                    "logs" : "0x9204e2be2656af9e0ae9d695e25d94c026401c6dadc270b309c8b5bf8fe2bfa6",
                    "txbytes" : "0xf885800a8401ba814094cccccccccccccccccccccccccccccccccccccccc01a4693c613900000000000000000000000000000000000000000000000000000000000000061ca05575830943c824d434dc3cb30519886334e90e11b353989a062f5b65d06d3397a07b432538e227abcefa2d7fbc0514459374e5f54dfb969a68a4250a771c3ea665"
                },
                {
                    "hash" : "0x19d00aea2cd113da4597dd98c539208563e0034c711e141c2c9ac93b55aa7451",
                    "indexes" : {
                        "data" : 7,
                        "gas" : 0,
                        "value" : 0
                    },
                    "logs" : "0x5b635076f52914b8b430a38c8e9a4f385b7a4688fe5f0d9afc48f8759558b2f5",
                    "txbytes" : "0xf885800a8401ba814094cccccccccccccccccccccccccccccccccccccccc01a4693c613900000000000000000000000000000000000000000000000000000000000000071ca0841684fac3b4ccebc609d76ce76ee17093e2a6d6a3665cc542bcde1afd38227ea07ff01c245381e13f831021548cb7f7731f7426dffb2fb3046c00fa2cbce5531f"
                },
                {
                    "hash" : "0xcfa1cade39ec52fadf0e573edf1dfe7f11ce51542be2c7742cf5391cd9e7f4ec",
                    "indexes" : {
                        "data" : 8,
                        "gas" : 0,
                        "value" : 0
                    },
                    "logs" : "0x3f501839a7af2fa7d063e2d8c456adde9ea462c6c8f5f2905f13df9065113f16",
                    "txbytes" : "0xf885800a8401ba814094cccccccccccccccccccccccccccccccccccccccc01a4693c613900000000000000000000000000000000000000000000000000000000000000081ba0580f60284c01b0ce2958cf7450a5c2fc91678a6cc3957803703341a233080de6a07de8dc7d1dffc99cc8c909b838a621f56bf5dec7b6f29c38c1bdc923f6e24287"
                },
                {
                    "hash" : "0x086c3493778ea88db0b7450c3bdb40942c971ce169c23ecbceae2f24cb6ecf09",
                    "indexes" : {
                        "data" : 1,
                        "gas" : 0,
                        "value" : 0
                    },
                    "logs" : "0x1dcc4de8dec75d7aab85b567b6ccd41ad312451b948a7413f0a142fd40d49347",
                    "txbytes" : "0xf885800a8401ba814094cccccccccccccccccccccccccccccccccccccccc01a4693c613900000000000000000000000000000000000000000000000000000000000000011ca0460aa506804a9e657c91be62de96f457fe1ccf03b2cdbb1056464ca719b39bffa0161d8490ac2eccf337aeb0fb008ee7a9c2215bc8bc64f0b492d5040a4514589f"
                },
                {
                    "hash" : "0x086c3493778ea88db0b7450c3bdb40942c971ce169c23ecbceae2f24cb6ecf09",
                    "indexes" : {
                        "data" : 2,
                        "gas" : 0,
                        "value" : 0
                    },
                    "logs" : "0x1dcc4de8dec75d7aab85b567b6ccd41ad312451b948a7413f0a142fd40d49347",
                    "txbytes" : "0xf885800a8401ba814094cccccccccccccccccccccccccccccccccccccccc01a4693c613900000000000000000000000000000000000000000000000000000000000000021ba0f3570e9410d7c03667e646751038032b0f5b7c4f5642ff56b398457f153d9b39a0797fa257c96ab8223dfe54af1f92bb538e66b86f16adc36aaa00a154b1294d97"
                }
            ]
        },
        "pre" : {
            "0x0000000000000000000000000000000000000100" : {
                "balance" : "0x0ba1a9ce0ba1a9ce",
                "code" : "0x6000600060006000a261600d60005500",
                "nonce" : "0x00",
                "storage" : {
                }
            },
            "0x0000000000000000000000000000000000000101" : {
                "balance" : "0x0ba1a9ce0ba1a9ce",
                "code" : "0x7faabbffffffffffffffffffffffffffffffffffffffffffffffffffffffffccdd6000526000600060016001600003a261600d60005500",
                "nonce" : "0x00",
                "storage" : {
                }
            },
            "0x0000000000000000000000000000000000000102" : {
                "balance" : "0x0ba1a9ce0ba1a9ce",
                "code" : "0x7faabbffffffffffffffffffffffffffffffffffffffffffffffffffffffffccdd6000526000600060016000036001a261600d60005500",
                "nonce" : "0x00",
                "storage" : {
                }
            },
            "0x0000000000000000000000000000000000000103" : {
                "balance" : "0x0ba1a9ce0ba1a9ce",
                "code" : "0x7faabbffffffffffffffffffffffffffffffffffffffffffffffffffffffffccdd6000526000600060006001a261600d60005500",
                "nonce" : "0x00",
                "storage" : {
                }
            },
            "0x0000000000000000000000000000000000000104" : {
                "balance" : "0x0ba1a9ce0ba1a9ce",
                "code" : "0x7fffffffffffffffffffffffffffffffffffffffffffffffffffffffffffffffff6000526000600060206000a261600d60005500",
                "nonce" : "0x00",
                "storage" : {
                }
            },
            "0x0000000000000000000000000000000000000105" : {
                "balance" : "0x0ba1a9ce0ba1a9ce",
                "code" : "0x7faabbffffffffffffffffffffffffffffffffffffffffffffffffffffffffccdd6000526000600060016000a261600d60005500",
                "nonce" : "0x00",
                "storage" : {
                }
            },
            "0x0000000000000000000000000000000000000106" : {
                "balance" : "0x0ba1a9ce0ba1a9ce",
                "code" : "0x7faabbffffffffffffffffffffffffffffffffffffffffffffffffffffffffccdd600052600060006001601fa261600d60005500",
                "nonce" : "0x00",
                "storage" : {
                }
            },
            "0x0000000000000000000000000000000000000107" : {
                "balance" : "0x0ba1a9ce0ba1a9ce",
                "code" : "0x7faabbffffffffffffffffffffffffffffffffffffffffffffffffffffffffccdd60005233600060206000a261600d60005500",
                "nonce" : "0x00",
                "storage" : {
                }
            },
            "0x0000000000000000000000000000000000000108" : {
                "balance" : "0x0ba1a9ce0ba1a9ce",
                "code" : "0x60ff600053600160000360016000036001601fa261600d60005500",
                "nonce" : "0x00",
                "storage" : {
                }
            },
            "0xa94f5374fce5edbc8e2a8697c15331677e6ebf0b" : {
                "balance" : "0x100000000000",
                "code" : "0x",
                "nonce" : "0x00",
                "storage" : {
                }
            },
            "0xcccccccccccccccccccccccccccccccccccccccc" : {
                "balance" : "0x0ba1a9ce0ba1a9ce",
                "code" : "0x6000600060006000600435610100015af400",
                "nonce" : "0x00",
                "storage" : {
                    "0x00" : "0x0bad"
                }
            }
        },
        "transaction" : {
            "data" : [
                "0x693c61390000000000000000000000000000000000000000000000000000000000000000",
                "0x693c61390000000000000000000000000000000000000000000000000000000000000001",
                "0x693c61390000000000000000000000000000000000000000000000000000000000000002",
                "0x693c61390000000000000000000000000000000000000000000000000000000000000003",
                "0x693c61390000000000000000000000000000000000000000000000000000000000000004",
                "0x693c61390000000000000000000000000000000000000000000000000000000000000005",
                "0x693c61390000000000000000000000000000000000000000000000000000000000000006",
                "0x693c61390000000000000000000000000000000000000000000000000000000000000007",
                "0x693c61390000000000000000000000000000000000000000000000000000000000000008"
            ],
            "gasLimit" : [
                "0x01ba8140"
            ],
            "gasPrice" : "0x0a",
            "nonce" : "0x00",
            "secretKey" : "0x45a915e4d060149eb4365960e6a7a45f334393093061116b197e3240065ff2d8",
            "sender" : "0xa94f5374fce5edbc8e2a8697c15331677e6ebf0b",
            "to" : "0xcccccccccccccccccccccccccccccccccccccccc",
            "value" : [
                "0x01"
            ]
        }
    }
}