{
    "log3" : {
        "_info" : {
            "comment" : "Ori Pomerantz qbzzt1@gmail.com",
            "filling-rpc-server" : "evm version 1.11.0-unstable-262bd38f-20221210",
            "filling-tool-version" : "retesteth-0.2.3-postmerge+commit.17808a69.Linux.g++",
            "generatedTestHash" : "2b9cc78eee2f0b056c3fa3908e3132beb8ab139d8b5f3085a06cbbe8fd932b1c",
            "labels" : {
                "0" : "emptyMem",
                "1" : "memStartTooHigh",
                "2" : "memSizeTooHigh",
                "3" : "memSizeZero",
                "4" : "nonEmptyMem",
                "5" : "log_0_1",
                "6" : "log_31_1",
                "7" : "caller",
                "8" : "maxTopic",
                "9" : "pc"
            },
            "lllcversion" : "Version: 0.5.14-develop.2021.4.29+commit.14c9d5de.Linux.clang",
            "solidity" : "Version: 0.8.17-develop.2022.9.30+commit.8df45f5f.Linux.clang",
            "source" : "src/GeneralStateTestsFiller/VMTests/vmLogTest/log3Filler.yml",
            "sourceHash" : "cb01d9db2cfdfab3c7f7821f138eea470f5e9140b192238c931061cb5a0b52e7"
        },
        "env" : {
            "currentBaseFee" : "0x0a",
            "currentCoinbase" : "0x2adc25665018aa1fe0e6bc666dac8fc2697ff9ba",
            "currentDifficulty" : "0x020000",
            "currentGasLimit" : "0x05f5e100",
            "currentNumber" : "0x01",
            "currentRandom" : "0x0000000000000000000000000000000000000000000000000000000000020000",
            "currentTimestamp" : "0x03e8",
            "previousHash" : "0x5e20a0453cecd065ea59c37ac63e079ee08998b6045136a8ce6635c7912ec0b6"
        },
        "post" : {
            "Berlin" : [
                {
                    "hash" : "0x42396b9989af3c53fbcb0db0534af563a7f1cdcf02985a801ec5da5bd98d7550",
                    "indexes" : {
                        "data" : 0,
                        "gas" : 0,
                        "value" : 0
                    },
                    "logs" : "0x63b3449343f05e4ba767546497869b85a2a473d42121a021e7590d7017754ff3",
                    "txbytes" : "0xf885800a8401ba814094cccccccccccccccccccccccccccccccccccccccc01a4693c613900000000000000000000000000000000000000000000000000000000000000001ba0567dec507c79f321aee5fe9acb87eb5be80ec557580c0b11fc8bfc03a49e99e5a00d2e9d241a2cb2cb22b85db9c9e593d28a04ad4022de3814ac79a194c97aa497"
                },
                {
                    "hash" : "0xf9a2c0630236a840258d2a82ca1f81bd403e27a77bc1bab917763a13464831cd",
                    "indexes" : {
                        "data" : 3,
                        "gas" : 0,
                        "value" : 0
                    },
                    "logs" : "0x63b3449343f05e4ba767546497869b85a2a473d42121a021e7590d7017754ff3",
                    "txbytes" : "0xf885800a8401ba814094cccccccccccccccccccccccccccccccccccccccc01a4693c613900000000000000000000000000000000000000000000000000000000000000031ca0324f9dee6c04ba7a8f965b73adb769b5465e8f0715474c70b9db67ac446d0e24a02122f082939a61ee4bb3163055d2b2c0441c7c7d45d6b0c808eee7894664a36e"
                },
                {
                    "hash" : "0xa4461522a233f9d30e15bec3e894263cd79ad677cce29d0a775992c9db929807",
                    "indexes" : {
                        "data" : 4,
                        "gas" : 0,
                        "value" : 0
                    },
                    "logs" : "0x962ab2b5876962ab2c27d260485a0a1ab1a930ea9143d99f3ba2b4962b6b39e0",
                    "txbytes" : "0xf885800a8401ba814094cccccccccccccccccccccccccccccccccccccccc01a4693c613900000000000000000000000000000000000000000000000000000000000000041ba03fbab7e66d34067dc796d0476f420679bc07628b4a69d1273c09b75aca056477a053103b2d0ba9aa3e60e8225135fcfa5a7f6b2d11c51047272ca17c328f2efc48"
                },
                {
                    "hash" : "0x7f8a2902be970ec7b730f1e07e5aee950ef5572055a0b3d3256cb330ddd832f4",
                    "indexes" : {
                        "data" : 5,
                        "gas" : 0,
                        "value" : 0
                    },
                    "logs" : "0xd98655f5c4759c56c8ba01eb9c3fcde34b26c4445714859bbd06d18b0c398322",
                    "txbytes" : "0xf885800a8401ba814094cccccccccccccccccccccccccccccccccccccccc01a4693c613900000000000000000000000000000000000000000000000000000000000000051ba05f52a438f648ee70213c86295b583cd640cbcead8a0bc16b0238104da39d664fa0075f22d47ddd604ed4c83e38eeb7904811c4f0a22f8c6aad3978996b09a66339"
                },
                {
                    "hash" : "0x7f8a2902be970ec7b730f1e07e5aee950ef5572055a0b3d3256cb330ddd832f4",
                    "indexes" : {
                        "data" : 6,
                        "gas" : 0,
                        "value" : 0
                    },
                    "logs" : "0x442c5686dfaa9f7734ed17a45d5f91a8057b8ea587a342b8f8eba3d267874edb",
                    "txbytes" : "0xf885800a8401ba814094cccccccccccccccccccccccccccccccccccccccc01a4693c613900000000000000000000000000000000000000000000000000000000000000061ca05575830943c824d434dc3cb30519886334e90e11b353989a062f5b65d06d3397a07b432538e227abcefa2d7fbc0514459374e5f54dfb969a68a4250a771c3ea665"
                },
                {
                    "hash" : "0x60d87b4e4e4aa494d3c9f34f2c8e4740afa2fac829e11649fdfa0db6a4a83d91",
                    "indexes" : {
                        "data" : 7,
                        "gas" : 0,
                        "value" : 0
                    },
                    "logs" : "0x7892c989716799974e37f634fd1e5415875819865e33cb54062aab2f75cd2294",
                    "txbytes" : "0xf885800a8401ba814094cccccccccccccccccccccccccccccccccccccccc01a4693c613900000000000000000000000000000000000000000000000000000000000000071ca0841684fac3b4ccebc609d76ce76ee17093e2a6d6a3665cc542bcde1afd38227ea07ff01c245381e13f831021548cb7f7731f7426dffb2fb3046c00fa2cbce5531f"
                },
                {
                    "hash" : "0xa16961c8dafa0bf94c37ec403ce587c7ecda8423c54ff93d1ae96757e9c6359a",
                    "indexes" : {
                        "data" : 8,
                        "gas" : 0,
                        "value" : 0
                    },
                    "logs" : "0xa20826cf41f70c356832c534dd73f631c498760da2a0584e2844480b70b77e6d",
                    "txbytes" : "0xf885800a8401ba814094cccccccccccccccccccccccccccccccccccccccc01a4693c613900000000000000000000000000000000000000000000000000000000000000081ba0580f60284c01b0ce2958cf7450a5c2fc91678a6cc3957803703341a233080de6a07de8dc7d1dffc99cc8c909b838a621f56bf5dec7b6f29c38c1bdc923f6e24287"
                },
                {
                    "hash" : "0x90e5972cf569d04de4fb4ad93c6c4b7e3048cf6c3170c810d9f5f3313d7408d5",
                    "indexes" : {
                        "data" : 9,
                        "gas" : 0,
                        "value" : 0
                    },
                    "logs" : "0x1b43586e1432a3ed43253dd44fd5e8fb20d65a9aa720b17f41da928266fd155e",
                    "txbytes" : "0xf885800a8401ba814094cccccccccccccccccccccccccccccccccccccccc01a4693c613900000000000000000000000000000000000000000000000000000000000000091ba052d109b10b252b6ed90afa9d7e3c124432e5b12c55da62476946c6bda20eb1c7a01d9c1296a664b97033ad5bcacd3048cf5e1a75bcf37f3790f9f4734cf8dd94a1"
                },
                {
                    "hash" : "0x2cc0531c6240cb3ff8099755a9d21d02708ad9413c68de404203f900cedb375a",
                    "indexes" : {
                        "data" : 1,
                        "gas" : 0,
                        "value" : 0
                    },
                    "logs" : "0x1dcc4de8dec75d7aab85b567b6ccd41ad312451b948a7413f0a142fd40d49347",
                    "txbytes" : "0xf885800a8401ba814094cccccccccccccccccccccccccccccccccccccccc01a4693c613900000000000000000000000000000000000000000000000000000000000000011ca0460aa506804a9e657c91be62de96f457fe1ccf03b2cdbb1056464ca719b39bffa0161d8490ac2eccf337aeb0fb008ee7a9c2215bc8bc64f0b492d5040a4514589f"
                },
                {
                    "hash" : "0x2cc0531c6240cb3ff8099755a9d21d02708ad9413c68de404203f900cedb375a",
                    "indexes" : {
                        "data" : 2,
                        "gas" : 0,
                        "value" : 0
                    },
                    "logs" : "0x1dcc4de8dec75d7aab85b567b6ccd41ad312451b948a7413f0a142fd40d49347",
                    "txbytes" : "0xf885800a8401ba814094cccccccccccccccccccccccccccccccccccccccc01a4693c613900000000000000000000000000000000000000000000000000000000000000021ba0f3570e9410d7c03667e646751038032b0f5b7c4f5642ff56b398457f153d9b39a0797fa257c96ab8223dfe54af1f92bb538e66b86f16adc36aaa00a154b1294d97"
                }
            ],
            "Istanbul" : [
                {
                    "hash" : "0x6c54e333a6206a62906822ea0e5ac6917a18b4a06c5deb81f155faea49860e13",
                    "indexes" : {
                        "data" : 0,
                        "gas" : 0,
                        "value" : 0
                    },
                    "logs" : "0x63b3449343f05e4ba767546497869b85a2a473d42121a021e7590d7017754ff3",
                    "txbytes" : "0xf885800a8401ba814094cccccccccccccccccccccccccccccccccccccccc01a4693c613900000000000000000000000000000000000000000000000000000000000000001ba0567dec507c79f321aee5fe9acb87eb5be80ec557580c0b11fc8bfc03a49e99e5a00d2e9d241a2cb2cb22b85db9c9e593d28a04ad4022de3814ac79a194c97aa497"
                },
                {
                    "hash" : "0xfaedc25f6076674bdff3aeae4d470af97ebc3b0280786c39036a50cd78d9921a",
                    "indexes" : {
                        "data" : 3,
                        "gas" : 0,
                        "value" : 0
                    },
                    "logs" : "0x63b3449343f05e4ba767546497869b85a2a473d42121a021e7590d7017754ff3",
                    "txbytes" : "0xf885800a8401ba814094cccccccccccccccccccccccccccccccccccccccc01a4693c613900000000000000000000000000000000000000000000000000000000000000031ca0324f9dee6c04ba7a8f965b73adb769b5465e8f0715474c70b9db67ac446d0e24a02122f082939a61ee4bb3163055d2b2c0441c7c7d45d6b0c808eee7894664a36e"
                },
                {
                    "hash" : "0x0af3c8f6bcc58ef358f4fe91b39b435a9d1a9c319a0f3c569d7f842c2a0a9c22",
                    "indexes" : {
                        "data" : 4,
                        "gas" : 0,
                        "value" : 0
                    },
                    "logs" : "0x962ab2b5876962ab2c27d260485a0a1ab1a930ea9143d99f3ba2b4962b6b39e0",
                    "txbytes" : "0xf885800a8401ba814094cccccccccccccccccccccccccccccccccccccccc01a4693c613900000000000000000000000000000000000000000000000000000000000000041ba03fbab7e66d34067dc796d0476f420679bc07628b4a69d1273c09b75aca056477a053103b2d0ba9aa3e60e8225135fcfa5a7f6b2d11c51047272ca17c328f2efc48"
                },
                {
                    "hash" : "0x29c6bd6b3334d3d307e8081260607826a0e43b1c4efb4ae77200854634e6946e",
                    "indexes" : {
                        "data" : 5,
                        "gas" : 0,
                        "value" : 0
                    },
                    "logs" : "0xd98655f5c4759c56c8ba01eb9c3fcde34b26c4445714859bbd06d18b0c398322",
                    "txbytes" : "0xf885800a8401ba814094cccccccccccccccccccccccccccccccccccccccc01a4693c613900000000000000000000000000000000000000000000000000000000000000051ba05f52a438f648ee70213c86295b583cd640cbcead8a0bc16b0238104da39d664fa0075f22d47ddd604ed4c83e38eeb7904811c4f0a22f8c6aad3978996b09a66339"
                },
                {
                    "hash" : "0x29c6bd6b3334d3d307e8081260607826a0e43b1c4efb4ae77200854634e6946e",
                    "indexes" : {
                        "data" : 6,
                        "gas" : 0,
                        "value" : 0
                    },
                    "logs" : "0x442c5686dfaa9f7734ed17a45d5f91a8057b8ea587a342b8f8eba3d267874edb",
                    "txbytes" : "0xf885800a8401ba814094cccccccccccccccccccccccccccccccccccccccc01a4693c613900000000000000000000000000000000000000000000000000000000000000061ca05575830943c824d434dc3cb30519886334e90e11b353989a062f5b65d06d3397a07b432538e227abcefa2d7fbc0514459374e5f54dfb969a68a4250a771c3ea665"
                },
                {
                    "hash" : "0x5aaca2155df07ac5d57bf7586e93ede59303956d47901c2c9440f0b468e32cbc",
                    "indexes" : {
                        "data" : 7,
                        "gas" : 0,
                        "value" : 0
                    },
                    "logs" : "0x7892c989716799974e37f634fd1e5415875819865e33cb54062aab2f75cd2294",
                    "txbytes" : "0xf885800a8401ba814094cccccccccccccccccccccccccccccccccccccccc01a4693c613900000000000000000000000000000000000000000000000000000000000000071ca0841684fac3b4ccebc609d76ce76ee17093e2a6d6a3665cc542bcde1afd38227ea07ff01c245381e13f831021548cb7f7731f7426dffb2fb3046c00fa2cbce5531f"
                },
                {
                    "hash" : "0x93b9464dd6906ea7921615487695c01a447956387b3eaaa1be102e407546a5e8",
                    "indexes" : {
                        "data" : 8,
                        "gas" : 0,
                        "value" : 0
                    },
                    "logs" : "0xa20826cf41f70c356832c534dd73f631c498760da2a0584e2844480b70b77e6d",
                    "txbytes" : "0xf885800a8401ba814094cccccccccccccccccccccccccccccccccccccccc01a4693c613900000000000000000000000000000000000000000000000000000000000000081ba0580f60284c01b0ce2958cf7450a5c2fc91678a6cc3957803703341a233080de6a07de8dc7d1dffc99cc8c909b838a621f56bf5dec7b6f29c38c1bdc923f6e24287"
                },
                {
                    "hash" : "0xeb920a13be734ff6b152b2f099bd1f6f3ed7f29cf267d966184bab5b5cb5dabe",
                    "indexes" : {
                        "data" : 9,
                        "gas" : 0,
                        "value" : 0
                    },
                    "logs" : "0x1b43586e1432a3ed43253dd44fd5e8fb20d65a9aa720b17f41da928266fd155e",
                    "txbytes" : "0xf885800a8401ba814094cccccccccccccccccccccccccccccccccccccccc01a4693c613900000000000000000000000000000000000000000000000000000000000000091ba052d109b10b252b6ed90afa9d7e3c124432e5b12c55da62476946c6bda20eb1c7a01d9c1296a664b97033ad5bcacd3048cf5e1a75bcf37f3790f9f4734cf8dd94a1"
                },
                {
                    "hash" : "0x5a5f79dfb47f948d75da0a76006e6ea324a81eb7e69e1b5a963932f51abab324",
                    "indexes" : {
                        "data" : 1,
                        "gas" : 0,
                        "value" : 0
                    },
                    "logs" : "0x1dcc4de8dec75d7aab85b567b6ccd41ad312451b948a7413f0a142fd40d49347",
                    "txbytes" : "0xf885800a8401ba814094cccccccccccccccccccccccccccccccccccccccc01a4693c613900000000000000000000000000000000000000000000000000000000000000011ca0460aa506804a9e657c91be62de96f457fe1ccf03b2cdbb1056464ca719b39bffa0161d8490ac2eccf337aeb0fb008ee7a9c2215bc8bc64f0b492d5040a4514589f"
                },
                {
                    "hash" : "0x5a5f79dfb47f948d75da0a76006e6ea324a81eb7e69e1b5a963932f51abab324",
                    "indexes" : {
                        "data" : 2,
                        "gas" : 0,
                        "value" : 0
                    },
                    "logs" : "0x1dcc4de8dec75d7aab85b567b6ccd41ad312451b948a7413f0a142fd40d49347",
                    "txbytes" : "0xf885800a8401ba814094cccccccccccccccccccccccccccccccccccccccc01a4693c613900000000000000000000000000000000000000000000000000000000000000021ba0f3570e9410d7c03667e646751038032b0f5b7c4f5642ff56b398457f153d9b39a0797fa257c96ab8223dfe54af1f92bb538e66b86f16adc36aaa00a154b1294d97"
                }
            ],
            "London" : [
                {
                    "hash" : "0xac7c62b6de1eb79a887bca351ae00f251b5d28f12e387445c91c7d87afdd4dc0",
                    "indexes" : {
                        "data" : 0,
                        "gas" : 0,
                        "value" : 0
                    },
                    "logs" : "0x63b3449343f05e4ba767546497869b85a2a473d42121a021e7590d7017754ff3",
                    "txbytes" : "0xf885800a8401ba814094cccccccccccccccccccccccccccccccccccccccc01a4693c613900000000000000000000000000000000000000000000000000000000000000001ba0567dec507c79f321aee5fe9acb87eb5be80ec557580c0b11fc8bfc03a49e99e5a00d2e9d241a2cb2cb22b85db9c9e593d28a04ad4022de3814ac79a194c97aa497"
                },
                {
                    "hash" : "0x4fe66d9877d8773ecdc30931c93f7f099db0a680f4fa70a6900beaece1abe856",
                    "indexes" : {
                        "data" : 3,
                        "gas" : 0,
                        "value" : 0
                    },
                    "logs" : "0x63b3449343f05e4ba767546497869b85a2a473d42121a021e7590d7017754ff3",
                    "txbytes" : "0xf885800a8401ba814094cccccccccccccccccccccccccccccccccccccccc01a4693c613900000000000000000000000000000000000000000000000000000000000000031ca0324f9dee6c04ba7a8f965b73adb769b5465e8f0715474c70b9db67ac446d0e24a02122f082939a61ee4bb3163055d2b2c0441c7c7d45d6b0c808eee7894664a36e"
                },
                {
                    "hash" : "0xcc7f7b9cd5c6edeb998bda041a86d095ecc09509f6307865e84f6e797e8325bf",
                    "indexes" : {
                        "data" : 4,
                        "gas" : 0,
                        "value" : 0
                    },
                    "logs" : "0x962ab2b5876962ab2c27d260485a0a1ab1a930ea9143d99f3ba2b4962b6b39e0",
                    "txbytes" : "0xf885800a8401ba814094cccccccccccccccccccccccccccccccccccccccc01a4693c613900000000000000000000000000000000000000000000000000000000000000041ba03fbab7e66d34067dc796d0476f420679bc07628b4a69d1273c09b75aca056477a053103b2d0ba9aa3e60e8225135fcfa5a7f6b2d11c51047272ca17c328f2efc48"
                },
                {
                    "hash" : "0xffe8d1bf9c58da99d37a483e737dc48ae9c804f0ea8757af12bbbdc394c59671",
                    "indexes" : {
                        "data" : 5,
                        "gas" : 0,
                        "value" : 0
                    },
                    "logs" : "0xd98655f5c4759c56c8ba01eb9c3fcde34b26c4445714859bbd06d18b0c398322",
                    "txbytes" : "0xf885800a8401ba814094cccccccccccccccccccccccccccccccccccccccc01a4693c613900000000000000000000000000000000000000000000000000000000000000051ba05f52a438f648ee70213c86295b583cd640cbcead8a0bc16b0238104da39d664fa0075f22d47ddd604ed4c83e38eeb7904811c4f0a22f8c6aad3978996b09a66339"
                },
                {
                    "hash" : "0xffe8d1bf9c58da99d37a483e737dc48ae9c804f0ea8757af12bbbdc394c59671",
                    "indexes" : {
                        "data" : 6,
                        "gas" : 0,
                        "value" : 0
                    },
                    "logs" : "0x442c5686dfaa9f7734ed17a45d5f91a8057b8ea587a342b8f8eba3d267874edb",
                    "txbytes" : "0xf885800a8401ba814094cccccccccccccccccccccccccccccccccccccccc01a4693c613900000000000000000000000000000000000000000000000000000000000000061ca05575830943c824d434dc3cb30519886334e90e11b353989a062f5b65d06d3397a07b432538e227abcefa2d7fbc0514459374e5f54dfb969a68a4250a771c3ea665"
                },
                {
                    "hash" : "0x3f53b5efc13695d760896b7f28ee2fffa607c2e0c20859f96e1345258757d26b",
                    "indexes" : {
                        "data" : 7,
                        "gas" : 0,
                        "value" : 0
                    },
                    "logs" : "0x7892c989716799974e37f634fd1e5415875819865e33cb54062aab2f75cd2294",
                    "txbytes" : "0xf885800a8401ba814094cccccccccccccccccccccccccccccccccccccccc01a4693c613900000000000000000000000000000000000000000000000000000000000000071ca0841684fac3b4ccebc609d76ce76ee17093e2a6d6a3665cc542bcde1afd38227ea07ff01c245381e13f831021548cb7f7731f7426dffb2fb3046c00fa2cbce5531f"
                },
                {
                    "hash" : "0x622394a760b62a716b949006f6f98bfaff0d5f5d1e14dbd01114d91be551254d",
                    "indexes" : {
                        "data" : 8,
                        "gas" : 0,
                        "value" : 0
                    },
                    "logs" : "0xa20826cf41f70c356832c534dd73f631c498760da2a0584e2844480b70b77e6d",
                    "txbytes" : "0xf885800a8401ba814094cccccccccccccccccccccccccccccccccccccccc01a4693c613900000000000000000000000000000000000000000000000000000000000000081ba0580f60284c01b0ce2958cf7450a5c2fc91678a6cc3957803703341a233080de6a07de8dc7d1dffc99cc8c909b838a621f56bf5dec7b6f29c38c1bdc923f6e24287"
                },
                {
                    "hash" : "0x7762d3b3246c3d075ec99522a1d036ddab001d209fdf1e037883679417f023be",
                    "indexes" : {
                        "data" : 9,
                        "gas" : 0,
                        "value" : 0
                    },
                    "logs" : "0x1b43586e1432a3ed43253dd44fd5e8fb20d65a9aa720b17f41da928266fd155e",
                    "txbytes" : "0xf885800a8401ba814094cccccccccccccccccccccccccccccccccccccccc01a4693c613900000000000000000000000000000000000000000000000000000000000000091ba052d109b10b252b6ed90afa9d7e3c124432e5b12c55da62476946c6bda20eb1c7a01d9c1296a664b97033ad5bcacd3048cf5e1a75bcf37f3790f9f4734cf8dd94a1"
                },
                {
                    "hash" : "0xd15fce94ed990858ac89c07cc1988434e457929a7d0c6724ddb618fa9ca0b8d7",
                    "indexes" : {
                        "data" : 1,
                        "gas" : 0,
                        "value" : 0
                    },
                    "logs" : "0x1dcc4de8dec75d7aab85b567b6ccd41ad312451b948a7413f0a142fd40d49347",
                    "txbytes" : "0xf885800a8401ba814094cccccccccccccccccccccccccccccccccccccccc01a4693c613900000000000000000000000000000000000000000000000000000000000000011ca0460aa506804a9e657c91be62de96f457fe1ccf03b2cdbb1056464ca719b39bffa0161d8490ac2eccf337aeb0fb008ee7a9c2215bc8bc64f0b492d5040a4514589f"
                },
                {
                    "hash" : "0xd15fce94ed990858ac89c07cc1988434e457929a7d0c6724ddb618fa9ca0b8d7",
                    "indexes" : {
                        "data" : 2,
                        "gas" : 0,
                        "value" : 0
                    },
                    "logs" : "0x1dcc4de8dec75d7aab85b567b6ccd41ad312451b948a7413f0a142fd40d49347",
                    "txbytes" : "0xf885800a8401ba814094cccccccccccccccccccccccccccccccccccccccc01a4693c613900000000000000000000000000000000000000000000000000000000000000021ba0f3570e9410d7c03667e646751038032b0f5b7c4f5642ff56b398457f153d9b39a0797fa257c96ab8223dfe54af1f92bb538e66b86f16adc36aaa00a154b1294d97"
                }
            ],
            "Merge" : [
                {
                    "hash" : "0xac7c62b6de1eb79a887bca351ae00f251b5d28f12e387445c91c7d87afdd4dc0",
                    "indexes" : {
                        "data" : 0,
                        "gas" : 0,
                        "value" : 0
                    },
                    "logs" : "0x63b3449343f05e4ba767546497869b85a2a473d42121a021e7590d7017754ff3",
                    "txbytes" : "0xf885800a8401ba814094cccccccccccccccccccccccccccccccccccccccc01a4693c613900000000000000000000000000000000000000000000000000000000000000001ba0567dec507c79f321aee5fe9acb87eb5be80ec557580c0b11fc8bfc03a49e99e5a00d2e9d241a2cb2cb22b85db9c9e593d28a04ad4022de3814ac79a194c97aa497"
                },
                {
                    "hash" : "0x4fe66d9877d8773ecdc30931c93f7f099db0a680f4fa70a6900beaece1abe856",
                    "indexes" : {
                        "data" : 3,
                        "gas" : 0,
                        "value" : 0
                    },
                    "logs" : "0x63b3449343f05e4ba767546497869b85a2a473d42121a021e7590d7017754ff3",
                    "txbytes" : "0xf885800a8401ba814094cccccccccccccccccccccccccccccccccccccccc01a4693c613900000000000000000000000000000000000000000000000000000000000000031ca0324f9dee6c04ba7a8f965b73adb769b5465e8f0715474c70b9db67ac446d0e24a02122f082939a61ee4bb3163055d2b2c0441c7c7d45d6b0c808eee7894664a36e"
                },
                {
                    "hash" : "0xcc7f7b9cd5c6edeb998bda041a86d095ecc09509f6307865e84f6e797e8325bf",
                    "indexes" : {
                        "data" : 4,
                        "gas" : 0,
                        "value" : 0
                    },
                    "logs" : "0x962ab2b5876962ab2c27d260485a0a1ab1a930ea9143d99f3ba2b4962b6b39e0",
                    "txbytes" : "0xf885800a8401ba814094cccccccccccccccccccccccccccccccccccccccc01a4693c613900000000000000000000000000000000000000000000000000000000000000041ba03fbab7e66d34067dc796d0476f420679bc07628b4a69d1273c09b75aca056477a053103b2d0ba9aa3e60e8225135fcfa5a7f6b2d11c51047272ca17c328f2efc48"
                },
                {
                    "hash" : "0xffe8d1bf9c58da99d37a483e737dc48ae9c804f0ea8757af12bbbdc394c59671",
                    "indexes" : {
                        "data" : 5,
                        "gas" : 0,
                        "value" : 0
                    },
                    "logs" : "0xd98655f5c4759c56c8ba01eb9c3fcde34b26c4445714859bbd06d18b0c398322",
                    "txbytes" : "0xf885800a8401ba814094cccccccccccccccccccccccccccccccccccccccc01a4693c613900000000000000000000000000000000000000000000000000000000000000051ba05f52a438f648ee70213c86295b583cd640cbcead8a0bc16b0238104da39d664fa0075f22d47ddd604ed4c83e38eeb7904811c4f0a22f8c6aad3978996b09a66339"
                },
                {
                    "hash" : "0xffe8d1bf9c58da99d37a483e737dc48ae9c804f0ea8757af12bbbdc394c59671",
                    "indexes" : {
                        "data" : 6,
                        "gas" : 0,
                        "value" : 0
                    },
                    "logs" : "0x442c5686dfaa9f7734ed17a45d5f91a8057b8ea587a342b8f8eba3d267874edb",
                    "txbytes" : "0xf885800a8401ba814094cccccccccccccccccccccccccccccccccccccccc01a4693c613900000000000000000000000000000000000000000000000000000000000000061ca05575830943c824d434dc3cb30519886334e90e11b353989a062f5b65d06d3397a07b432538e227abcefa2d7fbc0514459374e5f54dfb969a68a4250a771c3ea665"
                },
                {
                    "hash" : "0x3f53b5efc13695d760896b7f28ee2fffa607c2e0c20859f96e1345258757d26b",
                    "indexes" : {
                        "data" : 7,
                        "gas" : 0,
                        "value" : 0
                    },
                    "logs" : "0x7892c989716799974e37f634fd1e5415875819865e33cb54062aab2f75cd2294",
                    "txbytes" : "0xf885800a8401ba814094cccccccccccccccccccccccccccccccccccccccc01a4693c613900000000000000000000000000000000000000000000000000000000000000071ca0841684fac3b4ccebc609d76ce76ee17093e2a6d6a3665cc542bcde1afd38227ea07ff01c245381e13f831021548cb7f7731f7426dffb2fb3046c00fa2cbce5531f"
                },
                {
                    "hash" : "0x622394a760b62a716b949006f6f98bfaff0d5f5d1e14dbd01114d91be551254d",
                    "indexes" : {
                        "data" : 8,
                        "gas" : 0,
                        "value" : 0
                    },
                    "logs" : "0xa20826cf41f70c356832c534dd73f631c498760da2a0584e2844480b70b77e6d",
                    "txbytes" : "0xf885800a8401ba814094cccccccccccccccccccccccccccccccccccccccc01a4693c613900000000000000000000000000000000000000000000000000000000000000081ba0580f60284c01b0ce2958cf7450a5c2fc91678a6cc3957803703341a233080de6a07de8dc7d1dffc99cc8c909b838a621f56bf5dec7b6f29c38c1bdc923f6e24287"
                },
                {
                    "hash" : "0x7762d3b3246c3d075ec99522a1d036ddab001d209fdf1e037883679417f023be",
                    "indexes" : {
                        "data" : 9,
                        "gas" : 0,
                        "value" : 0
                    },
                    "logs" : "0x1b43586e1432a3ed43253dd44fd5e8fb20d65a9aa720b17f41da928266fd155e",
                    "txbytes" : "0xf885800a8401ba814094cccccccccccccccccccccccccccccccccccccccc01a4693c613900000000000000000000000000000000000000000000000000000000000000091ba052d109b10b252b6ed90afa9d7e3c124432e5b12c55da62476946c6bda20eb1c7a01d9c1296a664b97033ad5bcacd3048cf5e1a75bcf37f3790f9f4734cf8dd94a1"
                },
                {
                    "hash" : "0xd15fce94ed990858ac89c07cc1988434e457929a7d0c6724ddb618fa9ca0b8d7",
                    "indexes" : {
                        "data" : 1,
                        "gas" : 0,
                        "value" : 0
                    },
                    "logs" : "0x1dcc4de8dec75d7aab85b567b6ccd41ad312451b948a7413f0a142fd40d49347",
                    "txbytes" : "0xf885800a8401ba814094cccccccccccccccccccccccccccccccccccccccc01a4693c613900000000000000000000000000000000000000000000000000000000000000011ca0460aa506804a9e657c91be62de96f457fe1ccf03b2cdbb1056464ca719b39bffa0161d8490ac2eccf337aeb0fb008ee7a9c2215bc8bc64f0b492d5040a4514589f"
                },
                {
                    "hash" : "0xd15fce94ed990858ac89c07cc1988434e457929a7d0c6724ddb618fa9ca0b8d7",
                    "indexes" : {
                        "data" : 2,
                        "gas" : 0,
                        "value" : 0
                    },
                    "logs" : "0x1dcc4de8dec75d7aab85b567b6ccd41ad312451b948a7413f0a142fd40d49347",
                    "txbytes" : "0xf885800a8401ba814094cccccccccccccccccccccccccccccccccccccccc01a4693c613900000000000000000000000000000000000000000000000000000000000000021ba0f3570e9410d7c03667e646751038032b0f5b7c4f5642ff56b398457f153d9b39a0797fa257c96ab8223dfe54af1f92bb538e66b86f16adc36aaa00a154b1294d97"
                }
            ]
        },
        "pre" : {
            "0x0000000000000000000000000000000000000100" : {
                "balance" : "0x0ba1a9ce0ba1a9ce",
                "code" : "0x60006000600060006000a361600d60005500",
                "nonce" : "0x00",
                "storage" : {
                }
            },
            "0x0000000000000000000000000000000000000101" : {
                "balance" : "0x0ba1a9ce0ba1a9ce",
                "code" : "0x7faabbffffffffffffffffffffffffffffffffffffffffffffffffffffffffccdd60005260006000600060016001600003a361600d60005500",
                "nonce" : "0x00",
                "storage" : {
                }
            },
            "0x0000000000000000000000000000000000000102" : {
                "balance" : "0x0ba1a9ce0ba1a9ce",
                "code" : "0x7faabbffffffffffffffffffffffffffffffffffffffffffffffffffffffffccdd60005260006000600060016000036001a361600d60005500",
                "nonce" : "0x00",
                "storage" : {
                }
            },
            "0x0000000000000000000000000000000000000103" : {
                "balance" : "0x0ba1a9ce0ba1a9ce",
                "code" : "0x7faabbffffffffffffffffffffffffffffffffffffffffffffffffffffffffccdd60005260006000600060006001a361600d60005500",
                "nonce" : "0x00",
                "storage" : {
                }
            },
            "0x0000000000000000000000000000000000000104" : {
                "balance" : "0x0ba1a9ce0ba1a9ce",
                "code" : "0x7fffffffffffffffffffffffffffffffffffffffffffffffffffffffffffffffff60005260006000600060206000a361600d60005500",
                "nonce" : "0x00",
                "storage" : {
                }
            },
            "0x0000000000000000000000000000000000000105" : {
                "balance" : "0x0ba1a9ce0ba1a9ce",
                "code" : "0x7faabbffffffffffffffffffffffffffffffffffffffffffffffffffffffffccdd60005260006000600060016000a361600d60005500",
                "nonce" : "0x00",
                "storage" : {
                }
            },
            "0x0000000000000000000000000000000000000106" : {
                "balance" : "0x0ba1a9ce0ba1a9ce",
                "code" : "0x7faabbffffffffffffffffffffffffffffffffffffffffffffffffffffffffccdd6000526000600060006001601fa361600d60005500",
                "nonce" : "0x00",
                "storage" : {
                }
            },
            "0x0000000000000000000000000000000000000107" : {
                "balance" : "0x0ba1a9ce0ba1a9ce",
                "code" : "0x7faabbffffffffffffffffffffffffffffffffffffffffffffffffffffffffccdd600052336000600060206000a361600d60005500",
                "nonce" : "0x00",
                "storage" : {
                }
            },
            "0x0000000000000000000000000000000000000108" : {
                "balance" : "0x0ba1a9ce0ba1a9ce",
                "code" : "0x60ff6000536001600003600160000360016000036001601fa361600d60005500",
                "nonce" : "0x00",
                "storage" : {
                }
            },
            "0x0000000000000000000000000000000000000109" : {
                "balance" : "0x0ba1a9ce0ba1a9ce",
                "code" : "0x7faabbffffffffffffffffffffffffffffffffffffffffffffffffffffffffccdd6000525858586001601fa361600d60005500",
                "nonce" : "0x00",
                "storage" : {
                }
            },
            "0xa94f5374fce5edbc8e2a8697c15331677e6ebf0b" : {
                "balance" : "0x100000000000",
                "code" : "0x",
                "nonce" : "0x00",
                "storage" : {
                }
            },
            "0xcccccccccccccccccccccccccccccccccccccccc" : {
                "balance" : "0x0ba1a9ce0ba1a9ce",
                "code" : "0x6000600060006000600435610100015af400",
                "nonce" : "0x00",
                "storage" : {
                    "0x00" : "0x0bad"
                }
            }
        },
        "transaction" : {
            "data" : [
                "0x693c61390000000000000000000000000000000000000000000000000000000000000000",
                "0x693c61390000000000000000000000000000000000000000000000000000000000000001",
                "0x693c61390000000000000000000000000000000000000000000000000000000000000002",
                "0x693c61390000000000000000000000000000000000000000000000000000000000000003",
                "0x693c61390000000000000000000000000000000000000000000000000000000000000004",
                "0x693c61390000000000000000000000000000000000000000000000000000000000000005",
                "0x693c61390000000000000000000000000000000000000000000000000000000000000006",
                "0x693c61390000000000000000000000000000000000000000000000000000000000000007",
                "0x693c61390000000000000000000000000000000000000000000000000000000000000008",
                "0x693c61390000000000000000000000000000000000000000000000000000000000000009"
            ],
            "gasLimit" : [
                "0x01ba8140"
            ],
            "gasPrice" : "0x0a",
            "nonce" : "0x00",
            "secretKey" : "0x45a915e4d060149eb4365960e6a7a45f334393093061116b197e3240065ff2d8",
            "sender" : "0xa94f5374fce5edbc8e2a8697c15331677e6ebf0b",
            "to" : "0xcccccccccccccccccccccccccccccccccccccccc",
            "value" : [
                "0x01"
            ]
        }
    }
}