{
    "log4" : {
        "_info" : {
            "comment" : "Ori Pomerantz qbzzt1@gmail.com",
            "filling-rpc-server" : "evm version 1.11.0-unstable-262bd38f-20221210",
            "filling-tool-version" : "retesteth-0.2.3-postmerge+commit.17808a69.Linux.g++",
            "generatedTestHash" : "2a814cdf3d6d25b054257cadeb5128b3ffdcdc571a64ccd0b64ee07ad7d8044d",
            "labels" : {
                "0" : "emptyMem",
                "1" : "memStartTooHigh",
                "2" : "memSizeTooHigh",
                "3" : "memSizeZero",
                "4" : "nonEmptyMem",
                "5" : "log_0_1",
                "6" : "log_31_1",
                "7" : "caller",
                "8" : "maxTopic",
                "9" : "pc"
            },
            "lllcversion" : "Version: 0.5.14-develop.2021.4.29+commit.14c9d5de.Linux.clang",
            "solidity" : "Version: 0.8.17-develop.2022.9.30+commit.8df45f5f.Linux.clang",
            "source" : "src/GeneralStateTestsFiller/VMTests/vmLogTest/log4Filler.yml",
            "sourceHash" : "27fda9119cf1a10c46f7c4af38947e155088158d7c1f1c3ae3bb35b7e5431653"
        },
        "env" : {
            "currentBaseFee" : "0x0a",
            "currentCoinbase" : "0x2adc25665018aa1fe0e6bc666dac8fc2697ff9ba",
            "currentDifficulty" : "0x020000",
            "currentGasLimit" : "0x05f5e100",
            "currentNumber" : "0x01",
            "currentRandom" : "0x0000000000000000000000000000000000000000000000000000000000020000",
            "currentTimestamp" : "0x03e8",
            "previousHash" : "0x5e20a0453cecd065ea59c37ac63e079ee08998b6045136a8ce6635c7912ec0b6"
        },
        "post" : {
            "Berlin" : [
                {
                    "hash" : "0xecdd1a804a2b7b5037dffbb3257bdbba2caae849ad208b2496f5577ff8ac3f61",
                    "indexes" : {
                        "data" : 0,
                        "gas" : 0,
                        "value" : 0
                    },
                    "logs" : "0x89eba4e17e6be16d84b3586fdc8d67d6807f27da363041b27123adeceec97f22",
                    "txbytes" : "0xf885800a8401ba814094cccccccccccccccccccccccccccccccccccccccc01a4693c613900000000000000000000000000000000000000000000000000000000000000001ba0567dec507c79f321aee5fe9acb87eb5be80ec557580c0b11fc8bfc03a49e99e5a00d2e9d241a2cb2cb22b85db9c9e593d28a04ad4022de3814ac79a194c97aa497"
                },
                {
                    "hash" : "0x8a229dd38cb93c7cd99c3bcf348e03d13809eee692df521217220c863166b871",
                    "indexes" : {
                        "data" : 3,
                        "gas" : 0,
                        "value" : 0
                    },
                    "logs" : "0x89eba4e17e6be16d84b3586fdc8d67d6807f27da363041b27123adeceec97f22",
                    "txbytes" : "0xf885800a8401ba814094cccccccccccccccccccccccccccccccccccccccc01a4693c613900000000000000000000000000000000000000000000000000000000000000031ca0324f9dee6c04ba7a8f965b73adb769b5465e8f0715474c70b9db67ac446d0e24a02122f082939a61ee4bb3163055d2b2c0441c7c7d45d6b0c808eee7894664a36e"
                },
                {
                    "hash" : "0x4c7df60dbe0ae840e25de519349c38dafb35a9ebd7cf9f0c1387481545938c30",
                    "indexes" : {
                        "data" : 4,
                        "gas" : 0,
                        "value" : 0
                    },
                    "logs" : "0x63e16e4112d354ab3588bbecaee2f0373c8ed52cffe3ed9c90c7861121a73d23",
                    "txbytes" : "0xf885800a8401ba814094cccccccccccccccccccccccccccccccccccccccc01a4693c613900000000000000000000000000000000000000000000000000000000000000041ba03fbab7e66d34067dc796d0476f420679bc07628b4a69d1273c09b75aca056477a053103b2d0ba9aa3e60e8225135fcfa5a7f6b2d11c51047272ca17c328f2efc48"
                },
                {
                    "hash" : "0x0b3c1908e25a4f05f598a93a0a51a128fc86caacc45592999c4dc4a625a2541c",
                    "indexes" : {
                        "data" : 5,
                        "gas" : 0,
                        "value" : 0
                    },
                    "logs" : "0xe08e5c1eddfa1aa01e79fc04675ffc29d92408c87bbb1bc7a934f44f518321cb",
                    "txbytes" : "0xf885800a8401ba814094cccccccccccccccccccccccccccccccccccccccc01a4693c613900000000000000000000000000000000000000000000000000000000000000051ba05f52a438f648ee70213c86295b583cd640cbcead8a0bc16b0238104da39d664fa0075f22d47ddd604ed4c83e38eeb7904811c4f0a22f8c6aad3978996b09a66339"
                },
                {
                    "hash" : "0x0b3c1908e25a4f05f598a93a0a51a128fc86caacc45592999c4dc4a625a2541c",
                    "indexes" : {
                        "data" : 6,
                        "gas" : 0,
                        "value" : 0
                    },
                    "logs" : "0xd42f9447105ee28eec817b2b0fb9f144098ebd3eaf9788822a9ef68adba8bf33",
                    "txbytes" : "0xf885800a8401ba814094cccccccccccccccccccccccccccccccccccccccc01a4693c613900000000000000000000000000000000000000000000000000000000000000061ca05575830943c824d434dc3cb30519886334e90e11b353989a062f5b65d06d3397a07b432538e227abcefa2d7fbc0514459374e5f54dfb969a68a4250a771c3ea665"
                },
                {
                    "hash" : "0x91aed5a3b52c3573f665f3ed5f2b794c924442f420d95b8a08bf039f846cdb51",
                    "indexes" : {
                        "data" : 7,
                        "gas" : 0,
                        "value" : 0
                    },
                    "logs" : "0x94219095f19e9c0dbaf89ef4a48b3eaf9a605a1382fa43a9504bdeb528b1cf4f",
                    "txbytes" : "0xf885800a8401ba814094cccccccccccccccccccccccccccccccccccccccc01a4693c613900000000000000000000000000000000000000000000000000000000000000071ca0841684fac3b4ccebc609d76ce76ee17093e2a6d6a3665cc542bcde1afd38227ea07ff01c245381e13f831021548cb7f7731f7426dffb2fb3046c00fa2cbce5531f"
                },
                {
                    "hash" : "0x9f5f286e0a512587625b13097557a96564a201ae1a4553ab39a4a300b2f76680",
                    "indexes" : {
                        "data" : 8,
                        "gas" : 0,
                        "value" : 0
                    },
                    "logs" : "0xa13c2ae62c4bbf0ca424e595804e891d7e1c7f12325056437c6f09e632866994",
                    "txbytes" : "0xf885800a8401ba814094cccccccccccccccccccccccccccccccccccccccc01a4693c613900000000000000000000000000000000000000000000000000000000000000081ba0580f60284c01b0ce2958cf7450a5c2fc91678a6cc3957803703341a233080de6a07de8dc7d1dffc99cc8c909b838a621f56bf5dec7b6f29c38c1bdc923f6e24287"
                },
                {
                    "hash" : "0x141d56762419f739fd854c5b6c2336ea5543bdc268236596f434082d72d25787",
                    "indexes" : {
                        "data" : 9,
                        "gas" : 0,
                        "value" : 0
                    },
                    "logs" : "0x64c6b8491fef70e35840b81c4b79ed4209e09e196fe26d91f6dcc2c4c4eff97d",
                    "txbytes" : "0xf885800a8401ba814094cccccccccccccccccccccccccccccccccccccccc01a4693c613900000000000000000000000000000000000000000000000000000000000000091ba052d109b10b252b6ed90afa9d7e3c124432e5b12c55da62476946c6bda20eb1c7a01d9c1296a664b97033ad5bcacd3048cf5e1a75bcf37f3790f9f4734cf8dd94a1"
                },
                {
                    "hash" : "0x9cd66899ae10cdf8ef4db555db6da3055ee3bfa2fd2b6d335e03fbd1e758ab2c",
                    "indexes" : {
                        "data" : 1,
                        "gas" : 0,
                        "value" : 0
                    },
                    "logs" : "0x1dcc4de8dec75d7aab85b567b6ccd41ad312451b948a7413f0a142fd40d49347",
                    "txbytes" : "0xf885800a8401ba814094cccccccccccccccccccccccccccccccccccccccc01a4693c613900000000000000000000000000000000000000000000000000000000000000011ca0460aa506804a9e657c91be62de96f457fe1ccf03b2cdbb1056464ca719b39bffa0161d8490ac2eccf337aeb0fb008ee7a9c2215bc8bc64f0b492d5040a4514589f"
                },
                {
                    "hash" : "0x9cd66899ae10cdf8ef4db555db6da3055ee3bfa2fd2b6d335e03fbd1e758ab2c",
                    "indexes" : {
                        "data" : 2,
                        "gas" : 0,
                        "value" : 0
                    },
                    "logs" : "0x1dcc4de8dec75d7aab85b567b6ccd41ad312451b948a7413f0a142fd40d49347",
                    "txbytes" : "0xf885800a8401ba814094cccccccccccccccccccccccccccccccccccccccc01a4693c613900000000000000000000000000000000000000000000000000000000000000021ba0f3570e9410d7c03667e646751038032b0f5b7c4f5642ff56b398457f153d9b39a0797fa257c96ab8223dfe54af1f92bb538e66b86f16adc36aaa00a154b1294d97"
                }
            ],
            "Istanbul" : [
                {
                    "hash" : "0xc30e5ad32adf149123adf2f167153383d85964234b46a31f2861a06b1995d529",
                    "indexes" : {
                        "data" : 0,
                        "gas" : 0,
                        "value" : 0
                    },
                    "logs" : "0x89eba4e17e6be16d84b3586fdc8d67d6807f27da363041b27123adeceec97f22",
                    "txbytes" : "0xf885800a8401ba814094cccccccccccccccccccccccccccccccccccccccc01a4693c613900000000000000000000000000000000000000000000000000000000000000001ba0567dec507c79f321aee5fe9acb87eb5be80ec557580c0b11fc8bfc03a49e99e5a00d2e9d241a2cb2cb22b85db9c9e593d28a04ad4022de3814ac79a194c97aa497"
                },
                {
                    "hash" : "0xa1566a3db79d1e92f5a26f42ddf67d16e06824a9969c4b38e499e30558d8d95c",
                    "indexes" : {
                        "data" : 3,
                        "gas" : 0,
                        "value" : 0
                    },
                    "logs" : "0x89eba4e17e6be16d84b3586fdc8d67d6807f27da363041b27123adeceec97f22",
                    "txbytes" : "0xf885800a8401ba814094cccccccccccccccccccccccccccccccccccccccc01a4693c613900000000000000000000000000000000000000000000000000000000000000031ca0324f9dee6c04ba7a8f965b73adb769b5465e8f0715474c70b9db67ac446d0e24a02122f082939a61ee4bb3163055d2b2c0441c7c7d45d6b0c808eee7894664a36e"
                },
                {
                    "hash" : "0x4e086d8bec4d4ec8ddd998da9504903a9bebe95ddf51794c7fd6e65d4a33a7fa",
                    "indexes" : {
                        "data" : 4,
                        "gas" : 0,
                        "value" : 0
                    },
                    "logs" : "0x63e16e4112d354ab3588bbecaee2f0373c8ed52cffe3ed9c90c7861121a73d23",
                    "txbytes" : "0xf885800a8401ba814094cccccccccccccccccccccccccccccccccccccccc01a4693c613900000000000000000000000000000000000000000000000000000000000000041ba03fbab7e66d34067dc796d0476f420679bc07628b4a69d1273c09b75aca056477a053103b2d0ba9aa3e60e8225135fcfa5a7f6b2d11c51047272ca17c328f2efc48"
                },
                {
                    "hash" : "0x7f2e70e40cdeb6bec65777b2c9bc9edd8f061d81fa9918a5fbb7c1c1eecc4d58",
                    "indexes" : {
                        "data" : 5,
                        "gas" : 0,
                        "value" : 0
                    },
                    "logs" : "0xe08e5c1eddfa1aa01e79fc04675ffc29d92408c87bbb1bc7a934f44f518321cb",
                    "txbytes" : "0xf885800a8401ba814094cccccccccccccccccccccccccccccccccccccccc01a4693c613900000000000000000000000000000000000000000000000000000000000000051ba05f52a438f648ee70213c86295b583cd640cbcead8a0bc16b0238104da39d664fa0075f22d47ddd604ed4c83e38eeb7904811c4f0a22f8c6aad3978996b09a66339"
                },
                {
                    "hash" : "0x7f2e70e40cdeb6bec65777b2c9bc9edd8f061d81fa9918a5fbb7c1c1eecc4d58",
                    "indexes" : {
                        "data" : 6,
                        "gas" : 0,
                        "value" : 0
                    },
                    "logs" : "0xd42f9447105ee28eec817b2b0fb9f144098ebd3eaf9788822a9ef68adba8bf33",
                    "txbytes" : "0xf885800a8401ba814094cccccccccccccccccccccccccccccccccccccccc01a4693c613900000000000000000000000000000000000000000000000000000000000000061ca05575830943c824d434dc3cb30519886334e90e11b353989a062f5b65d06d3397a07b432538e227abcefa2d7fbc0514459374e5f54dfb969a68a4250a771c3ea665"
                },
                {
                    "hash" : "0xb758563fb56c018b530b82446cd75fecf9e703e75f8bb461859f9c20702d22c9",
                    "indexes" : {
                        "data" : 7,
                        "gas" : 0,
                        "value" : 0
                    },
                    "logs" : "0x94219095f19e9c0dbaf89ef4a48b3eaf9a605a1382fa43a9504bdeb528b1cf4f",
                    "txbytes" : "0xf885800a8401ba814094cccccccccccccccccccccccccccccccccccccccc01a4693c613900000000000000000000000000000000000000000000000000000000000000071ca0841684fac3b4ccebc609d76ce76ee17093e2a6d6a3665cc542bcde1afd38227ea07ff01c245381e13f831021548cb7f7731f7426dffb2fb3046c00fa2cbce5531f"
                },
                {
                    "hash" : "0xff33b4ff4dc18bdabe887adf76d23f4c9d44a5b1e7eeccbdf8de3f4d2765ef37",
                    "indexes" : {
                        "data" : 8,
                        "gas" : 0,
                        "value" : 0
                    },
                    "logs" : "0xa13c2ae62c4bbf0ca424e595804e891d7e1c7f12325056437c6f09e632866994",
                    "txbytes" : "0xf885800a8401ba814094cccccccccccccccccccccccccccccccccccccccc01a4693c613900000000000000000000000000000000000000000000000000000000000000081ba0580f60284c01b0ce2958cf7450a5c2fc91678a6cc3957803703341a233080de6a07de8dc7d1dffc99cc8c909b838a621f56bf5dec7b6f29c38c1bdc923f6e24287"
                },
                {
                    "hash" : "0xe6e2b946af9c1cd63fb0ddeb4519688743d9c87f077efb498c2d12cbffd1acaf",
                    "indexes" : {
                        "data" : 9,
                        "gas" : 0,
                        "value" : 0
                    },
                    "logs" : "0x64c6b8491fef70e35840b81c4b79ed4209e09e196fe26d91f6dcc2c4c4eff97d",
                    "txbytes" : "0xf885800a8401ba814094cccccccccccccccccccccccccccccccccccccccc01a4693c613900000000000000000000000000000000000000000000000000000000000000091ba052d109b10b252b6ed90afa9d7e3c124432e5b12c55da62476946c6bda20eb1c7a01d9c1296a664b97033ad5bcacd3048cf5e1a75bcf37f3790f9f4734cf8dd94a1"
                },
                {
                    "hash" : "0x2d02053798f55699fea4a5aad213b4ce3757923058fea9c63d4faca81648d94e",
                    "indexes" : {
                        "data" : 1,
                        "gas" : 0,
                        "value" : 0
                    },
                    "logs" : "0x1dcc4de8dec75d7aab85b567b6ccd41ad312451b948a7413f0a142fd40d49347",
                    "txbytes" : "0xf885800a8401ba814094cccccccccccccccccccccccccccccccccccccccc01a4693c613900000000000000000000000000000000000000000000000000000000000000011ca0460aa506804a9e657c91be62de96f457fe1ccf03b2cdbb1056464ca719b39bffa0161d8490ac2eccf337aeb0fb008ee7a9c2215bc8bc64f0b492d5040a4514589f"
                },
                {
                    "hash" : "0x2d02053798f55699fea4a5aad213b4ce3757923058fea9c63d4faca81648d94e",
                    "indexes" : {
                        "data" : 2,
                        "gas" : 0,
                        "value" : 0
                    },
                    "logs" : "0x1dcc4de8dec75d7aab85b567b6ccd41ad312451b948a7413f0a142fd40d49347",
                    "txbytes" : "0xf885800a8401ba814094cccccccccccccccccccccccccccccccccccccccc01a4693c613900000000000000000000000000000000000000000000000000000000000000021ba0f3570e9410d7c03667e646751038032b0f5b7c4f5642ff56b398457f153d9b39a0797fa257c96ab8223dfe54af1f92bb538e66b86f16adc36aaa00a154b1294d97"
                }
            ],
            "London" : [
                {
                    "hash" : "0x68ac2a4b21f72fefde14b35c0177b8c14f1deab32438d441f4c88a6971e8b341",
                    "indexes" : {
                        "data" : 0,
                        "gas" : 0,
                        "value" : 0
                    },
                    "logs" : "0x89eba4e17e6be16d84b3586fdc8d67d6807f27da363041b27123adeceec97f22",
                    "txbytes" : "0xf885800a8401ba814094cccccccccccccccccccccccccccccccccccccccc01a4693c613900000000000000000000000000000000000000000000000000000000000000001ba0567dec507c79f321aee5fe9acb87eb5be80ec557580c0b11fc8bfc03a49e99e5a00d2e9d241a2cb2cb22b85db9c9e593d28a04ad4022de3814ac79a194c97aa497"
                },
                {
                    "hash" : "0x6ca2a7e20194c42bd989cb3791dde7789c4128bb4324130422a82194237e903c",
                    "indexes" : {
                        "data" : 3,
                        "gas" : 0,
                        "value" : 0
                    },
                    "logs" : "0x89eba4e17e6be16d84b3586fdc8d67d6807f27da363041b27123adeceec97f22",
                    "txbytes" : "0xf885800a8401ba814094cccccccccccccccccccccccccccccccccccccccc01a4693c613900000000000000000000000000000000000000000000000000000000000000031ca0324f9dee6c04ba7a8f965b73adb769b5465e8f0715474c70b9db67ac446d0e24a02122f082939a61ee4bb3163055d2b2c0441c7c7d45d6b0c808eee7894664a36e"
                },
                {
                    "hash" : "0xdf97b54cfb523d1bba5e845f8f6aee770f01550e5f1436405df8de2c7751037b",
                    "indexes" : {
                        "data" : 4,
                        "gas" : 0,
                        "value" : 0
                    },
                    "logs" : "0x63e16e4112d354ab3588bbecaee2f0373c8ed52cffe3ed9c90c7861121a73d23",
                    "txbytes" : "0xf885800a8401ba814094cccccccccccccccccccccccccccccccccccccccc01a4693c613900000000000000000000000000000000000000000000000000000000000000041ba03fbab7e66d34067dc796d0476f420679bc07628b4a69d1273c09b75aca056477a053103b2d0ba9aa3e60e8225135fcfa5a7f6b2d11c51047272ca17c328f2efc48"
                },
                {
                    "hash" : "0x572848117fd216e9ec214fb4a0faf6066391d504d9cae72ffb95a52f00943b45",
                    "indexes" : {
                        "data" : 5,
                        "gas" : 0,
                        "value" : 0
                    },
                    "logs" : "0xe08e5c1eddfa1aa01e79fc04675ffc29d92408c87bbb1bc7a934f44f518321cb",
                    "txbytes" : "0xf885800a8401ba814094cccccccccccccccccccccccccccccccccccccccc01a4693c613900000000000000000000000000000000000000000000000000000000000000051ba05f52a438f648ee70213c86295b583cd640cbcead8a0bc16b0238104da39d664fa0075f22d47ddd604ed4c83e38eeb7904811c4f0a22f8c6aad3978996b09a66339"
                },
                {
                    "hash" : "0x572848117fd216e9ec214fb4a0faf6066391d504d9cae72ffb95a52f00943b45",
                    "indexes" : {
                        "data" : 6,
                        "gas" : 0,
                        "value" : 0
                    },
                    "logs" : "0xd42f9447105ee28eec817b2b0fb9f144098ebd3eaf9788822a9ef68adba8bf33",
                    "txbytes" : "0xf885800a8401ba814094cccccccccccccccccccccccccccccccccccccccc01a4693c613900000000000000000000000000000000000000000000000000000000000000061ca05575830943c824d434dc3cb30519886334e90e11b353989a062f5b65d06d3397a07b432538e227abcefa2d7fbc0514459374e5f54dfb969a68a4250a771c3ea665"
                },
                {
                    "hash" : "0x4b3fbbab54cad067b5e7dadfc457723923211cbb31cce42bbaf353c0eb9c5342",
                    "indexes" : {
                        "data" : 7,
                        "gas" : 0,
                        "value" : 0
                    },
                    "logs" : "0x94219095f19e9c0dbaf89ef4a48b3eaf9a605a1382fa43a9504bdeb528b1cf4f",
                    "txbytes" : "0xf885800a8401ba814094cccccccccccccccccccccccccccccccccccccccc01a4693c613900000000000000000000000000000000000000000000000000000000000000071ca0841684fac3b4ccebc609d76ce76ee17093e2a6d6a3665cc542bcde1afd38227ea07ff01c245381e13f831021548cb7f7731f7426dffb2fb3046c00fa2cbce5531f"
                },
                {
                    "hash" : "0xed2ba74eef8287090a8821e9a4bc3cd4f06a09c21c20137c608faddedaa54e0a",
                    "indexes" : {
                        "data" : 8,
                        "gas" : 0,
                        "value" : 0
                    },
                    "logs" : "0xa13c2ae62c4bbf0ca424e595804e891d7e1c7f12325056437c6f09e632866994",
                    "txbytes" : "0xf885800a8401ba814094cccccccccccccccccccccccccccccccccccccccc01a4693c613900000000000000000000000000000000000000000000000000000000000000081ba0580f60284c01b0ce2958cf7450a5c2fc91678a6cc3957803703341a233080de6a07de8dc7d1dffc99cc8c909b838a621f56bf5dec7b6f29c38c1bdc923f6e24287"
                },
                {
                    "hash" : "0x8a0e93c39af3f34c6d168c71252cd08f5fe2f0decf21ca04798ea355139858f5",
                    "indexes" : {
                        "data" : 9,
                        "gas" : 0,
                        "value" : 0
                    },
                    "logs" : "0x64c6b8491fef70e35840b81c4b79ed4209e09e196fe26d91f6dcc2c4c4eff97d",
                    "txbytes" : "0xf885800a8401ba814094cccccccccccccccccccccccccccccccccccccccc01a4693c613900000000000000000000000000000000000000000000000000000000000000091ba052d109b10b252b6ed90afa9d7e3c124432e5b12c55da62476946c6bda20eb1c7a01d9c1296a664b97033ad5bcacd3048cf5e1a75bcf37f3790f9f4734cf8dd94a1"
                },
                {
                    "hash" : "0x3b63dfcd591187cb0701c473ca98078e5126c3cf1b62f44ee5c9f551a3951b66",
                    "indexes" : {
                        "data" : 1,
                        "gas" : 0,
                        "value" : 0
                    },
                    "logs" : "0x1dcc4de8dec75d7aab85b567b6ccd41ad312451b948a7413f0a142fd40d49347",
                    "txbytes" : "0xf885800a8401ba814094cccccccccccccccccccccccccccccccccccccccc01a4693c613900000000000000000000000000000000000000000000000000000000000000011ca0460aa506804a9e657c91be62de96f457fe1ccf03b2cdbb1056464ca719b39bffa0161d8490ac2eccf337aeb0fb008ee7a9c2215bc8bc64f0b492d5040a4514589f"
                },
                {
                    "hash" : "0x3b63dfcd591187cb0701c473ca98078e5126c3cf1b62f44ee5c9f551a3951b66",
                    "indexes" : {
                        "data" : 2,
                        "gas" : 0,
                        "value" : 0
                    },
                    "logs" : "0x1dcc4de8dec75d7aab85b567b6ccd41ad312451b948a7413f0a142fd40d49347",
                    "txbytes" : "0xf885800a8401ba814094cccccccccccccccccccccccccccccccccccccccc01a4693c613900000000000000000000000000000000000000000000000000000000000000021ba0f3570e9410d7c03667e646751038032b0f5b7c4f5642ff56b398457f153d9b39a0797fa257c96ab8223dfe54af1f92bb538e66b86f16adc36aaa00a154b1294d97"
                }
            ],
            "Merge" : [
                {
                    "hash" : "0x68ac2a4b21f72fefde14b35c0177b8c14f1deab32438d441f4c88a6971e8b341",
                    "indexes" : {
                        "data" : 0,
                        "gas" : 0,
                        "value" : 0
                    },
                    "logs" : "0x89eba4e17e6be16d84b3586fdc8d67d6807f27da363041b27123adeceec97f22",
                    "txbytes" : "0xf885800a8401ba814094cccccccccccccccccccccccccccccccccccccccc01a4693c613900000000000000000000000000000000000000000000000000000000000000001ba0567dec507c79f321aee5fe9acb87eb5be80ec557580c0b11fc8bfc03a49e99e5a00d2e9d241a2cb2cb22b85db9c9e593d28a04ad4022de3814ac79a194c97aa497"
                },
                {
                    "hash" : "0x6ca2a7e20194c42bd989cb3791dde7789c4128bb4324130422a82194237e903c",
                    "indexes" : {
                        "data" : 3,
                        "gas" : 0,
                        "value" : 0
                    },
                    "logs" : "0x89eba4e17e6be16d84b3586fdc8d67d6807f27da363041b27123adeceec97f22",
                    "txbytes" : "0xf885800a8401ba814094cccccccccccccccccccccccccccccccccccccccc01a4693c613900000000000000000000000000000000000000000000000000000000000000031ca0324f9dee6c04ba7a8f965b73adb769b5465e8f0715474c70b9db67ac446d0e24a02122f082939a61ee4bb3163055d2b2c0441c7c7d45d6b0c808eee7894664a36e"
                },
                {
                    "hash" : "0xdf97b54cfb523d1bba5e845f8f6aee770f01550e5f1436405df8de2c7751037b",
                    "indexes" : {
                        "data" : 4,
                        "gas" : 0,
                        "value" : 0
                    },
                    "logs" : "0x63e16e4112d354ab3588bbecaee2f0373c8ed52cffe3ed9c90c7861121a73d23",
                    "txbytes" : "0xf885800a8401ba814094cccccccccccccccccccccccccccccccccccccccc01a4693c613900000000000000000000000000000000000000000000000000000000000000041ba03fbab7e66d34067dc796d0476f420679bc07628b4a69d1273c09b75aca056477a053103b2d0ba9aa3e60e8225135fcfa5a7f6b2d11c51047272ca17c328f2efc48"
                },
                {
                    "hash" : "0x572848117fd216e9ec214fb4a0faf6066391d504d9cae72ffb95a52f00943b45",
                    "indexes" : {
                        "data" : 5,
                        "gas" : 0,
                        "value" : 0
                    },
                    "logs" : "0xe08e5c1eddfa1aa01e79fc04675ffc29d92408c87bbb1bc7a934f44f518321cb",
                    "txbytes" : "0xf885800a8401ba814094cccccccccccccccccccccccccccccccccccccccc01a4693c613900000000000000000000000000000000000000000000000000000000000000051ba05f52a438f648ee70213c86295b583cd640cbcead8a0bc16b0238104da39d664fa0075f22d47ddd604ed4c83e38eeb7904811c4f0a22f8c6aad3978996b09a66339"
                },
                {
                    "hash" : "0x572848117fd216e9ec214fb4a0faf6066391d504d9cae72ffb95a52f00943b45",
                    "indexes" : {
                        "data" : 6,
                        "gas" : 0,
                        "value" : 0
                    },
                    "logs" : "0xd42f9447105ee28eec817b2b0fb9f144098ebd3eaf9788822a9ef68adba8bf33",
                    "txbytes" : "0xf885800a8401ba814094cccccccccccccccccccccccccccccccccccccccc01a4693c613900000000000000000000000000000000000000000000000000000000000000061ca05575830943c824d434dc3cb30519886334e90e11b353989a062f5b65d06d3397a07b432538e227abcefa2d7fbc0514459374e5f54dfb969a68a4250a771c3ea665"
                },
                {
                    "hash" : "0x4b3fbbab54cad067b5e7dadfc457723923211cbb31cce42bbaf353c0eb9c5342",
                    "indexes" : {
                        "data" : 7,
                        "gas" : 0,
                        "value" : 0
                    },
                    "logs" : "0x94219095f19e9c0dbaf89ef4a48b3eaf9a605a1382fa43a9504bdeb528b1cf4f",
                    "txbytes" : "0xf885800a8401ba814094cccccccccccccccccccccccccccccccccccccccc01a4693c613900000000000000000000000000000000000000000000000000000000000000071ca0841684fac3b4ccebc609d76ce76ee17093e2a6d6a3665cc542bcde1afd38227ea07ff01c245381e13f831021548cb7f7731f7426dffb2fb3046c00fa2cbce5531f"
                },
                {
                    "hash" : "0xed2ba74eef8287090a8821e9a4bc3cd4f06a09c21c20137c608faddedaa54e0a",
                    "indexes" : {
                        "data" : 8,
                        "gas" : 0,
                        "value" : 0
                    },
                    "logs" : "0xa13c2ae62c4bbf0ca424e595804e891d7e1c7f12325056437c6f09e632866994",
                    "txbytes" : "0xf885800a8401ba814094cccccccccccccccccccccccccccccccccccccccc01a4693c613900000000000000000000000000000000000000000000000000000000000000081ba0580f60284c01b0ce2958cf7450a5c2fc91678a6cc3957803703341a233080de6a07de8dc7d1dffc99cc8c909b838a621f56bf5dec7b6f29c38c1bdc923f6e24287"
                },
                {
                    "hash" : "0x8a0e93c39af3f34c6d168c71252cd08f5fe2f0decf21ca04798ea355139858f5",
                    "indexes" : {
                        "data" : 9,
                        "gas" : 0,
                        "value" : 0
                    },
                    "logs" : "0x64c6b8491fef70e35840b81c4b79ed4209e09e196fe26d91f6dcc2c4c4eff97d",
                    "txbytes" : "0xf885800a8401ba814094cccccccccccccccccccccccccccccccccccccccc01a4693c613900000000000000000000000000000000000000000000000000000000000000091ba052d109b10b252b6ed90afa9d7e3c124432e5b12c55da62476946c6bda20eb1c7a01d9c1296a664b97033ad5bcacd3048cf5e1a75bcf37f3790f9f4734cf8dd94a1"
                },
                {
                    "hash" : "0x3b63dfcd591187cb0701c473ca98078e5126c3cf1b62f44ee5c9f551a3951b66",
                    "indexes" : {
                        "data" : 1,
                        "gas" : 0,
                        "value" : 0
                    },
                    "logs" : "0x1dcc4de8dec75d7aab85b567b6ccd41ad312451b948a7413f0a142fd40d49347",
                    "txbytes" : "0xf885800a8401ba814094cccccccccccccccccccccccccccccccccccccccc01a4693c613900000000000000000000000000000000000000000000000000000000000000011ca0460aa506804a9e657c91be62de96f457fe1ccf03b2cdbb1056464ca719b39bffa0161d8490ac2eccf337aeb0fb008ee7a9c2215bc8bc64f0b492d5040a4514589f"
                },
                {
                    "hash" : "0x3b63dfcd591187cb0701c473ca98078e5126c3cf1b62f44ee5c9f551a3951b66",
                    "indexes" : {
                        "data" : 2,
                        "gas" : 0,
                        "value" : 0
                    },
                    "logs" : "0x1dcc4de8dec75d7aab85b567b6ccd41ad312451b948a7413f0a142fd40d49347",
                    "txbytes" : "0xf885800a8401ba814094cccccccccccccccccccccccccccccccccccccccc01a4693c613900000000000000000000000000000000000000000000000000000000000000021ba0f3570e9410d7c03667e646751038032b0f5b7c4f5642ff56b398457f153d9b39a0797fa257c96ab8223dfe54af1f92bb538e66b86f16adc36aaa00a154b1294d97"
                }
            ]
        },
        "pre" : {
            "0x0000000000000000000000000000000000000100" : {
                "balance" : "0x0ba1a9ce0ba1a9ce",
                "code" : "0x600060006000600060006000a461600d60005500",
                "nonce" : "0x00",
                "storage" : {
                }
            },
            "0x0000000000000000000000000000000000000101" : {
                "balance" : "0x0ba1a9ce0ba1a9ce",
                "code" : "0x7faabbffffffffffffffffffffffffffffffffffffffffffffffffffffffffccdd600052600060006000600060016001600003a461600d60005500",
                "nonce" : "0x00",
                "storage" : {
                }
            },
            "0x0000000000000000000000000000000000000102" : {
                "balance" : "0x0ba1a9ce0ba1a9ce",
                "code" : "0x7faabbffffffffffffffffffffffffffffffffffffffffffffffffffffffffccdd600052600060006000600060016000036001a461600d60005500",
                "nonce" : "0x00",
                "storage" : {
                }
            },
            "0x0000000000000000000000000000000000000103" : {
                "balance" : "0x0ba1a9ce0ba1a9ce",
                "code" : "0x7faabbffffffffffffffffffffffffffffffffffffffffffffffffffffffffccdd600052600060006000600060006001a461600d60005500",
                "nonce" : "0x00",
                "storage" : {
                }
            },
            "0x0000000000000000000000000000000000000104" : {
                "balance" : "0x0ba1a9ce0ba1a9ce",
                "code" : "0x7fffffffffffffffffffffffffffffffffffffffffffffffffffffffffffffffff600052600060006000600060206000a461600d60005500",
                "nonce" : "0x00",
                "storage" : {
                }
            },
            "0x0000000000000000000000000000000000000105" : {
                "balance" : "0x0ba1a9ce0ba1a9ce",
                "code" : "0x7faabbffffffffffffffffffffffffffffffffffffffffffffffffffffffffccdd600052600060006000600060016000a461600d60005500",
                "nonce" : "0x00",
                "storage" : {
                }
            },
            "0x0000000000000000000000000000000000000106" : {
                "balance" : "0x0ba1a9ce0ba1a9ce",
                "code" : "0x7faabbffffffffffffffffffffffffffffffffffffffffffffffffffffffffccdd60005260006000600060006001601fa461600d60005500",
                "nonce" : "0x00",
                "storage" : {
                }
            },
            "0x0000000000000000000000000000000000000107" : {
                "balance" : "0x0ba1a9ce0ba1a9ce",
                "code" : "0x7faabbffffffffffffffffffffffffffffffffffffffffffffffffffffffffccdd6000523360006000600060206000a461600d60005500",
                "nonce" : "0x00",
                "storage" : {
                }
            },
            "0x0000000000000000000000000000000000000108" : {
                "balance" : "0x0ba1a9ce0ba1a9ce",
                "code" : "0x60ff60005360016000036001600003600160000360016000036001601fa461600d60005500",
                "nonce" : "0x00",
                "storage" : {
                }
            },
            "0x0000000000000000000000000000000000000109" : {
                "balance" : "0x0ba1a9ce0ba1a9ce",
                "code" : "0x7faabbffffffffffffffffffffffffffffffffffffffffffffffffffffffffccdd600052585858586001601fa461600d60005500",
                "nonce" : "0x00",
                "storage" : {
                }
            },
            "0xa94f5374fce5edbc8e2a8697c15331677e6ebf0b" : {
                "balance" : "0x100000000000",
                "code" : "0x",
                "nonce" : "0x00",
                "storage" : {
                }
            },
            "0xcccccccccccccccccccccccccccccccccccccccc" : {
                "balance" : "0x0ba1a9ce0ba1a9ce",
                "code" : "0x6000600060006000600435610100015af400",
                "nonce" : "0x00",
                "storage" : {
                    "0x00" : "0x0bad"
                }
            }
        },
        "transaction" : {
            "data" : [
                "0x693c61390000000000000000000000000000000000000000000000000000000000000000",
                "0x693c61390000000000000000000000000000000000000000000000000000000000000001",
                "0x693c61390000000000000000000000000000000000000000000000000000000000000002",
                "0x693c61390000000000000000000000000000000000000000000000000000000000000003",
                "0x693c61390000000000000000000000000000000000000000000000000000000000000004",
                "0x693c61390000000000000000000000000000000000000000000000000000000000000005",
                "0x693c61390000000000000000000000000000000000000000000000000000000000000006",
                "0x693c61390000000000000000000000000000000000000000000000000000000000000007",
                "0x693c61390000000000000000000000000000000000000000000000000000000000000008",
                "0x693c61390000000000000000000000000000000000000000000000000000000000000009"
            ],
            "gasLimit" : [
                "0x01ba8140"
            ],
            "gasPrice" : "0x0a",
            "nonce" : "0x00",
            "secretKey" : "0x45a915e4d060149eb4365960e6a7a45f334393093061116b197e3240065ff2d8",
            "sender" : "0xa94f5374fce5edbc8e2a8697c15331677e6ebf0b",
            "to" : "0xcccccccccccccccccccccccccccccccccccccccc",
            "value" : [
                "0x01"
            ]
        }
    }
}