{
    "CallEcrecover_Overflow" : {
        "_info" : {
            "comment" : "",
            "filling-rpc-server" : "evm version 1.10.26-stable-e5eb32ac",
            "filling-tool-version" : "retesteth-0.2.3-postmerge+commit.801c0d4c.Linux.g++",
            "generatedTestHash" : "7b91c54e53c2e70151a77d50135ac712c27ed3a543f22fb490c31c0ac14a5926",
            "labels" : {
                "0" : "fail",
                "1" : "fail",
                "2" : "fail",
                "3" : "pass01",
                "4" : "fail",
                "5" : "fail",
                "6" : "pass02",
                "7" : "pass03"
            },
            "lllcversion" : "Version: 0.5.14-develop.2022.6.30+commit.401d5358.mod.Linux.g++",
            "solidity" : "Version: 0.8.18-develop.2022.12.14+commit.a9fe05e8.Linux.g++",
            "source" : "src/GeneralStateTestsFiller/stPreCompiledContracts2/CallEcrecover_OverflowFiller.yml",
            "sourceHash" : "a5b5384433af1e29d31cd5c2bb34571aeb4273654a17303180e37c80bc66c1fc"
        },
        "env" : {
            "currentBaseFee" : "0x0a",
            "currentCoinbase" : "0x2adc25665018aa1fe0e6bc666dac8fc2697ff9ba",
            "currentDifficulty" : "0x020000",
            "currentGasLimit" : "0xff112233445566",
            "currentNumber" : "0x01",
            "currentRandom" : "0x0000000000000000000000000000000000000000000000000000000000020000",
            "currentTimestamp" : "0x03e8",
            "previousHash" : "0x5e20a0453cecd065ea59c37ac63e079ee08998b6045136a8ce6635c7912ec0b6"
        },
        "post" : {
            "Berlin" : [
                {
                    "hash" : "0x591b927e25f7f1bacd59bcd9ccac45d0771ca00de495df3e46c57c97826f2dcd",
                    "indexes" : {
                        "data" : 0,
                        "gas" : 0,
                        "value" : 0
                    },
                    "logs" : "0x1dcc4de8dec75d7aab85b567b6ccd41ad312451b948a7413f0a142fd40d49347",
                    "txbytes" : "0xf8e9800a8401ba814094cccccccccccccccccccccccccccccccccccccccc830186a0b884917694f918c547e4f7b0f325ad1e56f57e26c745b09a3e503d86e00e5255ff7f715d3d1c000000000000000000000000000000000000000000000000000000000000001cfffffffffffffffffffffffffffffffebaaedce6af48a03bbfd25e8cd03641411fffd310ac743f371de3b9f7f9cb56c0b28ad43601b4ab949f53faa07bd2c8041ba0eb31f2fabbcfae034396761aa2122fc4c647b35f2dd5236415142fcdd3da63fba002e9a5c094ca80b1792d09819b53bfdf4c3b15605619b0695d28703c36b9a47d"
                },
                {
                    "hash" : "0x591b927e25f7f1bacd59bcd9ccac45d0771ca00de495df3e46c57c97826f2dcd",
                    "indexes" : {
                        "data" : 1,
                        "gas" : 0,
                        "value" : 0
                    },
                    "logs" : "0x1dcc4de8dec75d7aab85b567b6ccd41ad312451b948a7413f0a142fd40d49347",
                    "txbytes" : "0xf8e9800a8401ba814094cccccccccccccccccccccccccccccccccccccccc830186a0b884917694f918c547e4f7b0f325ad1e56f57e26c745b09a3e503d86e00e5255ff7f715d3d1c000000000000000000000000000000000000000000000000000000000000001cfffffffffffffffffffffffffffffffebaaedce6af48a03bbfd25e8cd03641421fffd310ac743f371de3b9f7f9cb56c0b28ad43601b4ab949f53faa07bd2c8041ba041a8fadaa34fabe58c2470473843d11026c7bdc15bc7e0b3c566df5d180bcfe2a047dfd46a56a97d7f3691852acf663da611cd635bb0588a1568891f968cb76c2f"
                },
                {
                    "hash" : "0x591b927e25f7f1bacd59bcd9ccac45d0771ca00de495df3e46c57c97826f2dcd",
                    "indexes" : {
                        "data" : 2,
                        "gas" : 0,
                        "value" : 0
                    },
                    "logs" : "0x1dcc4de8dec75d7aab85b567b6ccd41ad312451b948a7413f0a142fd40d49347",
                    "txbytes" : "0xf8e9800a8401ba814094cccccccccccccccccccccccccccccccccccccccc830186a0b884917694f918c547e4f7b0f325ad1e56f57e26c745b09a3e503d86e00e5255ff7f715d3d1c000000000000000000000000000000000000000000000000000000000000001cfffffffffffffffffffffffffffffffebaaedce6af48a03bbfd25e8cd0364140efffd310ac743f371de3b9f7f9cb56c0b28ad43601b4ab949f53faa07bd2c8041ca08f2565b263e499ff770bb90d903c11fd4c35782245d292b37534676740386044a069158854bb7d01384015a83d1f8ac42ed66e46e3ab27f40677b7acd744a0ddbd"
                },
                {
                    "hash" : "0x591b927e25f7f1bacd59bcd9ccac45d0771ca00de495df3e46c57c97826f2dcd",
                    "indexes" : {
                        "data" : 4,
                        "gas" : 0,
                        "value" : 0
                    },
                    "logs" : "0x1dcc4de8dec75d7aab85b567b6ccd41ad312451b948a7413f0a142fd40d49347",
                    "txbytes" : "0xf8e9800a8401ba814094cccccccccccccccccccccccccccccccccccccccc830186a0b884917694f918c547e4f7b0f325ad1e56f57e26c745b09a3e503d86e00e5255ff7f715d3d1c000000000000000000000000000000000000000000000000000000000000001c48b55bfa915ac795c431978d8a6a992b628d557da5ff759b307d495a36649353fffffffffffffffffffffffffffffffebaaedce6af48a03bbfd25e8cd03641411ba06eff048b5e6a1f213e8f10114af95bcae9939ab95478899618a72bbc60d1a38ea029f166047ae7b7ceee7f3e08a7861d6a29de3fc6224064920696e6438e891d23"
                },
                {
                    "hash" : "0x591b927e25f7f1bacd59bcd9ccac45d0771ca00de495df3e46c57c97826f2dcd",
                    "indexes" : {
                        "data" : 5,
                        "gas" : 0,
                        "value" : 0
                    },
                    "logs" : "0x1dcc4de8dec75d7aab85b567b6ccd41ad312451b948a7413f0a142fd40d49347",
                    "txbytes" : "0xf8e9800a8401ba814094cccccccccccccccccccccccccccccccccccccccc830186a0b884917694f918c547e4f7b0f325ad1e56f57e26c745b09a3e503d86e00e5255ff7f715d3d1c000000000000000000000000000000000000000000000000000000000000001c48b55bfa915ac795c431978d8a6a992b628d557da5ff759b307d495a36649353fffffffffffffffffffffffffffffffebaaedce6af48a03bbfd25e8cd03641421ca0638b1af1d19e7d1f9c23b2f76a41be5c3507e46887989149ccac74a0474467b5a04c24d5c828092738ee43f7ba0ede4a43033ee2c75f8caabffd2eb9f9e9cb395d"
                },
                {
                    "hash" : "0x7b29e2b1fc8eefcde1e910c2473935a272fe9a144e13742c98cc89558aae3802",
                    "indexes" : {
                        "data" : 3,
                        "gas" : 0,
                        "value" : 0
                    },
                    "logs" : "0x1dcc4de8dec75d7aab85b567b6ccd41ad312451b948a7413f0a142fd40d49347",
                    "txbytes" : "0xf8e9800a8401ba814094cccccccccccccccccccccccccccccccccccccccc830186a0b884917694f918c547e4f7b0f325ad1e56f57e26c745b09a3e503d86e00e5255ff7f715d3d1c000000000000000000000000000000000000000000000000000000000000001cfffffffffffffffffffffffffffffffebaaedce6af48a03bbfd25e8cd036413fefffd310ac743f371de3b9f7f9cb56c0b28ad43601b4ab949f53faa07bd2c8041ba036d425aa486ec99815ad191c603ee00942ed8019325633e2299545751b9d1749a00d318412523d067d6284fa30cc3c7a46e5a7c7297430ac6d966a91b0ade238b8"
                },
                {
                    "hash" : "0x106aa934bcd7dd84cd10ec607428ca5e6ba1050710e4a5a5c448521a84943a22",
                    "indexes" : {
                        "data" : 6,
                        "gas" : 0,
                        "value" : 0
                    },
                    "logs" : "0x1dcc4de8dec75d7aab85b567b6ccd41ad312451b948a7413f0a142fd40d49347",
                    "txbytes" : "0xf8e9800a8401ba814094cccccccccccccccccccccccccccccccccccccccc830186a0b884917694f918c547e4f7b0f325ad1e56f57e26c745b09a3e503d86e00e5255ff7f715d3d1c000000000000000000000000000000000000000000000000000000000000001c48b55bfa915ac795c431978d8a6a992b628d557da5ff759b307d495a36649353fffffffffffffffffffffffffffffffebaaedce6af48a03bbfd25e8cd03641401ca032472fc2d34fcdf3de408af07bf427d91ccd929d3c5cd0cb85dd8675af0ba085a057cff9c74781d8191a1f1e1859ef23f7b8a065fb75e53848df0647e64a85e2a3"
                },
                {
                    "hash" : "0x6c1f2691c4c82d0baebadc818183668c4ed844db4576758ffe179732b993f9bf",
                    "indexes" : {
                        "data" : 7,
                        "gas" : 0,
                        "value" : 0
                    },
                    "logs" : "0x1dcc4de8dec75d7aab85b567b6ccd41ad312451b948a7413f0a142fd40d49347",
                    "txbytes" : "0xf8e9800a8401ba814094cccccccccccccccccccccccccccccccccccccccc830186a0b884917694f918c547e4f7b0f325ad1e56f57e26c745b09a3e503d86e00e5255ff7f715d3d1c000000000000000000000000000000000000000000000000000000000000001c48b55bfa915ac795c431978d8a6a992b628d557da5ff759b307d495a36649353fffffffffffffffffffffffffffffffebaaedce6af48a03bbfd25e8cd036413f1ca0453916aaf47defc7ee3a41b68524b80ceb01b49833598bf916691d8dd595fe59a018f0e6050da7773a79719eae6bbe061ca91f0cd12d0a985b28f5da019ac5d20b"
                }
            ]
        },
        "pre" : {
            "0xa94f5374fce5edbc8e2a8697c15331677e6ebf0b" : {
                "balance" : "0x0de0b6b3a7640000",
                "code" : "0x",
                "nonce" : "0x00",
                "storage" : {
                }
            },
            "0xcccccccccccccccccccccccccccccccccccccccc" : {
                "balance" : "0x00",
                "code" : "0x6080600460003760206080806000806001610bb8f1600055608051600155",
                "nonce" : "0x00",
                "storage" : {
                }
            }
        },
        "transaction" : {
            "data" : [
                "0x917694f918c547e4f7b0f325ad1e56f57e26c745b09a3e503d86e00e5255ff7f715d3d1c000000000000000000000000000000000000000000000000000000000000001cfffffffffffffffffffffffffffffffebaaedce6af48a03bbfd25e8cd03641411fffd310ac743f371de3b9f7f9cb56c0b28ad43601b4ab949f53faa07bd2c804",
                "0x917694f918c547e4f7b0f325ad1e56f57e26c745b09a3e503d86e00e5255ff7f715d3d1c000000000000000000000000000000000000000000000000000000000000001cfffffffffffffffffffffffffffffffebaaedce6af48a03bbfd25e8cd03641421fffd310ac743f371de3b9f7f9cb56c0b28ad43601b4ab949f53faa07bd2c804",
                "0x917694f918c547e4f7b0f325ad1e56f57e26c745b09a3e503d86e00e5255ff7f715d3d1c000000000000000000000000000000000000000000000000000000000000001cfffffffffffffffffffffffffffffffebaaedce6af48a03bbfd25e8cd0364140efffd310ac743f371de3b9f7f9cb56c0b28ad43601b4ab949f53faa07bd2c804",
                "0x917694f918c547e4f7b0f325ad1e56f57e26c745b09a3e503d86e00e5255ff7f715d3d1c000000000000000000000000000000000000000000000000000000000000001cfffffffffffffffffffffffffffffffebaaedce6af48a03bbfd25e8cd036413fefffd310ac743f371de3b9f7f9cb56c0b28ad43601b4ab949f53faa07bd2c804",
                "0x917694f918c547e4f7b0f325ad1e56f57e26c745b09a3e503d86e00e5255ff7f715d3d1c000000000000000000000000000000000000000000000000000000000000001c48b55bfa915ac795c431978d8a6a992b628d557da5ff759b307d495a36649353fffffffffffffffffffffffffffffffebaaedce6af48a03bbfd25e8cd0364141",
                "0x917694f918c547e4f7b0f325ad1e56f57e26c745b09a3e503d86e00e5255ff7f715d3d1c000000000000000000000000000000000000000000000000000000000000001c48b55bfa915ac795c431978d8a6a992b628d557da5ff759b307d495a36649353fffffffffffffffffffffffffffffffebaaedce6af48a03bbfd25e8cd0364142",
                "0x917694f918c547e4f7b0f325ad1e56f57e26c745b09a3e503d86e00e5255ff7f715d3d1c000000000000000000000000000000000000000000000000000000000000001c48b55bfa915ac795c431978d8a6a992b628d557da5ff759b307d495a36649353fffffffffffffffffffffffffffffffebaaedce6af48a03bbfd25e8cd0364140",
                "0x917694f918c547e4f7b0f325ad1e56f57e26c745b09a3e503d86e00e5255ff7f715d3d1c000000000000000000000000000000000000000000000000000000000000001c48b55bfa915ac795c431978d8a6a992b628d557da5ff759b307d495a36649353fffffffffffffffffffffffffffffffebaaedce6af48a03bbfd25e8cd036413f"
            ],
            "gasLimit" : [
                "0x01ba8140"
            ],
            "gasPrice" : "0x0a",
            "nonce" : "0x00",
            "secretKey" : "0x45a915e4d060149eb4365960e6a7a45f334393093061116b197e3240065ff2d8",
            "sender" : "0xa94f5374fce5edbc8e2a8697c15331677e6ebf0b",
            "to" : "0xcccccccccccccccccccccccccccccccccccccccc",
            "value" : [
                "0x0186a0"
            ]
        }
    }
}