{
    "ecrecoverWeirdV" : {
        "_info" : {
            "comment" : "Ori Pomerantz qbzzt1@gmail.com",
            "filling-rpc-server" : "evm version 1.10.26-stable-e5eb32ac",
            "filling-tool-version" : "retesteth-0.2.3-postmerge+commit.801c0d4c.Linux.g++",
            "generatedTestHash" : "98dd0ccfbc47bd0d9c0f44abd98406dcd477dbf6c1159e7f2cb67429c5578e04",
            "labels" : {
                "0" : "fail",
                "1" : "good",
                "10" : "fail",
                "11" : "fail",
                "12" : "fail",
                "13" : "fail",
                "14" : "fail",
                "15" : "fail",
                "16" : "fail",
                "17" : "fail",
                "18" : "fail",
                "19" : "fail",
                "2" : "good",
                "20" : "fail",
                "21" : "fail",
                "22" : "fail",
                "23" : "fail",
                "24" : "fail",
                "25" : "fail",
                "26" : "fail",
                "27" : "fail",
                "28" : "fail",
                "29" : "fail",
                "3" : "good",
                "30" : "fail",
                "31" : "fail",
                "32" : "fail",
                "33" : "fail",
                "34" : "fail",
                "35" : "fail",
                "4" : "fail",
                "5" : "fail",
                "6" : "fail",
                "7" : "fail",
                "8" : "fail",
                "9" : "fail"
            },
            "lllcversion" : "Version: 0.5.14-develop.2022.6.30+commit.401d5358.mod.Linux.g++",
            "solidity" : "Version: 0.8.18-develop.2022.12.14+commit.a9fe05e8.Linux.g++",
            "source" : "src/GeneralStateTestsFiller/stPreCompiledContracts2/ecrecoverWeirdVFiller.yml",
            "sourceHash" : "82a56947ff2be518c33e1f9c3fae2920491d8ad6f017edc8b3e6e8ba33f7deed"
        },
        "env" : {
            "currentBaseFee" : "0x0a",
            "currentCoinbase" : "0x2adc25665018aa1fe0e6bc666dac8fc2697ff9ba",
            "currentDifficulty" : "0x020000",
            "currentGasLimit" : "0xff112233445566",
            "currentNumber" : "0x01",
            "currentRandom" : "0x0000000000000000000000000000000000000000000000000000000000020000",
            "currentTimestamp" : "0x03e8",
            "previousHash" : "0x5e20a0453cecd065ea59c37ac63e079ee08998b6045136a8ce6635c7912ec0b6"
        },
        "post" : {
            "Berlin" : [
                {
                    "hash" : "0x2c58ad2ffe3c4dbdc459799337885ed5e51b0675cba4365a71ffbe97abde5014",
                    "indexes" : {
                        "data" : 0,
                        "gas" : 0,
                        "value" : 0
                    },
                    "logs" : "0x1dcc4de8dec75d7aab85b567b6ccd41ad312451b948a7413f0a142fd40d49347",
                    "txbytes" : "0xf8e6010a8401ba814094000000000000000000000000000000000000c0de80b884917694f90000000000000000000000000000000000000000000000000000000000007e570000000000000000000000000000000000000000000000000000000000007e570000000000000000000000000000000000000000000000000000000000007e570000000000000000000000000000000000000000000000000000000000007e571ca0fddc696e91b018533577e7f137ca58cda8cb22e3aa6e685aa7548a2ec5599485a05eba174f888a7ba6c6c9a38a27a6d1103fd45ab0522379390d3d85bc85eab3ea"
                },
                {
                    "hash" : "0x43e4ead010bd4c4e97e770bfd8340bfe74a219f7f471c36d1ddaf80a7fc74098",
                    "indexes" : {
                        "data" : 4,
                        "gas" : 0,
                        "value" : 0
                    },
                    "logs" : "0x1dcc4de8dec75d7aab85b567b6ccd41ad312451b948a7413f0a142fd40d49347",
                    "txbytes" : "0xf8e6010a8401ba814094000000000000000000000000000000000000c0de80b884917694f9daf5a779ae972f972197303d7b574746c7ef83eadac0f2791ad23db92e4c8e53000000000000000000000000000000000000000000000000000000000000002528ef61340bd939bc2195fe537567866003e1a15d3c71ff63e1590620aa63627667cbe9d8997f761aecb703304b3800ccf555c9f3dc64214b297fb1966a3b6d831ba04a143809c5acf273d9d3ca10dd79fb277ea90d7d538588a147ba0c2c3cdf67b5a0425767dc094fd70aa76c63d5bb82db3fafcea7227e38f746a385159f58948cea"
                },
                {
                    "hash" : "0x5513d8cb8741d3a8d9e82a15c51c933f51239c9a196d9012d4d02c7ffee8086c",
                    "indexes" : {
                        "data" : 5,
                        "gas" : 0,
                        "value" : 0
                    },
                    "logs" : "0x1dcc4de8dec75d7aab85b567b6ccd41ad312451b948a7413f0a142fd40d49347",
                    "txbytes" : "0xf8e6010a8401ba814094000000000000000000000000000000000000c0de80b884917694f900000000000000000000000000000000000000000000000000000000000000000000000000000000000000000000000000000000000000000000000000000025ce354e1b07ba96e325aa4851999f07aabcb4471e49f0a0daafed98caab963f0379d9f3993cdd509f1bfba63dbd23dbdff879fb95203a5049f348a95ce8249f3b1ba04b1c01644bf493229a83fb4ac6c4ee193ad8cc7517c3235d69fe4d18825a803ca03387d3272019f68249d258efd57248e3d8708f39b68ab25df1fb1d89e8a37472"
                },
                {
                    "hash" : "0xc86805104d792f6d2c1671ed07a649c5fe28e0fad03379aba8309fe019b879e6",
                    "indexes" : {
                        "data" : 6,
                        "gas" : 0,
                        "value" : 0
                    },
                    "logs" : "0x1dcc4de8dec75d7aab85b567b6ccd41ad312451b948a7413f0a142fd40d49347",
                    "txbytes" : "0xf8e6010a8401ba814094000000000000000000000000000000000000c0de80b884917694f900000000000000000000000000000000000000000000000000000000000000010000000000000000000000000000000000000000000000000000000000000026541c4ce1565a646ddde26e1b483a88a6500ce15bd24622492f05cdd18b97161d1827e364c15cfa61dab02339904b1e542f3939c6e8d6367d352026e71ffd6af51ca05eb1d1361f38d5359afbc8a036d7b568f9abf62bb53df0b45e9ad6b3c3efe2e3a071ae7191914ed6289f75a27d5258032e1a9a7c6755daeabffd94be4895df6bcf"
                },
                {
                    "hash" : "0x5513d8cb8741d3a8d9e82a15c51c933f51239c9a196d9012d4d02c7ffee8086c",
                    "indexes" : {
                        "data" : 7,
                        "gas" : 0,
                        "value" : 0
                    },
                    "logs" : "0x1dcc4de8dec75d7aab85b567b6ccd41ad312451b948a7413f0a142fd40d49347",
                    "txbytes" : "0xf8e6010a8401ba814094000000000000000000000000000000000000c0de80b884917694f90000000000000000000000000000000000000000000000000000000000000000000000000000000000000000000000000000000000000000000000000000002fce354e1b07ba96e325aa4851999f07aabcb4471e49f0a0daafed98caab963f0379d9f3993cdd509f1bfba63dbd23dbdff879fb95203a5049f348a95ce8249f3b1ba0a6936b0e9be0345376b0c394a9891f5bfca4a71c47f0825eb92c0de1fda1b4e2a02befc9234304d5cb351dd7c0422f37b91c7be69d3957f27d6c4f8e5ce48d4cbe"
                },
                {
                    "hash" : "0xc86805104d792f6d2c1671ed07a649c5fe28e0fad03379aba8309fe019b879e6",
                    "indexes" : {
                        "data" : 8,
                        "gas" : 0,
                        "value" : 0
                    },
                    "logs" : "0x1dcc4de8dec75d7aab85b567b6ccd41ad312451b948a7413f0a142fd40d49347",
                    "txbytes" : "0xf8e6010a8401ba814094000000000000000000000000000000000000c0de80b884917694f900000000000000000000000000000000000000000000000000000000000000010000000000000000000000000000000000000000000000000000000000000030541c4ce1565a646ddde26e1b483a88a6500ce15bd24622492f05cdd18b97161d1827e364c15cfa61dab02339904b1e542f3939c6e8d6367d352026e71ffd6af51ca031a567a23917df2eb6c3672cb7bfd5cc3664b105843b045b830bd0391511fc54a07746ecb4a2e5d9b0327d0518f8a215a89c23aa351faedae2d677040d46fdaec7"
                },
                {
                    "hash" : "0x5513d8cb8741d3a8d9e82a15c51c933f51239c9a196d9012d4d02c7ffee8086c",
                    "indexes" : {
                        "data" : 9,
                        "gas" : 0,
                        "value" : 0
                    },
                    "logs" : "0x1dcc4de8dec75d7aab85b567b6ccd41ad312451b948a7413f0a142fd40d49347",
                    "txbytes" : "0xf8e6010a8401ba814094000000000000000000000000000000000000c0de80b884917694f900000000000000000000000000000000000000000000000000000000000000000000000000000000000000000000000000000000000000000000000000000039ce354e1b07ba96e325aa4851999f07aabcb4471e49f0a0daafed98caab963f0379d9f3993cdd509f1bfba63dbd23dbdff879fb95203a5049f348a95ce8249f3b1ca021fc1a7364eb9db2e15096096a29e14fb95a4b88f0227f9ad1cb09ebeb71f9a0a0266d9f5be4597b8efe50561776bb3a09bfff38467dc1cb5252ebdbc0ac999dd6"
                },
                {
                    "hash" : "0xc86805104d792f6d2c1671ed07a649c5fe28e0fad03379aba8309fe019b879e6",
                    "indexes" : {
                        "data" : 10,
                        "gas" : 0,
                        "value" : 0
                    },
                    "logs" : "0x1dcc4de8dec75d7aab85b567b6ccd41ad312451b948a7413f0a142fd40d49347",
                    "txbytes" : "0xf8e6010a8401ba814094000000000000000000000000000000000000c0de80b884917694f90000000000000000000000000000000000000000000000000000000000000001000000000000000000000000000000000000000000000000000000000000003a541c4ce1565a646ddde26e1b483a88a6500ce15bd24622492f05cdd18b97161d1827e364c15cfa61dab02339904b1e542f3939c6e8d6367d352026e71ffd6af51ba020eee51f92a501869d9fcf64fef48e5674aec8beeae650028e30e25419e5f93ba0500fe669a482d5e1b90ad40d8e09a5b7dd84d95dc5fb99f58975aebd18b054f7"
                },
                {
                    "hash" : "0x5513d8cb8741d3a8d9e82a15c51c933f51239c9a196d9012d4d02c7ffee8086c",
                    "indexes" : {
                        "data" : 11,
                        "gas" : 0,
                        "value" : 0
                    },
                    "logs" : "0x1dcc4de8dec75d7aab85b567b6ccd41ad312451b948a7413f0a142fd40d49347",
                    "txbytes" : "0xf8e6010a8401ba814094000000000000000000000000000000000000c0de80b884917694f90000000000000000000000000000000000000000000000000000000000000000000000000000000000000000000000000000000000000000000000000000004dce354e1b07ba96e325aa4851999f07aabcb4471e49f0a0daafed98caab963f0379d9f3993cdd509f1bfba63dbd23dbdff879fb95203a5049f348a95ce8249f3b1ca089fed94f74b3458ea68ab5a56ef5a83bd34d66c3ff44d4141375c1956b3b602da0346334bfcb88c6aa982c47f73f194940b9104acd377fe09dfa9bd169271329ca"
                },
                {
                    "hash" : "0xc86805104d792f6d2c1671ed07a649c5fe28e0fad03379aba8309fe019b879e6",
                    "indexes" : {
                        "data" : 12,
                        "gas" : 0,
                        "value" : 0
                    },
                    "logs" : "0x1dcc4de8dec75d7aab85b567b6ccd41ad312451b948a7413f0a142fd40d49347",
                    "txbytes" : "0xf8e6010a8401ba814094000000000000000000000000000000000000c0de80b884917694f90000000000000000000000000000000000000000000000000000000000000001000000000000000000000000000000000000000000000000000000000000004e541c4ce1565a646ddde26e1b483a88a6500ce15bd24622492f05cdd18b97161d1827e364c15cfa61dab02339904b1e542f3939c6e8d6367d352026e71ffd6af51ba07ea77c1ebcd60cf50df81c608a39880fbd4795fbdcc29c1303a3e9967c4eb913a065f5a10dd8ea1cee95dec94ffaf248544fb5204bb98883c87c736e0ed1a67d50"
                },
                {
                    "hash" : "0x5513d8cb8741d3a8d9e82a15c51c933f51239c9a196d9012d4d02c7ffee8086c",
                    "indexes" : {
                        "data" : 13,
                        "gas" : 0,
                        "value" : 0
                    },
                    "logs" : "0x1dcc4de8dec75d7aab85b567b6ccd41ad312451b948a7413f0a142fd40d49347",
                    "txbytes" : "0xf8e6010a8401ba814094000000000000000000000000000000000000c0de80b884917694f900000000000000000000000000000000000000000000000000000000000000000000000000000000000000000000000000000000000000000000000000000023ce354e1b07ba96e325aa4851999f07aabcb4471e49f0a0daafed98caab963f0379d9f3993cdd509f1bfba63dbd23dbdff879fb95203a5049f348a95ce8249f3b1ba0d72a6ad720cfa720c1c38eb1bacc10ec05399ef19ed06e341878edfeb5d0f6f5a03bbe5cfe27463f2780bba44e1a0a67fcdd4562334ab31bb154b19c890872958d"
                },
                {
                    "hash" : "0xc86805104d792f6d2c1671ed07a649c5fe28e0fad03379aba8309fe019b879e6",
                    "indexes" : {
                        "data" : 14,
                        "gas" : 0,
                        "value" : 0
                    },
                    "logs" : "0x1dcc4de8dec75d7aab85b567b6ccd41ad312451b948a7413f0a142fd40d49347",
                    "txbytes" : "0xf8e6010a8401ba814094000000000000000000000000000000000000c0de80b884917694f900000000000000000000000000000000000000000000000000000000000000010000000000000000000000000000000000000000000000000000000000000024541c4ce1565a646ddde26e1b483a88a6500ce15bd24622492f05cdd18b97161d1827e364c15cfa61dab02339904b1e542f3939c6e8d6367d352026e71ffd6af51ba0f4456d521ae92ed3ddb19cdd7135b85ef2571247b56b0ffd4cc8d287aedab361a07a509c35012cbb6405ff7d308f3873c92c6542046f30bca3b07086a8a5501cfa"
                },
                {
                    "hash" : "0x5513d8cb8741d3a8d9e82a15c51c933f51239c9a196d9012d4d02c7ffee8086c",
                    "indexes" : {
                        "data" : 15,
                        "gas" : 0,
                        "value" : 0
                    },
                    "logs" : "0x1dcc4de8dec75d7aab85b567b6ccd41ad312451b948a7413f0a142fd40d49347",
                    "txbytes" : "0xf8e6010a8401ba814094000000000000000000000000000000000000c0de80b884917694f9000000000000000000000000000000000000000000000000000000000000000000000000000000000000000000000000000000000000000000000000000000ebce354e1b07ba96e325aa4851999f07aabcb4471e49f0a0daafed98caab963f0379d9f3993cdd509f1bfba63dbd23dbdff879fb95203a5049f348a95ce8249f3b1ca0c94c08d852d192ee0cb5f2fa1f6a430de9e8aa8021f4dea13c877a02c01189c5a0532e95211d68aeb9b1a9004e26548941c03fbbc931d0fa9d72d5f57a78e68a56"
                },
                {
                    "hash" : "0xc86805104d792f6d2c1671ed07a649c5fe28e0fad03379aba8309fe019b879e6",
                    "indexes" : {
                        "data" : 16,
                        "gas" : 0,
                        "value" : 0
                    },
                    "logs" : "0x1dcc4de8dec75d7aab85b567b6ccd41ad312451b948a7413f0a142fd40d49347",
                    "txbytes" : "0xf8e6010a8401ba814094000000000000000000000000000000000000c0de80b884917694f9000000000000000000000000000000000000000000000000000000000000000100000000000000000000000000000000000000000000000000000000000000ec541c4ce1565a646ddde26e1b483a88a6500ce15bd24622492f05cdd18b97161d1827e364c15cfa61dab02339904b1e542f3939c6e8d6367d352026e71ffd6af51ba0ce9d7ddb515da032225de3d66837be9a3a95ba34b0dd57f47c94b6f6ff4d149ca00b3368ff57424019f49a1dee9f6075d57232ce5fbad9ea88db338b639438f73b"
                },
                {
                    "hash" : "0x5513d8cb8741d3a8d9e82a15c51c933f51239c9a196d9012d4d02c7ffee8086c",
                    "indexes" : {
                        "data" : 17,
                        "gas" : 0,
                        "value" : 0
                    },
                    "logs" : "0x1dcc4de8dec75d7aab85b567b6ccd41ad312451b948a7413f0a142fd40d49347",
                    "txbytes" : "0xf8e6010a8401ba814094000000000000000000000000000000000000c0de80b884917694f900000000000000000000000000000000000000000000000000000000000000010000000000000000000000000000000000000000000000000000000000000000541c4ce1565a646ddde26e1b483a88a6500ce15bd24622492f05cdd18b97161d1827e364c15cfa61dab02339904b1e542f3939c6e8d6367d352026e71ffd6af51ca04197d4d53493b4d7581d6bfa984701ff5478d6ef059889a110dcf6a6bd54366ba02be02cbfb8c5388dd7efa2d2b916b4fdab9a289ea0174fdff26d3cb435f95b17"
                },
                {
                    "hash" : "0x5513d8cb8741d3a8d9e82a15c51c933f51239c9a196d9012d4d02c7ffee8086c",
                    "indexes" : {
                        "data" : 18,
                        "gas" : 0,
                        "value" : 0
                    },
                    "logs" : "0x1dcc4de8dec75d7aab85b567b6ccd41ad312451b948a7413f0a142fd40d49347",
                    "txbytes" : "0xf8e6010a8401ba814094000000000000000000000000000000000000c0de80b884917694f900000000000000000000000000000000000000000000000000000000000000000000000000000000000000000000000000000000000000000000000000000001ce354e1b07ba96e325aa4851999f07aabcb4471e49f0a0daafed98caab963f0379d9f3993cdd509f1bfba63dbd23dbdff879fb95203a5049f348a95ce8249f3b1ca0595f43a01cc3006d4c42973e2541465c11ea0a1f4d5891495ce548b8435d4475a07f7632acd40d94ecdf7a7e64e0fdc1c7c2c89a17c54d31af5e490745f8372a6f"
                },
                {
                    "hash" : "0xc86805104d792f6d2c1671ed07a649c5fe28e0fad03379aba8309fe019b879e6",
                    "indexes" : {
                        "data" : 19,
                        "gas" : 0,
                        "value" : 0
                    },
                    "logs" : "0x1dcc4de8dec75d7aab85b567b6ccd41ad312451b948a7413f0a142fd40d49347",
                    "txbytes" : "0xf8e6010a8401ba814094000000000000000000000000000000000000c0de80b884917694f900000000000000000000000000000000000000000000000000000000000000010000000000000000000000000000000000000000000000000000000000000002541c4ce1565a646ddde26e1b483a88a6500ce15bd24622492f05cdd18b97161d1827e364c15cfa61dab02339904b1e542f3939c6e8d6367d352026e71ffd6af51ca00c433529e47e77c47a3e3c81043b5def05a3a6056ff102aa7a39113b57bf147ba0764dc23e0d2c2117171de9a5fd442791caa3df9dfbad5122a1a3a6846d106c1c"
                },
                {
                    "hash" : "0x5513d8cb8741d3a8d9e82a15c51c933f51239c9a196d9012d4d02c7ffee8086c",
                    "indexes" : {
                        "data" : 20,
                        "gas" : 0,
                        "value" : 0
                    },
                    "logs" : "0x1dcc4de8dec75d7aab85b567b6ccd41ad312451b948a7413f0a142fd40d49347",
                    "txbytes" : "0xf8e6010a8401ba814094000000000000000000000000000000000000c0de80b884917694f900000000000000000000000000000000000000000000000000000000000000000000000000000000000000000000000000000000000000000000000000000003ce354e1b07ba96e325aa4851999f07aabcb4471e49f0a0daafed98caab963f0379d9f3993cdd509f1bfba63dbd23dbdff879fb95203a5049f348a95ce8249f3b1ba0205f9c295d7216514f1f7ebfd2eee4b5658d2031b5437d7b3c89ba2d18819886a0305787f97dbae66acaebc955ee1b961f7c7001b60563519f283d8a6f5b1a5b14"
                },
                {
                    "hash" : "0xc86805104d792f6d2c1671ed07a649c5fe28e0fad03379aba8309fe019b879e6",
                    "indexes" : {
                        "data" : 21,
                        "gas" : 0,
                        "value" : 0
                    },
                    "logs" : "0x1dcc4de8dec75d7aab85b567b6ccd41ad312451b948a7413f0a142fd40d49347",
                    "txbytes" : "0xf8e6010a8401ba814094000000000000000000000000000000000000c0de80b884917694f900000000000000000000000000000000000000000000000000000000000000010000000000000000000000000000000000000000000000000000000000000004541c4ce1565a646ddde26e1b483a88a6500ce15bd24622492f05cdd18b97161d1827e364c15cfa61dab02339904b1e542f3939c6e8d6367d352026e71ffd6af51ba0443d1b32f3eff0df011a17be16a54aaa942d31f3e901220257bf42c0086e86bda01ad8eb6222966d58cc7cb8a9c79e1c71b3debaa4707c9d7861a9968bfae7688c"
                },
                {
                    "hash" : "0x5513d8cb8741d3a8d9e82a15c51c933f51239c9a196d9012d4d02c7ffee8086c",
                    "indexes" : {
                        "data" : 22,
                        "gas" : 0,
                        "value" : 0
                    },
                    "logs" : "0x1dcc4de8dec75d7aab85b567b6ccd41ad312451b948a7413f0a142fd40d49347",
                    "txbytes" : "0xf8e6010a8401ba814094000000000000000000000000000000000000c0de80b884917694f900000000000000000000000000000000000000000000000000000000000000000000000000000000000000000000000000000000000000000000000000000005ce354e1b07ba96e325aa4851999f07aabcb4471e49f0a0daafed98caab963f0379d9f3993cdd509f1bfba63dbd23dbdff879fb95203a5049f348a95ce8249f3b1ba0bf13c4cb94324bfe9077eefb5f4f6815afd11f1bf710632efd183113d109665ea07a22a87b81336bbd2ddf66df479862c2b5579feb4951b08d2d013c79c15487f1"
                },
                {
                    "hash" : "0xc86805104d792f6d2c1671ed07a649c5fe28e0fad03379aba8309fe019b879e6",
                    "indexes" : {
                        "data" : 23,
                        "gas" : 0,
                        "value" : 0
                    },
                    "logs" : "0x1dcc4de8dec75d7aab85b567b6ccd41ad312451b948a7413f0a142fd40d49347",
                    "txbytes" : "0xf8e6010a8401ba814094000000000000000000000000000000000000c0de80b884917694f900000000000000000000000000000000000000000000000000000000000000010000000000000000000000000000000000000000000000000000000000000006541c4ce1565a646ddde26e1b483a88a6500ce15bd24622492f05cdd18b97161d1827e364c15cfa61dab02339904b1e542f3939c6e8d6367d352026e71ffd6af51ca0728a7a4c8a203f824db665064c121cb5e8c882954ccea052b000e82c78149abea07a3a2e5e18867650a18d447e624e5820d6fca9c5f03e2657d438b6ad68d4cebf"
                },
                {
                    "hash" : "0x5513d8cb8741d3a8d9e82a15c51c933f51239c9a196d9012d4d02c7ffee8086c",
                    "indexes" : {
                        "data" : 24,
                        "gas" : 0,
                        "value" : 0
                    },
                    "logs" : "0x1dcc4de8dec75d7aab85b567b6ccd41ad312451b948a7413f0a142fd40d49347",
                    "txbytes" : "0xf8e6010a8401ba814094000000000000000000000000000000000000c0de80b884917694f900000000000000000000000000000000000000000000000000000000000000000000000000000000000000000000000000000000000000000000000000000007ce354e1b07ba96e325aa4851999f07aabcb4471e49f0a0daafed98caab963f0379d9f3993cdd509f1bfba63dbd23dbdff879fb95203a5049f348a95ce8249f3b1ba0a3ca85e330e11509faf2dd753acb0ba3abaf7958abd5fd90b7e9eb8ed6f84e76a07c8deaeed98914f0e9249eab4ad3ae7719993700bb6d252ff2d96cabfeb0a34f"
                },
                {
                    "hash" : "0xc86805104d792f6d2c1671ed07a649c5fe28e0fad03379aba8309fe019b879e6",
                    "indexes" : {
                        "data" : 25,
                        "gas" : 0,
                        "value" : 0
                    },
                    "logs" : "0x1dcc4de8dec75d7aab85b567b6ccd41ad312451b948a7413f0a142fd40d49347",
                    "txbytes" : "0xf8e6010a8401ba814094000000000000000000000000000000000000c0de80b884917694f900000000000000000000000000000000000000000000000000000000000000010000000000000000000000000000000000000000000000000000000000000008541c4ce1565a646ddde26e1b483a88a6500ce15bd24622492f05cdd18b97161d1827e364c15cfa61dab02339904b1e542f3939c6e8d6367d352026e71ffd6af51ca02bb5a65a889ef11c2825232921e843ca155d2d3632bf973066fdd51dfd740091a061a0e9c8100102c6529be45eefb6d6a8f4e93bc5475f8b4a2cf0b2a6b9b248c7"
                },
                {
                    "hash" : "0x5513d8cb8741d3a8d9e82a15c51c933f51239c9a196d9012d4d02c7ffee8086c",
                    "indexes" : {
                        "data" : 26,
                        "gas" : 0,
                        "value" : 0
                    },
                    "logs" : "0x1dcc4de8dec75d7aab85b567b6ccd41ad312451b948a7413f0a142fd40d49347",
                    "txbytes" : "0xf8e6010a8401ba814094000000000000000000000000000000000000c0de80b884917694f9000000000000000000000000000000000000000000000000000000000000000000000000000000000000000000000000000000000000000000000000000000ffce354e1b07ba96e325aa4851999f07aabcb4471e49f0a0daafed98caab963f0379d9f3993cdd509f1bfba63dbd23dbdff879fb95203a5049f348a95ce8249f3b1ca01051f8711d7103e38f2f8d35e440e76533a5a5986c51dc85d8dcff4a903b8936a05ba16e872ba8a163f4d31c9ceb5de85c8d140e2c43dfb136d9628f9e4d14b936"
                },
                {
                    "hash" : "0xc86805104d792f6d2c1671ed07a649c5fe28e0fad03379aba8309fe019b879e6",
                    "indexes" : {
                        "data" : 27,
                        "gas" : 0,
                        "value" : 0
                    },
                    "logs" : "0x1dcc4de8dec75d7aab85b567b6ccd41ad312451b948a7413f0a142fd40d49347",
                    "txbytes" : "0xf8e6010a8401ba814094000000000000000000000000000000000000c0de80b884917694f900000000000000000000000000000000000000000000000000000000000000010000000000000000000000000000000000000000000000000000000000000100541c4ce1565a646ddde26e1b483a88a6500ce15bd24622492f05cdd18b97161d1827e364c15cfa61dab02339904b1e542f3939c6e8d6367d352026e71ffd6af51ba0dbcdd066e63b532954646e39dffacb00d852e8bfc828890a8b98bb3c4258e41ba007763e74b700fac87fd25d659d84dc89867e5930c8e0bfc0907100920d090606"
                },
                {
                    "hash" : "0xc86805104d792f6d2c1671ed07a649c5fe28e0fad03379aba8309fe019b879e6",
                    "indexes" : {
                        "data" : 28,
                        "gas" : 0,
                        "value" : 0
                    },
                    "logs" : "0x1dcc4de8dec75d7aab85b567b6ccd41ad312451b948a7413f0a142fd40d49347",
                    "txbytes" : "0xf8e6010a8401ba814094000000000000000000000000000000000000c0de80b884917694f9000000000000000000000000000000000000000000000000000000000000000000000000000000000000000000000000000000000000000000000000000010ffce354e1b07ba96e325aa4851999f07aabcb4471e49f0a0daafed98caab963f0379d9f3993cdd509f1bfba63dbd23dbdff879fb95203a5049f348a95ce8249f3b1ca0665b0563c85fe4d70b014755655ff8fc5b9d10423eba675eedf20cd50efc8446a0352e7fde0682e83247170b1d7381d7de727580cef9433f61d6c3f8e76bf01d32"
                },
                {
                    "hash" : "0xc86805104d792f6d2c1671ed07a649c5fe28e0fad03379aba8309fe019b879e6",
                    "indexes" : {
                        "data" : 29,
                        "gas" : 0,
                        "value" : 0
                    },
                    "logs" : "0x1dcc4de8dec75d7aab85b567b6ccd41ad312451b948a7413f0a142fd40d49347",
                    "txbytes" : "0xf8e6010a8401ba814094000000000000000000000000000000000000c0de80b884917694f900000000000000000000000000000000000000000000000000000000000000010000000000000000000000000000000000000000000000000000000000001100541c4ce1565a646ddde26e1b483a88a6500ce15bd24622492f05cdd18b97161d1827e364c15cfa61dab02339904b1e542f3939c6e8d6367d352026e71ffd6af51ca012d0f13d3d9d9a08c0d0307b31c24a34d6a1c22788ca9c4e61a4db9b22953c96a039f6c23e595e9fc1538c4b6e475ef494581bb9271f1867191cb96e32e6661976"
                },
                {
                    "hash" : "0xc86805104d792f6d2c1671ed07a649c5fe28e0fad03379aba8309fe019b879e6",
                    "indexes" : {
                        "data" : 30,
                        "gas" : 0,
                        "value" : 0
                    },
                    "logs" : "0x1dcc4de8dec75d7aab85b567b6ccd41ad312451b948a7413f0a142fd40d49347",
                    "txbytes" : "0xf8e6010a8401ba814094000000000000000000000000000000000000c0de80b884917694f9000000000000000000000000000000000000000000000000000000000000000000000000000000000000000000000000000000000000000000000000000100ffce354e1b07ba96e325aa4851999f07aabcb4471e49f0a0daafed98caab963f0379d9f3993cdd509f1bfba63dbd23dbdff879fb95203a5049f348a95ce8249f3b1ba074b8b826c6ebc727a6368569851b078357b526ab7e235812c177a76482c2fa54a07e58c4a92c560c1e830e2830e28e2982cc45b3e0a5a8a917b2ab46c5dafe6e0d"
                },
                {
                    "hash" : "0x0cd6476953f4fb47445af9ab3a839ce08753c85ad89a2d758827cd5cdd380c10",
                    "indexes" : {
                        "data" : 31,
                        "gas" : 0,
                        "value" : 0
                    },
                    "logs" : "0x1dcc4de8dec75d7aab85b567b6ccd41ad312451b948a7413f0a142fd40d49347",
                    "txbytes" : "0xf8e6010a8401ba814094000000000000000000000000000000000000c0de80b884917694f900000000000000000000000000000000000000000000000000000000000000010000000000000000000000000000000000000000000000000000000000010100541c4ce1565a646ddde26e1b483a88a6500ce15bd24622492f05cdd18b97161d1827e364c15cfa61dab02339904b1e542f3939c6e8d6367d352026e71ffd6af51ca0392674a918cd8da54a0910cabcb7a36775b686c309a2f8ba00f7c9761a95526ba02ce4330911873b9ee026286fbd8f4e8c2b009b41e5cc1957fe69360c55a35b68"
                },
                {
                    "hash" : "0xbafe1e2a387934ae72d68e6d7ad26a59c07de5ad42c7d0e1f3c80b21317f0eb9",
                    "indexes" : {
                        "data" : 32,
                        "gas" : 0,
                        "value" : 0
                    },
                    "logs" : "0x1dcc4de8dec75d7aab85b567b6ccd41ad312451b948a7413f0a142fd40d49347",
                    "txbytes" : "0xf8e6010a8401ba814094000000000000000000000000000000000000c0de80b884917694f9000000000000000000000000000000000000000000000000000000000000000000000000000000000000000000000000000000000000000000000000123456ffce354e1b07ba96e325aa4851999f07aabcb4471e49f0a0daafed98caab963f0379d9f3993cdd509f1bfba63dbd23dbdff879fb95203a5049f348a95ce8249f3b1ca0936e5b76ff017d75dc349349c11679459f3ee9771a71ef82a28f27d818648479a01fc862c225ebf46b20969ffabb9a4cbebe8c946104a9bff52293ad1554ff1d18"
                },
                {
                    "hash" : "0xbafe1e2a387934ae72d68e6d7ad26a59c07de5ad42c7d0e1f3c80b21317f0eb9",
                    "indexes" : {
                        "data" : 33,
                        "gas" : 0,
                        "value" : 0
                    },
                    "logs" : "0x1dcc4de8dec75d7aab85b567b6ccd41ad312451b948a7413f0a142fd40d49347",
                    "txbytes" : "0xf8e6010a8401ba814094000000000000000000000000000000000000c0de80b884917694f900000000000000000000000000000000000000000000000000000000000000010000000000000000000000000000000000000000000000000000000012345700541c4ce1565a646ddde26e1b483a88a6500ce15bd24622492f05cdd18b97161d1827e364c15cfa61dab02339904b1e542f3939c6e8d6367d352026e71ffd6af51ca08142ca694a4d8c2806c40ae399632a163dd45b5ee7f0ed6d5567a4ccb18c5a55a05b040fb62e9e71941d70fa5bafe763b93f3a4087064b3aa5507caaf72c7ee26d"
                },
                {
                    "hash" : "0x5a677f9a0a791fbfe305ebc5155bbcfa03a590a6d26e8029406f467884324687",
                    "indexes" : {
                        "data" : 34,
                        "gas" : 0,
                        "value" : 0
                    },
                    "logs" : "0x1dcc4de8dec75d7aab85b567b6ccd41ad312451b948a7413f0a142fd40d49347",
                    "txbytes" : "0xf8e6010a8401ba814094000000000000000000000000000000000000c0de80b884917694f900000000000000000000000000000000000000000000000000000000000000000000000000000000000000000000000000000000000000000000deadbeef00ffce354e1b07ba96e325aa4851999f07aabcb4471e49f0a0daafed98caab963f0379d9f3993cdd509f1bfba63dbd23dbdff879fb95203a5049f348a95ce8249f3b1ca07b807e726e4ac50d46419e7e4295d4528832ec90b5a86035be1cfe2d24ee5889a013b97b08ffff94d5a5d44c36c5a337f08f3db526b533e937ce4c3e5e27141da8"
                },
                {
                    "hash" : "0x386d6dd7b89d3a7e1451944a926038285438fc3cfd7676f36b643a7424eca25e",
                    "indexes" : {
                        "data" : 35,
                        "gas" : 0,
                        "value" : 0
                    },
                    "logs" : "0x1dcc4de8dec75d7aab85b567b6ccd41ad312451b948a7413f0a142fd40d49347",
                    "txbytes" : "0xf8e6010a8401ba814094000000000000000000000000000000000000c0de80b884917694f900000000000000000000000000000000000000000000000000000000000000010000000000000000000000000000000000000000000000000000deadbeef0100541c4ce1565a646ddde26e1b483a88a6500ce15bd24622492f05cdd18b97161d1827e364c15cfa61dab02339904b1e542f3939c6e8d6367d352026e71ffd6af51ca0fd322cc3dab9abc6622645843ed4d2831ff7afa0163cc48cc7741324fdbd12bca02682a995676c7bb03cb22b20259414bc7c626079615b5f886f8256db097a6034"
                },
                {
                    "hash" : "0x2f3dbf56ed1b4a4e58803d1011ee40b9d000221d9ce9fcbc3a86304a6c290776",
                    "indexes" : {
                        "data" : 1,
                        "gas" : 0,
                        "value" : 0
                    },
                    "logs" : "0x1dcc4de8dec75d7aab85b567b6ccd41ad312451b948a7413f0a142fd40d49347",
                    "txbytes" : "0xf8e6010a8401ba814094000000000000000000000000000000000000c0de80b884917694f90000000000000000000000000000000000000000000000000000000000000000000000000000000000000000000000000000000000000000000000000000001bce354e1b07ba96e325aa4851999f07aabcb4471e49f0a0daafed98caab963f0379d9f3993cdd509f1bfba63dbd23dbdff879fb95203a5049f348a95ce8249f3b1ba0ca00e3a8cb30be73ad3a5a6299c54f5767aee1d47096994b09cb2940fea72b0ba05209228b5b11732aa08a69b8bf49b09c19fb495a39e02c528ac6cf6a4a34aa07"
                },
                {
                    "hash" : "0xffa1fbad1d8d3377d4b987321d35600ce1d146c12263ad01937c8e5360517b23",
                    "indexes" : {
                        "data" : 2,
                        "gas" : 0,
                        "value" : 0
                    },
                    "logs" : "0x1dcc4de8dec75d7aab85b567b6ccd41ad312451b948a7413f0a142fd40d49347",
                    "txbytes" : "0xf8e6010a8401ba814094000000000000000000000000000000000000c0de80b884917694f90000000000000000000000000000000000000000000000000000000000000001000000000000000000000000000000000000000000000000000000000000001c541c4ce1565a646ddde26e1b483a88a6500ce15bd24622492f05cdd18b97161d1827e364c15cfa61dab02339904b1e542f3939c6e8d6367d352026e71ffd6af51ca03d1a3ce54827e1997adaed1f39a21a815bcc6be24f389c29fc50ff0c79268b3ea05d0902015e97d688359e41d334baaaae067042c18e2b4ff7929bf8aecab6041e"
                },
                {
                    "hash" : "0x6c7dfdd4a943a65bdba0817052a252aeca3af80ec53e4e620f370caa3adaf373",
                    "indexes" : {
                        "data" : 3,
                        "gas" : 0,
                        "value" : 0
                    },
                    "logs" : "0x1dcc4de8dec75d7aab85b567b6ccd41ad312451b948a7413f0a142fd40d49347",
                    "txbytes" : "0xf8e6010a8401ba814094000000000000000000000000000000000000c0de80b884917694f9deaf0dead0600d0f00d00000000000000060a70000000000000f0ad0bad0beef000000000000000000000000000000000000000000000000000000000000001b8a41a35dfd03f28615dc64b7754457691c66bd73f630c7423280282fa431a5be2d40decf11713d564fa2df10dea5eb2adf45455ed309b4c8cc6853e2498323f51ba050885b373b5233bccff8c9297468b1486ca66b8e0babac0fd8a167d548b5ca7ea073c92c5c060bfec881adf33d9b6c12d428d18ea60e97daea008abc94fc50ce04"
                }
            ]
        },
        "pre" : {
            "0x000000000000000000000000000000000000c0de" : {
                "balance" : "0x00",
                "code" : "0x60016004356000526024356020526044356040526064356060526101008060806000845afa8060005561010051600155610120516002555050",
                "nonce" : "0x01",
                "storage" : {
                    "0x00" : "0x60a7",
                    "0x01" : "0x60a7",
                    "0x02" : "0x60a7"
                }
            },
            "0x2adc25665018aa1fe0e6bc666dac8fc2697ff9ba" : {
                "balance" : "0x00",
                "code" : "0x",
                "nonce" : "0x01",
                "storage" : {
                }
            },
            "0xa94f5374fce5edbc8e2a8697c15331677e6ebf0b" : {
                "balance" : "0x0de0b6b3a7640000",
                "code" : "0x",
                "nonce" : "0x01",
                "storage" : {
                }
            }
        },
        "transaction" : {
            "data" : [
                "0x917694f90000000000000000000000000000000000000000000000000000000000007e570000000000000000000000000000000000000000000000000000000000007e570000000000000000000000000000000000000000000000000000000000007e570000000000000000000000000000000000000000000000000000000000007e57",
                "0x917694f90000000000000000000000000000000000000000000000000000000000000000000000000000000000000000000000000000000000000000000000000000001bce354e1b07ba96e325aa4851999f07aabcb4471e49f0a0daafed98caab963f0379d9f3993cdd509f1bfba63dbd23dbdff879fb95203a5049f348a95ce8249f3b",
                "0x917694f90000000000000000000000000000000000000000000000000000000000000001000000000000000000000000000000000000000000000000000000000000001c541c4ce1565a646ddde26e1b483a88a6500ce15bd24622492f05cdd18b97161d1827e364c15cfa61dab02339904b1e542f3939c6e8d6367d352026e71ffd6af5",
                "0x917694f9deaf0dead0600d0f00d00000000000000060a70000000000000f0ad0bad0beef000000000000000000000000000000000000000000000000000000000000001b8a41a35dfd03f28615dc64b7754457691c66bd73f630c7423280282fa431a5be2d40decf11713d564fa2df10dea5eb2adf45455ed309b4c8cc6853e2498323f5",
                "0x917694f9daf5a779ae972f972197303d7b574746c7ef83eadac0f2791ad23db92e4c8e53000000000000000000000000000000000000000000000000000000000000002528ef61340bd939bc2195fe537567866003e1a15d3c71ff63e1590620aa63627667cbe9d8997f761aecb703304b3800ccf555c9f3dc64214b297fb1966a3b6d83",
                "0x917694f900000000000000000000000000000000000000000000000000000000000000000000000000000000000000000000000000000000000000000000000000000025ce354e1b07ba96e325aa4851999f07aabcb4471e49f0a0daafed98caab963f0379d9f3993cdd509f1bfba63dbd23dbdff879fb95203a5049f348a95ce8249f3b",
                "0x917694f900000000000000000000000000000000000000000000000000000000000000010000000000000000000000000000000000000000000000000000000000000026541c4ce1565a646ddde26e1b483a88a6500ce15bd24622492f05cdd18b97161d1827e364c15cfa61dab02339904b1e542f3939c6e8d6367d352026e71ffd6af5",
                "0x917694f90000000000000000000000000000000000000000000000000000000000000000000000000000000000000000000000000000000000000000000000000000002fce354e1b07ba96e325aa4851999f07aabcb4471e49f0a0daafed98caab963f0379d9f3993cdd509f1bfba63dbd23dbdff879fb95203a5049f348a95ce8249f3b",
                "0x917694f900000000000000000000000000000000000000000000000000000000000000010000000000000000000000000000000000000000000000000000000000000030541c4ce1565a646ddde26e1b483a88a6500ce15bd24622492f05cdd18b97161d1827e364c15cfa61dab02339904b1e542f3939c6e8d6367d352026e71ffd6af5",
                "0x917694f900000000000000000000000000000000000000000000000000000000000000000000000000000000000000000000000000000000000000000000000000000039ce354e1b07ba96e325aa4851999f07aabcb4471e49f0a0daafed98caab963f0379d9f3993cdd509f1bfba63dbd23dbdff879fb95203a5049f348a95ce8249f3b",
                "0x917694f90000000000000000000000000000000000000000000000000000000000000001000000000000000000000000000000000000000000000000000000000000003a541c4ce1565a646ddde26e1b483a88a6500ce15bd24622492f05cdd18b97161d1827e364c15cfa61dab02339904b1e542f3939c6e8d6367d352026e71ffd6af5",
                "0x917694f90000000000000000000000000000000000000000000000000000000000000000000000000000000000000000000000000000000000000000000000000000004dce354e1b07ba96e325aa4851999f07aabcb4471e49f0a0daafed98caab963f0379d9f3993cdd509f1bfba63dbd23dbdff879fb95203a5049f348a95ce8249f3b",
                "0x917694f90000000000000000000000000000000000000000000000000000000000000001000000000000000000000000000000000000000000000000000000000000004e541c4ce1565a646ddde26e1b483a88a6500ce15bd24622492f05cdd18b97161d1827e364c15cfa61dab02339904b1e542f3939c6e8d6367d352026e71ffd6af5",
                "0x917694f900000000000000000000000000000000000000000000000000000000000000000000000000000000000000000000000000000000000000000000000000000023ce354e1b07ba96e325aa4851999f07aabcb4471e49f0a0daafed98caab963f0379d9f3993cdd509f1bfba63dbd23dbdff879fb95203a5049f348a95ce8249f3b",
                "0x917694f900000000000000000000000000000000000000000000000000000000000000010000000000000000000000000000000000000000000000000000000000000024541c4ce1565a646ddde26e1b483a88a6500ce15bd24622492f05cdd18b97161d1827e364c15cfa61dab02339904b1e542f3939c6e8d6367d352026e71ffd6af5",
                "0x917694f9000000000000000000000000000000000000000000000000000000000000000000000000000000000000000000000000000000000000000000000000000000ebce354e1b07ba96e325aa4851999f07aabcb4471e49f0a0daafed98caab963f0379d9f3993cdd509f1bfba63dbd23dbdff879fb95203a5049f348a95ce8249f3b",
                "0x917694f9000000000000000000000000000000000000000000000000000000000000000100000000000000000000000000000000000000000000000000000000000000ec541c4ce1565a646ddde26e1b483a88a6500ce15bd24622492f05cdd18b97161d1827e364c15cfa61dab02339904b1e542f3939c6e8d6367d352026e71ffd6af5",
                "0x917694f900000000000000000000000000000000000000000000000000000000000000010000000000000000000000000000000000000000000000000000000000000000541c4ce1565a646ddde26e1b483a88a6500ce15bd24622492f05cdd18b97161d1827e364c15cfa61dab02339904b1e542f3939c6e8d6367d352026e71ffd6af5",
                "0x917694f900000000000000000000000000000000000000000000000000000000000000000000000000000000000000000000000000000000000000000000000000000001ce354e1b07ba96e325aa4851999f07aabcb4471e49f0a0daafed98caab963f0379d9f3993cdd509f1bfba63dbd23dbdff879fb95203a5049f348a95ce8249f3b",
                "0x917694f900000000000000000000000000000000000000000000000000000000000000010000000000000000000000000000000000000000000000000000000000000002541c4ce1565a646ddde26e1b483a88a6500ce15bd24622492f05cdd18b97161d1827e364c15cfa61dab02339904b1e542f3939c6e8d6367d352026e71ffd6af5",
                "0x917694f900000000000000000000000000000000000000000000000000000000000000000000000000000000000000000000000000000000000000000000000000000003ce354e1b07ba96e325aa4851999f07aabcb4471e49f0a0daafed98caab963f0379d9f3993cdd509f1bfba63dbd23dbdff879fb95203a5049f348a95ce8249f3b",
                "0x917694f900000000000000000000000000000000000000000000000000000000000000010000000000000000000000000000000000000000000000000000000000000004541c4ce1565a646ddde26e1b483a88a6500ce15bd24622492f05cdd18b97161d1827e364c15cfa61dab02339904b1e542f3939c6e8d6367d352026e71ffd6af5",
                "0x917694f900000000000000000000000000000000000000000000000000000000000000000000000000000000000000000000000000000000000000000000000000000005ce354e1b07ba96e325aa4851999f07aabcb4471e49f0a0daafed98caab963f0379d9f3993cdd509f1bfba63dbd23dbdff879fb95203a5049f348a95ce8249f3b",
                "0x917694f900000000000000000000000000000000000000000000000000000000000000010000000000000000000000000000000000000000000000000000000000000006541c4ce1565a646ddde26e1b483a88a6500ce15bd24622492f05cdd18b97161d1827e364c15cfa61dab02339904b1e542f3939c6e8d6367d352026e71ffd6af5",
                "0x917694f900000000000000000000000000000000000000000000000000000000000000000000000000000000000000000000000000000000000000000000000000000007ce354e1b07ba96e325aa4851999f07aabcb4471e49f0a0daafed98caab963f0379d9f3993cdd509f1bfba63dbd23dbdff879fb95203a5049f348a95ce8249f3b",
                "0x917694f900000000000000000000000000000000000000000000000000000000000000010000000000000000000000000000000000000000000000000000000000000008541c4ce1565a646ddde26e1b483a88a6500ce15bd24622492f05cdd18b97161d1827e364c15cfa61dab02339904b1e542f3939c6e8d6367d352026e71ffd6af5",
                "0x917694f9000000000000000000000000000000000000000000000000000000000000000000000000000000000000000000000000000000000000000000000000000000ffce354e1b07ba96e325aa4851999f07aabcb4471e49f0a0daafed98caab963f0379d9f3993cdd509f1bfba63dbd23dbdff879fb95203a5049f348a95ce8249f3b",
                "0x917694f900000000000000000000000000000000000000000000000000000000000000010000000000000000000000000000000000000000000000000000000000000100541c4ce1565a646ddde26e1b483a88a6500ce15bd24622492f05cdd18b97161d1827e364c15cfa61dab02339904b1e542f3939c6e8d6367d352026e71ffd6af5",
                "0x917694f9000000000000000000000000000000000000000000000000000000000000000000000000000000000000000000000000000000000000000000000000000010ffce354e1b07ba96e325aa4851999f07aabcb4471e49f0a0daafed98caab963f0379d9f3993cdd509f1bfba63dbd23dbdff879fb95203a5049f348a95ce8249f3b",
                "0x917694f900000000000000000000000000000000000000000000000000000000000000010000000000000000000000000000000000000000000000000000000000001100541c4ce1565a646ddde26e1b483a88a6500ce15bd24622492f05cdd18b97161d1827e364c15cfa61dab02339904b1e542f3939c6e8d6367d352026e71ffd6af5",
                "0x917694f9000000000000000000000000000000000000000000000000000000000000000000000000000000000000000000000000000000000000000000000000000100ffce354e1b07ba96e325aa4851999f07aabcb4471e49f0a0daafed98caab963f0379d9f3993cdd509f1bfba63dbd23dbdff879fb95203a5049f348a95ce8249f3b",
                "0x917694f900000000000000000000000000000000000000000000000000000000000000010000000000000000000000000000000000000000000000000000000000010100541c4ce1565a646ddde26e1b483a88a6500ce15bd24622492f05cdd18b97161d1827e364c15cfa61dab02339904b1e542f3939c6e8d6367d352026e71ffd6af5",
                "0x917694f9000000000000000000000000000000000000000000000000000000000000000000000000000000000000000000000000000000000000000000000000123456ffce354e1b07ba96e325aa4851999f07aabcb4471e49f0a0daafed98caab963f0379d9f3993cdd509f1bfba63dbd23dbdff879fb95203a5049f348a95ce8249f3b",
                "0x917694f900000000000000000000000000000000000000000000000000000000000000010000000000000000000000000000000000000000000000000000000012345700541c4ce1565a646ddde26e1b483a88a6500ce15bd24622492f05cdd18b97161d1827e364c15cfa61dab02339904b1e542f3939c6e8d6367d352026e71ffd6af5",
                "0x917694f900000000000000000000000000000000000000000000000000000000000000000000000000000000000000000000000000000000000000000000deadbeef00ffce354e1b07ba96e325aa4851999f07aabcb4471e49f0a0daafed98caab963f0379d9f3993cdd509f1bfba63dbd23dbdff879fb95203a5049f348a95ce8249f3b",
                "0x917694f900000000000000000000000000000000000000000000000000000000000000010000000000000000000000000000000000000000000000000000deadbeef0100541c4ce1565a646ddde26e1b483a88a6500ce15bd24622492f05cdd18b97161d1827e364c15cfa61dab02339904b1e542f3939c6e8d6367d352026e71ffd6af5"
            ],
            "gasLimit" : [
                "0x01ba8140"
            ],
            "gasPrice" : "0x0a",
            "nonce" : "0x01",
            "secretKey" : "0x45a915e4d060149eb4365960e6a7a45f334393093061116b197e3240065ff2d8",
            "sender" : "0xa94f5374fce5edbc8e2a8697c15331677e6ebf0b",
            "to" : "0x000000000000000000000000000000000000c0de",
            "value" : [
                "0x00"
            ]
        }
    }
}