{
    "ecrecoverShortBuff" : {
        "_info" : {
            "comment" : "",
            "filling-rpc-server" : "evm version 1.10.26-stable-e5eb32ac",
            "filling-tool-version" : "retesteth-0.2.3-postmerge+commit.801c0d4c.Linux.g++",
            "generatedTestHash" : "5a63b2ad384a2365672f34b36715964436739c5c4d5e0782b2f00c3fcbff4bb9",
            "lllcversion" : "Version: 0.5.14-develop.2022.6.30+commit.401d5358.mod.Linux.g++",
            "solidity" : "Version: 0.8.18-develop.2022.12.14+commit.a9fe05e8.Linux.g++",
            "source" : "src/GeneralStateTestsFiller/stPreCompiledContracts2/ecrecoverShortBuffFiller.yml",
            "sourceHash" : "a7c3047d600d0afcbb38e2e722539b2dcb24335a39a8dc62e041e02fb5491bc3"
        },
        "env" : {
            "currentBaseFee" : "0x0a",
            "currentCoinbase" : "0x2adc25665018aa1fe0e6bc666dac8fc2697ff9ba",
            "currentDifficulty" : "0x020000",
            "currentGasLimit" : "0xff112233445566",
            "currentNumber" : "0x01",
            "currentRandom" : "0x0000000000000000000000000000000000000000000000000000000000020000",
            "currentTimestamp" : "0x03e8",
            "previousHash" : "0x5e20a0453cecd065ea59c37ac63e079ee08998b6045136a8ce6635c7912ec0b6"
        },
        "post" : {
            "Berlin" : [
                {
                    "hash" : "0x5eae45c595499bd64ae0886702673bbbfcaf2f3da255d5ad6e80fcdcc72baca3",
                    "indexes" : {
                        "data" : 0,
                        "gas" : 0,
                        "value" : 0
                    },
                    "logs" : "0x1dcc4de8dec75d7aab85b567b6ccd41ad312451b948a7413f0a142fd40d49347",
                    "txbytes" : "0xf864010a8401ba814094cccccccccccccccccccccccccccccccccccccccc830186a0001ba0adc1df389709657378f05372754e3a82eb045b91ea7022b7fa6fd0fa05a7d23ca034320e0cdeeb63f5a92de1a3d9fa0f5f701deebb1efdc585df522a5d7890a751"
                }
            ]
        },
        "pre" : {
            "0xa94f5374fce5edbc8e2a8697c15331677e6ebf0b" : {
                "balance" : "0x0de0b6b3a7640000",
                "code" : "0x",
                "nonce" : "0x01",
                "storage" : {
                }
            },
            "0xcccccccccccccccccccccccccccccccccccccccc" : {
                "balance" : "0x00",
                "code" : "0x60a060005b8181101560275763dead60a7815563dead60a78161100001556001810190506004565b5060008052601b6020527f184870a8e4faa6065ddf65c873935d3e48e3d1c7b7853f25cd79b8247f7719106040527f226140b6b66554c7fcfa38589e433cc148ebe5c8482eb3093ab1d9a932c96f5860605260005b8181101560ad5760206101008260008060015af181556001815403815561010051816110000155600181019050607c565b5050",
                "nonce" : "0x01",
                "storage" : {
                    "0x00" : "0x60a7",
                    "0x1000" : "0x60a7",
                    "0x1011" : "0x60a7",
                    "0x1022" : "0x60a7",
                    "0x1033" : "0x60a7",
                    "0x1044" : "0x60a7",
                    "0x1055" : "0x60a7",
                    "0x1066" : "0x60a7",
                    "0x1077" : "0x60a7",
                    "0x1080" : "0x60a7",
                    "0x1099" : "0x60a7",
                    "0x11" : "0x60a7",
                    "0x22" : "0x60a7",
                    "0x33" : "0x60a7",
                    "0x44" : "0x60a7",
                    "0x55" : "0x60a7",
                    "0x66" : "0x60a7",
                    "0x77" : "0x60a7",
                    "0x80" : "0x60a7",
                    "0x99" : "0x60a7"
                }
            }
        },
        "transaction" : {
            "data" : [
                "0x00"
            ],
            "gasLimit" : [
                "0x01ba8140"
            ],
            "gasPrice" : "0x0a",
            "nonce" : "0x01",
            "secretKey" : "0x45a915e4d060149eb4365960e6a7a45f334393093061116b197e3240065ff2d8",
            "sender" : "0xa94f5374fce5edbc8e2a8697c15331677e6ebf0b",
            "to" : "0xcccccccccccccccccccccccccccccccccccccccc",
            "value" : [
                "0x0186a0"
            ]
        }
    }
}