{
    "static_LoopCallsDepthThenRevert3_d0g0v0_Berlin" : {
        "_info" : {
            "comment" : "",
            "filling-rpc-server" : "evm version 1.11.0-unstable-e04d63eb-20230113",
            "filling-tool-version" : "retesteth-0.2.3-postmerge+commit.801c0d4c.Linux.g++",
            "generatedTestHash" : "006ae1295bab7310ea208c3d5e5fb07f52c998890610b8aa0532f769e213018e",
            "lllcversion" : "Version: 0.5.14-develop.2021.4.29+commit.14c9d5de.Linux.clang",
            "solidity" : "Version: 0.8.17-develop.2022.9.30+commit.8df45f5f.Linux.clang",
            "source" : "src/GeneralStateTestsFiller/stStaticCall/static_LoopCallsDepthThenRevert3Filler.json",
            "sourceHash" : "5ce82ad62f6dc26c1ead3dcf13fb54c97838a6624cf3f127f89c1dbf02039ac8"
        },
        "blocks" : [
            {
                "blockHeader" : {
                    "bloom" : "0x00000000000000000000000000000000000000000000000000000000000000000000000000000000000000000000000000000000000000000000000000000000000000000000000000000000000000000000000000000000000000000000000000000000000000000000000000000000000000000000000000000000000000000000000000000000000000000000000000000000000000000000000000000000000000000000000000000000000000000000000000000000000000000000000000000000000000000000000000000000000000000000000000000000000000000000000000000000000000000000000000000000000000000000000000000000",
                    "coinbase" : "0x2adc25665018aa1fe0e6bc666dac8fc2697ff9ba",
                    "difficulty" : "0x020000",
                    "extraData" : "0x00",
                    "gasLimit" : "0x7fffffffffffffff",
                    "gasUsed" : "0x01c9f6",
                    "hash" : "0x9da0316fac80e28ede38c4b08d439594fab933436049ddfa0cabad3c02f681bb",
                    "mixHash" : "0x0000000000000000000000000000000000000000000000000000000000000000",
                    "nonce" : "0x0000000000000000",
                    "number" : "0x01",
                    "parentHash" : "0x6784c99f80d35dc07a5d8ab42eaca65272d372ed73ce18b6e667a25ccc2615a7",
                    "receiptTrie" : "0xececde5e65c7231be1ea481e9438a5976ff12962e19bee84967cb5af91da219e",
                    "stateRoot" : "0x221629cdc18edd7a52f0b573252f04719ebe223f532603ba0f0020759e964407",
                    "timestamp" : "0x03e8",
                    "transactionsTrie" : "0xb7c065237f7572176d08476a2c3fb20133fa33db152e2a33c2b875ab60757e5b",
                    "uncleHash" : "0x1dcc4de8dec75d7aab85b567b6ccd41ad312451b948a7413f0a142fd40d49347"
                },
                "rlp" : "0xf90266f901fda06784c99f80d35dc07a5d8ab42eaca65272d372ed73ce18b6e667a25ccc2615a7a01dcc4de8dec75d7aab85b567b6ccd41ad312451b948a7413f0a142fd40d49347942adc25665018aa1fe0e6bc666dac8fc2697ff9baa0221629cdc18edd7a52f0b573252f04719ebe223f532603ba0f0020759e964407a0b7c065237f7572176d08476a2c3fb20133fa33db152e2a33c2b875ab60757e5ba0ececde5e65c7231be1ea481e9438a5976ff12962e19bee84967cb5af91da219eb90100000000000000000000000000000000000000000000000000000000000000000000000000000000000000000000000000000000000000000000000000000000000000000000000000000000000000000000000000000000000000000000000000000000000000000000000000000000000000000000000000000000000000000000000000000000000000000000000000000000000000000000000000000000000000000000000000000000000000000000000000000000000000000000000000000000000000000000000000000000000000000000000000000000000000000000000000000000000000000000000000000000000000000000000000000000008302000001887fffffffffffffff8301c9f68203e800a00000000000000000000000000000000000000000000000000000000000000000880000000000000000f863f861800a8401ba814094a00000000000000000000000000000000000000080801ca0070f50564b5bc758ad65a014168f338fa3ba0ccf2d637b828aeb2241ab924585a039aa1ea3858df2f76e5592127b4ff0a7517cfcf2d7038acaf28fd92ae15f043dc0",
                "transactions" : [
                    {
                        "data" : "0x",
                        "gasLimit" : "0x01ba8140",
                        "gasPrice" : "0x0a",
                        "nonce" : "0x00",
                        "r" : "0x070f50564b5bc758ad65a014168f338fa3ba0ccf2d637b828aeb2241ab924585",
                        "s" : "0x39aa1ea3858df2f76e5592127b4ff0a7517cfcf2d7038acaf28fd92ae15f043d",
                        "sender" : "0xa94f5374fce5edbc8e2a8697c15331677e6ebf0b",
                        "to" : "0xa000000000000000000000000000000000000000",
                        "v" : "0x1c",
                        "value" : "0x00"
                    }
                ],
                "uncleHeaders" : [
                ]
            }
        ],
        "genesisBlockHeader" : {
            "bloom" : "0x00000000000000000000000000000000000000000000000000000000000000000000000000000000000000000000000000000000000000000000000000000000000000000000000000000000000000000000000000000000000000000000000000000000000000000000000000000000000000000000000000000000000000000000000000000000000000000000000000000000000000000000000000000000000000000000000000000000000000000000000000000000000000000000000000000000000000000000000000000000000000000000000000000000000000000000000000000000000000000000000000000000000000000000000000000000",
            "coinbase" : "0x2adc25665018aa1fe0e6bc666dac8fc2697ff9ba",
            "difficulty" : "0x020000",
            "extraData" : "0x00",
            "gasLimit" : "0x7fffffffffffffff",
            "gasUsed" : "0x00",
            "hash" : "0x6784c99f80d35dc07a5d8ab42eaca65272d372ed73ce18b6e667a25ccc2615a7",
            "mixHash" : "0x0000000000000000000000000000000000000000000000000000000000000000",
            "nonce" : "0x0000000000000000",
            "number" : "0x00",
            "parentHash" : "0x0000000000000000000000000000000000000000000000000000000000000000",
            "receiptTrie" : "0x56e81f171bcc55a6ff8345e692c0f86e5b48e01b996cadc001622fb5e363b421",
            "stateRoot" : "0xaea971c2254b7547872f9156d0bc25e7989121b29e0f599d37b4e697808f78f3",
            "timestamp" : "0x00",
            "transactionsTrie" : "0x56e81f171bcc55a6ff8345e692c0f86e5b48e01b996cadc001622fb5e363b421",
            "uncleHash" : "0x1dcc4de8dec75d7aab85b567b6ccd41ad312451b948a7413f0a142fd40d49347"
        },
        "genesisRLP" : "0xf901fdf901f8a00000000000000000000000000000000000000000000000000000000000000000a01dcc4de8dec75d7aab85b567b6ccd41ad312451b948a7413f0a142fd40d49347942adc25665018aa1fe0e6bc666dac8fc2697ff9baa0aea971c2254b7547872f9156d0bc25e7989121b29e0f599d37b4e697808f78f3a056e81f171bcc55a6ff8345e692c0f86e5b48e01b996cadc001622fb5e363b421a056e81f171bcc55a6ff8345e692c0f86e5b48e01b996cadc001622fb5e363b421b90100000000000000000000000000000000000000000000000000000000000000000000000000000000000000000000000000000000000000000000000000000000000000000000000000000000000000000000000000000000000000000000000000000000000000000000000000000000000000000000000000000000000000000000000000000000000000000000000000000000000000000000000000000000000000000000000000000000000000000000000000000000000000000000000000000000000000000000000000000000000000000000000000000000000000000000000000000000000000000000000000000000000000000000000000000000008302000080887fffffffffffffff808000a00000000000000000000000000000000000000000000000000000000000000000880000000000000000c0c0",
        "lastblockhash" : "0x9da0316fac80e28ede38c4b08d439594fab933436049ddfa0cabad3c02f681bb",
        "network" : "Berlin",
        "postState" : {
            "0x2adc25665018aa1fe0e6bc666dac8fc2697ff9ba" : {
                "balance" : "0x1bc16d674ed9e39c",
                "code" : "0x",
                "nonce" : "0x00",
                "storage" : {
                }
            },
            "0xa000000000000000000000000000000000000000" : {
                "balance" : "0x0a",
                "code" : "0x6103fe60003514603d57600160003501600052600060006020600073a0000000000000000000000000000000000000005afa5061041a600035106051575b66600060006002f0600052600760196003f0505b",
                "nonce" : "0x00",
                "storage" : {
                }
            },
            "0xa94f5374fce5edbc8e2a8697c15331677e6ebf0b" : {
                "balance" : "0x13426172c74d822b878fe7ffee1c64",
                "code" : "0x",
                "nonce" : "0x01",
                "storage" : {
                }
            }
        },
        "pre" : {
            "0xa000000000000000000000000000000000000000" : {
                "balance" : "0x0a",
                "code" : "0x6103fe60003514603d57600160003501600052600060006020600073a0000000000000000000000000000000000000005afa5061041a600035106051575b66600060006002f0600052600760196003f0505b",
                "nonce" : "0x00",
                "storage" : {
                }
            },
            "0xa94f5374fce5edbc8e2a8697c15331677e6ebf0b" : {
                "balance" : "0x13426172c74d822b878fe800000000",
                "code" : "0x",
                "nonce" : "0x00",
                "storage" : {
                }
            }
        },
        "sealEngine" : "NoProof"
    },
    "static_LoopCallsDepthThenRevert3_d0g0v0_Istanbul" : {
        "_info" : {
            "comment" : "",
            "filling-rpc-server" : "evm version 1.11.0-unstable-e04d63eb-20230113",
            "filling-tool-version" : "retesteth-0.2.3-postmerge+commit.801c0d4c.Linux.g++",
            "generatedTestHash" : "17b9a17a13b433872ebba4188d1804b39c0fec7f58e1327363200bc9b0602132",
            "lllcversion" : "Version: 0.5.14-develop.2021.4.29+commit.14c9d5de.Linux.clang",
            "solidity" : "Version: 0.8.17-develop.2022.9.30+commit.8df45f5f.Linux.clang",
            "source" : "src/GeneralStateTestsFiller/stStaticCall/static_LoopCallsDepthThenRevert3Filler.json",
            "sourceHash" : "5ce82ad62f6dc26c1ead3dcf13fb54c97838a6624cf3f127f89c1dbf02039ac8"
        },
        "blocks" : [
            {
                "blockHeader" : {
                    "bloom" : "0x00000000000000000000000000000000000000000000000000000000000000000000000000000000000000000000000000000000000000000000000000000000000000000000000000000000000000000000000000000000000000000000000000000000000000000000000000000000000000000000000000000000000000000000000000000000000000000000000000000000000000000000000000000000000000000000000000000000000000000000000000000000000000000000000000000000000000000000000000000000000000000000000000000000000000000000000000000000000000000000000000000000000000000000000000000000",
                    "coinbase" : "0x2adc25665018aa1fe0e6bc666dac8fc2697ff9ba",
                    "difficulty" : "0x020000",
                    "extraData" : "0x00",
                    "gasLimit" : "0x7fffffffffffffff",
                    "gasUsed" : "0x053a50",
                    "hash" : "0x513d1d98037e656d12ed85f2037b9a7b9ea3b8e08dbd6a47e3a4e873d4a30728",
                    "mixHash" : "0x0000000000000000000000000000000000000000000000000000000000000000",
                    "nonce" : "0x0000000000000000",
                    "number" : "0x01",
                    "parentHash" : "0x6784c99f80d35dc07a5d8ab42eaca65272d372ed73ce18b6e667a25ccc2615a7",
                    "receiptTrie" : "0xac2e43010e64a3f9cec80cd1163f24f05649d225a9ad56fde24737c5f0dd8072",
                    "stateRoot" : "0xde423fb49b37dbfc67d07bae2838919e1c756ae451b46b7f682379eb3895ead6",
                    "timestamp" : "0x03e8",
                    "transactionsTrie" : "0xb7c065237f7572176d08476a2c3fb20133fa33db152e2a33c2b875ab60757e5b",
                    "uncleHash" : "0x1dcc4de8dec75d7aab85b567b6ccd41ad312451b948a7413f0a142fd40d49347"
                },
                "rlp" : "0xf90266f901fda06784c99f80d35dc07a5d8ab42eaca65272d372ed73ce18b6e667a25ccc2615a7a01dcc4de8dec75d7aab85b567b6ccd41ad312451b948a7413f0a142fd40d49347942adc25665018aa1fe0e6bc666dac8fc2697ff9baa0de423fb49b37dbfc67d07bae2838919e1c756ae451b46b7f682379eb3895ead6a0b7c065237f7572176d08476a2c3fb20133fa33db152e2a33c2b875ab60757e5ba0ac2e43010e64a3f9cec80cd1163f24f05649d225a9ad56fde24737c5f0dd8072b90100000000000000000000000000000000000000000000000000000000000000000000000000000000000000000000000000000000000000000000000000000000000000000000000000000000000000000000000000000000000000000000000000000000000000000000000000000000000000000000000000000000000000000000000000000000000000000000000000000000000000000000000000000000000000000000000000000000000000000000000000000000000000000000000000000000000000000000000000000000000000000000000000000000000000000000000000000000000000000000000000000000000000000000000000000000008302000001887fffffffffffffff83053a508203e800a00000000000000000000000000000000000000000000000000000000000000000880000000000000000f863f861800a8401ba814094a00000000000000000000000000000000000000080801ca0070f50564b5bc758ad65a014168f338fa3ba0ccf2d637b828aeb2241ab924585a039aa1ea3858df2f76e5592127b4ff0a7517cfcf2d7038acaf28fd92ae15f043dc0",
                "transactions" : [
                    {
                        "data" : "0x",
                        "gasLimit" : "0x01ba8140",
                        "gasPrice" : "0x0a",
                        "nonce" : "0x00",
                        "r" : "0x070f50564b5bc758ad65a014168f338fa3ba0ccf2d637b828aeb2241ab924585",
                        "s" : "0x39aa1ea3858df2f76e5592127b4ff0a7517cfcf2d7038acaf28fd92ae15f043d",
                        "sender" : "0xa94f5374fce5edbc8e2a8697c15331677e6ebf0b",
                        "to" : "0xa000000000000000000000000000000000000000",
                        "v" : "0x1c",
                        "value" : "0x00"
                    }
                ],
                "uncleHeaders" : [
                ]
            }
        ],
        "genesisBlockHeader" : {
            "bloom" : "0x00000000000000000000000000000000000000000000000000000000000000000000000000000000000000000000000000000000000000000000000000000000000000000000000000000000000000000000000000000000000000000000000000000000000000000000000000000000000000000000000000000000000000000000000000000000000000000000000000000000000000000000000000000000000000000000000000000000000000000000000000000000000000000000000000000000000000000000000000000000000000000000000000000000000000000000000000000000000000000000000000000000000000000000000000000000",
            "coinbase" : "0x2adc25665018aa1fe0e6bc666dac8fc2697ff9ba",
            "difficulty" : "0x020000",
            "extraData" : "0x00",
            "gasLimit" : "0x7fffffffffffffff",
            "gasUsed" : "0x00",
            "hash" : "0x6784c99f80d35dc07a5d8ab42eaca65272d372ed73ce18b6e667a25ccc2615a7",
            "mixHash" : "0x0000000000000000000000000000000000000000000000000000000000000000",
            "nonce" : "0x0000000000000000",
            "number" : "0x00",
            "parentHash" : "0x0000000000000000000000000000000000000000000000000000000000000000",
            "receiptTrie" : "0x56e81f171bcc55a6ff8345e692c0f86e5b48e01b996cadc001622fb5e363b421",
            "stateRoot" : "0xaea971c2254b7547872f9156d0bc25e7989121b29e0f599d37b4e697808f78f3",
            "timestamp" : "0x00",
            "transactionsTrie" : "0x56e81f171bcc55a6ff8345e692c0f86e5b48e01b996cadc001622fb5e363b421",
            "uncleHash" : "0x1dcc4de8dec75d7aab85b567b6ccd41ad312451b948a7413f0a142fd40d49347"
        },
        "genesisRLP" : "0xf901fdf901f8a00000000000000000000000000000000000000000000000000000000000000000a01dcc4de8dec75d7aab85b567b6ccd41ad312451b948a7413f0a142fd40d49347942adc25665018aa1fe0e6bc666dac8fc2697ff9baa0aea971c2254b7547872f9156d0bc25e7989121b29e0f599d37b4e697808f78f3a056e81f171bcc55a6ff8345e692c0f86e5b48e01b996cadc001622fb5e363b421a056e81f171bcc55a6ff8345e692c0f86e5b48e01b996cadc001622fb5e363b421b90100000000000000000000000000000000000000000000000000000000000000000000000000000000000000000000000000000000000000000000000000000000000000000000000000000000000000000000000000000000000000000000000000000000000000000000000000000000000000000000000000000000000000000000000000000000000000000000000000000000000000000000000000000000000000000000000000000000000000000000000000000000000000000000000000000000000000000000000000000000000000000000000000000000000000000000000000000000000000000000000000000000000000000000000000000000008302000080887fffffffffffffff808000a00000000000000000000000000000000000000000000000000000000000000000880000000000000000c0c0",
        "lastblockhash" : "0x513d1d98037e656d12ed85f2037b9a7b9ea3b8e08dbd6a47e3a4e873d4a30728",
        "network" : "Istanbul",
        "postState" : {
            "0x2adc25665018aa1fe0e6bc666dac8fc2697ff9ba" : {
                "balance" : "0x1bc16d674efc4720",
                "code" : "0x",
                "nonce" : "0x00",
                "storage" : {
                }
            },
            "0xa000000000000000000000000000000000000000" : {
                "balance" : "0x0a",
                "code" : "0x6103fe60003514603d57600160003501600052600060006020600073a0000000000000000000000000000000000000005afa5061041a600035106051575b66600060006002f0600052600760196003f0505b",
                "nonce" : "0x00",
                "storage" : {
                }
            },
            "0xa94f5374fce5edbc8e2a8697c15331677e6ebf0b" : {
                "balance" : "0x13426172c74d822b878fe7ffcbb8e0",
                "code" : "0x",
                "nonce" : "0x01",
                "storage" : {
                }
            }
        },
        "pre" : {
            "0xa000000000000000000000000000000000000000" : {
                "balance" : "0x0a",
                "code" : "0x6103fe60003514603d57600160003501600052600060006020600073a0000000000000000000000000000000000000005afa5061041a600035106051575b66600060006002f0600052600760196003f0505b",
                "nonce" : "0x00",
                "storage" : {
                }
            },
            "0xa94f5374fce5edbc8e2a8697c15331677e6ebf0b" : {
                "balance" : "0x13426172c74d822b878fe800000000",
                "code" : "0x",
                "nonce" : "0x00",
                "storage" : {
                }
            }
        },
        "sealEngine" : "NoProof"
    },
    "static_LoopCallsDepthThenRevert3_d0g0v0_London" : {
        "_info" : {
            "comment" : "",
            "filling-rpc-server" : "evm version 1.11.0-unstable-e04d63eb-20230113",
            "filling-tool-version" : "retesteth-0.2.3-postmerge+commit.801c0d4c.Linux.g++",
            "generatedTestHash" : "d4fc578f470d390718870a78c47a71f064c49eb6a5ef1a55f87f0d0832d5e1e8",
            "lllcversion" : "Version: 0.5.14-develop.2021.4.29+commit.14c9d5de.Linux.clang",
            "solidity" : "Version: 0.8.17-develop.2022.9.30+commit.8df45f5f.Linux.clang",
            "source" : "src/GeneralStateTestsFiller/stStaticCall/static_LoopCallsDepthThenRevert3Filler.json",
            "sourceHash" : "5ce82ad62f6dc26c1ead3dcf13fb54c97838a6624cf3f127f89c1dbf02039ac8"
        },
        "blocks" : [
            {
                "blockHeader" : {
                    "baseFeePerGas" : "0x0a",
                    "bloom" : "0x00000000000000000000000000000000000000000000000000000000000000000000000000000000000000000000000000000000000000000000000000000000000000000000000000000000000000000000000000000000000000000000000000000000000000000000000000000000000000000000000000000000000000000000000000000000000000000000000000000000000000000000000000000000000000000000000000000000000000000000000000000000000000000000000000000000000000000000000000000000000000000000000000000000000000000000000000000000000000000000000000000000000000000000000000000000",
                    "coinbase" : "0x2adc25665018aa1fe0e6bc666dac8fc2697ff9ba",
                    "difficulty" : "0x020000",
                    "extraData" : "0x00",
                    "gasLimit" : "0x7fffffffffffffff",
                    "gasUsed" : "0x01c9f6",
                    "hash" : "0x2bf69d627ce7dfe4834ce4983e1a855abe2829b2c2665153db1710f40680fba9",
                    "mixHash" : "0x0000000000000000000000000000000000000000000000000000000000000000",
                    "nonce" : "0x0000000000000000",
                    "number" : "0x01",
                    "parentHash" : "0x3fb1f6d9c7c45b702e47cd3c3c9fc91c921ea463a8c10418e891b0005134af3a",
                    "receiptTrie" : "0xececde5e65c7231be1ea481e9438a5976ff12962e19bee84967cb5af91da219e",
                    "stateRoot" : "0x6f97eb71f4f7f7d9aa16f400bb42efdeb1d9dd1ccc8d7da19a67b9b96fe334be",
                    "timestamp" : "0x03e8",
                    "transactionsTrie" : "0xb7c065237f7572176d08476a2c3fb20133fa33db152e2a33c2b875ab60757e5b",
                    "uncleHash" : "0x1dcc4de8dec75d7aab85b567b6ccd41ad312451b948a7413f0a142fd40d49347"
                },
                "rlp" : "0xf90267f901fea03fb1f6d9c7c45b702e47cd3c3c9fc91c921ea463a8c10418e891b0005134af3aa01dcc4de8dec75d7aab85b567b6ccd41ad312451b948a7413f0a142fd40d49347942adc25665018aa1fe0e6bc666dac8fc2697ff9baa06f97eb71f4f7f7d9aa16f400bb42efdeb1d9dd1ccc8d7da19a67b9b96fe334bea0b7c065237f7572176d08476a2c3fb20133fa33db152e2a33c2b875ab60757e5ba0ececde5e65c7231be1ea481e9438a5976ff12962e19bee84967cb5af91da219eb90100000000000000000000000000000000000000000000000000000000000000000000000000000000000000000000000000000000000000000000000000000000000000000000000000000000000000000000000000000000000000000000000000000000000000000000000000000000000000000000000000000000000000000000000000000000000000000000000000000000000000000000000000000000000000000000000000000000000000000000000000000000000000000000000000000000000000000000000000000000000000000000000000000000000000000000000000000000000000000000000000000000000000000000000000000000008302000001887fffffffffffffff8301c9f68203e800a000000000000000000000000000000000000000000000000000000000000000008800000000000000000af863f861800a8401ba814094a00000000000000000000000000000000000000080801ca0070f50564b5bc758ad65a014168f338fa3ba0ccf2d637b828aeb2241ab924585a039aa1ea3858df2f76e5592127b4ff0a7517cfcf2d7038acaf28fd92ae15f043dc0",
                "transactions" : [
                    {
                        "data" : "0x",
                        "gasLimit" : "0x01ba8140",
                        "gasPrice" : "0x0a",
                        "nonce" : "0x00",
                        "r" : "0x070f50564b5bc758ad65a014168f338fa3ba0ccf2d637b828aeb2241ab924585",
                        "s" : "0x39aa1ea3858df2f76e5592127b4ff0a7517cfcf2d7038acaf28fd92ae15f043d",
                        "sender" : "0xa94f5374fce5edbc8e2a8697c15331677e6ebf0b",
                        "to" : "0xa000000000000000000000000000000000000000",
                        "v" : "0x1c",
                        "value" : "0x00"
                    }
                ],
                "uncleHeaders" : [
                ]
            }
        ],
        "genesisBlockHeader" : {
            "baseFeePerGas" : "0x0b",
            "bloom" : "0x00000000000000000000000000000000000000000000000000000000000000000000000000000000000000000000000000000000000000000000000000000000000000000000000000000000000000000000000000000000000000000000000000000000000000000000000000000000000000000000000000000000000000000000000000000000000000000000000000000000000000000000000000000000000000000000000000000000000000000000000000000000000000000000000000000000000000000000000000000000000000000000000000000000000000000000000000000000000000000000000000000000000000000000000000000000",
            "coinbase" : "0x2adc25665018aa1fe0e6bc666dac8fc2697ff9ba",
            "difficulty" : "0x020000",
            "extraData" : "0x00",
            "gasLimit" : "0x7fffffffffffffff",
            "gasUsed" : "0x00",
            "hash" : "0x3fb1f6d9c7c45b702e47cd3c3c9fc91c921ea463a8c10418e891b0005134af3a",
            "mixHash" : "0x0000000000000000000000000000000000000000000000000000000000000000",
            "nonce" : "0x0000000000000000",
            "number" : "0x00",
            "parentHash" : "0x0000000000000000000000000000000000000000000000000000000000000000",
            "receiptTrie" : "0x56e81f171bcc55a6ff8345e692c0f86e5b48e01b996cadc001622fb5e363b421",
            "stateRoot" : "0xaea971c2254b7547872f9156d0bc25e7989121b29e0f599d37b4e697808f78f3",
            "timestamp" : "0x00",
            "transactionsTrie" : "0x56e81f171bcc55a6ff8345e692c0f86e5b48e01b996cadc001622fb5e363b421",
            "uncleHash" : "0x1dcc4de8dec75d7aab85b567b6ccd41ad312451b948a7413f0a142fd40d49347"
        },
        "genesisRLP" : "0xf901fef901f9a00000000000000000000000000000000000000000000000000000000000000000a01dcc4de8dec75d7aab85b567b6ccd41ad312451b948a7413f0a142fd40d49347942adc25665018aa1fe0e6bc666dac8fc2697ff9baa0aea971c2254b7547872f9156d0bc25e7989121b29e0f599d37b4e697808f78f3a056e81f171bcc55a6ff8345e692c0f86e5b48e01b996cadc001622fb5e363b421a056e81f171bcc55a6ff8345e692c0f86e5b48e01b996cadc001622fb5e363b421b90100000000000000000000000000000000000000000000000000000000000000000000000000000000000000000000000000000000000000000000000000000000000000000000000000000000000000000000000000000000000000000000000000000000000000000000000000000000000000000000000000000000000000000000000000000000000000000000000000000000000000000000000000000000000000000000000000000000000000000000000000000000000000000000000000000000000000000000000000000000000000000000000000000000000000000000000000000000000000000000000000000000000000000000000000000000008302000080887fffffffffffffff808000a000000000000000000000000000000000000000000000000000000000000000008800000000000000000bc0c0",
        "lastblockhash" : "0x2bf69d627ce7dfe4834ce4983e1a855abe2829b2c2665153db1710f40680fba9",
        "network" : "London",
        "postState" : {
            "0x2adc25665018aa1fe0e6bc666dac8fc2697ff9ba" : {
                "balance" : "0x1bc16d674ec80000",
                "code" : "0x",
                "nonce" : "0x00",
                "storage" : {
                }
            },
            "0xa000000000000000000000000000000000000000" : {
                "balance" : "0x0a",
                "code" : "0x6103fe60003514603d57600160003501600052600060006020600073a0000000000000000000000000000000000000005afa5061041a600035106051575b66600060006002f0600052600760196003f0505b",
                "nonce" : "0x00",
                "storage" : {
                }
            },
            "0xa94f5374fce5edbc8e2a8697c15331677e6ebf0b" : {
                "balance" : "0x13426172c74d822b878fe7ffee1c64",
                "code" : "0x",
                "nonce" : "0x01",
                "storage" : {
                }
            }
        },
        "pre" : {
            "0xa000000000000000000000000000000000000000" : {
                "balance" : "0x0a",
                "code" : "0x6103fe60003514603d57600160003501600052600060006020600073a0000000000000000000000000000000000000005afa5061041a600035106051575b66600060006002f0600052600760196003f0505b",
                "nonce" : "0x00",
                "storage" : {
                }
            },
            "0xa94f5374fce5edbc8e2a8697c15331677e6ebf0b" : {
                "balance" : "0x13426172c74d822b878fe800000000",
                "code" : "0x",
                "nonce" : "0x00",
                "storage" : {
                }
            }
        },
        "sealEngine" : "NoProof"
    },
    "static_LoopCallsDepthThenRevert3_d0g0v0_Merge" : {
        "_info" : {
            "comment" : "",
            "filling-rpc-server" : "evm version 1.11.0-unstable-e04d63eb-20230113",
            "filling-tool-version" : "retesteth-0.2.3-postmerge+commit.801c0d4c.Linux.g++",
            "generatedTestHash" : "bbf3001886069c00161b8e85bed5c384201a1cbf0fc20cefbe214d9675860fb7",
            "lllcversion" : "Version: 0.5.14-develop.2021.4.29+commit.14c9d5de.Linux.clang",
            "solidity" : "Version: 0.8.17-develop.2022.9.30+commit.8df45f5f.Linux.clang",
            "source" : "src/GeneralStateTestsFiller/stStaticCall/static_LoopCallsDepthThenRevert3Filler.json",
            "sourceHash" : "5ce82ad62f6dc26c1ead3dcf13fb54c97838a6624cf3f127f89c1dbf02039ac8"
        },
        "blocks" : [
            {
                "blockHeader" : {
                    "baseFeePerGas" : "0x0a",
                    "bloom" : "0x00000000000000000000000000000000000000000000000000000000000000000000000000000000000000000000000000000000000000000000000000000000000000000000000000000000000000000000000000000000000000000000000000000000000000000000000000000000000000000000000000000000000000000000000000000000000000000000000000000000000000000000000000000000000000000000000000000000000000000000000000000000000000000000000000000000000000000000000000000000000000000000000000000000000000000000000000000000000000000000000000000000000000000000000000000000",
                    "coinbase" : "0x2adc25665018aa1fe0e6bc666dac8fc2697ff9ba",
                    "difficulty" : "0x00",
                    "extraData" : "0x00",
                    "gasLimit" : "0x7fffffffffffffff",
                    "gasUsed" : "0x01c9f6",
                    "hash" : "0xa584d610bd58b4d22bfa8f216e0ac76871d392a50b80844ebe4bbd17d4d572dd",
                    "mixHash" : "0x0000000000000000000000000000000000000000000000000000000000020000",
                    "nonce" : "0x0000000000000000",
                    "number" : "0x01",
                    "parentHash" : "0xd4e5a8df05023294d8f40cc2c418202c549aadb54fd7190a2d271a68f47e90e7",
                    "receiptTrie" : "0xececde5e65c7231be1ea481e9438a5976ff12962e19bee84967cb5af91da219e",
                    "stateRoot" : "0xc9739200283905e7c3342fe5afe2b5777a6de0feb7acf39f14b3b229b9a26ff1",
                    "timestamp" : "0x03e8",
                    "transactionsTrie" : "0xb7c065237f7572176d08476a2c3fb20133fa33db152e2a33c2b875ab60757e5b",
                    "uncleHash" : "0x1dcc4de8dec75d7aab85b567b6ccd41ad312451b948a7413f0a142fd40d49347"
                },
                "rlp" : "0xf90264f901fba0d4e5a8df05023294d8f40cc2c418202c549aadb54fd7190a2d271a68f47e90e7a01dcc4de8dec75d7aab85b567b6ccd41ad312451b948a7413f0a142fd40d49347942adc25665018aa1fe0e6bc666dac8fc2697ff9baa0c9739200283905e7c3342fe5afe2b5777a6de0feb7acf39f14b3b229b9a26ff1a0b7c065237f7572176d08476a2c3fb20133fa33db152e2a33c2b875ab60757e5ba0ececde5e65c7231be1ea481e9438a5976ff12962e19bee84967cb5af91da219eb90100000000000000000000000000000000000000000000000000000000000000000000000000000000000000000000000000000000000000000000000000000000000000000000000000000000000000000000000000000000000000000000000000000000000000000000000000000000000000000000000000000000000000000000000000000000000000000000000000000000000000000000000000000000000000000000000000000000000000000000000000000000000000000000000000000000000000000000000000000000000000000000000000000000000000000000000000000000000000000000000000000000000000000000000000000000008001887fffffffffffffff8301c9f68203e800a000000000000000000000000000000000000000000000000000000000000200008800000000000000000af863f861800a8401ba814094a00000000000000000000000000000000000000080801ca0070f50564b5bc758ad65a014168f338fa3ba0ccf2d637b828aeb2241ab924585a039aa1ea3858df2f76e5592127b4ff0a7517cfcf2d7038acaf28fd92ae15f043dc0",
                "transactions" : [
                    {
                        "data" : "0x",
                        "gasLimit" : "0x01ba8140",
                        "gasPrice" : "0x0a",
                        "nonce" : "0x00",
                        "r" : "0x070f50564b5bc758ad65a014168f338fa3ba0ccf2d637b828aeb2241ab924585",
                        "s" : "0x39aa1ea3858df2f76e5592127b4ff0a7517cfcf2d7038acaf28fd92ae15f043d",
                        "sender" : "0xa94f5374fce5edbc8e2a8697c15331677e6ebf0b",
                        "to" : "0xa000000000000000000000000000000000000000",
                        "v" : "0x1c",
                        "value" : "0x00"
                    }
                ],
                "uncleHeaders" : [
                ]
            }
        ],
        "genesisBlockHeader" : {
            "baseFeePerGas" : "0x0b",
            "bloom" : "0x00000000000000000000000000000000000000000000000000000000000000000000000000000000000000000000000000000000000000000000000000000000000000000000000000000000000000000000000000000000000000000000000000000000000000000000000000000000000000000000000000000000000000000000000000000000000000000000000000000000000000000000000000000000000000000000000000000000000000000000000000000000000000000000000000000000000000000000000000000000000000000000000000000000000000000000000000000000000000000000000000000000000000000000000000000000",
            "coinbase" : "0x2adc25665018aa1fe0e6bc666dac8fc2697ff9ba",
            "difficulty" : "0x00",
            "extraData" : "0x00",
            "gasLimit" : "0x7fffffffffffffff",
            "gasUsed" : "0x00",
            "hash" : "0xd4e5a8df05023294d8f40cc2c418202c549aadb54fd7190a2d271a68f47e90e7",
            "mixHash" : "0x0000000000000000000000000000000000000000000000000000000000020000",
            "nonce" : "0x0000000000000000",
            "number" : "0x00",
            "parentHash" : "0x0000000000000000000000000000000000000000000000000000000000000000",
            "receiptTrie" : "0x56e81f171bcc55a6ff8345e692c0f86e5b48e01b996cadc001622fb5e363b421",
            "stateRoot" : "0xaea971c2254b7547872f9156d0bc25e7989121b29e0f599d37b4e697808f78f3",
            "timestamp" : "0x00",
            "transactionsTrie" : "0x56e81f171bcc55a6ff8345e692c0f86e5b48e01b996cadc001622fb5e363b421",
            "uncleHash" : "0x1dcc4de8dec75d7aab85b567b6ccd41ad312451b948a7413f0a142fd40d49347"
        },
        "genesisRLP" : "0xf901fbf901f6a00000000000000000000000000000000000000000000000000000000000000000a01dcc4de8dec75d7aab85b567b6ccd41ad312451b948a7413f0a142fd40d49347942adc25665018aa1fe0e6bc666dac8fc2697ff9baa0aea971c2254b7547872f9156d0bc25e7989121b29e0f599d37b4e697808f78f3a056e81f171bcc55a6ff8345e692c0f86e5b48e01b996cadc001622fb5e363b421a056e81f171bcc55a6ff8345e692c0f86e5b48e01b996cadc001622fb5e363b421b90100000000000000000000000000000000000000000000000000000000000000000000000000000000000000000000000000000000000000000000000000000000000000000000000000000000000000000000000000000000000000000000000000000000000000000000000000000000000000000000000000000000000000000000000000000000000000000000000000000000000000000000000000000000000000000000000000000000000000000000000000000000000000000000000000000000000000000000000000000000000000000000000000000000000000000000000000000000000000000000000000000000000000000000000000000000008080887fffffffffffffff808000a000000000000000000000000000000000000000000000000000000000000200008800000000000000000bc0c0",
        "lastblockhash" : "0xa584d610bd58b4d22bfa8f216e0ac76871d392a50b80844ebe4bbd17d4d572dd",
        "network" : "Merge",
        "postState" : {
            "0xa000000000000000000000000000000000000000" : {
                "balance" : "0x0a",
                "code" : "0x6103fe60003514603d57600160003501600052600060006020600073a0000000000000000000000000000000000000005afa5061041a600035106051575b66600060006002f0600052600760196003f0505b",
                "nonce" : "0x00",
                "storage" : {
                }
            },
            "0xa94f5374fce5edbc8e2a8697c15331677e6ebf0b" : {
                "balance" : "0x13426172c74d822b878fe7ffee1c64",
                "code" : "0x",
                "nonce" : "0x01",
                "storage" : {
                }
            }
        },
        "pre" : {
            "0xa000000000000000000000000000000000000000" : {
                "balance" : "0x0a",
                "code" : "0x6103fe60003514603d57600160003501600052600060006020600073a0000000000000000000000000000000000000005afa5061041a600035106051575b66600060006002f0600052600760196003f0505b",
                "nonce" : "0x00",
                "storage" : {
                }
            },
            "0xa94f5374fce5edbc8e2a8697c15331677e6ebf0b" : {
                "balance" : "0x13426172c74d822b878fe800000000",
                "code" : "0x",
                "nonce" : "0x00",
                "storage" : {
                }
            }
        },
        "sealEngine" : "NoProof"
    },
    "static_LoopCallsDepthThenRevert3_d0g0v0_Shanghai" : {
        "_info" : {
            "comment" : "",
            "filling-rpc-server" : "evm version 1.11.0-unstable-e04d63eb-20230113",
            "filling-tool-version" : "retesteth-0.2.3-postmerge+commit.801c0d4c.Linux.g++",
            "generatedTestHash" : "ac20bb38b3809935b93391fe22796c44dbc9033ab4be832a46d4df7697860c96",
            "lllcversion" : "Version: 0.5.14-develop.2021.4.29+commit.14c9d5de.Linux.clang",
            "solidity" : "Version: 0.8.17-develop.2022.9.30+commit.8df45f5f.Linux.clang",
            "source" : "src/GeneralStateTestsFiller/stStaticCall/static_LoopCallsDepthThenRevert3Filler.json",
            "sourceHash" : "5ce82ad62f6dc26c1ead3dcf13fb54c97838a6624cf3f127f89c1dbf02039ac8"
        },
        "blocks" : [
            {
                "blockHeader" : {
                    "baseFeePerGas" : "0x0a",
                    "bloom" : "0x00000000000000000000000000000000000000000000000000000000000000000000000000000000000000000000000000000000000000000000000000000000000000000000000000000000000000000000000000000000000000000000000000000000000000000000000000000000000000000000000000000000000000000000000000000000000000000000000000000000000000000000000000000000000000000000000000000000000000000000000000000000000000000000000000000000000000000000000000000000000000000000000000000000000000000000000000000000000000000000000000000000000000000000000000000000",
                    "coinbase" : "0x2adc25665018aa1fe0e6bc666dac8fc2697ff9ba",
                    "difficulty" : "0x00",
                    "extraData" : "0x00",
                    "gasLimit" : "0x7fffffffffffffff",
                    "gasUsed" : "0x01c9f6",
                    "hash" : "0x72b74ba716194f2330394cebb4a4df8e2eac5e0eed113fde9edeaa21c9d76eae",
                    "mixHash" : "0x0000000000000000000000000000000000000000000000000000000000020000",
                    "nonce" : "0x0000000000000000",
                    "number" : "0x01",
                    "parentHash" : "0xae0b9cab4a3db12d5a8b7e2aa566c8b4108c57c199c7d4dcae5560b76018a06b",
                    "receiptTrie" : "0xececde5e65c7231be1ea481e9438a5976ff12962e19bee84967cb5af91da219e",
                    "stateRoot" : "0xc9739200283905e7c3342fe5afe2b5777a6de0feb7acf39f14b3b229b9a26ff1",
                    "timestamp" : "0x03e8",
                    "transactionsTrie" : "0xb7c065237f7572176d08476a2c3fb20133fa33db152e2a33c2b875ab60757e5b",
                    "uncleHash" : "0x1dcc4de8dec75d7aab85b567b6ccd41ad312451b948a7413f0a142fd40d49347",
                    "withdrawalsRoot" : "0x0000000000000000000000000000000000000000000000000000000000000000"
                },
                "rlp" : "0xf90286f9021ca0ae0b9cab4a3db12d5a8b7e2aa566c8b4108c57c199c7d4dcae5560b76018a06ba01dcc4de8dec75d7aab85b567b6ccd41ad312451b948a7413f0a142fd40d49347942adc25665018aa1fe0e6bc666dac8fc2697ff9baa0c9739200283905e7c3342fe5afe2b5777a6de0feb7acf39f14b3b229b9a26ff1a0b7c065237f7572176d08476a2c3fb20133fa33db152e2a33c2b875ab60757e5ba0ececde5e65c7231be1ea481e9438a5976ff12962e19bee84967cb5af91da219eb90100000000000000000000000000000000000000000000000000000000000000000000000000000000000000000000000000000000000000000000000000000000000000000000000000000000000000000000000000000000000000000000000000000000000000000000000000000000000000000000000000000000000000000000000000000000000000000000000000000000000000000000000000000000000000000000000000000000000000000000000000000000000000000000000000000000000000000000000000000000000000000000000000000000000000000000000000000000000000000000000000000000000000000000000000000000008001887fffffffffffffff8301c9f68203e800a000000000000000000000000000000000000000000000000000000000000200008800000000000000000aa00000000000000000000000000000000000000000000000000000000000000000f863f861800a8401ba814094a00000000000000000000000000000000000000080801ca0070f50564b5bc758ad65a014168f338fa3ba0ccf2d637b828aeb2241ab924585a039aa1ea3858df2f76e5592127b4ff0a7517cfcf2d7038acaf28fd92ae15f043dc0c0",
                "transactions" : [
                    {
                        "data" : "0x",
                        "gasLimit" : "0x01ba8140",
                        "gasPrice" : "0x0a",
                        "nonce" : "0x00",
                        "r" : "0x070f50564b5bc758ad65a014168f338fa3ba0ccf2d637b828aeb2241ab924585",
                        "s" : "0x39aa1ea3858df2f76e5592127b4ff0a7517cfcf2d7038acaf28fd92ae15f043d",
                        "sender" : "0xa94f5374fce5edbc8e2a8697c15331677e6ebf0b",
                        "to" : "0xa000000000000000000000000000000000000000",
                        "v" : "0x1c",
                        "value" : "0x00"
                    }
                ],
                "uncleHeaders" : [
                ]
            }
        ],
        "genesisBlockHeader" : {
            "baseFeePerGas" : "0x0b",
            "bloom" : "0x00000000000000000000000000000000000000000000000000000000000000000000000000000000000000000000000000000000000000000000000000000000000000000000000000000000000000000000000000000000000000000000000000000000000000000000000000000000000000000000000000000000000000000000000000000000000000000000000000000000000000000000000000000000000000000000000000000000000000000000000000000000000000000000000000000000000000000000000000000000000000000000000000000000000000000000000000000000000000000000000000000000000000000000000000000000",
            "coinbase" : "0x2adc25665018aa1fe0e6bc666dac8fc2697ff9ba",
            "difficulty" : "0x00",
            "extraData" : "0x00",
            "gasLimit" : "0x7fffffffffffffff",
            "gasUsed" : "0x00",
            "hash" : "0xae0b9cab4a3db12d5a8b7e2aa566c8b4108c57c199c7d4dcae5560b76018a06b",
            "mixHash" : "0x0000000000000000000000000000000000000000000000000000000000020000",
            "nonce" : "0x0000000000000000",
            "number" : "0x00",
            "parentHash" : "0x0000000000000000000000000000000000000000000000000000000000000000",
            "receiptTrie" : "0x56e81f171bcc55a6ff8345e692c0f86e5b48e01b996cadc001622fb5e363b421",
            "stateRoot" : "0xaea971c2254b7547872f9156d0bc25e7989121b29e0f599d37b4e697808f78f3",
            "timestamp" : "0x00",
            "transactionsTrie" : "0x56e81f171bcc55a6ff8345e692c0f86e5b48e01b996cadc001622fb5e363b421",
            "uncleHash" : "0x1dcc4de8dec75d7aab85b567b6ccd41ad312451b948a7413f0a142fd40d49347",
            "withdrawalsRoot" : "0x56e81f171bcc55a6ff8345e692c0f86e5b48e01b996cadc001622fb5e363b421"
        },
        "genesisRLP" : "0xf9021df90217a00000000000000000000000000000000000000000000000000000000000000000a01dcc4de8dec75d7aab85b567b6ccd41ad312451b948a7413f0a142fd40d49347942adc25665018aa1fe0e6bc666dac8fc2697ff9baa0aea971c2254b7547872f9156d0bc25e7989121b29e0f599d37b4e697808f78f3a056e81f171bcc55a6ff8345e692c0f86e5b48e01b996cadc001622fb5e363b421a056e81f171bcc55a6ff8345e692c0f86e5b48e01b996cadc001622fb5e363b421b90100000000000000000000000000000000000000000000000000000000000000000000000000000000000000000000000000000000000000000000000000000000000000000000000000000000000000000000000000000000000000000000000000000000000000000000000000000000000000000000000000000000000000000000000000000000000000000000000000000000000000000000000000000000000000000000000000000000000000000000000000000000000000000000000000000000000000000000000000000000000000000000000000000000000000000000000000000000000000000000000000000000000000000000000000000000008080887fffffffffffffff808000a000000000000000000000000000000000000000000000000000000000000200008800000000000000000ba056e81f171bcc55a6ff8345e692c0f86e5b48e01b996cadc001622fb5e363b421c0c0c0",
        "lastblockhash" : "0x72b74ba716194f2330394cebb4a4df8e2eac5e0eed113fde9edeaa21c9d76eae",
        "network" : "Shanghai",
        "postState" : {
            "0xa000000000000000000000000000000000000000" : {
                "balance" : "0x0a",
                "code" : "0x6103fe60003514603d57600160003501600052600060006020600073a0000000000000000000000000000000000000005afa5061041a600035106051575b66600060006002f0600052600760196003f0505b",
                "nonce" : "0x00",
                "storage" : {
                }
            },
            "0xa94f5374fce5edbc8e2a8697c15331677e6ebf0b" : {
                "balance" : "0x13426172c74d822b878fe7ffee1c64",
                "code" : "0x",
                "nonce" : "0x01",
                "storage" : {
                }
            }
        },
        "pre" : {
            "0xa000000000000000000000000000000000000000" : {
                "balance" : "0x0a",
                "code" : "0x6103fe60003514603d57600160003501600052600060006020600073a0000000000000000000000000000000000000005afa5061041a600035106051575b66600060006002f0600052600760196003f0505b",
                "nonce" : "0x00",
                "storage" : {
                }
            },
            "0xa94f5374fce5edbc8e2a8697c15331677e6ebf0b" : {
                "balance" : "0x13426172c74d822b878fe800000000",
                "code" : "0x",
                "nonce" : "0x00",
                "storage" : {
                }
            }
        },
        "sealEngine" : "NoProof"
    }
}