{
    "tooLongReturnDataCopy" : {
        "_info" : {
            "comment" : "Ori Pomerantz   qbzzt1@gmail.com",
            "filling-rpc-server" : "evm version 1.10.26-stable-e5eb32ac",
            "filling-tool-version" : "retesteth-0.2.3-postmerge+commit.801c0d4c.Linux.g++",
            "generatedTestHash" : "ef8e9b1d171ee746a4dc0caa28f26aa214732b687f67dd9e5d468335a522e50d",
            "labels" : {
                "0" : "success",
                "1" : "fail",
                "10" : "fail",
                "11" : "fail",
                "12" : "success",
                "13" : "fail",
                "14" : "success",
                "15" : "success",
                "16" : "fail",
                "17" : "success",
                "18" : "fail",
                "19" : "success",
                "2" : "success",
                "20" : "fail",
                "21" : "fail",
                "22" : "fail",
                "23" : "fail",
                "3" : "success",
                "4" : "fail",
                "5" : "success",
                "6" : "fail",
                "7" : "success",
                "8" : "fail",
                "9" : "fail"
            },
            "lllcversion" : "Version: 0.5.14-develop.2022.6.30+commit.401d5358.mod.Linux.g++",
            "solidity" : "Version: 0.8.18-develop.2022.12.14+commit.a9fe05e8.Linux.g++",
            "source" : "src/GeneralStateTestsFiller/stReturnDataTest/tooLongReturnDataCopyFiller.yml",
            "sourceHash" : "3441a82e896ab42191e82cacaabf84fa7d78250fda09834d2915f5ab6b219b0a"
        },
        "env" : {
            "currentBaseFee" : "0x0a",
            "currentCoinbase" : "0x2adc25665018aa1fe0e6bc666dac8fc2697ff9ba",
            "currentDifficulty" : "0x020000",
            "currentGasLimit" : "0x10000000000000",
            "currentNumber" : "0x01",
            "currentRandom" : "0x0000000000000000000000000000000000000000000000000000000000020000",
            "currentTimestamp" : "0x03e8",
            "previousHash" : "0x5e20a0453cecd065ea59c37ac63e079ee08998b6045136a8ce6635c7912ec0b6"
        },
        "post" : {
            "Berlin" : [
                {
                    "hash" : "0x42df0b3ec7f66bf429e3aa9ee6e47ad17b09bb528c9749b5fd5e93172c07936c",
                    "indexes" : {
                        "data" : 1,
                        "gas" : 0,
                        "value" : 0
                    },
                    "logs" : "0x1dcc4de8dec75d7aab85b567b6ccd41ad312451b948a7413f0a142fd40d49347",
                    "txbytes" : "0xf8e601648401ba814094cccccccccccccccccccccccccccccccccccccccc80b884917694f9000000000000000000000000000000000000000000000000000000000000000000000000000000000000000000000000000000000000000000000000000000000000000000000000000000000000000000000000000000000000000000000001000000000000000000000000000000000000000000000000000000000000c0de1ca0ea2ccda2e72d61d05a035210f796e07765a665561de491b140977dbf6ceddca1a075c000b4df474b88394993ca561a974095ddaa43f93ad74ee33a1ed32eb6d91e"
                },
                {
                    "hash" : "0x42df0b3ec7f66bf429e3aa9ee6e47ad17b09bb528c9749b5fd5e93172c07936c",
                    "indexes" : {
                        "data" : 4,
                        "gas" : 0,
                        "value" : 0
                    },
                    "logs" : "0x1dcc4de8dec75d7aab85b567b6ccd41ad312451b948a7413f0a142fd40d49347",
                    "txbytes" : "0xf8e601648401ba814094cccccccccccccccccccccccccccccccccccccccc80b884917694f9000000000000000000000000000000000000000000000000000000000000001000000000000000000000000000000000000000000000000000000000000000000000000000000000000000000000000000000000000000000000000000000011000000000000000000000000000000000000000000000000000000000000c0de1ca0e50cb44e8ff32d7a2873f796fde7ef98f026fd672d7983bc9703e519a0a37fcba07434ccfb264921f21711352db6df2101aca536777e792386e1a293ac7447511f"
                },
                {
                    "hash" : "0x42df0b3ec7f66bf429e3aa9ee6e47ad17b09bb528c9749b5fd5e93172c07936c",
                    "indexes" : {
                        "data" : 6,
                        "gas" : 0,
                        "value" : 0
                    },
                    "logs" : "0x1dcc4de8dec75d7aab85b567b6ccd41ad312451b948a7413f0a142fd40d49347",
                    "txbytes" : "0xf8e601648401ba814094cccccccccccccccccccccccccccccccccccccccc80b884917694f9000000000000000000000000000000000000000000000000000000000000001000000000000000000000000000000000000000000000000000000000000000010000000000000000000000000000000000000000000000000000000000000010000000000000000000000000000000000000000000000000000000000000c0de1ba034696bc6dcbdd7cc6ed9b5b5f0c7b128085da855df9f0e68f0faafbed11a1b0da07608612ddb667ab349c7a68bfa45a887d38e2830e34cb504ea885f705037fe4d"
                },
                {
                    "hash" : "0x42df0b3ec7f66bf429e3aa9ee6e47ad17b09bb528c9749b5fd5e93172c07936c",
                    "indexes" : {
                        "data" : 8,
                        "gas" : 0,
                        "value" : 0
                    },
                    "logs" : "0x1dcc4de8dec75d7aab85b567b6ccd41ad312451b948a7413f0a142fd40d49347",
                    "txbytes" : "0xf8e601648401ba814094cccccccccccccccccccccccccccccccccccccccc80b884917694f9000000000000000000000000000000000000000000000000000000000000001000000000000000000000000000000000000000000000000000000000000000090000000000000000000000000000000000000000000000000000000000000008000000000000000000000000000000000000000000000000000000000000c0de1ba0f019db3b8a75a6433a932461c0e9d3405aa48c7822ecc36b8d93fc10b8792265a0327dc4e700830ab974985d139d7c965fa2384a7d3fcb11a89b0dcabcf4cec67d"
                },
                {
                    "hash" : "0x42df0b3ec7f66bf429e3aa9ee6e47ad17b09bb528c9749b5fd5e93172c07936c",
                    "indexes" : {
                        "data" : 9,
                        "gas" : 0,
                        "value" : 0
                    },
                    "logs" : "0x1dcc4de8dec75d7aab85b567b6ccd41ad312451b948a7413f0a142fd40d49347",
                    "txbytes" : "0xf8e601648401ba814094cccccccccccccccccccccccccccccccccccccccc80b884917694f9000000000000000000000000000000000000000000000000000000000000001000000000000000000000000000000000000000000000000000000000000000100000000000000000000000000000000000000000000000000000000000000008000000000000000000000000000000000000000000000000000000000000c0de1ba08818b111279af7f253e0952767d0f53e24ad0926b372e8b2930a184e1c960875a06c1396053d54d5890a4a8b010fa8c2ce5ffdbfbc27a97c859c271b0998d044fb"
                },
                {
                    "hash" : "0x42df0b3ec7f66bf429e3aa9ee6e47ad17b09bb528c9749b5fd5e93172c07936c",
                    "indexes" : {
                        "data" : 10,
                        "gas" : 0,
                        "value" : 0
                    },
                    "logs" : "0x1dcc4de8dec75d7aab85b567b6ccd41ad312451b948a7413f0a142fd40d49347",
                    "txbytes" : "0xf8e501648401ba814094cccccccccccccccccccccccccccccccccccccccc80b884917694f9000000000000000000000000000000000000000000000000000000000000001000000000000000000000000000000000000000000000000000000000000000100000000000000000000000000000000000000000000000000000000000000010000000000000000000000000000000000000000000000000000000000000c0de1ba07e762aed3d0554bdf0d872fc6f7798cf796c53f476125dfaf9c80ba90505a4849f7ebb7f0f2c772773018e43fce6f7b22e98fd5263ba997ca76d7aabf677f3e7"
                },
                {
                    "hash" : "0x42df0b3ec7f66bf429e3aa9ee6e47ad17b09bb528c9749b5fd5e93172c07936c",
                    "indexes" : {
                        "data" : 11,
                        "gas" : 0,
                        "value" : 0
                    },
                    "logs" : "0x1dcc4de8dec75d7aab85b567b6ccd41ad312451b948a7413f0a142fd40d49347",
                    "txbytes" : "0xf8e601648401ba814094cccccccccccccccccccccccccccccccccccccccc80b884917694f9000000000000000000000000000000000000000000000000000000000000001000000000000000000000000000000000000000000000000000000000000000200000000000000000000000000000000000000000000000000000000000000010000000000000000000000000000000000000000000000000000000000000c0de1ba031fe080c66773dc407a7f386a4e7ef8a66e78337aa7ded3197d2ace6144cd382a008114c8c9696bb765b25fad4feeb67c5e77dc1902617566b7433ecd374a3778e"
                },
                {
                    "hash" : "0x42df0b3ec7f66bf429e3aa9ee6e47ad17b09bb528c9749b5fd5e93172c07936c",
                    "indexes" : {
                        "data" : 13,
                        "gas" : 0,
                        "value" : 0
                    },
                    "logs" : "0x1dcc4de8dec75d7aab85b567b6ccd41ad312451b948a7413f0a142fd40d49347",
                    "txbytes" : "0xf8e601648401ba814094cccccccccccccccccccccccccccccccccccccccc80b884917694f90000000000000000000000000000000000000000000000000000000000000000000000000000000000000000000000000000000000000000000000000000000000000000000000000000000000000000000000000000000000000000000000010000000000000000000000000000000000000000000000000000000000000bad1ba005065ef47c6a0f44a7e1560feaecb110ad8bdb43285611e473056e1a0b9a967aa03c8bb3b79263f71bdaecb0fc6d223970241241db615270df8b65dce2899a9065"
                },
                {
                    "hash" : "0x42df0b3ec7f66bf429e3aa9ee6e47ad17b09bb528c9749b5fd5e93172c07936c",
                    "indexes" : {
                        "data" : 16,
                        "gas" : 0,
                        "value" : 0
                    },
                    "logs" : "0x1dcc4de8dec75d7aab85b567b6ccd41ad312451b948a7413f0a142fd40d49347",
                    "txbytes" : "0xf8e601648401ba814094cccccccccccccccccccccccccccccccccccccccc80b884917694f90000000000000000000000000000000000000000000000000000000000000010000000000000000000000000000000000000000000000000000000000000000000000000000000000000000000000000000000000000000000000000000000110000000000000000000000000000000000000000000000000000000000000bad1ca0eb87cf3f1dc00f39291b0a41a0dacfbaf188014689986a65248aa0196aa83d4ba02ad8086985f09fe85b168e81c6dcaa706a33fee503125fda54b9e393deabdfba"
                },
                {
                    "hash" : "0x42df0b3ec7f66bf429e3aa9ee6e47ad17b09bb528c9749b5fd5e93172c07936c",
                    "indexes" : {
                        "data" : 18,
                        "gas" : 0,
                        "value" : 0
                    },
                    "logs" : "0x1dcc4de8dec75d7aab85b567b6ccd41ad312451b948a7413f0a142fd40d49347",
                    "txbytes" : "0xf8e601648401ba814094cccccccccccccccccccccccccccccccccccccccc80b884917694f90000000000000000000000000000000000000000000000000000000000000010000000000000000000000000000000000000000000000000000000000000000100000000000000000000000000000000000000000000000000000000000000100000000000000000000000000000000000000000000000000000000000000bad1ca0ca3510a2926a88cb1f9f3094791835e166cd77e86781b86f64723e3fc75d86d1a05c9dace78daa2e85ae12fa289de4c72f35ef0ac87eb394fc5ccf49a5ae515e86"
                },
                {
                    "hash" : "0x42df0b3ec7f66bf429e3aa9ee6e47ad17b09bb528c9749b5fd5e93172c07936c",
                    "indexes" : {
                        "data" : 20,
                        "gas" : 0,
                        "value" : 0
                    },
                    "logs" : "0x1dcc4de8dec75d7aab85b567b6ccd41ad312451b948a7413f0a142fd40d49347",
                    "txbytes" : "0xf8e601648401ba814094cccccccccccccccccccccccccccccccccccccccc80b884917694f90000000000000000000000000000000000000000000000000000000000000010000000000000000000000000000000000000000000000000000000000000000900000000000000000000000000000000000000000000000000000000000000080000000000000000000000000000000000000000000000000000000000000bad1ca033ca82288ce1371caf3d1b754ccc9d92fb053c3745ace3f5415d91a6b6035b0ca05f5fb40e6e82232b5a65001f46a99dd714349c2db6a2601635b9f16464ab98ca"
                },
                {
                    "hash" : "0x42df0b3ec7f66bf429e3aa9ee6e47ad17b09bb528c9749b5fd5e93172c07936c",
                    "indexes" : {
                        "data" : 21,
                        "gas" : 0,
                        "value" : 0
                    },
                    "logs" : "0x1dcc4de8dec75d7aab85b567b6ccd41ad312451b948a7413f0a142fd40d49347",
                    "txbytes" : "0xf8e601648401ba814094cccccccccccccccccccccccccccccccccccccccc80b884917694f90000000000000000000000000000000000000000000000000000000000000010000000000000000000000000000000000000000000000000000000000000001000000000000000000000000000000000000000000000000000000000000000080000000000000000000000000000000000000000000000000000000000000bad1ca0681d4761a74808e04b2dfdf5ff91a4ab54b8e81e632fff60f95433b659652dd8a02160f7a3abf52bd21746068ace2b359fb6dbeda58ca2fd9dc2562b4cdf5c84ab"
                },
                {
                    "hash" : "0x42df0b3ec7f66bf429e3aa9ee6e47ad17b09bb528c9749b5fd5e93172c07936c",
                    "indexes" : {
                        "data" : 22,
                        "gas" : 0,
                        "value" : 0
                    },
                    "logs" : "0x1dcc4de8dec75d7aab85b567b6ccd41ad312451b948a7413f0a142fd40d49347",
                    "txbytes" : "0xf8e601648401ba814094cccccccccccccccccccccccccccccccccccccccc80b884917694f90000000000000000000000000000000000000000000000000000000000000010000000000000000000000000000000000000000000000000000000000000001000000000000000000000000000000000000000000000000000000000000000100000000000000000000000000000000000000000000000000000000000000bad1ca0b71f99a87c2416b78b24b8b681820b50abdcf9afce08ed07c684f088ef8f550ea02db9a34b0413c0d70f2feb4b20b75254fc12be503d139f3e352f7d080bfe2bf3"
                },
                {
                    "hash" : "0x42df0b3ec7f66bf429e3aa9ee6e47ad17b09bb528c9749b5fd5e93172c07936c",
                    "indexes" : {
                        "data" : 23,
                        "gas" : 0,
                        "value" : 0
                    },
                    "logs" : "0x1dcc4de8dec75d7aab85b567b6ccd41ad312451b948a7413f0a142fd40d49347",
                    "txbytes" : "0xf8e601648401ba814094cccccccccccccccccccccccccccccccccccccccc80b884917694f90000000000000000000000000000000000000000000000000000000000000010000000000000000000000000000000000000000000000000000000000000002000000000000000000000000000000000000000000000000000000000000000100000000000000000000000000000000000000000000000000000000000000bad1ca00dbf0350771df5322e3170c02fa84e5b753e0b29a858e793b8efa1ef6ad3ba6ba03693d65c0a2fb1746c69f8808da47f177d35307977ebde0ba946cd4298ffa95a"
                },
                {
                    "hash" : "0xdce53717d1b91a358678956ee67e95c925977f8fcf9cc9b2ebea6847d60075a1",
                    "indexes" : {
                        "data" : 0,
                        "gas" : 0,
                        "value" : 0
                    },
                    "logs" : "0x1dcc4de8dec75d7aab85b567b6ccd41ad312451b948a7413f0a142fd40d49347",
                    "txbytes" : "0xf8e601648401ba814094cccccccccccccccccccccccccccccccccccccccc80b884917694f9000000000000000000000000000000000000000000000000000000000000000000000000000000000000000000000000000000000000000000000000000000000000000000000000000000000000000000000000000000000000000000000000000000000000000000000000000000000000000000000000000000000000c0de1ba0adf0ddbadb69c3b8557fa99b210d4772c42a444f5de6a7fb91e7c1181d735a9da016d18914d7574ade8a815641cc17f906b169f1e1574a98a1011e7ee61586ee42"
                },
                {
                    "hash" : "0xb38e54dda90ec62b6f6da601dcd66cccf64279c25e4346f380e390032c3db1f3",
                    "indexes" : {
                        "data" : 2,
                        "gas" : 0,
                        "value" : 0
                    },
                    "logs" : "0x1dcc4de8dec75d7aab85b567b6ccd41ad312451b948a7413f0a142fd40d49347",
                    "txbytes" : "0xf8e601648401ba814094cccccccccccccccccccccccccccccccccccccccc80b884917694f9000000000000000000000000000000000000000000000000000000000000001000000000000000000000000000000000000000000000000000000000000000000000000000000000000000000000000000000000000000000000000000000008000000000000000000000000000000000000000000000000000000000000c0de1ba0daf78bb75513ad3da6d2e74c34810ac9703934caa3edfe9753d3910984c067a2a039720da41942f7287aa4197b3751518e6de606804c26c01d763207a5421065eb"
                },
                {
                    "hash" : "0xb38e54dda90ec62b6f6da601dcd66cccf64279c25e4346f380e390032c3db1f3",
                    "indexes" : {
                        "data" : 3,
                        "gas" : 0,
                        "value" : 0
                    },
                    "logs" : "0x1dcc4de8dec75d7aab85b567b6ccd41ad312451b948a7413f0a142fd40d49347",
                    "txbytes" : "0xf8e601648401ba814094cccccccccccccccccccccccccccccccccccccccc80b884917694f9000000000000000000000000000000000000000000000000000000000000001000000000000000000000000000000000000000000000000000000000000000000000000000000000000000000000000000000000000000000000000000000010000000000000000000000000000000000000000000000000000000000000c0de1ba0b91fcc39231ad3a2795176324c0f4c84cd948a37fccfad365756d98fb63a0572a04969fa9caeaa7f450869c8471471e3e37701219683ea9560fa923c71411c5af5"
                },
                {
                    "hash" : "0x31684659336a2c511ebdc002766a8c38aa27ca2f112bc096f3e546b95bb35d11",
                    "indexes" : {
                        "data" : 5,
                        "gas" : 0,
                        "value" : 0
                    },
                    "logs" : "0x1dcc4de8dec75d7aab85b567b6ccd41ad312451b948a7413f0a142fd40d49347",
                    "txbytes" : "0xf8e601648401ba814094cccccccccccccccccccccccccccccccccccccccc80b884917694f900000000000000000000000000000000000000000000000000000000000000100000000000000000000000000000000000000000000000000000000000000001000000000000000000000000000000000000000000000000000000000000000f000000000000000000000000000000000000000000000000000000000000c0de1ca057b9586ec89142beaf4929fc91f9c65338b0abaa81bc73df0515873aad504b8da0120f483f8a72e3c4b8a19fbb942e130bd9795710a13bb77187e557533738df71"
                },
                {
                    "hash" : "0x31684659336a2c511ebdc002766a8c38aa27ca2f112bc096f3e546b95bb35d11",
                    "indexes" : {
                        "data" : 7,
                        "gas" : 0,
                        "value" : 0
                    },
                    "logs" : "0x1dcc4de8dec75d7aab85b567b6ccd41ad312451b948a7413f0a142fd40d49347",
                    "txbytes" : "0xf8e601648401ba814094cccccccccccccccccccccccccccccccccccccccc80b884917694f9000000000000000000000000000000000000000000000000000000000000001000000000000000000000000000000000000000000000000000000000000000080000000000000000000000000000000000000000000000000000000000000008000000000000000000000000000000000000000000000000000000000000c0de1ca07d7220f9356b0eb03dd324abb93d787681854cdca7743d36920286d166879bd9a04f0affac556101dac5cb30e3d7a092b9eb6c8fbb4aef342823a2b8a00fe335f4"
                },
                {
                    "hash" : "0x74cbfc41dd328b6f0b75061804fb96ed2f6e1caf3812b920df22e81021cda2bc",
                    "indexes" : {
                        "data" : 12,
                        "gas" : 0,
                        "value" : 0
                    },
                    "logs" : "0x1dcc4de8dec75d7aab85b567b6ccd41ad312451b948a7413f0a142fd40d49347",
                    "txbytes" : "0xf8e601648401ba814094cccccccccccccccccccccccccccccccccccccccc80b884917694f90000000000000000000000000000000000000000000000000000000000000000000000000000000000000000000000000000000000000000000000000000000000000000000000000000000000000000000000000000000000000000000000000000000000000000000000000000000000000000000000000000000000000bad1ba01565075c2b5f1631fe7121c6748ced55cf87585cc0a83487832862813fa84ce8a02069ff6ec9aa38287c7f50fe1b74de3a438ae3daebb62a06e17e75419e9c8455"
                },
                {
                    "hash" : "0x39aba0d91b18c423776171ff0fa5b95ba0ff42b27bb5ed8c562e6c8428ac7209",
                    "indexes" : {
                        "data" : 14,
                        "gas" : 0,
                        "value" : 0
                    },
                    "logs" : "0x1dcc4de8dec75d7aab85b567b6ccd41ad312451b948a7413f0a142fd40d49347",
                    "txbytes" : "0xf8e601648401ba814094cccccccccccccccccccccccccccccccccccccccc80b884917694f90000000000000000000000000000000000000000000000000000000000000010000000000000000000000000000000000000000000000000000000000000000000000000000000000000000000000000000000000000000000000000000000080000000000000000000000000000000000000000000000000000000000000bad1ba0b0bc0037dd404f8f5e56964483373171591bfda1e8597dd6e1d6fdb0188f32e1a0425de02f6614043c5ac1f6e8afaa4b77567623b0b9ab22eaefce68f898887e82"
                },
                {
                    "hash" : "0x39aba0d91b18c423776171ff0fa5b95ba0ff42b27bb5ed8c562e6c8428ac7209",
                    "indexes" : {
                        "data" : 15,
                        "gas" : 0,
                        "value" : 0
                    },
                    "logs" : "0x1dcc4de8dec75d7aab85b567b6ccd41ad312451b948a7413f0a142fd40d49347",
                    "txbytes" : "0xf8e601648401ba814094cccccccccccccccccccccccccccccccccccccccc80b884917694f90000000000000000000000000000000000000000000000000000000000000010000000000000000000000000000000000000000000000000000000000000000000000000000000000000000000000000000000000000000000000000000000100000000000000000000000000000000000000000000000000000000000000bad1ca08e7bd340311d5bea2e19b561b990d67bfa7508d5d4b345105d70a298726434a4a056f571b37a614f5ff841cc923907b5c7a2d413bad672852b3e3d1bddada298d1"
                },
                {
                    "hash" : "0x6732aad0e8e38e0ef5f39c460e5ecb8933533bfa4e73e0d727a6dcfff894ef6b",
                    "indexes" : {
                        "data" : 17,
                        "gas" : 0,
                        "value" : 0
                    },
                    "logs" : "0x1dcc4de8dec75d7aab85b567b6ccd41ad312451b948a7413f0a142fd40d49347",
                    "txbytes" : "0xf8e601648401ba814094cccccccccccccccccccccccccccccccccccccccc80b884917694f900000000000000000000000000000000000000000000000000000000000000100000000000000000000000000000000000000000000000000000000000000001000000000000000000000000000000000000000000000000000000000000000f0000000000000000000000000000000000000000000000000000000000000bad1ca011ce097f2ba63f579ff18b61913928fe9ce07c38c0ed6e603f5a258844cfa37ba03e5a8e5794abd9329752e7b5d8a54aa34281187d8051c8b228fc2576dd20fea0"
                },
                {
                    "hash" : "0x6732aad0e8e38e0ef5f39c460e5ecb8933533bfa4e73e0d727a6dcfff894ef6b",
                    "indexes" : {
                        "data" : 19,
                        "gas" : 0,
                        "value" : 0
                    },
                    "logs" : "0x1dcc4de8dec75d7aab85b567b6ccd41ad312451b948a7413f0a142fd40d49347",
                    "txbytes" : "0xf8e601648401ba814094cccccccccccccccccccccccccccccccccccccccc80b884917694f90000000000000000000000000000000000000000000000000000000000000010000000000000000000000000000000000000000000000000000000000000000800000000000000000000000000000000000000000000000000000000000000080000000000000000000000000000000000000000000000000000000000000bad1ca06321c35ea6340fe732e9f378c4b103dc3fea8f348d251737078454b5c72bb704a02b9e19608c33084dfbdd84d697c2d5ce25972d2723890f3da2cf1ea11a9426c3"
                }
            ]
        },
        "pre" : {
            "0x0000000000000000000000000000000000000bad" : {
                "balance" : "0x00",
                "code" : "0x6000357f1f1e1d1c1b1a191817161514131211100f0e0d0c0b0a090807060504030201ff60005280600055806000fd",
                "nonce" : "0x01",
                "storage" : {
                }
            },
            "0x000000000000000000000000000000000000c0de" : {
                "balance" : "0x00",
                "code" : "0x6000357f1f1e1d1c1b1a191817161514131211100f0e0d0c0b0a090807060504030201ff60005280600055806000f3",
                "nonce" : "0x01",
                "storage" : {
                }
            },
            "0xa94f5374fce5edbc8e2a8697c15331677e6ebf0b" : {
                "balance" : "0x3635c9adc5dea00000",
                "code" : "0x",
                "nonce" : "0x01",
                "storage" : {
                }
            },
            "0xcccccccccccccccccccccccccccccccccccccccc" : {
                "balance" : "0x0de0b6b3a7640000",
                "code" : "0x6004356024356044356064358360005261010060006020600080855af182846101003e61c0de3b60200160008061c0de3c3660200160008037386020016000803961dead6000555050505050",
                "nonce" : "0x01",
                "storage" : {
                    "0x00" : "0x60a7"
                }
            }
        },
        "transaction" : {
            "data" : [
                "0x917694f9000000000000000000000000000000000000000000000000000000000000000000000000000000000000000000000000000000000000000000000000000000000000000000000000000000000000000000000000000000000000000000000000000000000000000000000000000000000000000000000000000000000000c0de",
                "0x917694f9000000000000000000000000000000000000000000000000000000000000000000000000000000000000000000000000000000000000000000000000000000000000000000000000000000000000000000000000000000000000000000000001000000000000000000000000000000000000000000000000000000000000c0de",
                "0x917694f9000000000000000000000000000000000000000000000000000000000000001000000000000000000000000000000000000000000000000000000000000000000000000000000000000000000000000000000000000000000000000000000008000000000000000000000000000000000000000000000000000000000000c0de",
                "0x917694f9000000000000000000000000000000000000000000000000000000000000001000000000000000000000000000000000000000000000000000000000000000000000000000000000000000000000000000000000000000000000000000000010000000000000000000000000000000000000000000000000000000000000c0de",
                "0x917694f9000000000000000000000000000000000000000000000000000000000000001000000000000000000000000000000000000000000000000000000000000000000000000000000000000000000000000000000000000000000000000000000011000000000000000000000000000000000000000000000000000000000000c0de",
                "0x917694f900000000000000000000000000000000000000000000000000000000000000100000000000000000000000000000000000000000000000000000000000000001000000000000000000000000000000000000000000000000000000000000000f000000000000000000000000000000000000000000000000000000000000c0de",
                "0x917694f9000000000000000000000000000000000000000000000000000000000000001000000000000000000000000000000000000000000000000000000000000000010000000000000000000000000000000000000000000000000000000000000010000000000000000000000000000000000000000000000000000000000000c0de",
                "0x917694f9000000000000000000000000000000000000000000000000000000000000001000000000000000000000000000000000000000000000000000000000000000080000000000000000000000000000000000000000000000000000000000000008000000000000000000000000000000000000000000000000000000000000c0de",
                "0x917694f9000000000000000000000000000000000000000000000000000000000000001000000000000000000000000000000000000000000000000000000000000000090000000000000000000000000000000000000000000000000000000000000008000000000000000000000000000000000000000000000000000000000000c0de",
                "0x917694f9000000000000000000000000000000000000000000000000000000000000001000000000000000000000000000000000000000000000000000000000000000100000000000000000000000000000000000000000000000000000000000000008000000000000000000000000000000000000000000000000000000000000c0de",
                "0x917694f9000000000000000000000000000000000000000000000000000000000000001000000000000000000000000000000000000000000000000000000000000000100000000000000000000000000000000000000000000000000000000000000010000000000000000000000000000000000000000000000000000000000000c0de",
                "0x917694f9000000000000000000000000000000000000000000000000000000000000001000000000000000000000000000000000000000000000000000000000000000200000000000000000000000000000000000000000000000000000000000000010000000000000000000000000000000000000000000000000000000000000c0de",
                "0x917694f90000000000000000000000000000000000000000000000000000000000000000000000000000000000000000000000000000000000000000000000000000000000000000000000000000000000000000000000000000000000000000000000000000000000000000000000000000000000000000000000000000000000000bad",
                "0x917694f90000000000000000000000000000000000000000000000000000000000000000000000000000000000000000000000000000000000000000000000000000000000000000000000000000000000000000000000000000000000000000000000010000000000000000000000000000000000000000000000000000000000000bad",
                "0x917694f90000000000000000000000000000000000000000000000000000000000000010000000000000000000000000000000000000000000000000000000000000000000000000000000000000000000000000000000000000000000000000000000080000000000000000000000000000000000000000000000000000000000000bad",
                "0x917694f90000000000000000000000000000000000000000000000000000000000000010000000000000000000000000000000000000000000000000000000000000000000000000000000000000000000000000000000000000000000000000000000100000000000000000000000000000000000000000000000000000000000000bad",
                "0x917694f90000000000000000000000000000000000000000000000000000000000000010000000000000000000000000000000000000000000000000000000000000000000000000000000000000000000000000000000000000000000000000000000110000000000000000000000000000000000000000000000000000000000000bad",
                "0x917694f900000000000000000000000000000000000000000000000000000000000000100000000000000000000000000000000000000000000000000000000000000001000000000000000000000000000000000000000000000000000000000000000f0000000000000000000000000000000000000000000000000000000000000bad",
                "0x917694f90000000000000000000000000000000000000000000000000000000000000010000000000000000000000000000000000000000000000000000000000000000100000000000000000000000000000000000000000000000000000000000000100000000000000000000000000000000000000000000000000000000000000bad",
                "0x917694f90000000000000000000000000000000000000000000000000000000000000010000000000000000000000000000000000000000000000000000000000000000800000000000000000000000000000000000000000000000000000000000000080000000000000000000000000000000000000000000000000000000000000bad",
                "0x917694f90000000000000000000000000000000000000000000000000000000000000010000000000000000000000000000000000000000000000000000000000000000900000000000000000000000000000000000000000000000000000000000000080000000000000000000000000000000000000000000000000000000000000bad",
                "0x917694f90000000000000000000000000000000000000000000000000000000000000010000000000000000000000000000000000000000000000000000000000000001000000000000000000000000000000000000000000000000000000000000000080000000000000000000000000000000000000000000000000000000000000bad",
                "0x917694f90000000000000000000000000000000000000000000000000000000000000010000000000000000000000000000000000000000000000000000000000000001000000000000000000000000000000000000000000000000000000000000000100000000000000000000000000000000000000000000000000000000000000bad",
                "0x917694f90000000000000000000000000000000000000000000000000000000000000010000000000000000000000000000000000000000000000000000000000000002000000000000000000000000000000000000000000000000000000000000000100000000000000000000000000000000000000000000000000000000000000bad"
            ],
            "gasLimit" : [
                "0x01ba8140"
            ],
            "gasPrice" : "0x64",
            "nonce" : "0x01",
            "secretKey" : "0x45a915e4d060149eb4365960e6a7a45f334393093061116b197e3240065ff2d8",
            "sender" : "0xa94f5374fce5edbc8e2a8697c15331677e6ebf0b",
            "to" : "0xcccccccccccccccccccccccccccccccccccccccc",
            "value" : [
                "0x00"
            ]
        }
    }
}